{
  "_format": "hh-sol-artifact-1",
  "contractName": "CheddaLoanManager",
  "sourceName": "contracts/lending/LoanManager.sol",
  "abi": [
    {
      "inputs": [
        {
          "internalType": "address",
          "name": "token",
          "type": "address"
        }
      ],
      "stateMutability": "nonpayable",
      "type": "constructor"
    },
    {
      "anonymous": false,
      "inputs": [
        {
          "indexed": true,
          "internalType": "address",
          "name": "by",
          "type": "address"
        },
        {
          "indexed": true,
          "internalType": "address",
          "name": "foreclosedOn",
          "type": "address"
        }
      ],
      "name": "LoanForeclosed",
      "type": "event"
    },
    {
      "anonymous": false,
      "inputs": [
        {
          "indexed": true,
          "internalType": "address",
          "name": "openedByLender",
          "type": "address"
        },
        {
          "indexed": true,
          "internalType": "address",
          "name": "borrower",
          "type": "address"
        },
        {
          "indexed": true,
          "internalType": "uint256",
          "name": "loanRequestId",
          "type": "uint256"
        },
        {
          "indexed": false,
          "internalType": "uint256",
          "name": "amount",
          "type": "uint256"
        }
      ],
      "name": "LoanOpened",
      "type": "event"
    },
    {
      "anonymous": false,
      "inputs": [
        {
          "indexed": true,
          "internalType": "address",
          "name": "repaidByBorrower",
          "type": "address"
        },
        {
          "indexed": true,
          "internalType": "address",
          "name": "lender",
          "type": "address"
        },
        {
          "indexed": false,
          "internalType": "uint256",
          "name": "repaymentAmount",
          "type": "uint256"
        }
      ],
      "name": "LoanRepaid",
      "type": "event"
    },
    {
      "anonymous": false,
      "inputs": [
        {
          "indexed": true,
          "internalType": "address",
          "name": "by",
          "type": "address"
        },
        {
          "indexed": true,
          "internalType": "address",
          "name": "nftContract",
          "type": "address"
        },
        {
          "indexed": true,
          "internalType": "uint256",
          "name": "tokenId",
          "type": "uint256"
        },
        {
          "indexed": false,
          "internalType": "uint256",
          "name": "amount",
          "type": "uint256"
        }
      ],
      "name": "LoanRequested",
      "type": "event"
    },
    {
      "anonymous": false,
      "inputs": [
        {
          "indexed": true,
          "internalType": "address",
          "name": "previousOwner",
          "type": "address"
        },
        {
          "indexed": true,
          "internalType": "address",
          "name": "newOwner",
          "type": "address"
        }
      ],
      "name": "OwnershipTransferred",
      "type": "event"
    },
    {
      "anonymous": false,
      "inputs": [
        {
          "indexed": true,
          "internalType": "address",
          "name": "by",
          "type": "address"
        },
        {
          "indexed": true,
          "internalType": "uint256",
          "name": "requestId",
          "type": "uint256"
        }
      ],
      "name": "RequestCancelled",
      "type": "event"
    },
    {
      "inputs": [
        {
          "internalType": "uint256",
          "name": "principal",
          "type": "uint256"
        },
        {
          "internalType": "uint256",
          "name": "duration",
          "type": "uint256"
        }
      ],
      "name": "calculateRepaymentAmount",
      "outputs": [
        {
          "internalType": "uint256",
          "name": "",
          "type": "uint256"
        }
      ],
      "stateMutability": "view",
      "type": "function"
    },
    {
      "inputs": [
        {
          "internalType": "uint256",
          "name": "requestId",
          "type": "uint256"
        }
      ],
      "name": "cancelRequest",
      "outputs": [],
      "stateMutability": "nonpayable",
      "type": "function"
    },
    {
      "inputs": [
        {
          "internalType": "uint256",
          "name": "loanID",
          "type": "uint256"
        }
      ],
      "name": "foreclose",
      "outputs": [],
      "stateMutability": "nonpayable",
      "type": "function"
    },
    {
      "inputs": [
        {
          "internalType": "address",
          "name": "user",
          "type": "address"
        },
        {
          "internalType": "enum CheddaLoanManager.RequestState",
          "name": "state",
          "type": "uint8"
        }
      ],
      "name": "getLoanRequests",
      "outputs": [
        {
          "components": [
            {
              "internalType": "uint256",
              "name": "requestID",
              "type": "uint256"
            },
            {
              "internalType": "address",
              "name": "nftContract",
              "type": "address"
            },
            {
              "internalType": "uint256",
              "name": "tokenID",
              "type": "uint256"
            },
            {
              "internalType": "uint256",
              "name": "loanLength",
              "type": "uint256"
            },
            {
              "internalType": "address",
              "name": "borrower",
              "type": "address"
            },
            {
              "internalType": "uint256",
              "name": "amount",
              "type": "uint256"
            },
            {
              "internalType": "uint256",
              "name": "repayment",
              "type": "uint256"
            },
            {
              "internalType": "enum CheddaLoanManager.RequestState",
              "name": "state",
              "type": "uint8"
            }
          ],
          "internalType": "struct CheddaLoanManager.LoanRequest[]",
          "name": "",
          "type": "tuple[]"
        }
      ],
      "stateMutability": "view",
      "type": "function"
    },
    {
      "inputs": [
        {
          "internalType": "address",
          "name": "borrower",
          "type": "address"
        },
        {
          "internalType": "enum CheddaLoanManager.LoanState",
          "name": "state",
          "type": "uint8"
        }
      ],
      "name": "getLoansBorrowed",
      "outputs": [
        {
          "components": [
            {
              "internalType": "uint256",
              "name": "loanID",
              "type": "uint256"
            },
            {
              "internalType": "address",
              "name": "nftContract",
              "type": "address"
            },
            {
              "internalType": "uint256",
              "name": "tokenID",
              "type": "uint256"
            },
            {
              "internalType": "uint256",
              "name": "principal",
              "type": "uint256"
            },
            {
              "internalType": "uint256",
              "name": "repaymentAmount",
              "type": "uint256"
            },
            {
              "internalType": "uint256",
              "name": "openedAt",
              "type": "uint256"
            },
            {
              "internalType": "uint256",
              "name": "expiresAt",
              "type": "uint256"
            },
            {
              "internalType": "uint256",
              "name": "closedAt",
              "type": "uint256"
            },
            {
              "internalType": "uint32",
              "name": "interestRate",
              "type": "uint32"
            },
            {
              "internalType": "enum CheddaLoanManager.LoanState",
              "name": "state",
              "type": "uint8"
            },
            {
              "internalType": "address payable",
              "name": "lender",
              "type": "address"
            },
            {
              "internalType": "address payable",
              "name": "borrower",
              "type": "address"
            }
          ],
          "internalType": "struct CheddaLoanManager.Loan[]",
          "name": "",
          "type": "tuple[]"
        }
      ],
      "stateMutability": "view",
      "type": "function"
    },
    {
      "inputs": [
        {
          "internalType": "address",
          "name": "lender",
          "type": "address"
        },
        {
          "internalType": "enum CheddaLoanManager.LoanState",
          "name": "state",
          "type": "uint8"
        }
      ],
      "name": "getLoansLent",
      "outputs": [
        {
          "components": [
            {
              "internalType": "uint256",
              "name": "loanID",
              "type": "uint256"
            },
            {
              "internalType": "address",
              "name": "nftContract",
              "type": "address"
            },
            {
              "internalType": "uint256",
              "name": "tokenID",
              "type": "uint256"
            },
            {
              "internalType": "uint256",
              "name": "principal",
              "type": "uint256"
            },
            {
              "internalType": "uint256",
              "name": "repaymentAmount",
              "type": "uint256"
            },
            {
              "internalType": "uint256",
              "name": "openedAt",
              "type": "uint256"
            },
            {
              "internalType": "uint256",
              "name": "expiresAt",
              "type": "uint256"
            },
            {
              "internalType": "uint256",
              "name": "closedAt",
              "type": "uint256"
            },
            {
              "internalType": "uint32",
              "name": "interestRate",
              "type": "uint32"
            },
            {
              "internalType": "enum CheddaLoanManager.LoanState",
              "name": "state",
              "type": "uint8"
            },
            {
              "internalType": "address payable",
              "name": "lender",
              "type": "address"
            },
            {
              "internalType": "address payable",
              "name": "borrower",
              "type": "address"
            }
          ],
          "internalType": "struct CheddaLoanManager.Loan[]",
          "name": "",
          "type": "tuple[]"
        }
      ],
      "stateMutability": "view",
      "type": "function"
    },
    {
      "inputs": [],
      "name": "interestRate",
      "outputs": [
        {
          "internalType": "uint32",
          "name": "",
          "type": "uint32"
        }
      ],
      "stateMutability": "view",
      "type": "function"
    },
    {
      "inputs": [
        {
          "internalType": "uint256",
          "name": "",
          "type": "uint256"
        }
      ],
      "name": "loans",
      "outputs": [
        {
          "internalType": "uint256",
          "name": "loanID",
          "type": "uint256"
        },
        {
          "internalType": "address",
          "name": "nftContract",
          "type": "address"
        },
        {
          "internalType": "uint256",
          "name": "tokenID",
          "type": "uint256"
        },
        {
          "internalType": "uint256",
          "name": "principal",
          "type": "uint256"
        },
        {
          "internalType": "uint256",
          "name": "repaymentAmount",
          "type": "uint256"
        },
        {
          "internalType": "uint256",
          "name": "openedAt",
          "type": "uint256"
        },
        {
          "internalType": "uint256",
          "name": "expiresAt",
          "type": "uint256"
        },
        {
          "internalType": "uint256",
          "name": "closedAt",
          "type": "uint256"
        },
        {
          "internalType": "uint32",
          "name": "interestRate",
          "type": "uint32"
        },
        {
          "internalType": "enum CheddaLoanManager.LoanState",
          "name": "state",
          "type": "uint8"
        },
        {
          "internalType": "address payable",
          "name": "lender",
          "type": "address"
        },
        {
          "internalType": "address payable",
          "name": "borrower",
          "type": "address"
        }
      ],
      "stateMutability": "view",
      "type": "function"
    },
    {
      "inputs": [
        {
          "internalType": "address",
          "name": "",
          "type": "address"
        },
        {
          "internalType": "address",
          "name": "",
          "type": "address"
        },
        {
          "internalType": "uint256",
          "name": "",
          "type": "uint256"
        },
        {
          "internalType": "bytes",
          "name": "",
          "type": "bytes"
        }
      ],
      "name": "onERC721Received",
      "outputs": [
        {
          "internalType": "bytes4",
          "name": "",
          "type": "bytes4"
        }
      ],
      "stateMutability": "pure",
      "type": "function"
    },
    {
      "inputs": [
        {
          "internalType": "uint256",
          "name": "requestID",
          "type": "uint256"
        }
      ],
      "name": "openLoan",
      "outputs": [],
      "stateMutability": "payable",
      "type": "function"
    },
    {
      "inputs": [
        {
          "internalType": "uint256",
          "name": "requestID",
          "type": "uint256"
        }
      ],
      "name": "openLoanToken",
      "outputs": [],
      "stateMutability": "nonpayable",
      "type": "function"
    },
    {
      "inputs": [
        {
          "internalType": "address",
          "name": "",
          "type": "address"
        },
        {
          "internalType": "uint256",
          "name": "",
          "type": "uint256"
        }
      ],
      "name": "openLoans",
      "outputs": [
        {
          "internalType": "uint256",
          "name": "",
          "type": "uint256"
        }
      ],
      "stateMutability": "view",
      "type": "function"
    },
    {
      "inputs": [
        {
          "internalType": "address",
          "name": "",
          "type": "address"
        },
        {
          "internalType": "uint256",
          "name": "",
          "type": "uint256"
        }
      ],
      "name": "openRequests",
      "outputs": [
        {
          "internalType": "uint256",
          "name": "",
          "type": "uint256"
        }
      ],
      "stateMutability": "view",
      "type": "function"
    },
    {
      "inputs": [],
      "name": "owner",
      "outputs": [
        {
          "internalType": "address",
          "name": "",
          "type": "address"
        }
      ],
      "stateMutability": "view",
      "type": "function"
    },
    {
      "inputs": [],
      "name": "registry",
      "outputs": [
        {
          "internalType": "address",
          "name": "",
          "type": "address"
        }
      ],
      "stateMutability": "view",
      "type": "function"
    },
    {
      "inputs": [],
      "name": "renounceOwnership",
      "outputs": [],
      "stateMutability": "nonpayable",
      "type": "function"
    },
    {
      "inputs": [
        {
          "internalType": "uint256",
          "name": "loanID",
          "type": "uint256"
        }
      ],
      "name": "repay",
      "outputs": [],
      "stateMutability": "payable",
      "type": "function"
    },
    {
      "inputs": [
        {
          "internalType": "uint256",
          "name": "loanID",
          "type": "uint256"
        }
      ],
      "name": "repayToken",
      "outputs": [],
      "stateMutability": "nonpayable",
      "type": "function"
    },
    {
      "inputs": [
        {
          "internalType": "address",
          "name": "nftContract",
          "type": "address"
        },
        {
          "internalType": "uint256",
          "name": "tokenId",
          "type": "uint256"
        },
        {
          "internalType": "uint256",
          "name": "amountRequested",
          "type": "uint256"
        },
        {
          "internalType": "uint256",
          "name": "duration",
          "type": "uint256"
        }
      ],
      "name": "requestLoan",
      "outputs": [],
      "stateMutability": "nonpayable",
      "type": "function"
    },
    {
      "inputs": [
        {
          "internalType": "uint256",
          "name": "",
          "type": "uint256"
        }
      ],
      "name": "requests",
      "outputs": [
        {
          "internalType": "uint256",
          "name": "requestID",
          "type": "uint256"
        },
        {
          "internalType": "address",
          "name": "nftContract",
          "type": "address"
        },
        {
          "internalType": "uint256",
          "name": "tokenID",
          "type": "uint256"
        },
        {
          "internalType": "uint256",
          "name": "loanLength",
          "type": "uint256"
        },
        {
          "internalType": "address",
          "name": "borrower",
          "type": "address"
        },
        {
          "internalType": "uint256",
          "name": "amount",
          "type": "uint256"
        },
        {
          "internalType": "uint256",
          "name": "repayment",
          "type": "uint256"
        },
        {
          "internalType": "enum CheddaLoanManager.RequestState",
          "name": "state",
          "type": "uint8"
        }
      ],
      "stateMutability": "view",
      "type": "function"
    },
    {
      "inputs": [
        {
          "internalType": "bytes4",
          "name": "interfaceId",
          "type": "bytes4"
        }
      ],
      "name": "supportsInterface",
      "outputs": [
        {
          "internalType": "bool",
          "name": "",
          "type": "bool"
        }
      ],
      "stateMutability": "pure",
      "type": "function"
    },
    {
      "inputs": [],
      "name": "tokenAddress",
      "outputs": [
        {
          "internalType": "address",
          "name": "",
          "type": "address"
        }
      ],
      "stateMutability": "view",
      "type": "function"
    },
    {
      "inputs": [],
      "name": "totalLoanValue",
      "outputs": [
        {
          "internalType": "uint256",
          "name": "",
          "type": "uint256"
        }
      ],
      "stateMutability": "view",
      "type": "function"
    },
    {
      "inputs": [
        {
          "internalType": "address",
          "name": "newOwner",
          "type": "address"
        }
      ],
      "name": "transferOwnership",
      "outputs": [],
      "stateMutability": "nonpayable",
      "type": "function"
    },
    {
      "inputs": [
        {
          "internalType": "address",
          "name": "registryAddress",
          "type": "address"
        }
      ],
      "name": "updateRegistry",
      "outputs": [],
      "stateMutability": "nonpayable",
      "type": "function"
    }
  ],
  "bytecode": "0x60806040526005805463ffffffff19166113881790553480156200002257600080fd5b506040516200435f3803806200435f8339810160408190526200004591620005eb565b62000050336200007c565b600380546001600160a01b0319166001600160a01b03831617905562000075620000cc565b506200061b565b600080546001600160a01b038381166001600160a01b0319831681178455604051919092169283917f8be0079c531659141344cd1fd0a4f28419497f9722a3daafe3b4186f6b6457e09190a35050565b60006040518061018001604052806000815260200160006001600160a01b03168152602001600081526020016000815260200160008152602001600081526020016000815260200160008152602001600063ffffffff168152602001600060038111156200014a57634e487b7160e01b600052602160045260246000fd5b815260200160006001600160a01b0316815260200160006001600160a01b03168152509050620001866002620005e260201b620034a71760201c565b6007805460018101825560009190915281517fa66cc928b5edb82af9bd49922954155ab7b0942694bea4ce44661d9a8736c688600a90920291820190815560208301517fa66cc928b5edb82af9bd49922954155ab7b0942694bea4ce44661d9a8736c689830180546001600160a01b0319166001600160a01b0390921691909117905560408301517fa66cc928b5edb82af9bd49922954155ab7b0942694bea4ce44661d9a8736c68a83015560608301517fa66cc928b5edb82af9bd49922954155ab7b0942694bea4ce44661d9a8736c68b83015560808301517fa66cc928b5edb82af9bd49922954155ab7b0942694bea4ce44661d9a8736c68c83015560a08301517fa66cc928b5edb82af9bd49922954155ab7b0942694bea4ce44661d9a8736c68d83015560c08301517fa66cc928b5edb82af9bd49922954155ab7b0942694bea4ce44661d9a8736c68e83015560e08301517fa66cc928b5edb82af9bd49922954155ab7b0942694bea4ce44661d9a8736c68f8301556101008301517fa66cc928b5edb82af9bd49922954155ab7b0942694bea4ce44661d9a8736c690909201805463ffffffff19811663ffffffff9094169384178255610120850151859490929164ffffffffff1916176401000000008360038111156200037b57634e487b7160e01b600052602160045260246000fd5b0217905550610140820151600882018054600160281b600160c81b031916650100000000006001600160a01b039384160217905561016090920151600990910180546001600160a01b031916919092161790556040805161010081018252600080825260208201819052918101829052606081018290526080810182905260a0810182905260c0810182905260e08101828152509050620004286001620005e260201b620034a71760201c565b6006805460018181018355600092909252825160089091027ff652222313e28459528d920b65115c16c04f3efc82aaedc97be59f3f377c0d3f810191825560208401517ff652222313e28459528d920b65115c16c04f3efc82aaedc97be59f3f377c0d40820180546001600160a01b039283166001600160a01b03199182161790915560408601517ff652222313e28459528d920b65115c16c04f3efc82aaedc97be59f3f377c0d4184015560608601517ff652222313e28459528d920b65115c16c04f3efc82aaedc97be59f3f377c0d4284015560808601517ff652222313e28459528d920b65115c16c04f3efc82aaedc97be59f3f377c0d438401805491909316911617905560a08401517ff652222313e28459528d920b65115c16c04f3efc82aaedc97be59f3f377c0d4482015560c08401517ff652222313e28459528d920b65115c16c04f3efc82aaedc97be59f3f377c0d4582015560e08401517ff652222313e28459528d920b65115c16c04f3efc82aaedc97be59f3f377c0d469091018054859460ff1990911690836003811115620005d757634e487b7160e01b600052602160045260246000fd5b021790555050505050565b80546001019055565b600060208284031215620005fd578081fd5b81516001600160a01b038116811462000614578182fd5b9392505050565b613d34806200062b6000396000f3fe6080604052600436106101665760003560e01c80637f48886d116100d15780639fb0f9be1161008a578063da0648b711610064578063da0648b7146104bc578063e1ec3c68146104dc578063e50380e014610514578063f2fde38b1461053457600080fd5b80639fb0f9be14610466578063bd8ff57614610486578063d93ba2c7146104a657600080fd5b80637f48886d1461038757806381d12c58146103b45780638bf1badd146103e85780638da5cb5b1461040857806392c79d12146104265780639d76ea581461044657600080fd5b806354e3e70d1161012357806354e3e70d1461029057806366646ba8146102a3578063715018a6146102db5780637b103999146102f05780637c2de818146103285780637c3a00fd1461035557600080fd5b806301ffc9a71461016b578063150b7a02146101b15780631686fc50146101f55780631a5da6c81461023b5780633015394c1461025d578063371fd8e61461027d575b600080fd5b34801561017757600080fd5b5061019c6101863660046138db565b6001600160e01b031916630a85bd0160e11b1490565b60405190151581526020015b60405180910390f35b3480156101bd57600080fd5b506101dc6101cc366004613745565b630a85bd0160e11b949350505050565b6040516001600160e01b031990911681526020016101a8565b34801561020157600080fd5b5061022d610210366004613856565b600a60209081526000928352604080842090915290825290205481565b6040519081526020016101a8565b34801561024757600080fd5b5061025b610256366004613706565b610554565b005b34801561026957600080fd5b5061025b610278366004613903565b6105a9565b61025b61028b366004613903565b610753565b61025b61029e366004613903565b610a25565b3480156102af57600080fd5b5061022d6102be366004613856565b600960209081526000928352604080842090915290825290205481565b3480156102e757600080fd5b5061025b611097565b3480156102fc57600080fd5b50600854610310906001600160a01b031681565b6040516001600160a01b0390911681526020016101a8565b34801561033457600080fd5b5061034861034336600461381e565b6110cd565b6040516101a89190613985565b34801561036157600080fd5b506005546103729063ffffffff1681565b60405163ffffffff90911681526020016101a8565b34801561039357600080fd5b506103a76103a236600461381e565b61158a565b6040516101a89190613a29565b3480156103c057600080fd5b506103d46103cf366004613903565b611a48565b6040516101a8989796959493929190613b32565b3480156103f457600080fd5b5061025b610403366004613903565b611aad565b34801561041457600080fd5b506000546001600160a01b0316610310565b34801561043257600080fd5b5061025b610441366004613881565b611d11565b34801561045257600080fd5b50600354610310906001600160a01b031681565b34801561047257600080fd5b5061025b610481366004613903565b6122fe565b34801561049257600080fd5b5061025b6104a1366004613903565b61266c565b3480156104b257600080fd5b5061022d60045481565b3480156104c857600080fd5b506103a76104d736600461381e565b612e5b565b3480156104e857600080fd5b506104fc6104f7366004613903565b613319565b6040516101a89c9b9a99989796959493929190613b89565b34801561052057600080fd5b5061022d61052f366004613933565b6133a6565b34801561054057600080fd5b5061025b61054f366004613706565b61340c565b6000546001600160a01b031633146105875760405162461bcd60e51b815260040161057e90613afd565b60405180910390fd5b600880546001600160a01b0319166001600160a01b0392909216919091179055565b60015481106105ed5760405162461bcd60e51b815260206004820152601060248201526f131bd85b8e88125b9d985b1a59081a5960821b604482015260640161057e565b60006006828154811061061057634e487b7160e01b600052603260045260246000fd5b906000526020600020906008020190506106273390565b60048201546001600160a01b0390811691161461067b5760405162461bcd60e51b81526020600482015260126024820152712637b0b71d102737ba103137b93937bbb2b960711b604482015260640161057e565b6001600782015460ff1660038111156106a457634e487b7160e01b600052602160045260246000fd5b146106e75760405162461bcd60e51b81526020600482015260136024820152724c6f616e3a20496e76616c696420737461746560681b604482015260640161057e565b60018101546001600160a01b031660009081526009602090815260408083206002808601548552925280832083905560078401805460ff191690921790915551839133917f1bdb4261b8cc605afbfe72b63a1f1f08ab6eb83dce866bdbed9ba6fc9c74d0049190a35050565b60006007828154811061077657634e487b7160e01b600052603260045260246000fd5b60009182526020909120600a90910201600181015460098201549192506001600160a01b039081169116336001600160a01b0316146107ed5760405162461bcd60e51b81526020600482015260136024820152724c6f616e3a2043616e206e6f7420726570617960681b604482015260640161057e565b81600401543410156108345760405162461bcd60e51b815260206004820152601060248201526f098dec2dc74409cdee840cadcdeeaced60831b604482015260640161057e565b60088201805464ff00000000191664020000000017905542600783015560018201546001600160a01b03166000908152600a6020908152604080832060028601548452909152812081905560038301546004805491929091610897908490613c60565b909155505060088201546004830154604051600160281b9092046001600160a01b0316916108fc82150291906000818181858888f193505050501580156108e2573d6000803e3d6000fd5b50816004015434111561092e57600482015433906108fc906109049034613c60565b6040518115909202916000818181858888f1935050505015801561092c573d6000803e3d6000fd5b505b60098201546002830154604051632142170760e11b81526001600160a01b03848116936342842e0e9361096993309390921691600401613961565b600060405180830381600087803b15801561098357600080fd5b505af1158015610997573d6000803e3d6000fd5b5050506001830154600284015460098501546109c493506001600160a01b039283169230911660006134b0565b6008820154600160281b90046001600160a01b0316336001600160a01b03167ffe3c4f4ff6f11a42f9d84f777002ab405a07fc0075a3504d153b0587f61f460e8460040154604051610a1891815260200190565b60405180910390a3505050565b600060068281548110610a4857634e487b7160e01b600052603260045260246000fd5b6000918252602090912060089091020190506001600782015460ff166003811115610a8357634e487b7160e01b600052602160045260246000fd5b14610ac15760405162461bcd60e51b815260206004820152600e60248201526d2637b0b71d102737ba1037b832b760911b604482015260640161057e565b60078101805460ff1916600317905560018101546001600160a01b0316600033600484015460058501549192506001600160a01b031690341015610b475760405162461bcd60e51b815260206004820152601860248201527f4c6f616e3a20496e73756666696369656e742076616c75650000000000000000604482015260640161057e565b600284015460405163020604bf60e21b81526000916001600160a01b0386169163081812fc91610b7d9160040190815260200190565b60206040518083038186803b158015610b9557600080fd5b505afa158015610ba9573d6000803e3d6000fd5b505050506040513d601f19601f82011682018060405250810190610bcd9190613729565b90506001600160a01b0381163014610c205760405162461bcd60e51b8152602060048201526016602482015275131bd85b8e88139195081b9bdd08185c1c1c9bdd995960521b604482015260640161057e565b6000610c34866005015487600301546133a6565b90506000604051806101800160405280610c4d60025490565b815260018901546001600160a01b031660208201526002890154604082015260058901546060820152608081018490524260a0820181905260038a015460c090920191610c9991613c09565b81526000602082015260055463ffffffff16604082015260600160018152602001866001600160a01b03168152602001856001600160a01b03168152509050866005015460046000828254610cee9190613c09565b90915550506001870180546001600160a01b03908116600090815260096020908152604080832060028d01805485529083528184208490558651955485168452600a835281842081548552909252918290209390935591549151632142170760e11b8152908816916342842e0e91610d6d918891309190600401613961565b600060405180830381600087803b158015610d8757600080fd5b505af1158015610d9b573d6000803e3d6000fd5b50505050610db581602001518260400151863060006134b0565b6040516001600160a01b038516903480156108fc02916000818181858888f19350505050158015610dea573d6000803e3d6000fd5b50610df9600280546001019055565b6007805460018101825560009190915281517fa66cc928b5edb82af9bd49922954155ab7b0942694bea4ce44661d9a8736c688600a90920291820190815560208301517fa66cc928b5edb82af9bd49922954155ab7b0942694bea4ce44661d9a8736c689830180546001600160a01b0319166001600160a01b0390921691909117905560408301517fa66cc928b5edb82af9bd49922954155ab7b0942694bea4ce44661d9a8736c68a83015560608301517fa66cc928b5edb82af9bd49922954155ab7b0942694bea4ce44661d9a8736c68b83015560808301517fa66cc928b5edb82af9bd49922954155ab7b0942694bea4ce44661d9a8736c68c83015560a08301517fa66cc928b5edb82af9bd49922954155ab7b0942694bea4ce44661d9a8736c68d83015560c08301517fa66cc928b5edb82af9bd49922954155ab7b0942694bea4ce44661d9a8736c68e83015560e08301517fa66cc928b5edb82af9bd49922954155ab7b0942694bea4ce44661d9a8736c68f8301556101008301517fa66cc928b5edb82af9bd49922954155ab7b0942694bea4ce44661d9a8736c690909201805463ffffffff19811663ffffffff9094169384178255610120850151859490929164ffffffffff191617600160201b836003811115610fec57634e487b7160e01b600052602160045260246000fd5b021790555061014082015160088201805465010000000000600160c81b031916600160281b6001600160a01b039384160217905561016090920151600990910180546001600160a01b0319169183169190911790558754908516336001600160a01b03167f38b51813c240c8203eeb63b34adbe528d4239a2424c3eb3ff5b67a2fb979bede8a6005015460405161108591815260200190565b60405180910390a45050505050505050565b6000546001600160a01b031633146110c15760405162461bcd60e51b815260040161057e90613afd565b6110cb60006135b2565b565b6060600060015b6006548110156111e65760006006828154811061110157634e487b7160e01b600052603260045260246000fd5b6000918252602090912060089091020160048101549091506001600160a01b038781169116148061113957506001600160a01b038616155b156111d357600085600381111561116057634e487b7160e01b600052602160045260246000fd5b1415611178578261117081613c77565b9350506111d3565b600781015460ff16600381111561119f57634e487b7160e01b600052602160045260246000fd5b8560038111156111bf57634e487b7160e01b600052602160045260246000fd5b14156111d357826111cf81613c77565b9350505b50806111de81613c77565b9150506110d4565b5060008167ffffffffffffffff81111561121057634e487b7160e01b600052604160045260246000fd5b60405190808252806020026020018201604052801561124957816020015b611236613602565b81526020019060019003908161122e5790505b509050600060015b60065481101561157f5760006006828154811061127e57634e487b7160e01b600052603260045260246000fd5b6000918252602090912060089091020160048101549091506001600160a01b03898116911614806112b657506001600160a01b038816155b1561156c5760008760038111156112dd57634e487b7160e01b600052602160045260246000fd5b1415611403576006828154811061130457634e487b7160e01b600052603260045260246000fd5b6000918252602091829020604080516101008101825260089093029091018054835260018101546001600160a01b0390811694840194909452600281015491830191909152600380820154606084015260048201549093166080830152600581015460a0830152600681015460c083015260078101549192909160e084019160ff909116908111156113a657634e487b7160e01b600052602160045260246000fd5b60038111156113c557634e487b7160e01b600052602160045260246000fd5b90525084846113d381613c77565b9550815181106113f357634e487b7160e01b600052603260045260246000fd5b602002602001018190525061156c565b600781015460ff16600381111561142a57634e487b7160e01b600052602160045260246000fd5b87600381111561144a57634e487b7160e01b600052602160045260246000fd5b141561156c576006828154811061147157634e487b7160e01b600052603260045260246000fd5b6000918252602091829020604080516101008101825260089093029091018054835260018101546001600160a01b0390811694840194909452600281015491830191909152600380820154606084015260048201549093166080830152600581015460a0830152600681015460c083015260078101549192909160e084019160ff9091169081111561151357634e487b7160e01b600052602160045260246000fd5b600381111561153257634e487b7160e01b600052602160045260246000fd5b905250848461154081613c77565b95508151811061156057634e487b7160e01b600052603260045260246000fd5b60200260200101819052505b508061157781613c77565b915050611251565b509095945050505050565b6060600060015b60075481101561178d576000600782815481106115be57634e487b7160e01b600052603260045260246000fd5b60009182526020918290206040805161018081018252600a939093029091018054835260018101546001600160a01b031693830193909352600283015490820152600380830154606083015260048301546080830152600583015460a0830152600683015460c0830152600783015460e0830152600883015463ffffffff8116610100840152919291610120840191600160201b90910460ff169081111561167657634e487b7160e01b600052602160045260246000fd5b600381111561169557634e487b7160e01b600052602160045260246000fd5b81526008820154600160281b90046001600160a01b0390811660208301526009909201548216604090910152610140820151919250878116911614806116e257506001600160a01b038616155b1561177a57600085600381111561170957634e487b7160e01b600052602160045260246000fd5b1415611721578261171981613c77565b93505061177a565b806101200151600381111561174657634e487b7160e01b600052602160045260246000fd5b85600381111561176657634e487b7160e01b600052602160045260246000fd5b141561177a578261177681613c77565b9350505b508061178581613c77565b915050611591565b5060008167ffffffffffffffff8111156117b757634e487b7160e01b600052604160045260246000fd5b6040519080825280602002602001820160405280156117f057816020015b6117dd613677565b8152602001906001900390816117d55790505b509050600060015b60075481101561157f5760006007828154811061182557634e487b7160e01b600052603260045260246000fd5b60009182526020918290206040805161018081018252600a939093029091018054835260018101546001600160a01b031693830193909352600283015490820152600380830154606083015260048301546080830152600583015460a0830152600683015460c0830152600783015460e0830152600883015463ffffffff8116610100840152919291610120840191600160201b90910460ff16908111156118dd57634e487b7160e01b600052602160045260246000fd5b60038111156118fc57634e487b7160e01b600052602160045260246000fd5b81526008820154600160281b90046001600160a01b03908116602083015260099092015482166040909101526101408201519192508981169116148061194957506001600160a01b038816155b15611a3557600087600381111561197057634e487b7160e01b600052602160045260246000fd5b14156119b25780848461198281613c77565b9550815181106119a257634e487b7160e01b600052603260045260246000fd5b6020026020010181905250611a35565b80610120015160038111156119d757634e487b7160e01b600052602160045260246000fd5b8760038111156119f757634e487b7160e01b600052602160045260246000fd5b1415611a3557808484611a0981613c77565b955081518110611a2957634e487b7160e01b600052603260045260246000fd5b60200260200101819052505b5080611a4081613c77565b9150506117f8565b60068181548110611a5857600080fd5b6000918252602090912060089091020180546001820154600283015460038401546004850154600586015460068701546007909701549597506001600160a01b03948516969395929490911692909160ff1688565b600060078281548110611ad057634e487b7160e01b600052603260045260246000fd5b60009182526020909120600a90910201905060016008820154600160201b900460ff166003811115611b1257634e487b7160e01b600052602160045260246000fd5b148015611b225750428160060154105b611b645760405162461bcd60e51b81526020600482015260136024820152724c6f616e3a20496e76616c696420737461746560681b604482015260640161057e565b6008810154600160281b90046001600160a01b0316336001600160a01b031614611bc35760405162461bcd60e51b815260206004820152601060248201526f2637b0b71d102737ba103632b73232b960811b604482015260640161057e565b600181015460088201805464ff0000000019166403000000001790554260078301556001600160a01b03166000818152600a6020908152604080832060028601548452909152812081905560038301546004805491929091611c26908490613c60565b909155505060088201546002830154604051632142170760e11b81526001600160a01b03808516936342842e0e93611c6e933093600160281b90930490921691600401613961565b600060405180830381600087803b158015611c8857600080fd5b505af1158015611c9c573d6000803e3d6000fd5b505050600183015460028401546008850154611cd093506001600160a01b03928316923091600160281b90041660006134b0565b60098201546040516001600160a01b039091169033907fc0b5b9e5198c2a6b0f14769c87a94436bac6e75fb5328d3d1bcab15214c5458390600090a3505050565b60405163020604bf60e21b81526004810184905284908490829030906001600160a01b0383169063081812fc9060240160206040518083038186803b158015611d5957600080fd5b505afa158015611d6d573d6000803e3d6000fd5b505050506040513d601f19601f82011682018060405250810190611d919190613729565b6001600160a01b031614611ddc5760405162461bcd60e51b8152602060048201526012602482015271131bd85b8e88139bdd08185c1c1c9bdd995960721b604482015260640161057e565b6001600160a01b038716611e2a5760405162461bcd60e51b81526020600482015260156024820152744c6f616e3a20496e76616c6964206164647265737360581b604482015260640161057e565b600084118015611e3d57506276a7008411155b611e825760405162461bcd60e51b81526020600482015260166024820152752637b0b71d1024b73b30b634b210323ab930ba34b7b760511b604482015260640161057e565b60008511611ed25760405162461bcd60e51b815260206004820152601960248201527f4c6f616e3a20496e76616c6964206c6f616e20616d6f756e7400000000000000604482015260640161057e565b86336040516331a9108f60e11b8152600481018990526001600160a01b0391821691831690636352211e9060240160206040518083038186803b158015611f1857600080fd5b505afa158015611f2c573d6000803e3d6000fd5b505050506040513d601f19601f82011682018060405250810190611f509190613729565b6001600160a01b031614611f985760405162461bcd60e51b815260206004820152600f60248201526e2637b0b71d102737ba1037bbb732b960891b604482015260640161057e565b60405163020604bf60e21b81526004810188905230906001600160a01b0383169063081812fc9060240160206040518083038186803b158015611fda57600080fd5b505afa158015611fee573d6000803e3d6000fd5b505050506040513d601f19601f820116820180604052508101906120129190613729565b6001600160a01b03161461205d5760405162461bcd60e51b81526020600482015260126024820152714c6f616e3a204d75737420617070726f766560701b604482015260640161057e565b600061206987876133a6565b9050600060405180610100016040528061208260015490565b81526020018b6001600160a01b031681526020018a81526020018881526020016120a93390565b6001600160a01b03168152602081018a90526040810184905260600160019052600680546001808201835560009290925282517ff652222313e28459528d920b65115c16c04f3efc82aaedc97be59f3f377c0d3f600890920291820190815560208401517ff652222313e28459528d920b65115c16c04f3efc82aaedc97be59f3f377c0d40830180546001600160a01b03199081166001600160a01b039384161790915560408601517ff652222313e28459528d920b65115c16c04f3efc82aaedc97be59f3f377c0d4185015560608601517ff652222313e28459528d920b65115c16c04f3efc82aaedc97be59f3f377c0d4285015560808601517ff652222313e28459528d920b65115c16c04f3efc82aaedc97be59f3f377c0d4385018054909216921691909117905560a08401517ff652222313e28459528d920b65115c16c04f3efc82aaedc97be59f3f377c0d4483015560c08401517ff652222313e28459528d920b65115c16c04f3efc82aaedc97be59f3f377c0d4583015560e08401517ff652222313e28459528d920b65115c16c04f3efc82aaedc97be59f3f377c0d46909201805494955085949193909160ff19169083600381111561227f57634e487b7160e01b600052602160045260246000fd5b02179055505050612294600180546001019055565b80516001600160a01b038b1660008181526009602090815260408083208e845282529182902093909355518a81528b9233917f8ca033dfe8ac84b6e3e48aa36967e19d52a93a3f4d880ce8005fd4e04c97c94d91015b60405180910390a450505050505050505050565b60006007828154811061232157634e487b7160e01b600052603260045260246000fd5b60009182526020909120600354600a90920201600181015460098201549193506001600160a01b03928316929081169116336001600160a01b03161461239f5760405162461bcd60e51b81526020600482015260136024820152724c6f616e3a2043616e206e6f7420726570617960681b604482015260640161057e565b6004838101546009850154604051636eb1769f60e11b81526001600160a01b039182169381019390935230602484015290919084169063dd62ed3e9060440160206040518083038186803b1580156123f657600080fd5b505afa15801561240a573d6000803e3d6000fd5b505050506040513d601f19601f8201168201806040525081019061242e919061391b565b10156124705760405162461bcd60e51b8152602060048201526011602482015270131bd85b8e88139bdd08185b1b1bddd959607a1b604482015260640161057e565b60088301805464ff00000000191664020000000017905542600784015560018301546001600160a01b03166000908152600a60209081526040808320600287015484529091528120819055600384015460048054919290916124d3908490613c60565b9091555050600983015460088401546004808601546040516323b872dd60e01b81526001600160a01b03808816956323b872dd956125219591831694600160281b9091049092169201613961565b602060405180830381600087803b15801561253b57600080fd5b505af115801561254f573d6000803e3d6000fd5b505050506040513d601f19601f8201168201806040525081019061257391906138bb565b5060098301546002840154604051632142170760e11b81526001600160a01b03848116936342842e0e936125af93309390921691600401613961565b600060405180830381600087803b1580156125c957600080fd5b505af11580156125dd573d6000803e3d6000fd5b50505060018401546002850154600986015461260a93506001600160a01b039283169230911660006134b0565b6008830154600160281b90046001600160a01b0316336001600160a01b03167ffe3c4f4ff6f11a42f9d84f777002ab405a07fc0075a3504d153b0587f61f460e856004015460405161265e91815260200190565b60405180910390a350505050565b60006006828154811061268f57634e487b7160e01b600052603260045260246000fd5b6000918252602090912060089091020190506001600782015460ff1660038111156126ca57634e487b7160e01b600052602160045260246000fd5b146127085760405162461bcd60e51b815260206004820152600e60248201526d2637b0b71d102737ba1037b832b760911b604482015260640161057e565b60035460018201546001600160a01b03918216911660003360048581015460058701546040516370a0823160e01b81526001600160a01b03808616948201949094529394509082169290918616906370a082319060240160206040518083038186803b15801561277757600080fd5b505afa15801561278b573d6000803e3d6000fd5b505050506040513d601f19601f820116820180604052508101906127af919061391b565b10156127fd5760405162461bcd60e51b815260206004820152601a60248201527f4c6f616e3a20496e73756666696369656e742062616c616e6365000000000000604482015260640161057e565b604051636eb1769f60e11b81526001600160a01b0383811660048301523060248301526000919086169063dd62ed3e9060440160206040518083038186803b15801561284857600080fd5b505afa15801561285c573d6000803e3d6000fd5b505050506040513d601f19601f82011682018060405250810190612880919061391b565b905085600501548110156128cb5760405162461bcd60e51b8152602060048201526012602482015271131bd85b8e88139bdd08185c1c1c9bdd995960721b604482015260640161057e565b600286015460405163020604bf60e21b81526000916001600160a01b0387169163081812fc916129019160040190815260200190565b60206040518083038186803b15801561291957600080fd5b505afa15801561292d573d6000803e3d6000fd5b505050506040513d601f19601f820116820180604052508101906129519190613729565b90506001600160a01b03811630146129a45760405162461bcd60e51b8152602060048201526016602482015275131bd85b8e88139195081b9bdd08185c1c1c9bdd995960521b604482015260640161057e565b60006129b8886005015489600301546133a6565b905060006040518061018001604052806129d160025490565b815260018b01546001600160a01b0316602082015260028b0154604082015260058b01546060820152608081018490524260a0820181905260038c015460c090920191612a1d91613c09565b81526000602082015260055463ffffffff16604082015260600160018152602001876001600160a01b03168152602001866001600160a01b03168152509050886005015460046000828254612a729190613c09565b90915550506001890180546001600160a01b03908116600090815260096020908152604080832060028f01805485529083528184208490558651955485168452600a83528184209054845290915290209190915588166323b872dd33878c600501546040518463ffffffff1660e01b8152600401612af293929190613961565b602060405180830381600087803b158015612b0c57600080fd5b505af1158015612b20573d6000803e3d6000fd5b505050506040513d601f19601f82011682018060405250810190612b4491906138bb565b506002890154604051632142170760e11b81526001600160a01b038916916342842e0e91612b79918991309190600401613961565b600060405180830381600087803b158015612b9357600080fd5b505af1158015612ba7573d6000803e3d6000fd5b50505050612bc181602001518260400151873060006134b0565b612bcf600280546001019055565b6007805460018101825560009190915281517fa66cc928b5edb82af9bd49922954155ab7b0942694bea4ce44661d9a8736c688600a90920291820190815560208301517fa66cc928b5edb82af9bd49922954155ab7b0942694bea4ce44661d9a8736c689830180546001600160a01b0319166001600160a01b0390921691909117905560408301517fa66cc928b5edb82af9bd49922954155ab7b0942694bea4ce44661d9a8736c68a83015560608301517fa66cc928b5edb82af9bd49922954155ab7b0942694bea4ce44661d9a8736c68b83015560808301517fa66cc928b5edb82af9bd49922954155ab7b0942694bea4ce44661d9a8736c68c83015560a08301517fa66cc928b5edb82af9bd49922954155ab7b0942694bea4ce44661d9a8736c68d83015560c08301517fa66cc928b5edb82af9bd49922954155ab7b0942694bea4ce44661d9a8736c68e83015560e08301517fa66cc928b5edb82af9bd49922954155ab7b0942694bea4ce44661d9a8736c68f8301556101008301517fa66cc928b5edb82af9bd49922954155ab7b0942694bea4ce44661d9a8736c690909201805463ffffffff19811663ffffffff9094169384178255610120850151859490929164ffffffffff191617600160201b836003811115612dc257634e487b7160e01b600052602160045260246000fd5b021790555061014082015160088201805465010000000000600160c81b031916600160281b6001600160a01b039384160217905561016090920151600990910180546001600160a01b0319169183169190911790558954908616336001600160a01b03167f38b51813c240c8203eeb63b34adbe528d4239a2424c3eb3ff5b67a2fb979bede8c600501546040516122ea91815260200190565b6060600060015b60075481101561305e57600060078281548110612e8f57634e487b7160e01b600052603260045260246000fd5b60009182526020918290206040805161018081018252600a939093029091018054835260018101546001600160a01b031693830193909352600283015490820152600380830154606083015260048301546080830152600583015460a0830152600683015460c0830152600783015460e0830152600883015463ffffffff8116610100840152919291610120840191600160201b90910460ff1690811115612f4757634e487b7160e01b600052602160045260246000fd5b6003811115612f6657634e487b7160e01b600052602160045260246000fd5b81526008820154600160281b90046001600160a01b039081166020830152600990920154821660409091015261016082015191925087811691161480612fb357506001600160a01b038616155b1561304b576000856003811115612fda57634e487b7160e01b600052602160045260246000fd5b1415612ff25782612fea81613c77565b93505061304b565b806101200151600381111561301757634e487b7160e01b600052602160045260246000fd5b85600381111561303757634e487b7160e01b600052602160045260246000fd5b141561304b578261304781613c77565b9350505b508061305681613c77565b915050612e62565b5060008167ffffffffffffffff81111561308857634e487b7160e01b600052604160045260246000fd5b6040519080825280602002602001820160405280156130c157816020015b6130ae613677565b8152602001906001900390816130a65790505b509050600060015b60075481101561157f576000600782815481106130f657634e487b7160e01b600052603260045260246000fd5b60009182526020918290206040805161018081018252600a939093029091018054835260018101546001600160a01b031693830193909352600283015490820152600380830154606083015260048301546080830152600583015460a0830152600683015460c0830152600783015460e0830152600883015463ffffffff8116610100840152919291610120840191600160201b90910460ff16908111156131ae57634e487b7160e01b600052602160045260246000fd5b60038111156131cd57634e487b7160e01b600052602160045260246000fd5b81526008820154600160281b90046001600160a01b03908116602083015260099092015482166040909101526101608201519192508981169116148061321a57506001600160a01b038816155b1561330657600087600381111561324157634e487b7160e01b600052602160045260246000fd5b14156132835780848461325381613c77565b95508151811061327357634e487b7160e01b600052603260045260246000fd5b6020026020010181905250613306565b80610120015160038111156132a857634e487b7160e01b600052602160045260246000fd5b8760038111156132c857634e487b7160e01b600052602160045260246000fd5b1415613306578084846132da81613c77565b9550815181106132fa57634e487b7160e01b600052603260045260246000fd5b60200260200101819052505b508061331181613c77565b9150506130c9565b6007818154811061332957600080fd5b60009182526020909120600a909102018054600182015460028301546003840154600485015460058601546006870154600788015460088901546009909901549799506001600160a01b039687169895979496939592949193909263ffffffff81169260ff600160201b83041692600160281b909204821691168c565b600080620151806133b961016d85613c21565b6005546064906133cf9063ffffffff1688613c41565b6133d99190613c21565b6133e39190613c41565b6133ed9190613c21565b90506133fa606482613c21565b6134049085613c09565b949350505050565b6000546001600160a01b031633146134365760405162461bcd60e51b815260040161057e90613afd565b6001600160a01b03811661349b5760405162461bcd60e51b815260206004820152602660248201527f4f776e61626c653a206e6577206f776e657220697320746865207a65726f206160448201526564647265737360d01b606482015260840161057e565b6134a4816135b2565b50565b80546001019055565b6008546040805163276aafbd60e21b815290516000926001600160a01b031691639daabef4916004808301926020929190829003018186803b1580156134f557600080fd5b505afa158015613509573d6000803e3d6000fd5b505050506040513d601f19601f8201168201806040525081019061352d9190613729565b6040516350d340e760e11b81526001600160a01b0388811660048301526024820188905286811660448301528581166064830152608482018590529192509082169063a1a681ce9060a401600060405180830381600087803b15801561359257600080fd5b505af11580156135a6573d6000803e3d6000fd5b50505050505050505050565b600080546001600160a01b038381166001600160a01b0319831681178455604051919092169283917f8be0079c531659141344cd1fd0a4f28419497f9722a3daafe3b4186f6b6457e09190a35050565b6040518061010001604052806000815260200160006001600160a01b03168152602001600081526020016000815260200160006001600160a01b0316815260200160008152602001600081526020016000600381111561367257634e487b7160e01b600052602160045260246000fd5b905290565b6040518061018001604052806000815260200160006001600160a01b03168152602001600081526020016000815260200160008152602001600081526020016000815260200160008152602001600063ffffffff168152602001600060038111156136f257634e487b7160e01b600052602160045260246000fd5b815260006020820181905260409091015290565b600060208284031215613717578081fd5b813561372281613cdc565b9392505050565b60006020828403121561373a578081fd5b815161372281613cdc565b6000806000806080858703121561375a578283fd5b843561376581613cdc565b9350602085013561377581613cdc565b925060408501359150606085013567ffffffffffffffff80821115613798578283fd5b818701915087601f8301126137ab578283fd5b8135818111156137bd576137bd613ca8565b604051601f8201601f19908116603f011681019083821181831017156137e5576137e5613ca8565b816040528281528a60208487010111156137fd578586fd5b82602086016020830137918201602001949094529598949750929550505050565b60008060408385031215613830578182fd5b823561383b81613cdc565b9150602083013561384b81613cf1565b809150509250929050565b60008060408385031215613868578182fd5b823561387381613cdc565b946020939093013593505050565b60008060008060808587031215613896578384fd5b84356138a181613cdc565b966020860135965060408601359560600135945092505050565b6000602082840312156138cc578081fd5b81518015158114613722578182fd5b6000602082840312156138ec578081fd5b81356001600160e01b031981168114613722578182fd5b600060208284031215613914578081fd5b5035919050565b60006020828403121561392c578081fd5b5051919050565b60008060408385031215613945578182fd5b50508035926020909101359150565b61395d81613cbe565b9052565b6001600160a01b039384168152919092166020820152604081019190915260600190565b602080825282518282018190526000919060409081850190868401855b82811015613a1c57815180518552868101516001600160a01b03908116888701528682015187870152606080830151908701526080808301519091169086015260a0808201519086015260c0808201519086015260e09081015190613a0682613cbe565b85015261010090930192908501906001016139a2565b5091979650505050505050565b602080825282518282018190526000919060409081850190868401855b82811015613a1c57815180518552868101516001600160a01b0316878601528581015186860152606080820151908601526080808201519086015260a0808201519086015260c0808201519086015260e080820151908601526101008082015163ffffffff169086015261012080820151613ac382880182613954565b5050610140818101516001600160a01b03908116918701919091526101609182015116908501526101809093019290850190600101613a46565b6020808252818101527f4f776e61626c653a2063616c6c6572206973206e6f7420746865206f776e6572604082015260600190565b8881526001600160a01b03888116602083015260408201889052606082018790528516608082015260a0810184905260c081018390526101008101613b7683613cbe565b8260e08301529998505050505050505050565b6000610180820190508d825260018060a01b03808e1660208401528c60408401528b60608401528a60808401528960a08401528860c08401528760e084015263ffffffff8716610100840152613bde86613cbe565b85610120840152808516610140840152808416610160840152509d9c50505050505050505050505050565b60008219821115613c1c57613c1c613c92565b500190565b600082613c3c57634e487b7160e01b81526012600452602481fd5b500490565b6000816000190483118215151615613c5b57613c5b613c92565b500290565b600082821015613c7257613c72613c92565b500390565b6000600019821415613c8b57613c8b613c92565b5060010190565b634e487b7160e01b600052601160045260246000fd5b634e487b7160e01b600052604160045260246000fd5b600481106134a457634e487b7160e01b600052602160045260246000fd5b6001600160a01b03811681146134a457600080fd5b600481106134a457600080fdfea264697066735822122095ad7b60d98f82ae58a7c291cf00eed76fab9ee1c8549ca5b2063ff8a505e3e964736f6c63430008040033",
  "linkReferences": {},
  "deployedLinkReferences": {}
}