{
  "_format": "hh-sol-artifact-1",
  "contractName": "CheddaDappStore",
  "sourceName": "contracts/dappstore/CheddaDappStore.sol",
  "abi": [
    {
      "inputs": [],
      "name": "DappNotFound",
      "type": "error"
    },
    {
      "anonymous": false,
      "inputs": [
        {
          "indexed": true,
          "internalType": "string",
          "name": "name",
          "type": "string"
        },
        {
          "indexed": true,
          "internalType": "address",
          "name": "contractAddress",
          "type": "address"
        }
      ],
      "name": "DappAdded",
      "type": "event"
    },
    {
      "anonymous": false,
      "inputs": [
        {
          "indexed": true,
          "internalType": "string",
          "name": "name",
          "type": "string"
        },
        {
          "indexed": true,
          "internalType": "address",
          "name": "contractAddress",
          "type": "address"
        }
      ],
      "name": "DappRemoved",
      "type": "event"
    },
    {
      "anonymous": false,
      "inputs": [
        {
          "indexed": true,
          "internalType": "address",
          "name": "previousOwner",
          "type": "address"
        },
        {
          "indexed": true,
          "internalType": "address",
          "name": "newOwner",
          "type": "address"
        }
      ],
      "name": "OwnershipTransferred",
      "type": "event"
    },
    {
      "inputs": [
        {
          "internalType": "address",
          "name": "",
          "type": "address"
        }
      ],
      "name": "_dapps",
      "outputs": [
        {
          "internalType": "uint16",
          "name": "index",
          "type": "uint16"
        },
        {
          "internalType": "string",
          "name": "name",
          "type": "string"
        },
        {
          "internalType": "uint64",
          "name": "chainID",
          "type": "uint64"
        },
        {
          "internalType": "address",
          "name": "contractAddress",
          "type": "address"
        },
        {
          "internalType": "string",
          "name": "metadataURI",
          "type": "string"
        },
        {
          "internalType": "bool",
          "name": "isFeatured",
          "type": "bool"
        },
        {
          "internalType": "uint256",
          "name": "listed",
          "type": "uint256"
        },
        {
          "internalType": "uint256",
          "name": "updated",
          "type": "uint256"
        }
      ],
      "stateMutability": "view",
      "type": "function"
    },
    {
      "inputs": [
        {
          "internalType": "string",
          "name": "name",
          "type": "string"
        },
        {
          "internalType": "uint64",
          "name": "chainId",
          "type": "uint64"
        },
        {
          "internalType": "address",
          "name": "contractAddress",
          "type": "address"
        },
        {
          "internalType": "string",
          "name": "category",
          "type": "string"
        },
        {
          "internalType": "string",
          "name": "uri",
          "type": "string"
        }
      ],
      "name": "addDapp",
      "outputs": [],
      "stateMutability": "nonpayable",
      "type": "function"
    },
    {
      "inputs": [
        {
          "internalType": "address",
          "name": "contractAddress",
          "type": "address"
        },
        {
          "internalType": "address",
          "name": "admin",
          "type": "address"
        }
      ],
      "name": "addDappAdmin",
      "outputs": [],
      "stateMutability": "nonpayable",
      "type": "function"
    },
    {
      "inputs": [
        {
          "internalType": "string",
          "name": "",
          "type": "string"
        },
        {
          "internalType": "uint256",
          "name": "",
          "type": "uint256"
        }
      ],
      "name": "categories",
      "outputs": [
        {
          "internalType": "address",
          "name": "",
          "type": "address"
        }
      ],
      "stateMutability": "view",
      "type": "function"
    },
    {
      "inputs": [],
      "name": "dapps",
      "outputs": [
        {
          "components": [
            {
              "internalType": "uint16",
              "name": "index",
              "type": "uint16"
            },
            {
              "internalType": "string",
              "name": "name",
              "type": "string"
            },
            {
              "internalType": "uint64",
              "name": "chainID",
              "type": "uint64"
            },
            {
              "internalType": "address",
              "name": "contractAddress",
              "type": "address"
            },
            {
              "internalType": "string",
              "name": "metadataURI",
              "type": "string"
            },
            {
              "internalType": "bool",
              "name": "isFeatured",
              "type": "bool"
            },
            {
              "internalType": "uint256",
              "name": "listed",
              "type": "uint256"
            },
            {
              "internalType": "uint256",
              "name": "updated",
              "type": "uint256"
            }
          ],
          "internalType": "struct Dapp[]",
          "name": "",
          "type": "tuple[]"
        }
      ],
      "stateMutability": "view",
      "type": "function"
    },
    {
      "inputs": [
        {
          "internalType": "string",
          "name": "category",
          "type": "string"
        }
      ],
      "name": "dappsInCategory",
      "outputs": [
        {
          "components": [
            {
              "components": [
                {
                  "internalType": "uint16",
                  "name": "index",
                  "type": "uint16"
                },
                {
                  "internalType": "string",
                  "name": "name",
                  "type": "string"
                },
                {
                  "internalType": "uint64",
                  "name": "chainID",
                  "type": "uint64"
                },
                {
                  "internalType": "address",
                  "name": "contractAddress",
                  "type": "address"
                },
                {
                  "internalType": "string",
                  "name": "metadataURI",
                  "type": "string"
                },
                {
                  "internalType": "bool",
                  "name": "isFeatured",
                  "type": "bool"
                },
                {
                  "internalType": "uint256",
                  "name": "listed",
                  "type": "uint256"
                },
                {
                  "internalType": "uint256",
                  "name": "updated",
                  "type": "uint256"
                }
              ],
              "internalType": "struct Dapp",
              "name": "dapp",
              "type": "tuple"
            },
            {
              "components": [
                {
                  "internalType": "uint256",
                  "name": "averageRating",
                  "type": "uint256"
                },
                {
                  "internalType": "uint256",
                  "name": "numberOfRatings",
                  "type": "uint256"
                }
              ],
              "internalType": "struct DappRating",
              "name": "rating",
              "type": "tuple"
            }
          ],
          "internalType": "struct DappWithRating[]",
          "name": "",
          "type": "tuple[]"
        }
      ],
      "stateMutability": "view",
      "type": "function"
    },
    {
      "inputs": [],
      "name": "dappsWithRatings",
      "outputs": [
        {
          "components": [
            {
              "components": [
                {
                  "internalType": "uint16",
                  "name": "index",
                  "type": "uint16"
                },
                {
                  "internalType": "string",
                  "name": "name",
                  "type": "string"
                },
                {
                  "internalType": "uint64",
                  "name": "chainID",
                  "type": "uint64"
                },
                {
                  "internalType": "address",
                  "name": "contractAddress",
                  "type": "address"
                },
                {
                  "internalType": "string",
                  "name": "metadataURI",
                  "type": "string"
                },
                {
                  "internalType": "bool",
                  "name": "isFeatured",
                  "type": "bool"
                },
                {
                  "internalType": "uint256",
                  "name": "listed",
                  "type": "uint256"
                },
                {
                  "internalType": "uint256",
                  "name": "updated",
                  "type": "uint256"
                }
              ],
              "internalType": "struct Dapp",
              "name": "dapp",
              "type": "tuple"
            },
            {
              "components": [
                {
                  "internalType": "uint256",
                  "name": "averageRating",
                  "type": "uint256"
                },
                {
                  "internalType": "uint256",
                  "name": "numberOfRatings",
                  "type": "uint256"
                }
              ],
              "internalType": "struct DappRating",
              "name": "rating",
              "type": "tuple"
            }
          ],
          "internalType": "struct DappWithRating[]",
          "name": "",
          "type": "tuple[]"
        }
      ],
      "stateMutability": "view",
      "type": "function"
    },
    {
      "inputs": [],
      "name": "featuredDapps",
      "outputs": [
        {
          "components": [
            {
              "components": [
                {
                  "internalType": "uint16",
                  "name": "index",
                  "type": "uint16"
                },
                {
                  "internalType": "string",
                  "name": "name",
                  "type": "string"
                },
                {
                  "internalType": "uint64",
                  "name": "chainID",
                  "type": "uint64"
                },
                {
                  "internalType": "address",
                  "name": "contractAddress",
                  "type": "address"
                },
                {
                  "internalType": "string",
                  "name": "metadataURI",
                  "type": "string"
                },
                {
                  "internalType": "bool",
                  "name": "isFeatured",
                  "type": "bool"
                },
                {
                  "internalType": "uint256",
                  "name": "listed",
                  "type": "uint256"
                },
                {
                  "internalType": "uint256",
                  "name": "updated",
                  "type": "uint256"
                }
              ],
              "internalType": "struct Dapp",
              "name": "dapp",
              "type": "tuple"
            },
            {
              "components": [
                {
                  "internalType": "uint256",
                  "name": "averageRating",
                  "type": "uint256"
                },
                {
                  "internalType": "uint256",
                  "name": "numberOfRatings",
                  "type": "uint256"
                }
              ],
              "internalType": "struct DappRating",
              "name": "rating",
              "type": "tuple"
            }
          ],
          "internalType": "struct DappWithRating[]",
          "name": "",
          "type": "tuple[]"
        }
      ],
      "stateMutability": "view",
      "type": "function"
    },
    {
      "inputs": [
        {
          "internalType": "address",
          "name": "contractAddress",
          "type": "address"
        }
      ],
      "name": "getDapp",
      "outputs": [
        {
          "components": [
            {
              "internalType": "uint16",
              "name": "index",
              "type": "uint16"
            },
            {
              "internalType": "string",
              "name": "name",
              "type": "string"
            },
            {
              "internalType": "uint64",
              "name": "chainID",
              "type": "uint64"
            },
            {
              "internalType": "address",
              "name": "contractAddress",
              "type": "address"
            },
            {
              "internalType": "string",
              "name": "metadataURI",
              "type": "string"
            },
            {
              "internalType": "bool",
              "name": "isFeatured",
              "type": "bool"
            },
            {
              "internalType": "uint256",
              "name": "listed",
              "type": "uint256"
            },
            {
              "internalType": "uint256",
              "name": "updated",
              "type": "uint256"
            }
          ],
          "internalType": "struct Dapp",
          "name": "",
          "type": "tuple"
        }
      ],
      "stateMutability": "view",
      "type": "function"
    },
    {
      "inputs": [
        {
          "internalType": "uint256",
          "name": "index",
          "type": "uint256"
        }
      ],
      "name": "getDappAtIndex",
      "outputs": [
        {
          "components": [
            {
              "internalType": "uint16",
              "name": "index",
              "type": "uint16"
            },
            {
              "internalType": "string",
              "name": "name",
              "type": "string"
            },
            {
              "internalType": "uint64",
              "name": "chainID",
              "type": "uint64"
            },
            {
              "internalType": "address",
              "name": "contractAddress",
              "type": "address"
            },
            {
              "internalType": "string",
              "name": "metadataURI",
              "type": "string"
            },
            {
              "internalType": "bool",
              "name": "isFeatured",
              "type": "bool"
            },
            {
              "internalType": "uint256",
              "name": "listed",
              "type": "uint256"
            },
            {
              "internalType": "uint256",
              "name": "updated",
              "type": "uint256"
            }
          ],
          "internalType": "struct Dapp",
          "name": "",
          "type": "tuple"
        }
      ],
      "stateMutability": "view",
      "type": "function"
    },
    {
      "inputs": [],
      "name": "isCheddaStore",
      "outputs": [
        {
          "internalType": "bool",
          "name": "",
          "type": "bool"
        }
      ],
      "stateMutability": "pure",
      "type": "function"
    },
    {
      "inputs": [
        {
          "internalType": "uint256",
          "name": "listedSince",
          "type": "uint256"
        }
      ],
      "name": "newDapps",
      "outputs": [
        {
          "components": [
            {
              "components": [
                {
                  "internalType": "uint16",
                  "name": "index",
                  "type": "uint16"
                },
                {
                  "internalType": "string",
                  "name": "name",
                  "type": "string"
                },
                {
                  "internalType": "uint64",
                  "name": "chainID",
                  "type": "uint64"
                },
                {
                  "internalType": "address",
                  "name": "contractAddress",
                  "type": "address"
                },
                {
                  "internalType": "string",
                  "name": "metadataURI",
                  "type": "string"
                },
                {
                  "internalType": "bool",
                  "name": "isFeatured",
                  "type": "bool"
                },
                {
                  "internalType": "uint256",
                  "name": "listed",
                  "type": "uint256"
                },
                {
                  "internalType": "uint256",
                  "name": "updated",
                  "type": "uint256"
                }
              ],
              "internalType": "struct Dapp",
              "name": "dapp",
              "type": "tuple"
            },
            {
              "components": [
                {
                  "internalType": "uint256",
                  "name": "averageRating",
                  "type": "uint256"
                },
                {
                  "internalType": "uint256",
                  "name": "numberOfRatings",
                  "type": "uint256"
                }
              ],
              "internalType": "struct DappRating",
              "name": "rating",
              "type": "tuple"
            }
          ],
          "internalType": "struct DappWithRating[]",
          "name": "",
          "type": "tuple[]"
        }
      ],
      "stateMutability": "view",
      "type": "function"
    },
    {
      "inputs": [],
      "name": "numberOfDapps",
      "outputs": [
        {
          "internalType": "uint256",
          "name": "",
          "type": "uint256"
        }
      ],
      "stateMutability": "view",
      "type": "function"
    },
    {
      "inputs": [
        {
          "internalType": "string",
          "name": "category",
          "type": "string"
        }
      ],
      "name": "numberOfDappsInCategory",
      "outputs": [
        {
          "internalType": "uint256",
          "name": "",
          "type": "uint256"
        }
      ],
      "stateMutability": "view",
      "type": "function"
    },
    {
      "inputs": [],
      "name": "owner",
      "outputs": [
        {
          "internalType": "address",
          "name": "",
          "type": "address"
        }
      ],
      "stateMutability": "view",
      "type": "function"
    },
    {
      "inputs": [],
      "name": "popularDapps",
      "outputs": [
        {
          "components": [
            {
              "components": [
                {
                  "internalType": "uint16",
                  "name": "index",
                  "type": "uint16"
                },
                {
                  "internalType": "string",
                  "name": "name",
                  "type": "string"
                },
                {
                  "internalType": "uint64",
                  "name": "chainID",
                  "type": "uint64"
                },
                {
                  "internalType": "address",
                  "name": "contractAddress",
                  "type": "address"
                },
                {
                  "internalType": "string",
                  "name": "metadataURI",
                  "type": "string"
                },
                {
                  "internalType": "bool",
                  "name": "isFeatured",
                  "type": "bool"
                },
                {
                  "internalType": "uint256",
                  "name": "listed",
                  "type": "uint256"
                },
                {
                  "internalType": "uint256",
                  "name": "updated",
                  "type": "uint256"
                }
              ],
              "internalType": "struct Dapp",
              "name": "dapp",
              "type": "tuple"
            },
            {
              "components": [
                {
                  "internalType": "uint256",
                  "name": "averageRating",
                  "type": "uint256"
                },
                {
                  "internalType": "uint256",
                  "name": "numberOfRatings",
                  "type": "uint256"
                }
              ],
              "internalType": "struct DappRating",
              "name": "rating",
              "type": "tuple"
            }
          ],
          "internalType": "struct DappWithRating[]",
          "name": "",
          "type": "tuple[]"
        }
      ],
      "stateMutability": "view",
      "type": "function"
    },
    {
      "inputs": [],
      "name": "registry",
      "outputs": [
        {
          "internalType": "contract ICheddaAddressRegistry",
          "name": "",
          "type": "address"
        }
      ],
      "stateMutability": "view",
      "type": "function"
    },
    {
      "inputs": [
        {
          "internalType": "address",
          "name": "contractAddress",
          "type": "address"
        }
      ],
      "name": "removeDapp",
      "outputs": [],
      "stateMutability": "nonpayable",
      "type": "function"
    },
    {
      "inputs": [
        {
          "internalType": "address",
          "name": "contractAddress",
          "type": "address"
        },
        {
          "internalType": "address",
          "name": "admin",
          "type": "address"
        }
      ],
      "name": "removeDappAdmin",
      "outputs": [],
      "stateMutability": "nonpayable",
      "type": "function"
    },
    {
      "inputs": [],
      "name": "renounceOwnership",
      "outputs": [],
      "stateMutability": "nonpayable",
      "type": "function"
    },
    {
      "inputs": [
        {
          "internalType": "address",
          "name": "contractAddress",
          "type": "address"
        },
        {
          "internalType": "bool",
          "name": "isFeatured",
          "type": "bool"
        }
      ],
      "name": "setFeaturedDapp",
      "outputs": [],
      "stateMutability": "nonpayable",
      "type": "function"
    },
    {
      "inputs": [
        {
          "internalType": "address",
          "name": "newOwner",
          "type": "address"
        }
      ],
      "name": "transferOwnership",
      "outputs": [],
      "stateMutability": "nonpayable",
      "type": "function"
    },
    {
      "inputs": [
        {
          "internalType": "address",
          "name": "contractAddress",
          "type": "address"
        },
        {
          "internalType": "string",
          "name": "metadataURI",
          "type": "string"
        }
      ],
      "name": "updateDappMetadata",
      "outputs": [],
      "stateMutability": "nonpayable",
      "type": "function"
    },
    {
      "inputs": [
        {
          "internalType": "address",
          "name": "registryAddress",
          "type": "address"
        }
      ],
      "name": "updateRegistry",
      "outputs": [],
      "stateMutability": "nonpayable",
      "type": "function"
    }
  ],
  "bytecode": "0x608060405234801561001057600080fd5b5061001a3361001f565b61006f565b600080546001600160a01b038381166001600160a01b0319831681178455604051919092169283917f8be0079c531659141344cd1fd0a4f28419497f9722a3daafe3b4186f6b6457e09190a35050565b6131f2806200007f6000396000f3fe608060405234801561001057600080fd5b50600436106101585760003560e01c80636caa97ac116100c357806389dcc51f1161007c57806389dcc51f146102c55780638cb0c1cb146102d85780638da5cb5b146102eb578063cc26f1ae146102fc578063f2fde38b14610323578063f84a16791461033657600080fd5b80636caa97ac14610260578063711575591461028b578063715018a6146102935780637644e1db1461029b5780637b103999146102aa578063809c45a3146102bd57600080fd5b80634660e822116101155780634660e822146101dc578063471dbe3a146101fd578063496bd3df14610205578063627c55f61461022557806365574d901461023857806365a6e9db1461024b57600080fd5b8063133c7d1d1461015d578063165631b714610186578063181157ef1461019b5780631a5da6c8146101ae5780631c5fd4c6146101c1578063426da4d6146101c9575b600080fd5b61017061016b366004612d10565b610349565b60405161017d9190612ed4565b60405180910390f35b610199610194366004612b86565b6106e1565b005b6101996101a9366004612b55565b6107c6565b6101996101bc366004612ade565b610864565b6101706108b0565b6101996101d7366004612c59565b610c32565b6101ef6101ea366004612bd8565b610f60565b60405190815260200161017d565b610170610f8d565b610218610213366004612ade565b611264565b60405161017d919061303e565b610199610233366004612ade565b61145f565b610170610246366004612bd8565b6116bf565b610253611ad1565b60405161017d9190612f55565b61027361026e366004612c17565b611d62565b6040516001600160a01b03909116815260200161017d565b610170611da9565b610199612124565b6040516001815260200161017d565b600554610273906001600160a01b031681565b6001546101ef565b6102186102d3366004612d10565b61215a565b6101996102e6366004612b1d565b612213565b6000546001600160a01b0316610273565b61030f61030a366004612ade565b612322565b60405161017d989796959493929190613051565b610199610331366004612ade565b612496565b610199610344366004612b1d565b612531565b60606000805b6001548110156103d3576000600260006001848154811061038057634e487b7160e01b600052603260045260246000fd5b60009182526020808320909101546001600160a01b031683528201929092526040019020600581015490915085116103c057826103bc81613160565b9350505b50806103cb81613160565b91505061034f565b506000816001600160401b038111156103fc57634e487b7160e01b600052604160045260246000fd5b60405190808252806020026020018201604052801561043557816020015b610422612838565b81526020019060019003908161041a5790505b5090506000915060005b6001548110156106d9576000600260006001848154811061047057634e487b7160e01b600052603260045260246000fd5b60009182526020808320909101546001600160a01b031683528201929092526040018120600180549193506104d791859081106104bd57634e487b7160e01b600052603260045260246000fd5b6000918252602090912001546001600160a01b03166125d5565b9050868260050154106106c4576040805161014081018252835461ffff16918101918252600184018054919283929091869160608501919061051890613109565b80601f016020809104026020016040519081016040528092919081815260200182805461054490613109565b80156105915780601f1061056657610100808354040283529160200191610591565b820191906000526020600020905b81548152906001019060200180831161057457829003601f168201915b505050918352505060028201546001600160401b0381166020830152600160401b90046001600160a01b031660408201526003820180546060909201916105d790613109565b80601f016020809104026020016040519081016040528092919081815260200182805461060390613109565b80156106505780601f1061062557610100808354040283529160200191610650565b820191906000526020600020905b81548152906001019060200180831161063357829003601f168201915b5050509183525050600482015460ff161515602080830191909152600583015460408301526006909201546060909101529082520182905284518590879081106106aa57634e487b7160e01b600052603260045260246000fd5b602002602001018190525084806106c090613160565b9550505b505080806106d190613160565b91505061043f565b509392505050565b6001600160a01b03808416600090815260026020819052604090912001548491600160401b9091041661072f5760405162461bcd60e51b815260040161072690612fe0565b60405180910390fd5b83336001600160a01b0380831660009081526003602090815260408083209385168352929052205460ff166107975760405162461bcd60e51b815260206004820152600e60248201526d2737ba103230b8381030b236b4b760911b6044820152606401610726565b6001600160a01b03861660009081526002602052604090206107bd906003018686612872565b50505050505050565b6000546001600160a01b031633146107f05760405162461bcd60e51b815260040161072690613009565b6001600160a01b03808316600090815260026020819052604090912001548391600160401b909104166108355760405162461bcd60e51b815260040161072690612fe0565b506001600160a01b03919091166000908152600260205260409020600401805460ff1916911515919091179055565b6000546001600160a01b0316331461088e5760405162461bcd60e51b815260040161072690613009565b600580546001600160a01b0319166001600160a01b0392909216919091179055565b60606000805b60015481101561093c57600060026000600184815481106108e757634e487b7160e01b600052603260045260246000fd5b60009182526020808320909101546001600160a01b031683528201929092526040019020600481015490915060ff1615610929578261092581613160565b9350505b508061093481613160565b9150506108b6565b506000816001600160401b0381111561096557634e487b7160e01b600052604160045260246000fd5b60405190808252806020026020018201604052801561099e57816020015b61098b612838565b8152602001906001900390816109835790505b5090506000915060005b600154811015610c2b57600060026000600184815481106109d957634e487b7160e01b600052603260045260246000fd5b60009182526020808320909101546001600160a01b03168352828101939093526040918201902081516101008101909252805461ffff1682526001810180549293919291840191610a2990613109565b80601f0160208091040260200160405190810160405280929190818152602001828054610a5590613109565b8015610aa25780601f10610a7757610100808354040283529160200191610aa2565b820191906000526020600020905b815481529060010190602001808311610a8557829003601f168201915b505050918352505060028201546001600160401b0381166020830152600160401b90046001600160a01b03166040820152600382018054606090920191610ae890613109565b80601f0160208091040260200160405190810160405280929190818152602001828054610b1490613109565b8015610b615780601f10610b3657610100808354040283529160200191610b61565b820191906000526020600020905b815481529060010190602001808311610b4457829003601f168201915b5050509183525050600482015460ff16151560208201526005820154604082015260069091015460609091015260018054919250600091610bbb9190859081106104bd57634e487b7160e01b600052603260045260246000fd5b90508160a0015115610c1657604051806040016040528083815260200182815250848681518110610bfc57634e487b7160e01b600052603260045260246000fd5b60200260200101819052508480610c1290613160565b9550505b50508080610c2390613160565b9150506109a8565b5092915050565b6000546001600160a01b03163314610c5c5760405162461bcd60e51b815260040161072690613009565b6001600160a01b038416610ca15760405162461bcd60e51b815260206004820152600c60248201526b5a65726f206164647265737360a01b6044820152606401610726565b6001600160a01b0384811660009081526002602081905260409091200154600160401b90041615610d025760405162461bcd60e51b815260206004820152600b60248201526a446170702065786973747360a81b6044820152606401610726565b60008054600160a01b900461ffff16816014610d1d8361313e565b91906101000a81548161ffff021916908361ffff160217905550905060006040518061010001604052808361ffff168152602001898152602001886001600160401b03168152602001876001600160a01b0316815260200185858080601f016020809104026020016040519081016040528093929190818152602001838380828437600092018290525093855250505060208083018290524260408085018290526060909401526001600160a01b038a168252600281529190208251815461ffff191661ffff90911617815582820151805193945084939192610e08926001850192909101906128f6565b50604082015160028201805460608501516001600160a01b0316600160401b026001600160e01b03199091166001600160401b039093169290921791909117905560808201518051610e649160038401916020909101906128f6565b5060a08201516004828101805460ff19169215159290921790915560c0830151600583015560e090920151600690910155604051610ea3908790612e1d565b9081526040516020918190038201812080546001808201835560009283529382200180546001600160a01b03199081166001600160a01b038c1690811790925584548086018655949092527fb10e2d527612073b26eecdfd717e6a320cf44b4afac2b0732d9fcbe2b7fa0cf6909301805490911683179055610f26908a90612e1d565b604051908190038120907f571a5d41a9cdccbd803fbb5a81c414687a87516b6fc484cd8083baab4bab000490600090a35050505050505050565b600060048383604051610f74929190612e0d565b9081526040519081900360200190205490505b92915050565b6001546060906000906001600160401b03811115610fbb57634e487b7160e01b600052604160045260246000fd5b604051908082528060200260200182016040528015610ff457816020015b610fe1612838565b815260200190600190039081610fd95790505b50905060005b60015481101561125e576040518060400160405280600260006001858154811061103457634e487b7160e01b600052603260045260246000fd5b60009182526020808320909101546001600160a01b03168352828101939093526040918201902081516101008101909252805461ffff168252600181018054929391929184019161108490613109565b80601f01602080910402602001604051908101604052809291908181526020018280546110b090613109565b80156110fd5780601f106110d2576101008083540402835291602001916110fd565b820191906000526020600020905b8154815290600101906020018083116110e057829003601f168201915b505050918352505060028201546001600160401b0381166020830152600160401b90046001600160a01b0316604082015260038201805460609092019161114390613109565b80601f016020809104026020016040519081016040528092919081815260200182805461116f90613109565b80156111bc5780601f10611191576101008083540402835291602001916111bc565b820191906000526020600020905b81548152906001019060200180831161119f57829003601f168201915b505050505081526020016004820160009054906101000a900460ff1615151515815260200160058201548152602001600682015481525050815260200161121d600184815481106104bd57634e487b7160e01b600052603260045260246000fd5b81525082828151811061124057634e487b7160e01b600052603260045260246000fd5b6020026020010181905250808061125690613160565b915050610ffa565b50919050565b61126c61296a565b6001600160a01b03808316600090815260026020819052604090912001548391600160401b909104166112b15760405162461bcd60e51b815260040161072690612fe0565b6001600160a01b03831660009081526002602090815260409182902082516101008101909352805461ffff16835260018101805491928401916112f390613109565b80601f016020809104026020016040519081016040528092919081815260200182805461131f90613109565b801561136c5780601f106113415761010080835404028352916020019161136c565b820191906000526020600020905b81548152906001019060200180831161134f57829003601f168201915b505050918352505060028201546001600160401b0381166020830152600160401b90046001600160a01b031660408201526003820180546060909201916113b290613109565b80601f01602080910402602001604051908101604052809291908181526020018280546113de90613109565b801561142b5780601f106114005761010080835404028352916020019161142b565b820191906000526020600020905b81548152906001019060200180831161140e57829003601f168201915b5050509183525050600482015460ff1615156020820152600582015460408201526006909101546060909101529392505050565b6000546001600160a01b031633146114895760405162461bcd60e51b815260040161072690613009565b6001600160a01b03808216600090815260026020819052604090912001548291600160401b909104166114ce5760405162461bcd60e51b815260040161072690612fe0565b6001600160a01b0382166000908152600260205260408120805461ffff191681559081906114ff60018301826129c7565b6002820180546001600160e01b031916905561151f6003830160006129c7565b5060048101805460ff19169055600060058201819055600690910155805460018054909161ffff1690811061156457634e487b7160e01b600052603260045260246000fd5b600091825260209091200180546001600160a01b03191690556001805461158c9082906130c2565b815481106115aa57634e487b7160e01b600052603260045260246000fd5b6000918252602090912001548154600180546001600160a01b0390931692909161ffff169081106115eb57634e487b7160e01b600052603260045260246000fd5b9060005260206000200160006101000a8154816001600160a01b0302191690836001600160a01b03160217905550600180548061163857634e487b7160e01b600052603160045260246000fd5b60008281526020808220830160001990810180546001600160a01b03191690559092019092556001600160a01b03851680835260029091526040918290209151909161168a9160019190910190612e39565b604051908190038120907faee8bd690ad86ba913eed88d3fa33088c281a85f6dae478039ef7a265523f41690600090a3505050565b6060600483836040516116d3929190612e0d565b90815260405190819003602001902054611720576040805160008082526020820190925290611718565b611705612838565b8152602001906001900390816116fd5790505b509050610f87565b600060048484604051611734929190612e0d565b908152604080519182900360209081018320805480830285018301909352828452919083018282801561179057602002820191906000526020600020905b81546001600160a01b03168152600190910190602001808311611772575b50505050509050600081516001600160401b038111156117c057634e487b7160e01b600052604160045260246000fd5b6040519080825280602002602001820160405280156117f957816020015b6117e6612838565b8152602001906001900390816117de5790505b50905060005b8251811015611ac85761185e6040518060400160405280600d81526020016c6164647265737320697320257360981b81525084838151811061185157634e487b7160e01b600052603260045260246000fd5b602002602001015161277e565b60006002600085848151811061188457634e487b7160e01b600052603260045260246000fd5b60200260200101516001600160a01b03166001600160a01b03168152602001908152602001600020905060006118e08584815181106118d357634e487b7160e01b600052603260045260246000fd5b60200260200101516125d5565b6040805161014081018252845461ffff169181019182526001850180549394509092839291869160608501919061191690613109565b80601f016020809104026020016040519081016040528092919081815260200182805461194290613109565b801561198f5780601f106119645761010080835404028352916020019161198f565b820191906000526020600020905b81548152906001019060200180831161197257829003601f168201915b505050918352505060028201546001600160401b0381166020830152600160401b90046001600160a01b031660408201526003820180546060909201916119d590613109565b80601f0160208091040260200160405190810160405280929190818152602001828054611a0190613109565b8015611a4e5780601f10611a2357610100808354040283529160200191611a4e565b820191906000526020600020905b815481529060010190602001808311611a3157829003601f168201915b5050509183525050600482015460ff16151560208083019190915260058301546040830152600690920154606090910152908252018290528451859085908110611aa857634e487b7160e01b600052603260045260246000fd5b602002602001018190525050508080611ac090613160565b9150506117ff565b50949350505050565b6001546060906000906001600160401b03811115611aff57634e487b7160e01b600052604160045260246000fd5b604051908082528060200260200182016040528015611b3857816020015b611b2561296a565b815260200190600190039081611b1d5790505b50905060005b60015481101561125e576002600060018381548110611b6d57634e487b7160e01b600052603260045260246000fd5b60009182526020808320909101546001600160a01b03168352828101939093526040918201902081516101008101909252805461ffff1682526001810180549293919291840191611bbd90613109565b80601f0160208091040260200160405190810160405280929190818152602001828054611be990613109565b8015611c365780601f10611c0b57610100808354040283529160200191611c36565b820191906000526020600020905b815481529060010190602001808311611c1957829003601f168201915b505050918352505060028201546001600160401b0381166020830152600160401b90046001600160a01b03166040820152600382018054606090920191611c7c90613109565b80601f0160208091040260200160405190810160405280929190818152602001828054611ca890613109565b8015611cf55780601f10611cca57610100808354040283529160200191611cf5565b820191906000526020600020905b815481529060010190602001808311611cd857829003601f168201915b5050509183525050600482015460ff1615156020820152600582015460408201526006909101546060909101528251839083908110611d4457634e487b7160e01b600052603260045260246000fd5b60200260200101819052508080611d5a90613160565b915050611b3e565b81516020818401810180516004825292820191850191909120919052805482908110611d8d57600080fd5b6000918252602090912001546001600160a01b03169150829050565b60606000805b600154811015611e20576000611ddf600183815481106104bd57634e487b7160e01b600052603260045260246000fd5b905061012c8160000151118015611dfa575060008160200151115b15611e0d5782611e0981613160565b9350505b5080611e1881613160565b915050611daf565b506000816001600160401b03811115611e4957634e487b7160e01b600052604160045260246000fd5b604051908082528060200260200182016040528015611e8257816020015b611e6f612838565b815260200190600190039081611e675790505b5090506000915060005b600154811015610c2b576000611ebc600183815481106104bd57634e487b7160e01b600052603260045260246000fd5b905061012c8160000151118015611ed7575060008160200151115b156121115760006002600060018581548110611f0357634e487b7160e01b600052603260045260246000fd5b60009182526020808320909101546001600160a01b0316835282019290925260409081018220815161014081018352815461ffff169281019283526001820180549295509092839290918691606085019190611f5e90613109565b80601f0160208091040260200160405190810160405280929190818152602001828054611f8a90613109565b8015611fd75780601f10611fac57610100808354040283529160200191611fd7565b820191906000526020600020905b815481529060010190602001808311611fba57829003601f168201915b505050918352505060028201546001600160401b0381166020830152600160401b90046001600160a01b0316604082015260038201805460609092019161201d90613109565b80601f016020809104026020016040519081016040528092919081815260200182805461204990613109565b80156120965780601f1061206b57610100808354040283529160200191612096565b820191906000526020600020905b81548152906001019060200180831161207957829003601f168201915b5050509183525050600482015460ff1615156020808301919091526005830154604083015260069092015460609091015290825201849052855190915081908690889081106120f557634e487b7160e01b600052603260045260246000fd5b6020026020010181905250858061210b90613160565b96505050505b508061211c81613160565b915050611e8c565b6000546001600160a01b0316331461214e5760405162461bcd60e51b815260040161072690613009565b61215860006127c7565b565b61216261296a565b60015482106121a35760405162461bcd60e51b815260206004820152600d60248201526c092dcecc2d8d2c840d2dcc8caf609b1b6044820152606401610726565b6000600183815481106121c657634e487b7160e01b600052603260045260246000fd5b60009182526020808320909101546001600160a01b03168083526002825260409283902083516101008101909452805461ffff16845260018101805492955090928401916112f390613109565b6000546001600160a01b0316331461223d5760405162461bcd60e51b815260040161072690613009565b6001600160a01b03808316600090815260026020819052604090912001548391600160401b909104166122825760405162461bcd60e51b815260040161072690612fe0565b6001600160a01b0380841660009081526003602090815260408083209386168352929052205460ff1615156001146122f05760405162461bcd60e51b81526020600482015260116024820152704e6f742061646d696e206164647265737360781b6044820152606401610726565b506001600160a01b0391821660009081526003602090815260408083209390941682529190915220805460ff19169055565b6002602052600090815260409020805460018201805461ffff909216929161234990613109565b80601f016020809104026020016040519081016040528092919081815260200182805461237590613109565b80156123c25780601f10612397576101008083540402835291602001916123c2565b820191906000526020600020905b8154815290600101906020018083116123a557829003601f168201915b50505050600283015460038401805493946001600160401b03831694600160401b9093046001600160a01b03169350916123fb90613109565b80601f016020809104026020016040519081016040528092919081815260200182805461242790613109565b80156124745780601f1061244957610100808354040283529160200191612474565b820191906000526020600020905b81548152906001019060200180831161245757829003601f168201915b5050505060048301546005840154600690940154929360ff9091169290915088565b6000546001600160a01b031633146124c05760405162461bcd60e51b815260040161072690613009565b6001600160a01b0381166125255760405162461bcd60e51b815260206004820152602660248201527f4f776e61626c653a206e6577206f776e657220697320746865207a65726f206160448201526564647265737360d01b6064820152608401610726565b61252e816127c7565b50565b6000546001600160a01b0316331461255b5760405162461bcd60e51b815260040161072690613009565b6001600160a01b03808316600090815260026020819052604090912001548391600160401b909104166125a05760405162461bcd60e51b815260040161072690612fe0565b506001600160a01b0391821660009081526003602090815260408083209390941682529190915220805460ff19166001179055565b604080518082019091526000808252602082015260055460408051634e75ea2760e01b815290516000926001600160a01b031691634e75ea27916004808301926020929190829003018186803b15801561262e57600080fd5b505afa158015612642573d6000803e3d6000fd5b505050506040513d601f19601f820116820180604052508101906126669190612b01565b60405163f4f98eab60e01b81526001600160a01b03858116600483015291925060009183169063f4f98eab9060240160206040518083038186803b1580156126ad57600080fd5b505afa1580156126c1573d6000803e3d6000fd5b505050506040513d601f19601f820116820180604052508101906126e59190612d28565b604051630171ae1560e31b81526001600160a01b038681166004830152919250600091841690630b8d70a89060240160206040518083038186803b15801561272c57600080fd5b505afa158015612740573d6000803e3d6000fd5b505050506040513d601f19601f820116820180604052508101906127649190612d28565b604080518082019091529283526020830152509392505050565b6127c38282604051602401612794929190612fb6565b60408051601f198184030181529190526020810180516001600160e01b031663319af33360e01b179052612817565b5050565b600080546001600160a01b038381166001600160a01b0319831681178455604051919092169283917f8be0079c531659141344cd1fd0a4f28419497f9722a3daafe3b4186f6b6457e09190a35050565b80516a636f6e736f6c652e6c6f67602083016000808483855afa5050505050565b604051806040016040528061284b61296a565b815260200161286d604051806040016040528060008152602001600081525090565b905290565b82805461287e90613109565b90600052602060002090601f0160209004810192826128a057600085556128e6565b82601f106128b95782800160ff198235161785556128e6565b828001600101855582156128e6579182015b828111156128e65782358255916020019190600101906128cb565b506128f29291506129fd565b5090565b82805461290290613109565b90600052602060002090601f01602090048101928261292457600085556128e6565b82601f1061293d57805160ff19168380011785556128e6565b828001600101855582156128e6579182015b828111156128e657825182559160200191906001019061294f565b604051806101000160405280600061ffff1681526020016060815260200160006001600160401b0316815260200160006001600160a01b031681526020016060815260200160001515815260200160008152602001600081525090565b5080546129d390613109565b6000825580601f106129e3575050565b601f01602090049060005260206000209081019061252e91905b5b808211156128f257600081556001016129fe565b60008083601f840112612a23578182fd5b5081356001600160401b03811115612a39578182fd5b602083019150836020828501011115612a5157600080fd5b9250929050565b600082601f830112612a68578081fd5b81356001600160401b0380821115612a8257612a82613191565b604051601f8301601f19908116603f01168101908282118183101715612aaa57612aaa613191565b81604052838152866020858801011115612ac2578485fd5b8360208701602083013792830160200193909352509392505050565b600060208284031215612aef578081fd5b8135612afa816131a7565b9392505050565b600060208284031215612b12578081fd5b8151612afa816131a7565b60008060408385031215612b2f578081fd5b8235612b3a816131a7565b91506020830135612b4a816131a7565b809150509250929050565b60008060408385031215612b67578182fd5b8235612b72816131a7565b915060208301358015158114612b4a578182fd5b600080600060408486031215612b9a578081fd5b8335612ba5816131a7565b925060208401356001600160401b03811115612bbf578182fd5b612bcb86828701612a12565b9497909650939450505050565b60008060208385031215612bea578182fd5b82356001600160401b03811115612bff578283fd5b612c0b85828601612a12565b90969095509350505050565b60008060408385031215612c29578182fd5b82356001600160401b03811115612c3e578283fd5b612c4a85828601612a58565b95602094909401359450505050565b60008060008060008060a08789031215612c71578182fd5b86356001600160401b0380821115612c87578384fd5b612c938a838b01612a58565b9750602089013591508082168214612ca9578384fd5b909550604088013590612cbb826131a7565b90945060608801359080821115612cd0578384fd5b612cdc8a838b01612a58565b94506080890135915080821115612cf1578384fd5b50612cfe89828a01612a12565b979a9699509497509295939492505050565b600060208284031215612d21578081fd5b5035919050565b600060208284031215612d39578081fd5b5051919050565b60008151808452612d588160208601602086016130d9565b601f01601f19169290920160200192915050565b600061010061ffff83511684526020830151816020860152612d9082860182612d40565b9150506001600160401b0360408401511660408501526060830151612dc060608601826001600160a01b03169052565b5060808301518482036080860152612dd88282612d40565b91505060a0830151612dee60a086018215159052565b5060c083015160c085015260e083015160e08501528091505092915050565b8183823760009101908152919050565b60008251612e2f8184602087016130d9565b9190910192915050565b600080835482600182811c915080831680612e5557607f831692505b6020808410821415612e7557634e487b7160e01b87526022600452602487fd5b818015612e895760018114612e9a57612ec6565b60ff19861689528489019650612ec6565b60008a815260209020885b86811015612ebe5781548b820152908501908301612ea5565b505084890196505b509498975050505050505050565b60006020808301818452808551808352604092508286019150828160051b870101848801865b83811015612f4757603f19898403018552815160608151818652612f2082870182612d6c565b928a01518051878c01528a0151958901959095525094870194925090860190600101612efa565b509098975050505050505050565b6000602080830181845280855180835260408601915060408160051b8701019250838701855b82811015612fa957603f19888603018452612f97858351612d6c565b94509285019290850190600101612f7b565b5092979650505050505050565b604081526000612fc96040830185612d40565b905060018060a01b03831660208301529392505050565b6020808252600f908201526e496e76616c6964206164647265737360881b604082015260600190565b6020808252818101527f4f776e61626c653a2063616c6c6572206973206e6f7420746865206f776e6572604082015260600190565b602081526000612afa6020830184612d6c565b600061010061ffff8b16835280602084015261306f8184018b612d40565b6001600160401b038a1660408501526001600160a01b0389166060850152838103608085015290506130a18188612d40565b95151560a0840152505060c081019290925260e09091015295945050505050565b6000828210156130d4576130d461317b565b500390565b60005b838110156130f45781810151838201526020016130dc565b83811115613103576000848401525b50505050565b600181811c9082168061311d57607f821691505b6020821081141561125e57634e487b7160e01b600052602260045260246000fd5b600061ffff808316818114156131565761315661317b565b6001019392505050565b60006000198214156131745761317461317b565b5060010190565b634e487b7160e01b600052601160045260246000fd5b634e487b7160e01b600052604160045260246000fd5b6001600160a01b038116811461252e57600080fdfea26469706673582212201fd8e978eead738d5c9e3a23efdf47f6e1ccbdee06dd21fc8ce792eea882d2f964736f6c63430008040033",
  "linkReferences": {},
  "deployedLinkReferences": {}
}