{
  "_format": "hh-sol-artifact-1",
  "contractName": "CheddaRewards",
  "sourceName": "contracts/chedda/CheddaRewards.sol",
  "abi": [
    {
      "inputs": [],
      "stateMutability": "nonpayable",
      "type": "constructor"
    },
    {
      "anonymous": false,
      "inputs": [
        {
          "indexed": true,
          "internalType": "address",
          "name": "previousOwner",
          "type": "address"
        },
        {
          "indexed": true,
          "internalType": "address",
          "name": "newOwner",
          "type": "address"
        }
      ],
      "name": "OwnershipTransferred",
      "type": "event"
    },
    {
      "anonymous": false,
      "inputs": [
        {
          "indexed": true,
          "internalType": "enum Actions",
          "name": "a",
          "type": "uint8"
        },
        {
          "indexed": true,
          "internalType": "uint256",
          "name": "amount",
          "type": "uint256"
        },
        {
          "indexed": true,
          "internalType": "address",
          "name": "user",
          "type": "address"
        }
      ],
      "name": "RewardsIssued",
      "type": "event"
    },
    {
      "anonymous": false,
      "inputs": [
        {
          "indexed": false,
          "internalType": "uint256",
          "name": "amount",
          "type": "uint256"
        },
        {
          "indexed": true,
          "internalType": "address",
          "name": "user",
          "type": "address"
        }
      ],
      "name": "RewardsSlashed",
      "type": "event"
    },
    {
      "inputs": [],
      "name": "BOARD_LENGTH",
      "outputs": [
        {
          "internalType": "uint8",
          "name": "",
          "type": "uint8"
        }
      ],
      "stateMutability": "view",
      "type": "function"
    },
    {
      "inputs": [],
      "name": "MAX_BOARD_LENGTH",
      "outputs": [
        {
          "internalType": "uint8",
          "name": "",
          "type": "uint8"
        }
      ],
      "stateMutability": "view",
      "type": "function"
    },
    {
      "inputs": [],
      "name": "POINTS_PER_DISLIKE",
      "outputs": [
        {
          "internalType": "uint256",
          "name": "",
          "type": "uint256"
        }
      ],
      "stateMutability": "view",
      "type": "function"
    },
    {
      "inputs": [],
      "name": "POINTS_PER_DOWNVOTE",
      "outputs": [
        {
          "internalType": "uint256",
          "name": "",
          "type": "uint256"
        }
      ],
      "stateMutability": "view",
      "type": "function"
    },
    {
      "inputs": [],
      "name": "POINTS_PER_LIKE",
      "outputs": [
        {
          "internalType": "uint256",
          "name": "",
          "type": "uint256"
        }
      ],
      "stateMutability": "view",
      "type": "function"
    },
    {
      "inputs": [],
      "name": "POINTS_PER_RATE",
      "outputs": [
        {
          "internalType": "uint256",
          "name": "",
          "type": "uint256"
        }
      ],
      "stateMutability": "view",
      "type": "function"
    },
    {
      "inputs": [],
      "name": "POINTS_PER_REVIEW",
      "outputs": [
        {
          "internalType": "uint256",
          "name": "",
          "type": "uint256"
        }
      ],
      "stateMutability": "view",
      "type": "function"
    },
    {
      "inputs": [],
      "name": "POINTS_PER_UPVOTE",
      "outputs": [
        {
          "internalType": "uint256",
          "name": "",
          "type": "uint256"
        }
      ],
      "stateMutability": "view",
      "type": "function"
    },
    {
      "inputs": [],
      "name": "POINTS_PER_VOTE",
      "outputs": [
        {
          "internalType": "uint256",
          "name": "",
          "type": "uint256"
        }
      ],
      "stateMutability": "view",
      "type": "function"
    },
    {
      "inputs": [],
      "name": "RANK_ASSOCIATE",
      "outputs": [
        {
          "internalType": "uint256",
          "name": "",
          "type": "uint256"
        }
      ],
      "stateMutability": "view",
      "type": "function"
    },
    {
      "inputs": [],
      "name": "RANK_BOSS",
      "outputs": [
        {
          "internalType": "uint256",
          "name": "",
          "type": "uint256"
        }
      ],
      "stateMutability": "view",
      "type": "function"
    },
    {
      "inputs": [],
      "name": "RANK_CAPOREGIME",
      "outputs": [
        {
          "internalType": "uint256",
          "name": "",
          "type": "uint256"
        }
      ],
      "stateMutability": "view",
      "type": "function"
    },
    {
      "inputs": [],
      "name": "RANK_CONSIGLIERE",
      "outputs": [
        {
          "internalType": "uint256",
          "name": "",
          "type": "uint256"
        }
      ],
      "stateMutability": "view",
      "type": "function"
    },
    {
      "inputs": [],
      "name": "RANK_GODFATHER",
      "outputs": [
        {
          "internalType": "uint256",
          "name": "",
          "type": "uint256"
        }
      ],
      "stateMutability": "view",
      "type": "function"
    },
    {
      "inputs": [],
      "name": "RANK_SOLDIER",
      "outputs": [
        {
          "internalType": "uint256",
          "name": "",
          "type": "uint256"
        }
      ],
      "stateMutability": "view",
      "type": "function"
    },
    {
      "inputs": [],
      "name": "RANK_UNDERBOSS",
      "outputs": [
        {
          "internalType": "uint256",
          "name": "",
          "type": "uint256"
        }
      ],
      "stateMutability": "view",
      "type": "function"
    },
    {
      "inputs": [
        {
          "internalType": "uint256",
          "name": "",
          "type": "uint256"
        }
      ],
      "name": "board",
      "outputs": [
        {
          "internalType": "address",
          "name": "",
          "type": "address"
        }
      ],
      "stateMutability": "view",
      "type": "function"
    },
    {
      "inputs": [
        {
          "internalType": "enum Actions",
          "name": "action",
          "type": "uint8"
        },
        {
          "internalType": "address",
          "name": "user",
          "type": "address"
        }
      ],
      "name": "issueRewards",
      "outputs": [],
      "stateMutability": "nonpayable",
      "type": "function"
    },
    {
      "inputs": [],
      "name": "leaderboard",
      "outputs": [
        {
          "components": [
            {
              "internalType": "address",
              "name": "user",
              "type": "address"
            },
            {
              "internalType": "uint256",
              "name": "points",
              "type": "uint256"
            },
            {
              "internalType": "enum Rank",
              "name": "rank",
              "type": "uint8"
            }
          ],
          "internalType": "struct CheddaRewards.UserRewards[]",
          "name": "",
          "type": "tuple[]"
        }
      ],
      "stateMutability": "view",
      "type": "function"
    },
    {
      "inputs": [],
      "name": "minimumPointsForReward",
      "outputs": [
        {
          "internalType": "uint256",
          "name": "",
          "type": "uint256"
        }
      ],
      "stateMutability": "view",
      "type": "function"
    },
    {
      "inputs": [],
      "name": "owner",
      "outputs": [
        {
          "internalType": "address",
          "name": "",
          "type": "address"
        }
      ],
      "stateMutability": "view",
      "type": "function"
    },
    {
      "inputs": [
        {
          "internalType": "enum Actions",
          "name": "",
          "type": "uint8"
        }
      ],
      "name": "pointsPerAction",
      "outputs": [
        {
          "internalType": "uint256",
          "name": "",
          "type": "uint256"
        }
      ],
      "stateMutability": "view",
      "type": "function"
    },
    {
      "inputs": [],
      "name": "pointsPerOther",
      "outputs": [
        {
          "internalType": "uint256",
          "name": "",
          "type": "uint256"
        }
      ],
      "stateMutability": "view",
      "type": "function"
    },
    {
      "inputs": [
        {
          "internalType": "address",
          "name": "",
          "type": "address"
        }
      ],
      "name": "pointsPerUser",
      "outputs": [
        {
          "internalType": "uint256",
          "name": "",
          "type": "uint256"
        }
      ],
      "stateMutability": "view",
      "type": "function"
    },
    {
      "inputs": [
        {
          "internalType": "uint256",
          "name": "position",
          "type": "uint256"
        }
      ],
      "name": "rank",
      "outputs": [
        {
          "internalType": "enum Rank",
          "name": "",
          "type": "uint8"
        }
      ],
      "stateMutability": "pure",
      "type": "function"
    },
    {
      "inputs": [],
      "name": "registry",
      "outputs": [
        {
          "internalType": "contract CheddaAddressRegistry",
          "name": "",
          "type": "address"
        }
      ],
      "stateMutability": "view",
      "type": "function"
    },
    {
      "inputs": [],
      "name": "renounceOwnership",
      "outputs": [],
      "stateMutability": "nonpayable",
      "type": "function"
    },
    {
      "inputs": [
        {
          "internalType": "enum Actions",
          "name": "action",
          "type": "uint8"
        },
        {
          "internalType": "uint256",
          "name": "points",
          "type": "uint256"
        }
      ],
      "name": "setRewards",
      "outputs": [],
      "stateMutability": "nonpayable",
      "type": "function"
    },
    {
      "inputs": [],
      "name": "slashPerDownvote",
      "outputs": [
        {
          "internalType": "int256",
          "name": "",
          "type": "int256"
        }
      ],
      "stateMutability": "view",
      "type": "function"
    },
    {
      "inputs": [
        {
          "internalType": "address",
          "name": "newOwner",
          "type": "address"
        }
      ],
      "name": "transferOwnership",
      "outputs": [],
      "stateMutability": "nonpayable",
      "type": "function"
    },
    {
      "inputs": [
        {
          "internalType": "address",
          "name": "registryAddress",
          "type": "address"
        }
      ],
      "name": "updateRegistry",
      "outputs": [],
      "stateMutability": "nonpayable",
      "type": "function"
    },
    {
      "inputs": [
        {
          "internalType": "address",
          "name": "",
          "type": "address"
        }
      ],
      "name": "userOnLeaderboard",
      "outputs": [
        {
          "internalType": "bool",
          "name": "",
          "type": "bool"
        }
      ],
      "stateMutability": "view",
      "type": "function"
    }
  ],
  "bytecode": "0x60806040526006805460ff191660641790556000600755600160088190556009819055600a808055600b819055600c55601e600d556032600e55600f556001196010553480156200004f57600080fd5b506200005b33620000f4565b6200007060006009546200014460201b60201c565b6200008560016009546200014460201b60201c565b6200009a6002600a546200014460201b60201c565b620000af6003600a546200014460201b60201c565b620000c46004600c546200014460201b60201c565b620000d96005600d546200014460201b60201c565b620000ee6006600e546200014460201b60201c565b6200024e565b600080546001600160a01b038381166001600160a01b0319831681178455604051919092169283917f8be0079c531659141344cd1fd0a4f28419497f9722a3daafe3b4186f6b6457e09190a35050565b6000546001600160a01b03163314620001a45760405162461bcd60e51b815260206004820181905260248201527f4f776e61626c653a2063616c6c6572206973206e6f7420746865206f776e657260448201526064015b60405180910390fd5b80620001f35760405162461bcd60e51b815260206004820152601360248201527f506f696e74732063616e206e6f7420626520300000000000000000000000000060448201526064016200019b565b80600260008460078111156200021957634e487b7160e01b600052602160045260246000fd5b60078111156200023957634e487b7160e01b600052602160045260246000fd5b81526020810191909152604001600020555050565b61142f806200025e6000396000f3fe608060405234801561001057600080fd5b50600436106101f05760003560e01c80638da5cb5b1161010f578063e7e651d1116100a2578063f08981fa11610071578063f08981fa146103c2578063f2fde38b146103cb578063f927ae3f146103de578063fc5f891b146103e657600080fd5b8063e7e651d11461038f578063e8bf914c1461039c578063eb56b740146103a5578063ede91dfb146103ba57600080fd5b8063bc01ef81116100de578063bc01ef811461035b578063c3c55d5714610364578063c3fc2ebe1461037e578063d64caf621461038757600080fd5b80638da5cb5b1461030f578063b1d5f85214610320578063b37c191b14610328578063b5635a821461034857600080fd5b8063318298be116101875780637b103999116101565780637b103999146102ea578063856c6713146102fd5780638959be0f146102825780638ccca9091461030657600080fd5b8063318298be146102c85780636cd645c3146102d1578063715018a6146102d95780637564d209146102e157600080fd5b806326ea2d4d116101c357806326ea2d4d1461026257806327266c931461028257806328ed6e3f1461028a5780632f3b5e2b146102b557600080fd5b80631a4e18f6146101f55780631a5da6c8146102115780632193ec02146102265780632393e6951461022f575b600080fd5b6101fe60095481565b6040519081526020015b60405180910390f35b61022461021f3660046110cc565b610406565b005b6101fe60085481565b61025261023d3660046110cc565b60046020526000908152604090205460ff1681565b6040519015158152602001610208565b6101fe61027036600461110b565b60026020526000908152604090205481565b6101fe600081565b61029d610298366004611184565b61045b565b6040516001600160a01b039091168152602001610208565b6102246102c336600461115b565b610485565b6101fe600a5481565b6101fe601481565b61022461054b565b6101fe600f5481565b60015461029d906001600160a01b031681565b6101fe600d5481565b6101fe60075481565b6000546001600160a01b031661029d565b6101fe600181565b61033b610336366004611184565b610581565b604051610208919061122a565b610224610356366004611125565b6105e0565b6101fe600b5481565b61036c606481565b60405160ff9091168152602001610208565b6101fe600c5481565b6101fe606481565b60065461036c9060ff1681565b6101fe60105481565b6103ad61083a565b60405161020891906111be565b6101fe600581565b6101fe600e5481565b6102246103d93660046110cc565b610a31565b6101fe600a81565b6101fe6103f43660046110cc565b60036020526000908152604090205481565b6000546001600160a01b031633146104395760405162461bcd60e51b81526004016104309061123e565b60405180910390fd5b600180546001600160a01b0319166001600160a01b0392909216919091179055565b6005818154811061046b57600080fd5b6000918252602090912001546001600160a01b0316905081565b6000546001600160a01b031633146104af5760405162461bcd60e51b81526004016104309061123e565b806104f25760405162461bcd60e51b81526020600482015260136024820152720506f696e74732063616e206e6f74206265203606c1b6044820152606401610430565b806002600084600781111561051757634e487b7160e01b600052602160045260246000fd5b600781111561053657634e487b7160e01b600052602160045260246000fd5b81526020810191909152604001600020555050565b6000546001600160a01b031633146105755760405162461bcd60e51b81526004016104309061123e565b61057f6000610acc565b565b6000600182101561059457506005919050565b60058210156105a557506004919050565b600a8210156105b657506004919050565b60148210156105c757506004919050565b60648210156105d857506004919050565b506000919050565b6001600160a01b03811661062d5760405162461bcd60e51b81526020600482015260146024820152730416464726573732063616e206e6f7420626520360641b6044820152606401610430565b60006002600084600781111561065357634e487b7160e01b600052602160045260246000fd5b600781111561067257634e487b7160e01b600052602160045260246000fd5b815260200190815260200160002054905080600014156106ca5760405162461bcd60e51b81526020600482015260136024820152720416d6f756e742063616e206e6f74206265203606c1b6044820152606401610430565b6001600160a01b038216600090815260036020526040812080548392906106f29084906112b4565b90915550506001546040805163927befe760e01b815290516001600160a01b039092169163927befe791600480820192602092909190829003018186803b15801561073c57600080fd5b505afa158015610750573d6000803e3d6000fd5b505050506040513d601f19601f8201168201806040525081019061077491906110ef565b6040516394bf804d60e01b8152600481018390526001600160a01b03848116602483015291909116906394bf804d90604401600060405180830381600087803b1580156107c057600080fd5b505af11580156107d4573d6000803e3d6000fd5b505050506107e182610b1c565b816001600160a01b03168184600781111561080c57634e487b7160e01b600052602160045260246000fd5b6040517f729a117e59dcdeb653e0d9e4106b0585526b33a6b7290e367e546d883d15952790600090a4505050565b606060006108a1600580548060200260200160405190810160405280929190818152602001828054801561089757602002820191906000526020600020905b81546001600160a01b03168152600190910190602001808311610879575b5050505050610d1e565b90506000815167ffffffffffffffff8111156108cd57634e487b7160e01b600052604160045260246000fd5b60405190808252806020026020018201604052801561091f57816020015b61090c60408051606081018252600080825260208201819052909182015290565b8152602001906001900390816108eb5790505b50905060005b8251811015610a2a57604051806060016040528084838151811061095957634e487b7160e01b600052603260045260246000fd5b60200260200101516001600160a01b031681526020016003600086858151811061099357634e487b7160e01b600052603260045260246000fd5b60200260200101516001600160a01b03166001600160a01b031681526020019081526020016000205481526020016109ca83610581565b60078111156109e957634e487b7160e01b600052602160045260246000fd5b815250828281518110610a0c57634e487b7160e01b600052603260045260246000fd5b60200260200101819052508080610a229061139a565b915050610925565b5092915050565b6000546001600160a01b03163314610a5b5760405162461bcd60e51b81526004016104309061123e565b6001600160a01b038116610ac05760405162461bcd60e51b815260206004820152602660248201527f4f776e61626c653a206e6577206f776e657220697320746865207a65726f206160448201526564647265737360d01b6064820152608401610430565b610ac981610acc565b50565b600080546001600160a01b038381166001600160a01b0319831681178455604051919092169283917f8be0079c531659141344cd1fd0a4f28419497f9722a3daafe3b4186f6b6457e09190a35050565b6001600160a01b03811660009081526004602052604090205460ff1615610b405750565b60055460641115610bb2576005805460018181019092557f036b6384b5eca791c62761152d0c79bb0604c104a5fb6f4eb0703f3154bb3db00180546001600160a01b0384166001600160a01b031990911681179091556000908152600460205260409020805460ff1916909117905550565b6007546001600160a01b0382166000908152600360205260409020541115610ac9576000610bde610d45565b905060006003600060058460ff1681548110610c0a57634e487b7160e01b600052603260045260246000fd5b60009182526020808320909101546001600160a01b0390811684528382019490945260409283018220549387168252600390522054909150811015610d1957600060058360ff1681548110610c6f57634e487b7160e01b600052603260045260246000fd5b60009182526020808320909101546001600160a01b0390811680845260049092526040808420805460ff199081169091559188168452909220805490921660011790915560058054919250859160ff8616908110610cdd57634e487b7160e01b600052603260045260246000fd5b600091825260208083209190910180546001600160a01b0319166001600160a01b03948516179055918616815260039091526040902054600755505b505050565b805160609015610d4157610d4182600060018551610d3c9190611345565b610e5d565b5090565b600080600360006005600081548110610d6e57634e487b7160e01b600052603260045260246000fd5b60009182526020808320909101546001600160a01b031683528201929092526040018120549150805b60055460ff82161015610a2a57826003600060058460ff1681548110610dcd57634e487b7160e01b600052603260045260246000fd5b60009182526020808320909101546001600160a01b031683528201929092526040019020541015610e4b576003600060058360ff1681548110610e2057634e487b7160e01b600052603260045260246000fd5b60009182526020808320909101546001600160a01b0316835282019290925260400190205492509050805b80610e55816113ae565b915050610d97565b8181808212610e6d575050505050565b6000600381876002610e7f8989611306565b610e8991906112cc565b610e939089611273565b81518110610eb157634e487b7160e01b600052603260045260246000fd5b60200260200101516001600160a01b03166001600160a01b031681526020019081526020016000205490505b81831361108a575b8060036000888681518110610f0a57634e487b7160e01b600052603260045260246000fd5b60200260200101516001600160a01b03166001600160a01b03168152602001908152602001600020541115610f4b5782610f438161137a565b935050610ee5565b60036000878481518110610f6f57634e487b7160e01b600052603260045260246000fd5b60200260200101516001600160a01b03166001600160a01b0316815260200190815260200160002054811115610fb15781610fa98161135c565b925050610f4b565b81831361108557858281518110610fd857634e487b7160e01b600052603260045260246000fd5b602002602001015186848151811061100057634e487b7160e01b600052603260045260246000fd5b602002602001015187858151811061102857634e487b7160e01b600052603260045260246000fd5b6020026020010188858151811061104f57634e487b7160e01b600052603260045260246000fd5b6001600160a01b03938416602091820292909201015291169052826110738161137a565b93505081806110819061135c565b9250505b610edd565b8185121561109d5761109d868684610e5d565b838312156110b0576110b0868486610e5d565b505050505050565b8035600881106110c757600080fd5b919050565b6000602082840312156110dd578081fd5b81356110e8816113e4565b9392505050565b600060208284031215611100578081fd5b81516110e8816113e4565b60006020828403121561111c578081fd5b6110e8826110b8565b60008060408385031215611137578081fd5b611140836110b8565b91506020830135611150816113e4565b809150509250929050565b6000806040838503121561116d578182fd5b611176836110b8565b946020939093013593505050565b600060208284031215611195578081fd5b5035919050565b600881106111ba57634e487b7160e01b600052602160045260246000fd5b9052565b602080825282518282018190526000919060409081850190868401855b8281101561121d57815180516001600160a01b0316855286810151878601528501516112098686018261119c565b5060609390930192908501906001016111db565b5091979650505050505050565b60208101611238828461119c565b92915050565b6020808252818101527f4f776e61626c653a2063616c6c6572206973206e6f7420746865206f776e6572604082015260600190565b600080821280156001600160ff1b0384900385131615611295576112956113ce565b600160ff1b83900384128116156112ae576112ae6113ce565b50500190565b600082198211156112c7576112c76113ce565b500190565b6000826112e757634e487b7160e01b81526012600452602481fd5b600160ff1b821460001984141615611301576113016113ce565b500590565b60008083128015600160ff1b850184121615611324576113246113ce565b6001600160ff1b038401831381161561133f5761133f6113ce565b50500390565b600082821015611357576113576113ce565b500390565b6000600160ff1b821415611372576113726113ce565b506000190190565b60006001600160ff1b03821415611393576113936113ce565b5060010190565b6000600019821415611393576113936113ce565b600060ff821660ff8114156113c5576113c56113ce565b60010192915050565b634e487b7160e01b600052601160045260246000fd5b6001600160a01b0381168114610ac957600080fdfea2646970667358221220da5e2d102c9d2b7ad66a00420932da2666ab2f03b0bdd6d95504e1d8a3fe906764736f6c63430008040033",
  "linkReferences": {},
  "deployedLinkReferences": {}
}