{
  "_format": "hh-sol-artifact-1",
  "contractName": "CheddaMarketExplorer",
  "sourceName": "contracts/market/CheddaMarketExplorer.sol",
  "abi": [
    {
      "anonymous": false,
      "inputs": [
        {
          "indexed": true,
          "internalType": "address",
          "name": "previousOwner",
          "type": "address"
        },
        {
          "indexed": true,
          "internalType": "address",
          "name": "newOwner",
          "type": "address"
        }
      ],
      "name": "OwnershipTransferred",
      "type": "event"
    },
    {
      "inputs": [
        {
          "internalType": "uint256",
          "name": "",
          "type": "uint256"
        }
      ],
      "name": "allItems",
      "outputs": [
        {
          "internalType": "address",
          "name": "nftContract",
          "type": "address"
        },
        {
          "internalType": "uint256",
          "name": "tokenID",
          "type": "uint256"
        },
        {
          "internalType": "string",
          "name": "tokenURI",
          "type": "string"
        },
        {
          "internalType": "uint256",
          "name": "price",
          "type": "uint256"
        },
        {
          "internalType": "uint256",
          "name": "listingTime",
          "type": "uint256"
        }
      ],
      "stateMutability": "view",
      "type": "function"
    },
    {
      "inputs": [
        {
          "internalType": "address",
          "name": "",
          "type": "address"
        }
      ],
      "name": "collectionDislikes",
      "outputs": [
        {
          "internalType": "uint256",
          "name": "",
          "type": "uint256"
        }
      ],
      "stateMutability": "view",
      "type": "function"
    },
    {
      "inputs": [
        {
          "internalType": "address",
          "name": "",
          "type": "address"
        },
        {
          "internalType": "uint256",
          "name": "",
          "type": "uint256"
        }
      ],
      "name": "collectionItems",
      "outputs": [
        {
          "internalType": "address",
          "name": "nftContract",
          "type": "address"
        },
        {
          "internalType": "uint256",
          "name": "tokenID",
          "type": "uint256"
        },
        {
          "internalType": "string",
          "name": "tokenURI",
          "type": "string"
        },
        {
          "internalType": "uint256",
          "name": "price",
          "type": "uint256"
        },
        {
          "internalType": "uint256",
          "name": "listingTime",
          "type": "uint256"
        }
      ],
      "stateMutability": "view",
      "type": "function"
    },
    {
      "inputs": [
        {
          "internalType": "address",
          "name": "",
          "type": "address"
        }
      ],
      "name": "collectionLikes",
      "outputs": [
        {
          "internalType": "uint256",
          "name": "",
          "type": "uint256"
        }
      ],
      "stateMutability": "view",
      "type": "function"
    },
    {
      "inputs": [
        {
          "internalType": "uint256",
          "name": "",
          "type": "uint256"
        }
      ],
      "name": "collectionList",
      "outputs": [
        {
          "internalType": "address",
          "name": "",
          "type": "address"
        }
      ],
      "stateMutability": "view",
      "type": "function"
    },
    {
      "inputs": [
        {
          "internalType": "address",
          "name": "",
          "type": "address"
        }
      ],
      "name": "collections",
      "outputs": [
        {
          "internalType": "address",
          "name": "nftContract",
          "type": "address"
        },
        {
          "internalType": "string",
          "name": "metadataURI",
          "type": "string"
        },
        {
          "internalType": "bool",
          "name": "exists",
          "type": "bool"
        }
      ],
      "stateMutability": "view",
      "type": "function"
    },
    {
      "inputs": [
        {
          "internalType": "address",
          "name": "nftContract",
          "type": "address"
        }
      ],
      "name": "dislikeCollection",
      "outputs": [],
      "stateMutability": "nonpayable",
      "type": "function"
    },
    {
      "inputs": [
        {
          "internalType": "address",
          "name": "nftContract",
          "type": "address"
        },
        {
          "internalType": "uint256",
          "name": "tokenId",
          "type": "uint256"
        }
      ],
      "name": "dislikeItem",
      "outputs": [],
      "stateMutability": "nonpayable",
      "type": "function"
    },
    {
      "inputs": [],
      "name": "getAllItems",
      "outputs": [
        {
          "components": [
            {
              "components": [
                {
                  "internalType": "address",
                  "name": "nftContract",
                  "type": "address"
                },
                {
                  "internalType": "uint256",
                  "name": "tokenID",
                  "type": "uint256"
                },
                {
                  "internalType": "string",
                  "name": "tokenURI",
                  "type": "string"
                },
                {
                  "internalType": "uint256",
                  "name": "price",
                  "type": "uint256"
                },
                {
                  "internalType": "uint256",
                  "name": "listingTime",
                  "type": "uint256"
                }
              ],
              "internalType": "struct CheddaMarketExplorer.MarketItem",
              "name": "item",
              "type": "tuple"
            },
            {
              "components": [
                {
                  "internalType": "uint256",
                  "name": "likes",
                  "type": "uint256"
                },
                {
                  "internalType": "uint256",
                  "name": "dislikes",
                  "type": "uint256"
                }
              ],
              "internalType": "struct CheddaMarketExplorer.LikesDislikes",
              "name": "likesDislikes",
              "type": "tuple"
            }
          ],
          "internalType": "struct CheddaMarketExplorer.MarketItemWithLikes[]",
          "name": "",
          "type": "tuple[]"
        }
      ],
      "stateMutability": "view",
      "type": "function"
    },
    {
      "inputs": [
        {
          "internalType": "address",
          "name": "nftContract",
          "type": "address"
        }
      ],
      "name": "getCollectionDetails",
      "outputs": [
        {
          "components": [
            {
              "components": [
                {
                  "internalType": "address",
                  "name": "nftContract",
                  "type": "address"
                },
                {
                  "internalType": "string",
                  "name": "metadataURI",
                  "type": "string"
                },
                {
                  "internalType": "bool",
                  "name": "exists",
                  "type": "bool"
                }
              ],
              "internalType": "struct CheddaMarketExplorer.Collection",
              "name": "collection",
              "type": "tuple"
            },
            {
              "components": [
                {
                  "internalType": "uint256",
                  "name": "likes",
                  "type": "uint256"
                },
                {
                  "internalType": "uint256",
                  "name": "dislikes",
                  "type": "uint256"
                }
              ],
              "internalType": "struct CheddaMarketExplorer.LikesDislikes",
              "name": "likesDislikes",
              "type": "tuple"
            }
          ],
          "internalType": "struct CheddaMarketExplorer.CollectionWithLikes",
          "name": "",
          "type": "tuple"
        }
      ],
      "stateMutability": "view",
      "type": "function"
    },
    {
      "inputs": [],
      "name": "getCollections",
      "outputs": [
        {
          "components": [
            {
              "components": [
                {
                  "internalType": "address",
                  "name": "nftContract",
                  "type": "address"
                },
                {
                  "internalType": "string",
                  "name": "metadataURI",
                  "type": "string"
                },
                {
                  "internalType": "bool",
                  "name": "exists",
                  "type": "bool"
                }
              ],
              "internalType": "struct CheddaMarketExplorer.Collection",
              "name": "collection",
              "type": "tuple"
            },
            {
              "components": [
                {
                  "internalType": "uint256",
                  "name": "likes",
                  "type": "uint256"
                },
                {
                  "internalType": "uint256",
                  "name": "dislikes",
                  "type": "uint256"
                }
              ],
              "internalType": "struct CheddaMarketExplorer.LikesDislikes",
              "name": "likesDislikes",
              "type": "tuple"
            }
          ],
          "internalType": "struct CheddaMarketExplorer.CollectionWithLikes[]",
          "name": "",
          "type": "tuple[]"
        }
      ],
      "stateMutability": "view",
      "type": "function"
    },
    {
      "inputs": [
        {
          "internalType": "address",
          "name": "user",
          "type": "address"
        }
      ],
      "name": "getItemsOwned",
      "outputs": [
        {
          "components": [
            {
              "components": [
                {
                  "internalType": "address",
                  "name": "nftContract",
                  "type": "address"
                },
                {
                  "internalType": "uint256",
                  "name": "tokenID",
                  "type": "uint256"
                },
                {
                  "internalType": "string",
                  "name": "tokenURI",
                  "type": "string"
                }
              ],
              "internalType": "struct CheddaMarketExplorer.NFTDetails",
              "name": "item",
              "type": "tuple"
            },
            {
              "components": [
                {
                  "internalType": "uint256",
                  "name": "likes",
                  "type": "uint256"
                },
                {
                  "internalType": "uint256",
                  "name": "dislikes",
                  "type": "uint256"
                }
              ],
              "internalType": "struct CheddaMarketExplorer.LikesDislikes",
              "name": "likesDislikes",
              "type": "tuple"
            }
          ],
          "internalType": "struct CheddaMarketExplorer.NFTDetailsWithLikes[]",
          "name": "",
          "type": "tuple[]"
        }
      ],
      "stateMutability": "view",
      "type": "function"
    },
    {
      "inputs": [
        {
          "internalType": "address",
          "name": "nftContract",
          "type": "address"
        },
        {
          "internalType": "uint256",
          "name": "tokenID",
          "type": "uint256"
        }
      ],
      "name": "getMarketItem",
      "outputs": [
        {
          "components": [
            {
              "internalType": "address",
              "name": "nftContract",
              "type": "address"
            },
            {
              "internalType": "uint256",
              "name": "tokenID",
              "type": "uint256"
            },
            {
              "internalType": "string",
              "name": "tokenURI",
              "type": "string"
            },
            {
              "internalType": "uint256",
              "name": "price",
              "type": "uint256"
            },
            {
              "internalType": "uint256",
              "name": "listingTime",
              "type": "uint256"
            }
          ],
          "internalType": "struct CheddaMarketExplorer.MarketItem",
          "name": "",
          "type": "tuple"
        }
      ],
      "stateMutability": "view",
      "type": "function"
    },
    {
      "inputs": [
        {
          "internalType": "address",
          "name": "nftContract",
          "type": "address"
        },
        {
          "internalType": "uint256",
          "name": "tokenID",
          "type": "uint256"
        }
      ],
      "name": "getMarketItemWithLikes",
      "outputs": [
        {
          "components": [
            {
              "components": [
                {
                  "internalType": "address",
                  "name": "nftContract",
                  "type": "address"
                },
                {
                  "internalType": "uint256",
                  "name": "tokenID",
                  "type": "uint256"
                },
                {
                  "internalType": "string",
                  "name": "tokenURI",
                  "type": "string"
                },
                {
                  "internalType": "uint256",
                  "name": "price",
                  "type": "uint256"
                },
                {
                  "internalType": "uint256",
                  "name": "listingTime",
                  "type": "uint256"
                }
              ],
              "internalType": "struct CheddaMarketExplorer.MarketItem",
              "name": "item",
              "type": "tuple"
            },
            {
              "components": [
                {
                  "internalType": "uint256",
                  "name": "likes",
                  "type": "uint256"
                },
                {
                  "internalType": "uint256",
                  "name": "dislikes",
                  "type": "uint256"
                }
              ],
              "internalType": "struct CheddaMarketExplorer.LikesDislikes",
              "name": "likesDislikes",
              "type": "tuple"
            }
          ],
          "internalType": "struct CheddaMarketExplorer.MarketItemWithLikes",
          "name": "",
          "type": "tuple"
        }
      ],
      "stateMutability": "view",
      "type": "function"
    },
    {
      "inputs": [
        {
          "internalType": "address",
          "name": "nftContract",
          "type": "address"
        },
        {
          "internalType": "uint256",
          "name": "tokenID",
          "type": "uint256"
        }
      ],
      "name": "getNFTDetails",
      "outputs": [
        {
          "components": [
            {
              "internalType": "address",
              "name": "nftContract",
              "type": "address"
            },
            {
              "internalType": "uint256",
              "name": "tokenID",
              "type": "uint256"
            },
            {
              "internalType": "string",
              "name": "tokenURI",
              "type": "string"
            }
          ],
          "internalType": "struct CheddaMarketExplorer.NFTDetails",
          "name": "",
          "type": "tuple"
        }
      ],
      "stateMutability": "view",
      "type": "function"
    },
    {
      "inputs": [
        {
          "internalType": "address",
          "name": "",
          "type": "address"
        },
        {
          "internalType": "uint256",
          "name": "",
          "type": "uint256"
        }
      ],
      "name": "itemDislikes",
      "outputs": [
        {
          "internalType": "uint256",
          "name": "",
          "type": "uint256"
        }
      ],
      "stateMutability": "view",
      "type": "function"
    },
    {
      "inputs": [
        {
          "internalType": "address",
          "name": "",
          "type": "address"
        },
        {
          "internalType": "uint256",
          "name": "",
          "type": "uint256"
        }
      ],
      "name": "itemLikes",
      "outputs": [
        {
          "internalType": "uint256",
          "name": "",
          "type": "uint256"
        }
      ],
      "stateMutability": "view",
      "type": "function"
    },
    {
      "inputs": [
        {
          "internalType": "address",
          "name": "nftContract",
          "type": "address"
        }
      ],
      "name": "itemsInCollection",
      "outputs": [
        {
          "components": [
            {
              "components": [
                {
                  "internalType": "address",
                  "name": "nftContract",
                  "type": "address"
                },
                {
                  "internalType": "uint256",
                  "name": "tokenID",
                  "type": "uint256"
                },
                {
                  "internalType": "string",
                  "name": "tokenURI",
                  "type": "string"
                },
                {
                  "internalType": "uint256",
                  "name": "price",
                  "type": "uint256"
                },
                {
                  "internalType": "uint256",
                  "name": "listingTime",
                  "type": "uint256"
                }
              ],
              "internalType": "struct CheddaMarketExplorer.MarketItem",
              "name": "item",
              "type": "tuple"
            },
            {
              "components": [
                {
                  "internalType": "uint256",
                  "name": "likes",
                  "type": "uint256"
                },
                {
                  "internalType": "uint256",
                  "name": "dislikes",
                  "type": "uint256"
                }
              ],
              "internalType": "struct CheddaMarketExplorer.LikesDislikes",
              "name": "likesDislikes",
              "type": "tuple"
            }
          ],
          "internalType": "struct CheddaMarketExplorer.MarketItemWithLikes[]",
          "name": "",
          "type": "tuple[]"
        }
      ],
      "stateMutability": "view",
      "type": "function"
    },
    {
      "inputs": [
        {
          "internalType": "address",
          "name": "",
          "type": "address"
        },
        {
          "internalType": "uint256",
          "name": "",
          "type": "uint256"
        }
      ],
      "name": "itemsOwned",
      "outputs": [
        {
          "internalType": "address",
          "name": "nftContract",
          "type": "address"
        },
        {
          "internalType": "uint256",
          "name": "tokenID",
          "type": "uint256"
        },
        {
          "internalType": "uint256",
          "name": "lastPrice",
          "type": "uint256"
        }
      ],
      "stateMutability": "view",
      "type": "function"
    },
    {
      "inputs": [
        {
          "internalType": "address",
          "name": "nftContract",
          "type": "address"
        }
      ],
      "name": "likeCollection",
      "outputs": [],
      "stateMutability": "nonpayable",
      "type": "function"
    },
    {
      "inputs": [
        {
          "internalType": "address",
          "name": "nftContract",
          "type": "address"
        },
        {
          "internalType": "uint256",
          "name": "tokenId",
          "type": "uint256"
        }
      ],
      "name": "likeItem",
      "outputs": [],
      "stateMutability": "nonpayable",
      "type": "function"
    },
    {
      "inputs": [
        {
          "internalType": "uint256",
          "name": "time",
          "type": "uint256"
        }
      ],
      "name": "newlyListedItems",
      "outputs": [
        {
          "components": [
            {
              "components": [
                {
                  "internalType": "address",
                  "name": "nftContract",
                  "type": "address"
                },
                {
                  "internalType": "uint256",
                  "name": "tokenID",
                  "type": "uint256"
                },
                {
                  "internalType": "string",
                  "name": "tokenURI",
                  "type": "string"
                },
                {
                  "internalType": "uint256",
                  "name": "price",
                  "type": "uint256"
                },
                {
                  "internalType": "uint256",
                  "name": "listingTime",
                  "type": "uint256"
                }
              ],
              "internalType": "struct CheddaMarketExplorer.MarketItem",
              "name": "item",
              "type": "tuple"
            },
            {
              "components": [
                {
                  "internalType": "uint256",
                  "name": "likes",
                  "type": "uint256"
                },
                {
                  "internalType": "uint256",
                  "name": "dislikes",
                  "type": "uint256"
                }
              ],
              "internalType": "struct CheddaMarketExplorer.LikesDislikes",
              "name": "likesDislikes",
              "type": "tuple"
            }
          ],
          "internalType": "struct CheddaMarketExplorer.MarketItemWithLikes[]",
          "name": "",
          "type": "tuple[]"
        }
      ],
      "stateMutability": "view",
      "type": "function"
    },
    {
      "inputs": [],
      "name": "owner",
      "outputs": [
        {
          "internalType": "address",
          "name": "",
          "type": "address"
        }
      ],
      "stateMutability": "view",
      "type": "function"
    },
    {
      "inputs": [],
      "name": "popularItemMinumumLikes",
      "outputs": [
        {
          "internalType": "uint256",
          "name": "",
          "type": "uint256"
        }
      ],
      "stateMutability": "view",
      "type": "function"
    },
    {
      "inputs": [],
      "name": "popularItemRatio",
      "outputs": [
        {
          "internalType": "uint256",
          "name": "",
          "type": "uint256"
        }
      ],
      "stateMutability": "view",
      "type": "function"
    },
    {
      "inputs": [],
      "name": "popularItems",
      "outputs": [
        {
          "components": [
            {
              "components": [
                {
                  "internalType": "address",
                  "name": "nftContract",
                  "type": "address"
                },
                {
                  "internalType": "uint256",
                  "name": "tokenID",
                  "type": "uint256"
                },
                {
                  "internalType": "string",
                  "name": "tokenURI",
                  "type": "string"
                },
                {
                  "internalType": "uint256",
                  "name": "price",
                  "type": "uint256"
                },
                {
                  "internalType": "uint256",
                  "name": "listingTime",
                  "type": "uint256"
                }
              ],
              "internalType": "struct CheddaMarketExplorer.MarketItem",
              "name": "item",
              "type": "tuple"
            },
            {
              "components": [
                {
                  "internalType": "uint256",
                  "name": "likes",
                  "type": "uint256"
                },
                {
                  "internalType": "uint256",
                  "name": "dislikes",
                  "type": "uint256"
                }
              ],
              "internalType": "struct CheddaMarketExplorer.LikesDislikes",
              "name": "likesDislikes",
              "type": "tuple"
            }
          ],
          "internalType": "struct CheddaMarketExplorer.MarketItemWithLikes[]",
          "name": "",
          "type": "tuple[]"
        }
      ],
      "stateMutability": "view",
      "type": "function"
    },
    {
      "inputs": [],
      "name": "registry",
      "outputs": [
        {
          "internalType": "contract ICheddaAddressRegistry",
          "name": "",
          "type": "address"
        }
      ],
      "stateMutability": "view",
      "type": "function"
    },
    {
      "inputs": [],
      "name": "renounceOwnership",
      "outputs": [],
      "stateMutability": "nonpayable",
      "type": "function"
    },
    {
      "inputs": [
        {
          "internalType": "address",
          "name": "nftContract",
          "type": "address"
        },
        {
          "internalType": "uint256",
          "name": "tokenID",
          "type": "uint256"
        },
        {
          "internalType": "uint256",
          "name": "amount",
          "type": "uint256"
        },
        {
          "internalType": "address",
          "name": "owner",
          "type": "address"
        }
      ],
      "name": "reportItemAdded",
      "outputs": [],
      "stateMutability": "nonpayable",
      "type": "function"
    },
    {
      "inputs": [
        {
          "internalType": "address",
          "name": "nftContract",
          "type": "address"
        },
        {
          "internalType": "uint256",
          "name": "tokenID",
          "type": "uint256"
        },
        {
          "internalType": "uint256",
          "name": "price",
          "type": "uint256"
        }
      ],
      "name": "reportListing",
      "outputs": [],
      "stateMutability": "nonpayable",
      "type": "function"
    },
    {
      "inputs": [
        {
          "internalType": "address",
          "name": "nftContract",
          "type": "address"
        },
        {
          "internalType": "uint256",
          "name": "tokenID",
          "type": "uint256"
        }
      ],
      "name": "reportListingCancellation",
      "outputs": [],
      "stateMutability": "nonpayable",
      "type": "function"
    },
    {
      "inputs": [
        {
          "internalType": "address",
          "name": "nftContract",
          "type": "address"
        },
        {
          "internalType": "uint256",
          "name": "tokenID",
          "type": "uint256"
        },
        {
          "internalType": "uint256",
          "name": "amountPaid",
          "type": "uint256"
        },
        {
          "internalType": "address",
          "name": "seller",
          "type": "address"
        },
        {
          "internalType": "address",
          "name": "buyer",
          "type": "address"
        }
      ],
      "name": "reportMarketSale",
      "outputs": [],
      "stateMutability": "nonpayable",
      "type": "function"
    },
    {
      "inputs": [
        {
          "internalType": "address",
          "name": "newOwner",
          "type": "address"
        }
      ],
      "name": "transferOwnership",
      "outputs": [],
      "stateMutability": "nonpayable",
      "type": "function"
    },
    {
      "inputs": [
        {
          "internalType": "address",
          "name": "registryAddress",
          "type": "address"
        }
      ],
      "name": "updateRegistry",
      "outputs": [],
      "stateMutability": "nonpayable",
      "type": "function"
    },
    {
      "inputs": [
        {
          "internalType": "address",
          "name": "",
          "type": "address"
        },
        {
          "internalType": "address",
          "name": "",
          "type": "address"
        }
      ],
      "name": "userLikedCollection",
      "outputs": [
        {
          "internalType": "int8",
          "name": "",
          "type": "int8"
        }
      ],
      "stateMutability": "view",
      "type": "function"
    },
    {
      "inputs": [
        {
          "internalType": "address",
          "name": "",
          "type": "address"
        },
        {
          "internalType": "address",
          "name": "",
          "type": "address"
        },
        {
          "internalType": "uint256",
          "name": "",
          "type": "uint256"
        }
      ],
      "name": "userLikedItem",
      "outputs": [
        {
          "internalType": "int8",
          "name": "",
          "type": "int8"
        }
      ],
      "stateMutability": "view",
      "type": "function"
    }
  ],
  "bytecode": "0x6080604052600160085560026009553480156200001b57600080fd5b5062000027336200002d565b6200007d565b600080546001600160a01b038381166001600160a01b0319831681178455604051919092169283917f8be0079c531659141344cd1fd0a4f28419497f9722a3daafe3b4186f6b6457e09190a35050565b613894806200008d6000396000f3fe608060405234801561001057600080fd5b506004361061021c5760003560e01c8063903cb26b11610125578063d81f9a5a116100ad578063ed40a1ae1161007c578063ed40a1ae146105c4578063f2fde38b146105fc578063f802e3f11461060f578063f81d02f414610633578063ff68fa6e1461065357600080fd5b8063d81f9a5a14610550578063dad3055c14610559578063e33c21e21461056c578063e6abe43b1461059757600080fd5b8063a0e02985116100f4578063a0e02985146104cc578063bb6fcbea146104df578063bf95372e146104ff578063c072b02b14610512578063c79213791461053d57600080fd5b8063903cb26b14610471578063984052fa1461049157806398e9bc9c146104a45780639c74109a146104c457600080fd5b806346e63586116101a8578063752d121c11610177578063752d121c146103f85780637b1039991461042357806383818024146104365780638a687064146104495780638da5cb5b1461046057600080fd5b806346e63586146103b3578063497af350146103c85780634ba1d6aa146103e8578063715018a6146103f057600080fd5b8063330b02f1116101ef578063330b02f1146102f857806334deb86d1461030b578063420fd9ba1461032b57806343add2e61461034b57806345c4bd891461036d57600080fd5b806311cda15f1461022157806311d7c47b1461024a5780631a5da6c8146102d2578063261da5dd146102e5575b600080fd5b61023461022f3660046130e5565b610666565b604051610241919061359a565b60405180910390f35b6102d06102583660046131fb565b6001600160a01b039081166000908152600a6020908152604080832081516060810183529785168852878301968752908701948552805460018082018355918452919092209551600390910290950180546001600160a01b031916959092169490941781559151928201929092559051600290910155565b005b6102d06102e03660046130e5565b610881565b6102d06102f33660046130e5565b6108d6565b6102d061030636600461319c565b610a4b565b61031e6103193660046130e5565b610c3f565b6040516102419190613702565b61033e61033936600461319c565b610d44565b6040516102419190613715565b61035e6103593660046130e5565b610d82565b604051610241939291906134c8565b6103a061037b36600461315c565b6007602090815260009384526040808520825292845282842090528252812054900b81565b60405160009190910b8152602001610241565b6103bb610e3a565b6040516102419190613539565b6103db6103d63660046130e5565b61101f565b60405161024191906135ee565b61023461120b565b6102d06113fc565b61040b61040636600461336b565b611432565b6040516001600160a01b039091168152602001610241565b60015461040b906001600160a01b031681565b6102d061044436600461319c565b61145c565b61045260095481565b604051908152602001610241565b6000546001600160a01b031661040b565b61048461047f36600461319c565b6115f2565b6040516102419190613728565b61023461049f36600461336b565b61184a565b6104b76104b236600461319c565b611ae5565b604051610241919061373b565b610234611bfa565b6102d06104da36600461319c565b6120cb565b6104526104ed3660046130e5565b60036020526000908152604090205481565b6102d061050d3660046131c7565b61220d565b61045261052036600461319c565b600460209081526000928352604080842090915290825290205481565b6102d061054b3660046130e5565b6125aa565b61045260085481565b6102d0610567366004613244565b6126d3565b61045261057a36600461319c565b600560209081526000928352604080842090915290825290205481565b6103a06105a5366004613124565b6006602090815260009283526040808420909152908252812054900b81565b6105d76105d236600461319c565b612b40565b604080516001600160a01b039094168452602084019290925290820152606001610241565b6102d061060a3660046130e5565b612b8c565b61062261061d36600461319c565b612c27565b6040516102419594939291906134fe565b6104526106413660046130e5565b60026020526000908152604090205481565b61062261066136600461336b565b612d09565b6001600160a01b0381166000908152600e60205260408120546060918167ffffffffffffffff8111156106a957634e487b7160e01b600052604160045260246000fd5b6040519080825280602002602001820160405280156106e257816020015b6106cf612ec5565b8152602001906001900390816106c75790505b50905060005b82811015610879576001600160a01b0385166000908152600e6020526040812080548390811061072857634e487b7160e01b600052603260045260246000fd5b60009182526020822060059091020180546001820154919350610756916001600160a01b0390911690612d4f565b6040805160e08101825284546001600160a01b0316918101918252600185015460608201526002850180549394509092839291869160808501919061079a906137cd565b80601f01602080910402602001604051908101604052809291908181526020018280546107c6906137cd565b80156108135780601f106107e857610100808354040283529160200191610813565b820191906000526020600020905b8154815290600101906020018083116107f657829003601f168201915b505050505081526020016003820154815260200160048201548152505081526020018281525084848151811061085957634e487b7160e01b600052603260045260246000fd5b60200260200101819052505050808061087190613802565b9150506106e8565b509392505050565b6000546001600160a01b031633146108b45760405162461bcd60e51b81526004016108ab906136a6565b60405180910390fd5b600180546001600160a01b0319166001600160a01b0392909216919091179055565b3360009081526006602090815260408083206001600160a01b0385168452909152812054810b900b1561091b5760405162461bcd60e51b81526004016108ab906136db565b3360009081526006602090815260408083206001600160a01b03851684528252808320805460ff191660ff1790556003909152812080546001929061096190849061374e565b9091555050600154604080516327b16a2560e21b815290516000926001600160a01b031691639ec5a894916004808301926020929190829003018186803b1580156109ab57600080fd5b505afa1580156109bf573d6000803e3d6000fd5b505050506040513d601f19601f820116820180604052508101906109e39190613108565b90506001600160a01b03811663b5635a826003335b6040518363ffffffff1660e01b8152600401610a1592919061366c565b600060405180830381600087803b158015610a2f57600080fd5b505af1158015610a43573d6000803e3d6000fd5b505050505050565b60001960005b600b54811015610afd57836001600160a01b0316600b8281548110610a8657634e487b7160e01b600052603260045260246000fd5b60009182526020909120600590910201546001600160a01b0316148015610ade575082600b8281548110610aca57634e487b7160e01b600052603260045260246000fd5b906000526020600020906005020160010154145b15610aeb57809150610afd565b80610af581613802565b915050610a51565b506000198114610c3a57600b8054610b1790600190613786565b81548110610b3557634e487b7160e01b600052603260045260246000fd5b9060005260206000209060050201600b8281548110610b6457634e487b7160e01b600052603260045260246000fd5b60009182526020909120825460059092020180546001600160a01b0319166001600160a01b03909216919091178155600180830154908201556002808301805491830191610bb1906137cd565b610bbc929190612eff565b5060038281015490820155600491820154910155600b805480610bef57634e487b7160e01b600052603160045260246000fd5b60008281526020812060056000199093019283020180546001600160a01b03191681556001810182905590610c276002830182612f8a565b5060006003820181905560049091015590555b505050565b610c47612fc4565b6001600160a01b038083166000908152600c6020908152604080832081516060810190925280549094168152600184018054939491939192840191610c8b906137cd565b80601f0160208091040260200160405190810160405280929190818152602001828054610cb7906137cd565b8015610d045780601f10610cd957610100808354040283529160200191610d04565b820191906000526020600020905b815481529060010190602001808311610ce757829003601f168201915b50505091835250506002919091015460ff16151560209091015290506000610d2b84612dab565b6040805180820190915292835260208301525092915050565b610d4c612ec5565b6000610d5884846115f2565b90506000610d668585612d4f565b6040805180820190915292835260208301525090505b92915050565b600c60205260009081526040902080546001820180546001600160a01b039092169291610dae906137cd565b80601f0160208091040260200160405190810160405280929190818152602001828054610dda906137cd565b8015610e275780601f10610dfc57610100808354040283529160200191610e27565b820191906000526020600020905b815481529060010190602001808311610e0a57829003601f168201915b5050506002909301549192505060ff1683565b600d5460609060009067ffffffffffffffff811115610e6957634e487b7160e01b600052604160045260246000fd5b604051908082528060200260200182016040528015610ea257816020015b610e8f612fc4565b815260200190600190039081610e875790505b50905060005b600d54811015611019576000600d8281548110610ed557634e487b7160e01b600052603260045260246000fd5b60009182526020808320909101546001600160a01b03908116808452600c83526040808520815160608101909252805490931681526001830180549296509093840191610f21906137cd565b80601f0160208091040260200160405190810160405280929190818152602001828054610f4d906137cd565b8015610f9a5780601f10610f6f57610100808354040283529160200191610f9a565b820191906000526020600020905b815481529060010190602001808311610f7d57829003601f168201915b50505091835250506002919091015460ff16151560209091015290506000610fc183612dab565b9050604051806040016040528083815260200182815250858581518110610ff857634e487b7160e01b600052603260045260246000fd5b6020026020010181905250505050808061101190613802565b915050610ea8565b50919050565b6001600160a01b0381166000908152600a60205260408120546060918167ffffffffffffffff81111561106257634e487b7160e01b600052604160045260246000fd5b60405190808252806020026020018201604052801561109b57816020015b611088612fec565b8152602001906001900390816110805790505b50905060005b82811015610879576001600160a01b0385166000908152600a602052604081208054839081106110e157634e487b7160e01b600052603260045260246000fd5b600091825260208220600391909102018054600182015460405163c87b56dd60e01b815260048101919091529193506001600160a01b03169063c87b56dd9060240160006040518083038186803b15801561113b57600080fd5b505afa15801561114f573d6000803e3d6000fd5b505050506040513d6000823e601f3d908101601f1916820160405261117791908101906132c2565b6040805160608101825284546001600160a01b0316808252600186015460208301819052928201849052929350916000916111b29190612d4f565b90506040518060400160405280838152602001828152508686815181106111e957634e487b7160e01b600052603260045260246000fd5b602002602001018190525050505050808061120390613802565b9150506110a1565b600b5460609060008167ffffffffffffffff81111561123a57634e487b7160e01b600052604160045260246000fd5b60405190808252806020026020018201604052801561127357816020015b611260612ec5565b8152602001906001900390816112585790505b50905060005b828110156113f5576000600b82815481106112a457634e487b7160e01b600052603260045260246000fd5b600091825260208220600590910201805460018201549193506112d2916001600160a01b0390911690612d4f565b6040805160e08101825284546001600160a01b03169181019182526001850154606082015260028501805493945090928392918691608085019190611316906137cd565b80601f0160208091040260200160405190810160405280929190818152602001828054611342906137cd565b801561138f5780601f106113645761010080835404028352916020019161138f565b820191906000526020600020905b81548152906001019060200180831161137257829003601f168201915b50505050508152602001600382015481526020016004820154815250508152602001828152508484815181106113d557634e487b7160e01b600052603260045260246000fd5b6020026020010181905250505080806113ed90613802565b915050611279565b5092915050565b6000546001600160a01b031633146114265760405162461bcd60e51b81526004016108ab906136a6565b6114306000612df4565b565b600d818154811061144257600080fd5b6000918252602090912001546001600160a01b0316905081565b3360009081526007602090815260408083206001600160a01b03861684528252808320848452909152812054810b900b156114a95760405162461bcd60e51b81526004016108ab906136db565b3360009081526007602090815260408083206001600160a01b0386168085529083528184208585528352818420805460ff1916600190811790915590845260048352818420858552909252822080549192909161150790849061374e565b9091555050600154604080516327b16a2560e21b815290516000926001600160a01b031691639ec5a894916004808301926020929190829003018186803b15801561155157600080fd5b505afa158015611565573d6000803e3d6000fd5b505050506040513d601f19601f820116820180604052508101906115899190613108565b90506001600160a01b03811663b5635a826002335b6040518363ffffffff1660e01b81526004016115bb92919061366c565b600060405180830381600087803b1580156115d557600080fd5b505af11580156115e9573d6000803e3d6000fd5b50505050505050565b6115fa613024565b6001600160a01b0383166000908152600e60205260409020546116505760405162461bcd60e51b815260206004820152600e60248201526d125d195b481b9bdd08199bdd5b9960921b60448201526064016108ab565b60005b6001600160a01b0384166000908152600e6020526040902054811015611810576001600160a01b0384166000908152600e602052604090208054849190839081106116ae57634e487b7160e01b600052603260045260246000fd5b90600052602060002090600502016001015414156117fe576001600160a01b0384166000908152600e602052604090208054829081106116fe57634e487b7160e01b600052603260045260246000fd5b90600052602060002090600502016040518060a00160405290816000820160009054906101000a90046001600160a01b03166001600160a01b03166001600160a01b0316815260200160018201548152602001600282018054611760906137cd565b80601f016020809104026020016040519081016040528092919081815260200182805461178c906137cd565b80156117d95780601f106117ae576101008083540402835291602001916117d9565b820191906000526020600020905b8154815290600101906020018083116117bc57829003601f168201915b5050505050815260200160038201548152602001600482015481525050915050610d7c565b8061180881613802565b915050611653565b5060405162461bcd60e51b815260206004820152600e60248201526d125d195b481b9bdd08199bdd5b9960921b60448201526064016108ab565b60606000805b600b548110156118b45783600b828154811061187c57634e487b7160e01b600052603260045260246000fd5b90600052602060002090600502016004015411156118a2578161189e81613802565b9250505b806118ac81613802565b915050611850565b5060008167ffffffffffffffff8111156118de57634e487b7160e01b600052604160045260246000fd5b60405190808252806020026020018201604052801561191757816020015b611904612ec5565b8152602001906001900390816118fc5790505b5090506000915060005b600b548110156108795784600b828154811061194d57634e487b7160e01b600052603260045260246000fd5b9060005260206000209060050201600401541115611ad3576000600b828154811061198857634e487b7160e01b600052603260045260246000fd5b600091825260208220600590910201805460018201549193506119b6916001600160a01b0390911690612d4f565b6040805160e08101825284546001600160a01b031691810191825260018501546060820152600285018054939450909283929186916080850191906119fa906137cd565b80601f0160208091040260200160405190810160405280929190818152602001828054611a26906137cd565b8015611a735780601f10611a4857610100808354040283529160200191611a73565b820191906000526020600020905b815481529060010190602001808311611a5657829003601f168201915b5050505050815260200160038201548152602001600482015481525050815260200182815250848680611aa590613802565b975081518110611ac557634e487b7160e01b600052603260045260246000fd5b602002602001018190525050505b80611add81613802565b915050611921565b60408051606080820183526000808352602083015291810191909152611b0a83612e44565b15611bbf5760405163c87b56dd60e01b81526004810183905283906000906001600160a01b0383169063c87b56dd9060240160006040518083038186803b158015611b5457600080fd5b505afa158015611b68573d6000803e3d6000fd5b505050506040513d6000823e601f3d908101601f19168201604052611b9091908101906132c2565b90506040518060600160405280866001600160a01b031681526020018581526020018281525092505050610d7c565b60405162461bcd60e51b815260206004820152601060248201526f125b9d985b1a59081d1bdad95b88125160821b60448201526064016108ab565b60606000805b600b54811015611cd8576000600b8281548110611c2d57634e487b7160e01b600052603260045260246000fd5b60009182526020822060059091020180546001820154919350611c5b916001600160a01b0390911690612d4f565b9050600854816000015110158015611c7557506020810151155b15611c8c5783611c8481613802565b945050611cc3565b600854815110801590611cb0575060095460208201518251611cae9190613766565b115b15611cc35783611cbf81613802565b9450505b50508080611cd090613802565b915050611c00565b5060008167ffffffffffffffff811115611d0257634e487b7160e01b600052604160045260246000fd5b604051908082528060200260200182016040528015611d3b57816020015b611d28612ec5565b815260200190600190039081611d205790505b5090506000915060005b600b548110156113f5576000600b8281548110611d7257634e487b7160e01b600052603260045260246000fd5b60009182526020822060059091020180546001820154919350611da0916001600160a01b0390911690612d4f565b9050600854816000015110158015611dba57506020810151155b15611f28576040518060400160405280600b8581548110611deb57634e487b7160e01b600052603260045260246000fd5b90600052602060002090600502016040518060a00160405290816000820160009054906101000a90046001600160a01b03166001600160a01b03166001600160a01b0316815260200160018201548152602001600282018054611e4d906137cd565b80601f0160208091040260200160405190810160405280929190818152602001828054611e79906137cd565b8015611ec65780601f10611e9b57610100808354040283529160200191611ec6565b820191906000526020600020905b815481529060010190602001808311611ea957829003601f168201915b5050505050815260200160038201548152602001600482015481525050815260200182815250848680611ef890613802565b975081518110611f1857634e487b7160e01b600052603260045260246000fd5b60200260200101819052506120b6565b600854815110801590611f4c575060095460208201518251611f4a9190613766565b115b156120b6576040518060400160405280600b8581548110611f7d57634e487b7160e01b600052603260045260246000fd5b90600052602060002090600502016040518060a00160405290816000820160009054906101000a90046001600160a01b03166001600160a01b03166001600160a01b0316815260200160018201548152602001600282018054611fdf906137cd565b80601f016020809104026020016040519081016040528092919081815260200182805461200b906137cd565b80156120585780601f1061202d57610100808354040283529160200191612058565b820191906000526020600020905b81548152906001019060200180831161203b57829003601f168201915b505050505081526020016003820154815260200160048201548152505081526020018281525084868061208a90613802565b9750815181106120aa57634e487b7160e01b600052603260045260246000fd5b60200260200101819052505b505080806120c390613802565b915050611d45565b3360009081526007602090815260408083206001600160a01b03861684528252808320848452909152812054810b900b156121185760405162461bcd60e51b81526004016108ab906136db565b3360009081526007602090815260408083206001600160a01b0386168085529083528184208585528352818420805460ff191660ff179055835260058252808320848452909152812080546001929061217290849061374e565b9091555050600154604080516327b16a2560e21b815290516000926001600160a01b031691639ec5a894916004808301926020929190829003018186803b1580156121bc57600080fd5b505afa1580156121d0573d6000803e3d6000fd5b505050506040513d601f19601f820116820180604052508101906121f49190613108565b90506001600160a01b03811663b5635a8260033361159e565b60408051602081019091526000815261222584612e44565b156122ac5760405163c87b56dd60e01b81526004810184905284906001600160a01b0382169063c87b56dd9060240160006040518083038186803b15801561226c57600080fd5b505afa158015612280573d6000803e3d6000fd5b505050506040513d6000823e601f3d908101601f191682016040526122a891908101906132c2565b9150505b6040805160a0810182526001600160a01b038681168252602080830187815293830185815260608401879052426080850152600b805460018101825560009190915284517f0175b7a638427703f0dbe7bb9bbf987a2551717b34e79f33b5b1008d1fa01db9600590920291820180546001600160a01b0319169190951617845594517f0175b7a638427703f0dbe7bb9bbf987a2551717b34e79f33b5b1008d1fa01dba8601555180519394859461238b937f0175b7a638427703f0dbe7bb9bbf987a2551717b34e79f33b5b1008d1fa01dbb909201929091019061305c565b50606082015160038201556080909101516004909101556001600160a01b0385166000908152600c602052604090206002015460ff1661251d57604080516020810182526000808252825162fb90e360e21b81529251919288926001600160a01b038416926303ee438c9260048082019391829003018186803b15801561241157600080fd5b505afa158015612425573d6000803e3d6000fd5b505050506040513d6000823e601f3d908101601f1916820160405261244d91908101906132c2565b604080516060810182526001600160a01b038a8116808352602080840186815260018587018190526000938452600c835295909220845181546001600160a01b031916941693909317835590518051959750929491936124b3939085019291019061305c565b50604091909101516002909101805460ff19169115159190911790555050600d80546001810182556000919091527fd7b6990105719101dabeb77144f2a3385c8033acd3af97e9423a695e81ad1eb50180546001600160a01b0319166001600160a01b0387161790555b6001600160a01b038581166000908152600e6020908152604080832080546001808201835591855293839020865160059095020180546001600160a01b03191694909516939093178455848201519284019290925590830151805184939261258c92600285019291019061305c565b50606082015181600301556080820151816004015550505050505050565b3360009081526006602090815260408083206001600160a01b0385168452909152812054810b900b156125ef5760405162461bcd60e51b81526004016108ab906136db565b3360009081526006602090815260408083206001600160a01b03851684528252808320805460ff191660019081179091556002909252822080549192909161263890849061374e565b9091555050600154604080516327b16a2560e21b815290516000926001600160a01b031691639ec5a894916004808301926020929190829003018186803b15801561268257600080fd5b505afa158015612696573d6000803e3d6000fd5b505050506040513d601f19601f820116820180604052508101906126ba9190613108565b90506001600160a01b03811663b5635a826002336109f8565b60001960005b600b5481101561278557866001600160a01b0316600b828154811061270e57634e487b7160e01b600052603260045260246000fd5b60009182526020909120600590910201546001600160a01b0316148015612766575085600b828154811061275257634e487b7160e01b600052603260045260246000fd5b906000526020600020906005020160010154145b1561277357809150612785565b8061277d81613802565b9150506126d9565b5060001981146128c257600b805461279f90600190613786565b815481106127bd57634e487b7160e01b600052603260045260246000fd5b9060005260206000209060050201600b82815481106127ec57634e487b7160e01b600052603260045260246000fd5b60009182526020909120825460059092020180546001600160a01b0319166001600160a01b03909216919091178155600180830154908201556002808301805491830191612839906137cd565b612844929190612eff565b5060038281015490820155600491820154910155600b80548061287757634e487b7160e01b600052603160045260246000fd5b60008281526020812060056000199093019283020180546001600160a01b031916815560018101829055906128af6002830182612f8a565b5060006003820181905560049091015590555b6001600160a01b0383166000908152600a6020526040812054905b81811015612ac5576001600160a01b0385166000908152600a6020526040812080548390811061291d57634e487b7160e01b600052603260045260246000fd5b600091825260209182902060408051606081018252600390930290910180546001600160a01b03908116808552600183015495850195909552600290910154918301919091529092508a161480156129785750878160200151145b15612ab2576001600160a01b0386166000908152600a602052604090206129a0600185613786565b815481106129be57634e487b7160e01b600052603260045260246000fd5b9060005260206000209060030201600a6000886001600160a01b03166001600160a01b031681526020019081526020016000208381548110612a1057634e487b7160e01b600052603260045260246000fd5b60009182526020808320845460039093020180546001600160a01b0319166001600160a01b039384161781556001808601549082015560029485015494019390935588168152600a90915260409020805480612a7c57634e487b7160e01b600052603160045260246000fd5b60008281526020812060036000199093019283020180546001600160a01b03191681556001810182905560020155905550612ac5565b5080612abd81613802565b9150506128dd565b5050506001600160a01b039081166000908152600a6020908152604080832081516060810183529885168952888301978852908801958652805460018082018355918452919092209651600390910290960180546001600160a01b031916969092169590951781559251938301939093555160029091015550565b600a6020528160005260406000208181548110612b5c57600080fd5b60009182526020909120600390910201805460018201546002909201546001600160a01b03909116935090915083565b6000546001600160a01b03163314612bb65760405162461bcd60e51b81526004016108ab906136a6565b6001600160a01b038116612c1b5760405162461bcd60e51b815260206004820152602660248201527f4f776e61626c653a206e6577206f776e657220697320746865207a65726f206160448201526564647265737360d01b60648201526084016108ab565b612c2481612df4565b50565b600e6020528160005260406000208181548110612c4357600080fd5b60009182526020909120600590910201805460018201546002830180546001600160a01b03909316955090935090612c7a906137cd565b80601f0160208091040260200160405190810160405280929190818152602001828054612ca6906137cd565b8015612cf35780601f10612cc857610100808354040283529160200191612cf3565b820191906000526020600020905b815481529060010190602001808311612cd657829003601f168201915b5050505050908060030154908060040154905085565b600b8181548110612d1957600080fd5b60009182526020909120600590910201805460018201546002830180546001600160a01b039093169450909291612c7a906137cd565b604080518082018252600080825260209182018190526001600160a01b03949094168085526004825282852084865282528285205490855260058252828520938552928152928190205481518083019092529181529182015290565b604080518082018252600080825260209182018190526001600160a01b039390931683526002815281832054600382529282902054825180840190935292825281019190915290565b600080546001600160a01b038381166001600160a01b0319831681178455604051919092169283917f8be0079c531659141344cd1fd0a4f28419497f9722a3daafe3b4186f6b6457e09190a35050565b6040516301ffc9a760e01b8152635b5e139f60e01b60048201526000906001600160a01b038316906301ffc9a79060240160206040518083038186803b158015612e8d57600080fd5b505afa158015612ea1573d6000803e3d6000fd5b505050506040513d601f19601f82011682018060405250810190610d7c91906132a2565b6040518060400160405280612ed8613024565b8152602001612efa604051806040016040528060008152602001600081525090565b905290565b828054612f0b906137cd565b90600052602060002090601f016020900481019282612f2d5760008555612f7a565b82601f10612f3e5780548555612f7a565b82800160010185558215612f7a57600052602060002091601f016020900482015b82811115612f7a578254825591600101919060010190612f5f565b50612f869291506130d0565b5090565b508054612f96906137cd565b6000825580601f10612fa6575050565b601f016020900490600052602060002090810190612c2491906130d0565b6040805160a08101825260009181018281526060808301526080820192909252908190612ed8565b6040518060400160405280612ed8604051806060016040528060006001600160a01b0316815260200160008152602001606081525090565b6040518060a0016040528060006001600160a01b03168152602001600081526020016060815260200160008152602001600081525090565b828054613068906137cd565b90600052602060002090601f01602090048101928261308a5760008555612f7a565b82601f106130a357805160ff1916838001178555612f7a565b82800160010185558215612f7a579182015b82811115612f7a5782518255916020019190600101906130b5565b5b80821115612f8657600081556001016130d1565b6000602082840312156130f6578081fd5b813561310181613849565b9392505050565b600060208284031215613119578081fd5b815161310181613849565b60008060408385031215613136578081fd5b823561314181613849565b9150602083013561315181613849565b809150509250929050565b600080600060608486031215613170578081fd5b833561317b81613849565b9250602084013561318b81613849565b929592945050506040919091013590565b600080604083850312156131ae578182fd5b82356131b981613849565b946020939093013593505050565b6000806000606084860312156131db578283fd5b83356131e681613849565b95602085013595506040909401359392505050565b60008060008060808587031215613210578081fd5b843561321b81613849565b93506020850135925060408501359150606085013561323981613849565b939692955090935050565b600080600080600060a0868803121561325b578081fd5b853561326681613849565b94506020860135935060408601359250606086013561328481613849565b9150608086013561329481613849565b809150509295509295909350565b6000602082840312156132b3578081fd5b81518015158114613101578182fd5b6000602082840312156132d3578081fd5b815167ffffffffffffffff808211156132ea578283fd5b818401915084601f8301126132fd578283fd5b81518181111561330f5761330f613833565b604051601f8201601f19908116603f0116810190838211818310171561333757613337613833565b8160405282815287602084870101111561334f578586fd5b61336083602083016020880161379d565b979650505050505050565b60006020828403121561337c578081fd5b5035919050565b6000815180845261339b81602086016020860161379d565b601f01601f19169290920160200192915050565b600081516060845260018060a01b0381511660608501526020810151606060808601526133df60c0860182613383565b90506040820151151560a08601526020840151915061340b602086018380518252602090810151910152565b949350505050565b60008151606084526134286060850182613446565b90506020830151610879602086018280518252602090810151910152565b60018060a01b038151168252602081015160208301526000604082015160a0604085015261347760a0850182613383565b905060608301516060850152608083015160808501528091505092915050565b60018060a01b03815116825260208101516020830152600060408201516060604085015261340b6060850182613383565b6001600160a01b03841681526060602082018190526000906134ec90830185613383565b90508215156040830152949350505050565b60018060a01b038616815284602082015260a06040820152600061352560a0830186613383565b606083019490945250608001529392505050565b6000602080830181845280855180835260408601915060408160051b8701019250838701855b8281101561358d57603f1988860301845261357b8583516133af565b9450928501929085019060010161355f565b5092979650505050505050565b6000602080830181845280855180835260408601915060408160051b8701019250838701855b8281101561358d57603f198886030184526135dc858351613413565b945092850192908501906001016135c0565b6000602080830181845280855180835260408601915060408160051b8701019250838701855b8281101561358d57603f1988860301845281516060815181885261363a82890182613497565b9150508782015191506136598888018380518252602090810151910152565b9550509285019290850190600101613614565b604081016008841061368e57634e487b7160e01b600052602160045260246000fd5b9281526001600160a01b039190911660209091015290565b6020808252818101527f4f776e61626c653a2063616c6c6572206973206e6f7420746865206f776e6572604082015260600190565b6020808252600d908201526c105b1c9958591e481b1a5ad959609a1b604082015260600190565b60208152600061310160208301846133af565b6020815260006131016020830184613413565b6020815260006131016020830184613446565b6020815260006131016020830184613497565b600082198211156137615761376161381d565b500190565b60008261378157634e487b7160e01b81526012600452602481fd5b500490565b6000828210156137985761379861381d565b500390565b60005b838110156137b85781810151838201526020016137a0565b838111156137c7576000848401525b50505050565b600181811c908216806137e157607f821691505b6020821081141561101957634e487b7160e01b600052602260045260246000fd5b60006000198214156138165761381661381d565b5060010190565b634e487b7160e01b600052601160045260246000fd5b634e487b7160e01b600052604160045260246000fd5b6001600160a01b0381168114612c2457600080fdfea26469706673582212202f11cc804d17fbe1aad30dc88636a649605144aa3593d9a419aa63e56c3dde2564736f6c63430008040033",
  "linkReferences": {},
  "deployedLinkReferences": {}
}