{
    "_format": "hh-sol-artifact-1",
    "contractName": "CheddaDebtToken",
    "sourceName": "contracts/tokens/CheddaDebtToken.sol",
    "abi": [
        {
            "inputs": [
                {
                    "internalType": "contract ERC20",
                    "name": "_asset",
                    "type": "address"
                },
                {
                    "internalType": "address",
                    "name": "_vault",
                    "type": "address"
                }
            ],
            "stateMutability": "nonpayable",
            "type": "constructor"
        },
        {
            "anonymous": false,
            "inputs": [
                {
                    "indexed": true,
                    "internalType": "address",
                    "name": "owner",
                    "type": "address"
                },
                {
                    "indexed": true,
                    "internalType": "address",
                    "name": "spender",
                    "type": "address"
                },
                {
                    "indexed": false,
                    "internalType": "uint256",
                    "name": "amount",
                    "type": "uint256"
                }
            ],
            "name": "Approval",
            "type": "event"
        },
        {
            "anonymous": false,
            "inputs": [
                {
                    "indexed": true,
                    "internalType": "address",
                    "name": "account",
                    "type": "address"
                },
                {
                    "indexed": false,
                    "internalType": "uint256",
                    "name": "amount",
                    "type": "uint256"
                },
                {
                    "indexed": false,
                    "internalType": "uint256",
                    "name": "shares",
                    "type": "uint256"
                }
            ],
            "name": "DebtCreated",
            "type": "event"
        },
        {
            "anonymous": false,
            "inputs": [
                {
                    "indexed": true,
                    "internalType": "address",
                    "name": "account",
                    "type": "address"
                },
                {
                    "indexed": false,
                    "internalType": "uint256",
                    "name": "amount",
                    "type": "uint256"
                },
                {
                    "indexed": false,
                    "internalType": "uint256",
                    "name": "shares",
                    "type": "uint256"
                }
            ],
            "name": "DebtRepaid",
            "type": "event"
        },
        {
            "anonymous": false,
            "inputs": [
                {
                    "indexed": true,
                    "internalType": "address",
                    "name": "from",
                    "type": "address"
                },
                {
                    "indexed": true,
                    "internalType": "address",
                    "name": "to",
                    "type": "address"
                },
                {
                    "indexed": false,
                    "internalType": "uint256",
                    "name": "amount",
                    "type": "uint256"
                }
            ],
            "name": "Transfer",
            "type": "event"
        },
        {
            "inputs": [],
            "name": "BASE_RATE",
            "outputs": [
                {
                    "internalType": "uint256",
                    "name": "",
                    "type": "uint256"
                }
            ],
            "stateMutability": "view",
            "type": "function"
        },
        {
            "inputs": [],
            "name": "DOMAIN_SEPARATOR",
            "outputs": [
                {
                    "internalType": "bytes32",
                    "name": "",
                    "type": "bytes32"
                }
            ],
            "stateMutability": "view",
            "type": "function"
        },
        {
            "inputs": [],
            "name": "ONE_PERCENT",
            "outputs": [
                {
                    "internalType": "uint64",
                    "name": "",
                    "type": "uint64"
                }
            ],
            "stateMutability": "view",
            "type": "function"
        },
        {
            "inputs": [],
            "name": "PER_SECOND",
            "outputs": [
                {
                    "internalType": "uint64",
                    "name": "",
                    "type": "uint64"
                }
            ],
            "stateMutability": "view",
            "type": "function"
        },
        {
            "inputs": [],
            "name": "STARTING_INTEREST_RATE_PER_SECOND",
            "outputs": [
                {
                    "internalType": "uint64",
                    "name": "",
                    "type": "uint64"
                }
            ],
            "stateMutability": "view",
            "type": "function"
        },
        {
            "inputs": [
                {
                    "internalType": "address",
                    "name": "account",
                    "type": "address"
                }
            ],
            "name": "accountShare",
            "outputs": [
                {
                    "internalType": "uint256",
                    "name": "",
                    "type": "uint256"
                }
            ],
            "stateMutability": "view",
            "type": "function"
        },
        {
            "inputs": [],
            "name": "accrue",
            "outputs": [],
            "stateMutability": "nonpayable",
            "type": "function"
        },
        {
            "inputs": [
                {
                    "internalType": "address",
                    "name": "",
                    "type": "address"
                },
                {
                    "internalType": "address",
                    "name": "",
                    "type": "address"
                }
            ],
            "name": "allowance",
            "outputs": [
                {
                    "internalType": "uint256",
                    "name": "",
                    "type": "uint256"
                }
            ],
            "stateMutability": "view",
            "type": "function"
        },
        {
            "inputs": [
                {
                    "internalType": "uint256",
                    "name": "share",
                    "type": "uint256"
                }
            ],
            "name": "amountForShares",
            "outputs": [
                {
                    "internalType": "uint256",
                    "name": "amount",
                    "type": "uint256"
                }
            ],
            "stateMutability": "view",
            "type": "function"
        },
        {
            "inputs": [
                {
                    "internalType": "address",
                    "name": "spender",
                    "type": "address"
                },
                {
                    "internalType": "uint256",
                    "name": "amount",
                    "type": "uint256"
                }
            ],
            "name": "approve",
            "outputs": [
                {
                    "internalType": "bool",
                    "name": "",
                    "type": "bool"
                }
            ],
            "stateMutability": "nonpayable",
            "type": "function"
        },
        {
            "inputs": [],
            "name": "asset",
            "outputs": [
                {
                    "internalType": "address",
                    "name": "",
                    "type": "address"
                }
            ],
            "stateMutability": "view",
            "type": "function"
        },
        {
            "inputs": [
                {
                    "internalType": "address",
                    "name": "user",
                    "type": "address"
                }
            ],
            "name": "assetsOf",
            "outputs": [
                {
                    "internalType": "uint256",
                    "name": "",
                    "type": "uint256"
                }
            ],
            "stateMutability": "view",
            "type": "function"
        },
        {
            "inputs": [],
            "name": "assetsPerShare",
            "outputs": [
                {
                    "internalType": "uint256",
                    "name": "",
                    "type": "uint256"
                }
            ],
            "stateMutability": "view",
            "type": "function"
        },
        {
            "inputs": [
                {
                    "internalType": "address",
                    "name": "",
                    "type": "address"
                }
            ],
            "name": "balanceOf",
            "outputs": [
                {
                    "internalType": "uint256",
                    "name": "",
                    "type": "uint256"
                }
            ],
            "stateMutability": "view",
            "type": "function"
        },
        {
            "inputs": [
                {
                    "internalType": "uint256",
                    "name": "amount",
                    "type": "uint256"
                },
                {
                    "internalType": "address",
                    "name": "account",
                    "type": "address"
                }
            ],
            "name": "createDebt",
            "outputs": [
                {
                    "internalType": "uint256",
                    "name": "shares",
                    "type": "uint256"
                }
            ],
            "stateMutability": "nonpayable",
            "type": "function"
        },
        {
            "inputs": [],
            "name": "decimals",
            "outputs": [
                {
                    "internalType": "uint8",
                    "name": "",
                    "type": "uint8"
                }
            ],
            "stateMutability": "view",
            "type": "function"
        },
        {
            "inputs": [],
            "name": "name",
            "outputs": [
                {
                    "internalType": "string",
                    "name": "",
                    "type": "string"
                }
            ],
            "stateMutability": "view",
            "type": "function"
        },
        {
            "inputs": [
                {
                    "internalType": "address",
                    "name": "",
                    "type": "address"
                }
            ],
            "name": "nonces",
            "outputs": [
                {
                    "internalType": "uint256",
                    "name": "",
                    "type": "uint256"
                }
            ],
            "stateMutability": "view",
            "type": "function"
        },
        {
            "inputs": [
                {
                    "internalType": "address",
                    "name": "owner",
                    "type": "address"
                },
                {
                    "internalType": "address",
                    "name": "spender",
                    "type": "address"
                },
                {
                    "internalType": "uint256",
                    "name": "value",
                    "type": "uint256"
                },
                {
                    "internalType": "uint256",
                    "name": "deadline",
                    "type": "uint256"
                },
                {
                    "internalType": "uint8",
                    "name": "v",
                    "type": "uint8"
                },
                {
                    "internalType": "bytes32",
                    "name": "r",
                    "type": "bytes32"
                },
                {
                    "internalType": "bytes32",
                    "name": "s",
                    "type": "bytes32"
                }
            ],
            "name": "permit",
            "outputs": [],
            "stateMutability": "nonpayable",
            "type": "function"
        },
        {
            "inputs": [
                {
                    "internalType": "uint256",
                    "name": "amount",
                    "type": "uint256"
                }
            ],
            "name": "previewDeposit",
            "outputs": [
                {
                    "internalType": "uint256",
                    "name": "",
                    "type": "uint256"
                }
            ],
            "stateMutability": "view",
            "type": "function"
        },
        {
            "inputs": [
                {
                    "internalType": "uint256",
                    "name": "shares",
                    "type": "uint256"
                }
            ],
            "name": "previewMint",
            "outputs": [
                {
                    "internalType": "uint256",
                    "name": "",
                    "type": "uint256"
                }
            ],
            "stateMutability": "view",
            "type": "function"
        },
        {
            "inputs": [
                {
                    "internalType": "uint256",
                    "name": "shares",
                    "type": "uint256"
                }
            ],
            "name": "previewRedeem",
            "outputs": [
                {
                    "internalType": "uint256",
                    "name": "",
                    "type": "uint256"
                }
            ],
            "stateMutability": "view",
            "type": "function"
        },
        {
            "inputs": [
                {
                    "internalType": "uint256",
                    "name": "amount",
                    "type": "uint256"
                }
            ],
            "name": "previewWithdraw",
            "outputs": [
                {
                    "internalType": "uint256",
                    "name": "",
                    "type": "uint256"
                }
            ],
            "stateMutability": "view",
            "type": "function"
        },
        {
            "inputs": [
                {
                    "internalType": "uint256",
                    "name": "amount",
                    "type": "uint256"
                },
                {
                    "internalType": "address",
                    "name": "account",
                    "type": "address"
                }
            ],
            "name": "repayAmount",
            "outputs": [
                {
                    "internalType": "uint256",
                    "name": "shares",
                    "type": "uint256"
                }
            ],
            "stateMutability": "nonpayable",
            "type": "function"
        },
        {
            "inputs": [
                {
                    "internalType": "uint256",
                    "name": "share",
                    "type": "uint256"
                },
                {
                    "internalType": "address",
                    "name": "account",
                    "type": "address"
                }
            ],
            "name": "repayShare",
            "outputs": [
                {
                    "internalType": "uint256",
                    "name": "amount",
                    "type": "uint256"
                }
            ],
            "stateMutability": "nonpayable",
            "type": "function"
        },
        {
            "inputs": [
                {
                    "internalType": "uint256",
                    "name": "amount",
                    "type": "uint256"
                }
            ],
            "name": "sharesForAmount",
            "outputs": [
                {
                    "internalType": "uint256",
                    "name": "share",
                    "type": "uint256"
                }
            ],
            "stateMutability": "view",
            "type": "function"
        },
        {
            "inputs": [],
            "name": "symbol",
            "outputs": [
                {
                    "internalType": "string",
                    "name": "",
                    "type": "string"
                }
            ],
            "stateMutability": "view",
            "type": "function"
        },
        {
            "inputs": [],
            "name": "totalAssets",
            "outputs": [
                {
                    "internalType": "uint256",
                    "name": "totalDebt",
                    "type": "uint256"
                }
            ],
            "stateMutability": "view",
            "type": "function"
        },
        {
            "inputs": [],
            "name": "totalBorrowed",
            "outputs": [
                {
                    "internalType": "uint256",
                    "name": "borrowed",
                    "type": "uint256"
                }
            ],
            "stateMutability": "view",
            "type": "function"
        },
        {
            "inputs": [],
            "name": "totalSupply",
            "outputs": [
                {
                    "internalType": "uint256",
                    "name": "",
                    "type": "uint256"
                }
            ],
            "stateMutability": "view",
            "type": "function"
        },
        {
            "inputs": [
                {
                    "internalType": "address",
                    "name": "to",
                    "type": "address"
                },
                {
                    "internalType": "uint256",
                    "name": "amount",
                    "type": "uint256"
                }
            ],
            "name": "transfer",
            "outputs": [
                {
                    "internalType": "bool",
                    "name": "rv",
                    "type": "bool"
                }
            ],
            "stateMutability": "nonpayable",
            "type": "function"
        },
        {
            "inputs": [
                {
                    "internalType": "address",
                    "name": "from",
                    "type": "address"
                },
                {
                    "internalType": "address",
                    "name": "to",
                    "type": "address"
                },
                {
                    "internalType": "uint256",
                    "name": "amount",
                    "type": "uint256"
                }
            ],
            "name": "transferFrom",
            "outputs": [
                {
                    "internalType": "bool",
                    "name": "rv",
                    "type": "bool"
                }
            ],
            "stateMutability": "nonpayable",
            "type": "function"
        },
        {
            "inputs": [],
            "name": "vault",
            "outputs": [
                {
                    "internalType": "address",
                    "name": "",
                    "type": "address"
                }
            ],
            "stateMutability": "view",
            "type": "function"
        }
    ],
    "bytecode": "0x60e06040523480156200001157600080fd5b5060405162001992380380620019928339810160408190526200003491620003cf565b816001600160a01b03166306fdde036040518163ffffffff1660e01b815260040160006040518083038186803b1580156200006e57600080fd5b505afa15801562000083573d6000803e3d6000fd5b505050506040513d6000823e601f3d908101601f19168201604052620000ad919081019062000457565b604051602001620000bf91906200050f565b604051602081830303815290604052826001600160a01b03166395d89b416040518163ffffffff1660e01b815260040160006040518083038186803b1580156200010857600080fd5b505afa1580156200011d573d6000803e3d6000fd5b505050506040513d6000823e601f3d908101601f1916820160405262000147919081019062000457565b60405160200162000159919062000545565b604051602081830303815290604052836001600160a01b031663313ce5676040518163ffffffff1660e01b815260040160206040518083038186803b158015620001a257600080fd5b505afa158015620001b7573d6000803e3d6000fd5b505050506040513d601f19601f82011682018060405250810190620001dd919062000572565b8251620001f290600090602086019062000310565b5081516200020890600190602085019062000310565b506002805460ff191660ff8316179055466080526200022662000274565b60a05250506002546200023f915060ff16600a620006b3565b60c052600b80546001600160a01b039384166001600160a01b031991821617909155600a8054929093169116179055620007a5565b60007f8b73c3c69bb8fe3d512ecc4cf759cc79239f7b179b0ffacaa9a75d522b39400f6000604051620002a8919062000701565b6040805191829003822060208301939093528101919091527fc89efdaa54c0f20c7adf612882df0950f5a951637e0307cdcb4c672f298b8bc660608201524660808201523060a082015260c00160405160208183030381529060405280519060200120905090565b8280546200031e90620006c4565b90600052602060002090601f0160209004810192826200034257600085556200038d565b82601f106200035d57805160ff19168380011785556200038d565b828001600101855582156200038d579182015b828111156200038d57825182559160200191906001019062000370565b506200039b9291506200039f565b5090565b5b808211156200039b5760008155600101620003a0565b6001600160a01b0381168114620003cc57600080fd5b50565b60008060408385031215620003e357600080fd5b8251620003f081620003b6565b60208401519092506200040381620003b6565b809150509250929050565b634e487b7160e01b600052604160045260246000fd5b60005b838110156200044157818101518382015260200162000427565b8381111562000451576000848401525b50505050565b6000602082840312156200046a57600080fd5b81516001600160401b03808211156200048257600080fd5b818401915084601f8301126200049757600080fd5b815181811115620004ac57620004ac6200040e565b604051601f8201601f19908116603f01168101908382118183101715620004d757620004d76200040e565b81604052828152876020848701011115620004f157600080fd5b6200050483602083016020880162000424565b979650505050505050565b6b43484544444120446562742d60a01b8152600082516200053881600c85016020870162000424565b91909101600c0192915050565b6263642d60e81b8152600082516200056581600385016020870162000424565b9190910160030192915050565b6000602082840312156200058557600080fd5b815160ff811681146200059757600080fd5b9392505050565b634e487b7160e01b600052601160045260246000fd5b600181815b80851115620005f5578160001904821115620005d957620005d96200059e565b80851615620005e757918102915b93841c9390800290620005b9565b509250929050565b6000826200060e57506001620006ad565b816200061d57506000620006ad565b8160018114620006365760028114620006415762000661565b6001915050620006ad565b60ff8411156200065557620006556200059e565b50506001821b620006ad565b5060208310610133831016604e8410600b841016171562000686575081810a620006ad565b620006928383620005b4565b8060001904821115620006a957620006a96200059e565b0290505b92915050565b60006200059760ff841683620005fd565b600181811c90821680620006d957607f821691505b60208210811415620006fb57634e487b7160e01b600052602260045260246000fd5b50919050565b600080835481600182811c9150808316806200071e57607f831692505b60208084108214156200073f57634e487b7160e01b86526022600452602486fd5b818015620007565760018114620007685762000797565b60ff1986168952848901965062000797565b60008a81526020902060005b868110156200078f5781548b82015290850190830162000774565b505084890196505b509498975050505050505050565b60805160a05160c0516111bd620007d56000396000610705015260006107620152600061073201526111bd6000f3fe608060405234801561001057600080fd5b50600436106101fb5760003560e01c80634c19386c1161011a578063b3d7f6b9116100ad578063dd62ed3e1161007c578063dd62ed3e14610442578063ef8b30f71461024f578063f5f4d0031461046d578063f8ba4cff14610480578063fbfa77cf1461048857600080fd5b8063b3d7f6b9146103f9578063bb2eb4d21461040c578063ce2929d81461041a578063d505accf1461042d57600080fd5b80637ecebe00116100e95780637ecebe001461039a57806395d89b41146103ba578063a447a5c6146103c2578063a9059cbb146103eb57600080fd5b80634c19386c146103575780634cdad5061461035f57806357d0f5681461037257806370a082311461037a57600080fd5b8063313ce567116101925780633a53acb0116101615780633a53acb0146102fe5780633dd1d5d81461031157806341910f90146103355780634431d5201461034457600080fd5b8063313ce567146102a457806335d16e17146102c35780633644e515146102cb57806338d52e0f146102d357600080fd5b806312126081116101ce578063121260811461026257806318160ddd1461027557806323b872dd1461027e5780632c62fa101461029157600080fd5b806301e1d1141461020057806306fdde0314610217578063095ea7b31461022c5780630a28a4771461024f575b600080fd5b6009545b6040519081526020015b60405180910390f35b61021f61049b565b60405161020e9190610e43565b61023f61023a366004610eb4565b610529565b604051901515815260200161020e565b61020461025d366004610ede565b610596565b610204610270366004610ef7565b6105c5565b61020460035481565b61023f61028c366004610f23565b610691565b61020461029f366004610f5f565b6106dc565b6002546102b19060ff1681565b60405160ff909116815260200161020e565b6102046106fe565b61020461072e565b600b546102e6906001600160a01b031681565b6040516001600160a01b03909116815260200161020e565b61020461030c366004610ede565b610784565b61031c6312e687bf81565b60405167ffffffffffffffff909116815260200161020e565b610204670de0b6b3a764000081565b610204610352366004610ef7565b61078f565b610204610809565b61020461036d366004610ede565b610814565b61031c610834565b610204610388366004610f5f565b60046020526000908152604090205481565b6102046103a8366004610f5f565b60066020526000908152604090205481565b61021f610858565b6102046103d0366004610f5f565b6001600160a01b031660009081526004602052604090205490565b61023f61028c366004610eb4565b610204610407366004610ede565b610865565b61031c662386f26fc1000081565b610204610428366004610ef7565b610885565b61044061043b366004610f7a565b610945565b005b610204610450366004610fed565b600560209081526000928352604080842090915290825290205481565b61020461047b366004610ede565b610b96565b610440610ba1565b600a546102e6906001600160a01b031681565b600080546104a890611017565b80601f01602080910402602001604051908101604052809291908181526020018280546104d490611017565b80156105215780601f106104f657610100808354040283529160200191610521565b820191906000526020600020905b81548152906001019060200180831161050457829003601f168201915b505050505081565b3360008181526005602090815260408083206001600160a01b038716808552925280832085905551919290917f8c5be1e5ebec7d5bd14f71427d1e84f3dd0314c0f7b2291e5b200ac8c7c3b925906105849086815260200190565b60405180910390a35060015b92915050565b60035460009080156105bc576105b7816105af60095490565b859190610bab565b6105be565b825b9392505050565b60006105cf610bd9565b6105d883610814565b90508061061a5760405162461bcd60e51b815260206004820152600b60248201526a5a45524f5f41535345545360a81b60448201526064015b60405180910390fd5b6106248184610c57565b80600960008282546106369190611068565b9091555061064690508284610c63565b60408051828152602081018590526001600160a01b038416917f798353030d4251a345706609acf9ea7527f2ace26f73150a098c0fae89e5886d91015b60405180910390a292915050565b60405162461bcd60e51b815260206004820152601960248201527f4348446562743a204e6f6e2d7472616e736665727261626c65000000000000006044820152600090606401610611565b6001600160a01b03811660009081526004602052604081205461059090610814565b60006107297f0000000000000000000000000000000000000000000000000000000000000000610814565b905090565b60007f0000000000000000000000000000000000000000000000000000000000000000461461075f57610729610cdf565b507f000000000000000000000000000000000000000000000000000000000000000090565b600061059082610596565b600061079a83610596565b90506107a68382610c57565b82600960008282546107b89190611068565b909155506107c890508282610c63565b60408051848152602081018390526001600160a01b038416917f798353030d4251a345706609acf9ea7527f2ace26f73150a098c0fae89e5886d9101610683565b600061072960095490565b60035460009080156105bc576105b761082c60095490565b849083610d79565b6201518061084b61016d662386f26fc1000061107f565b610855919061107f565b81565b600180546104a890611017565b60035460009080156105bc576105b761087d60095490565b849083610bab565b600061088f610bd9565b61089883610596565b9050806108d55760405162461bcd60e51b815260206004820152600b60248201526a5a45524f5f53484152455360a81b6044820152606401610611565b82600960008282546108e791906110b4565b909155506108f790508282610d98565b60408051848152602081018390526001600160a01b038416917fc1b621921906be49d0631a297d31eb7f2de6e6ba1ab0f5281db5a7c582fed0ad910160405180910390a26105908382610c57565b428410156109955760405162461bcd60e51b815260206004820152601760248201527f5045524d49545f444541444c494e455f455850495245440000000000000000006044820152606401610611565b600061099f61072e565b6001600160a01b0389811660008181526006602090815260409182902080546001810190915582517f6e71edae12b1b97f4d1f60370fef10105fa2faae0126114a169c64845d6126c98184015280840194909452938c166060840152608083018b905260a083019390935260c08083018a90528151808403909101815260e08301909152805192019190912061190160f01b6101008301526101028201929092526101228101919091526101420160408051601f198184030181528282528051602091820120600080855291840180845281905260ff88169284019290925260608301869052608083018590529092509060019060a0016020604051602081039080840390855afa158015610ab8573d6000803e3d6000fd5b5050604051601f1901519150506001600160a01b03811615801590610aee5750886001600160a01b0316816001600160a01b0316145b610b2b5760405162461bcd60e51b815260206004820152600e60248201526d24a72b20a624a22fa9a4a3a722a960911b6044820152606401610611565b6001600160a01b0390811660009081526005602090815260408083208b8516808552908352928190208a905551898152919350918a16917f8c5be1e5ebec7d5bd14f71427d1e84f3dd0314c0f7b2291e5b200ac8c7c3b925910160405180910390a350505050505050565b600061059082610814565b610ba9610bd9565b565b828202811515841585830485141716610bc357600080fd5b6001826001830304018115150290509392505050565b6007544290600090610beb9083611068565b905080610bf6575050565b600854610c0a576312e687bf600855610c16565b610c12610dfc565b6008555b816007819055506000610c3982600854610c3091906110cc565b60095490610e2e565b90508060096000828254610c4d91906110b4565b9091555050505050565b610c5f610bd9565b5050565b6001600160a01b03821660009081526004602052604081208054839290610c8b908490611068565b90915550506003805482900390556040518181526000906001600160a01b038416907fddf252ad1be2c89b69c2b068fc378daa952ba7f163c4a11628f55a4df523b3ef906020015b60405180910390a35050565b60007f8b73c3c69bb8fe3d512ecc4cf759cc79239f7b179b0ffacaa9a75d522b39400f6000604051610d1191906110eb565b6040805191829003822060208301939093528101919091527fc89efdaa54c0f20c7adf612882df0950f5a951637e0307cdcb4c672f298b8bc660608201524660808201523060a082015260c00160405160208183030381529060405280519060200120905090565b828202811515841585830485141716610d9157600080fd5b0492915050565b8060036000828254610daa91906110b4565b90915550506001600160a01b0382166000818152600460209081526040808320805486019055518481527fddf252ad1be2c89b69c2b068fc378daa952ba7f163c4a11628f55a4df523b3ef9101610cd3565b600062015180610e1561016d662386f26fc1000061107f565b610e1f919061107f565b67ffffffffffffffff16905090565b60006105be8383670de0b6b3a7640000610bab565b600060208083528351808285015260005b81811015610e7057858101830151858201604001528201610e54565b81811115610e82576000604083870101525b50601f01601f1916929092016040019392505050565b80356001600160a01b0381168114610eaf57600080fd5b919050565b60008060408385031215610ec757600080fd5b610ed083610e98565b946020939093013593505050565b600060208284031215610ef057600080fd5b5035919050565b60008060408385031215610f0a57600080fd5b82359150610f1a60208401610e98565b90509250929050565b600080600060608486031215610f3857600080fd5b610f4184610e98565b9250610f4f60208501610e98565b9150604084013590509250925092565b600060208284031215610f7157600080fd5b6105be82610e98565b600080600080600080600060e0888a031215610f9557600080fd5b610f9e88610e98565b9650610fac60208901610e98565b95506040880135945060608801359350608088013560ff81168114610fd057600080fd5b9699959850939692959460a0840135945060c09093013592915050565b6000806040838503121561100057600080fd5b61100983610e98565b9150610f1a60208401610e98565b600181811c9082168061102b57607f821691505b6020821081141561104c57634e487b7160e01b600052602260045260246000fd5b50919050565b634e487b7160e01b600052601160045260246000fd5b60008282101561107a5761107a611052565b500390565b600067ffffffffffffffff808416806110a857634e487b7160e01b600052601260045260246000fd5b92169190910492915050565b600082198211156110c7576110c7611052565b500190565b60008160001904831182151516156110e6576110e6611052565b500290565b600080835481600182811c91508083168061110757607f831692505b602080841082141561112757634e487b7160e01b86526022600452602486fd5b81801561113b576001811461114c57611179565b60ff19861689528489019650611179565b60008a81526020902060005b868110156111715781548b820152908501908301611158565b505084890196505b50949897505050505050505056fea26469706673582212203df453be0a0d87fb61ce5ca81eeb7b1fc0f81387007a1f8495b41859d40bad0d64736f6c63430008090033",
    "linkReferences": {},
    "deployedLinkReferences": {}
}