{
  "_format": "hh-sol-artifact-1",
  "contractName": "Chedda",
  "sourceName": "contracts/tokens/Chedda.sol",
  "abi": [
    {
      "inputs": [
        {
          "internalType": "address",
          "name": "account",
          "type": "address"
        }
      ],
      "stateMutability": "nonpayable",
      "type": "constructor"
    },
    {
      "anonymous": false,
      "inputs": [
        {
          "indexed": true,
          "internalType": "address",
          "name": "owner",
          "type": "address"
        },
        {
          "indexed": true,
          "internalType": "address",
          "name": "spender",
          "type": "address"
        },
        {
          "indexed": false,
          "internalType": "uint256",
          "name": "amount",
          "type": "uint256"
        }
      ],
      "name": "Approval",
      "type": "event"
    },
    {
      "anonymous": false,
      "inputs": [
        {
          "indexed": true,
          "internalType": "address",
          "name": "vault",
          "type": "address"
        },
        {
          "indexed": false,
          "internalType": "uint256",
          "name": "minted",
          "type": "uint256"
        },
        {
          "indexed": false,
          "internalType": "uint256",
          "name": "totalSupply",
          "type": "uint256"
        }
      ],
      "name": "Rebased",
      "type": "event"
    },
    {
      "anonymous": false,
      "inputs": [
        {
          "indexed": true,
          "internalType": "address",
          "name": "from",
          "type": "address"
        },
        {
          "indexed": true,
          "internalType": "address",
          "name": "to",
          "type": "address"
        },
        {
          "indexed": false,
          "internalType": "uint256",
          "name": "amount",
          "type": "uint256"
        }
      ],
      "name": "Transfer",
      "type": "event"
    },
    {
      "anonymous": false,
      "inputs": [
        {
          "indexed": true,
          "internalType": "address",
          "name": "vault",
          "type": "address"
        },
        {
          "indexed": true,
          "internalType": "address",
          "name": "by",
          "type": "address"
        }
      ],
      "name": "VaultSet",
      "type": "event"
    },
    {
      "inputs": [],
      "name": "APR_PRECISION",
      "outputs": [
        {
          "internalType": "uint256",
          "name": "",
          "type": "uint256"
        }
      ],
      "stateMutability": "view",
      "type": "function"
    },
    {
      "inputs": [],
      "name": "DECIMALS",
      "outputs": [
        {
          "internalType": "uint256",
          "name": "",
          "type": "uint256"
        }
      ],
      "stateMutability": "view",
      "type": "function"
    },
    {
      "inputs": [],
      "name": "DOMAIN_SEPARATOR",
      "outputs": [
        {
          "internalType": "bytes32",
          "name": "",
          "type": "bytes32"
        }
      ],
      "stateMutability": "view",
      "type": "function"
    },
    {
      "inputs": [],
      "name": "INITIAL_SUPPLY",
      "outputs": [
        {
          "internalType": "uint256",
          "name": "",
          "type": "uint256"
        }
      ],
      "stateMutability": "view",
      "type": "function"
    },
    {
      "inputs": [
        {
          "internalType": "address",
          "name": "",
          "type": "address"
        },
        {
          "internalType": "address",
          "name": "",
          "type": "address"
        }
      ],
      "name": "allowance",
      "outputs": [
        {
          "internalType": "uint256",
          "name": "",
          "type": "uint256"
        }
      ],
      "stateMutability": "view",
      "type": "function"
    },
    {
      "inputs": [
        {
          "internalType": "address",
          "name": "spender",
          "type": "address"
        },
        {
          "internalType": "uint256",
          "name": "amount",
          "type": "uint256"
        }
      ],
      "name": "approve",
      "outputs": [
        {
          "internalType": "bool",
          "name": "",
          "type": "bool"
        }
      ],
      "stateMutability": "nonpayable",
      "type": "function"
    },
    {
      "inputs": [],
      "name": "apr",
      "outputs": [
        {
          "internalType": "uint256",
          "name": "",
          "type": "uint256"
        }
      ],
      "stateMutability": "view",
      "type": "function"
    },
    {
      "inputs": [
        {
          "internalType": "address",
          "name": "",
          "type": "address"
        }
      ],
      "name": "balanceOf",
      "outputs": [
        {
          "internalType": "uint256",
          "name": "",
          "type": "uint256"
        }
      ],
      "stateMutability": "view",
      "type": "function"
    },
    {
      "inputs": [],
      "name": "decimals",
      "outputs": [
        {
          "internalType": "uint8",
          "name": "",
          "type": "uint8"
        }
      ],
      "stateMutability": "view",
      "type": "function"
    },
    {
      "inputs": [],
      "name": "name",
      "outputs": [
        {
          "internalType": "string",
          "name": "",
          "type": "string"
        }
      ],
      "stateMutability": "view",
      "type": "function"
    },
    {
      "inputs": [
        {
          "internalType": "address",
          "name": "",
          "type": "address"
        }
      ],
      "name": "nonces",
      "outputs": [
        {
          "internalType": "uint256",
          "name": "",
          "type": "uint256"
        }
      ],
      "stateMutability": "view",
      "type": "function"
    },
    {
      "inputs": [
        {
          "internalType": "address",
          "name": "owner",
          "type": "address"
        },
        {
          "internalType": "address",
          "name": "spender",
          "type": "address"
        },
        {
          "internalType": "uint256",
          "name": "value",
          "type": "uint256"
        },
        {
          "internalType": "uint256",
          "name": "deadline",
          "type": "uint256"
        },
        {
          "internalType": "uint8",
          "name": "v",
          "type": "uint8"
        },
        {
          "internalType": "bytes32",
          "name": "r",
          "type": "bytes32"
        },
        {
          "internalType": "bytes32",
          "name": "s",
          "type": "bytes32"
        }
      ],
      "name": "permit",
      "outputs": [],
      "stateMutability": "nonpayable",
      "type": "function"
    },
    {
      "inputs": [],
      "name": "rebase",
      "outputs": [],
      "stateMutability": "nonpayable",
      "type": "function"
    },
    {
      "inputs": [
        {
          "internalType": "address",
          "name": "vault",
          "type": "address"
        }
      ],
      "name": "setVault",
      "outputs": [],
      "stateMutability": "nonpayable",
      "type": "function"
    },
    {
      "inputs": [],
      "name": "symbol",
      "outputs": [
        {
          "internalType": "string",
          "name": "",
          "type": "string"
        }
      ],
      "stateMutability": "view",
      "type": "function"
    },
    {
      "inputs": [],
      "name": "tokenVault",
      "outputs": [
        {
          "internalType": "address",
          "name": "",
          "type": "address"
        }
      ],
      "stateMutability": "view",
      "type": "function"
    },
    {
      "inputs": [],
      "name": "totalSupply",
      "outputs": [
        {
          "internalType": "uint256",
          "name": "",
          "type": "uint256"
        }
      ],
      "stateMutability": "view",
      "type": "function"
    },
    {
      "inputs": [
        {
          "internalType": "address",
          "name": "to",
          "type": "address"
        },
        {
          "internalType": "uint256",
          "name": "amount",
          "type": "uint256"
        }
      ],
      "name": "transfer",
      "outputs": [
        {
          "internalType": "bool",
          "name": "",
          "type": "bool"
        }
      ],
      "stateMutability": "nonpayable",
      "type": "function"
    },
    {
      "inputs": [
        {
          "internalType": "address",
          "name": "from",
          "type": "address"
        },
        {
          "internalType": "address",
          "name": "to",
          "type": "address"
        },
        {
          "internalType": "uint256",
          "name": "amount",
          "type": "uint256"
        }
      ],
      "name": "transferFrom",
      "outputs": [
        {
          "internalType": "bool",
          "name": "",
          "type": "bool"
        }
      ],
      "stateMutability": "nonpayable",
      "type": "function"
    }
  ],
  "bytecode": "0x60c0604052620000126012600a62000412565b6200001f906010620004d0565b6008553480156200002f57600080fd5b506040516200144c3803806200144c8339810160408190526200005291620002db565b6040518060400160405280600681526020016543686564646160d01b8152506040518060400160405280600681526020016543484544444160d01b81525060128260009080519060200190620000aa92919062000235565b508151620000c090600190602085019062000235565b506002805460ff191660ff831617905546608052620000de6200012c565b60a0525050600a80546001600160a01b031916331781554260095562000125915082906200010f9060129062000412565b6200011f906317d78400620004d0565b620001c8565b5062000545565b60007f8b73c3c69bb8fe3d512ecc4cf759cc79239f7b179b0ffacaa9a75d522b39400f60006040516200016091906200030b565b6040805191829003822060208301939093528101919091527fc89efdaa54c0f20c7adf612882df0950f5a951637e0307cdcb4c672f298b8bc660608201524660808201523060a082015260c00160405160208183030381529060405280519060200120905090565b8060036000828254620001dc9190620003ae565b90915550506001600160a01b0382166000818152600460209081526040808320805486019055518481527fddf252ad1be2c89b69c2b068fc378daa952ba7f163c4a11628f55a4df523b3ef910160405180910390a35050565b8280546200024390620004f2565b90600052602060002090601f016020900481019282620002675760008555620002b2565b82601f106200028257805160ff1916838001178555620002b2565b82800160010185558215620002b2579182015b82811115620002b257825182559160200191906001019062000295565b50620002c0929150620002c4565b5090565b5b80821115620002c05760008155600101620002c5565b600060208284031215620002ed578081fd5b81516001600160a01b038116811462000304578182fd5b9392505050565b600080835482600182811c9150808316806200032857607f831692505b60208084108214156200034957634e487b7160e01b87526022600452602487fd5b8180156200036057600181146200037257620003a0565b60ff19861689528489019650620003a0565b60008a815260209020885b86811015620003985781548b8201529085019083016200037d565b505084890196505b509498975050505050505050565b60008219821115620003c457620003c46200052f565b500190565b600181815b808511156200040a578160001904821115620003ee57620003ee6200052f565b80851615620003fc57918102915b93841c9390800290620003ce565b509250929050565b60006200030483836000826200042b57506001620004ca565b816200043a57506000620004ca565b81600181146200045357600281146200045e576200047e565b6001915050620004ca565b60ff8411156200047257620004726200052f565b50506001821b620004ca565b5060208310610133831016604e8410600b8410161715620004a3575081810a620004ca565b620004af8383620003c9565b8060001904821115620004c657620004c66200052f565b0290505b92915050565b6000816000190483118215151615620004ed57620004ed6200052f565b500290565b600181811c908216806200050757607f821691505b602082108114156200052957634e487b7160e01b600052602260045260246000fd5b50919050565b634e487b7160e01b600052601160045260246000fd5b60805160a051610ee16200056b60003960006104fe015260006104c90152610ee16000f3fe608060405234801561001057600080fd5b50600436106101215760003560e01c80635bc789d9116100ad578063a9059cbb11610071578063a9059cbb14610258578063af14052c1461026b578063d505accf14610273578063dd62ed3e14610286578063e9fee657146102b157600080fd5b80635bc789d9146101d05780636817031b146101fb57806370a08231146102105780637ecebe001461023057806395d89b411461025057600080fd5b80632e0f2625116100f45780632e0f2625146101915780632ff2e9dc14610199578063313ce567146101a15780633644e515146101c057806357ded9c9146101c857600080fd5b806306fdde0314610126578063095ea7b31461014457806318160ddd1461016757806323b872dd1461017e575b600080fd5b61012e6102bb565b60405161013b9190610cae565b60405180910390f35b610157610152366004610bea565b610349565b604051901515815260200161013b565b61017060035481565b60405190815260200161013b565b61015761018c366004610b3e565b6103b6565b610170601281565b6101706104a8565b6002546101ae9060ff1681565b60405160ff909116815260200161013b565b6101706104c5565b610170610520565b6007546101e3906001600160a01b031681565b6040516001600160a01b03909116815260200161013b565b61020e610209366004610aeb565b61054f565b005b61017061021e366004610aeb565b60046020526000908152604090205481565b61017061023e366004610aeb565b60066020526000908152604090205481565b61012e61061d565b610157610266366004610bea565b61062a565b61020e6106a2565b61020e610281366004610b79565b610779565b610170610294366004610b0c565b600560209081526000928352604080842090915290825290205481565b610170620186a081565b600080546102c890610e5a565b80601f01602080910402602001604051908101604052809291908181526020018280546102f490610e5a565b80156103415780601f1061031657610100808354040283529160200191610341565b820191906000526020600020905b81548152906001019060200180831161032457829003601f168201915b505050505081565b3360008181526005602090815260408083206001600160a01b038716808552925280832085905551919290917f8c5be1e5ebec7d5bd14f71427d1e84f3dd0314c0f7b2291e5b200ac8c7c3b925906103a49086815260200190565b60405180910390a35060015b92915050565b6001600160a01b03831660009081526005602090815260408083203384529091528120546000198114610412576103ed8382610e43565b6001600160a01b03861660009081526005602090815260408083203384529091529020555b6001600160a01b0385166000908152600460205260408120805485929061043a908490610e43565b90915550506001600160a01b03808516600081815260046020526040908190208054870190555190918716907fddf252ad1be2c89b69c2b068fc378daa952ba7f163c4a11628f55a4df523b3ef906104959087815260200190565b60405180910390a3506001949350505050565b6104b46012600a610d7c565b6104c2906317d78400610e24565b81565b60007f000000000000000000000000000000000000000000000000000000000000000046146104fb576104f66109ca565b905090565b507f000000000000000000000000000000000000000000000000000000000000000090565b6000600354620186a06008546301e1338061053b9190610e24565b6105459190610e24565b6104f69190610d19565b600a546001600160a01b031633146105a25760405162461bcd60e51b815260206004820152601160248201527021b432b232309d102737ba1037bbb732b960791b60448201526064015b60405180910390fd5b6007546001600160a01b0316156105fb5760405162461bcd60e51b815260206004820152601d60248201527f4368656464613a203a5661756c7420616c726561647920696e697465640000006044820152606401610599565b600780546001600160a01b0319166001600160a01b0392909216919091179055565b600180546102c890610e5a565b3360009081526004602052604081208054839190839061064b908490610e43565b90915550506001600160a01b038316600081815260046020526040908190208054850190555133907fddf252ad1be2c89b69c2b068fc378daa952ba7f163c4a11628f55a4df523b3ef906103a49086815260200190565b42600954106106ad57565b6000600854600954426106c09190610e43565b6106ca9190610e24565b9050600081116107105760405162461bcd60e51b81526020600482015260116024820152700496e76616c69642074696d657374616d7607c1b6044820152606401610599565b4260095560075461072a906001600160a01b031682610a64565b6007546003546040805184815260208101929092526001600160a01b03909216917f77b3c4f15805aa61fe59acf14faa5ec8abab1815e9acfec5427bb1899239fe9b910160405180910390a250565b428410156107c95760405162461bcd60e51b815260206004820152601760248201527f5045524d49545f444541444c494e455f455850495245440000000000000000006044820152606401610599565b60006107d36104c5565b6001600160a01b0389811660008181526006602090815260409182902080546001810190915582517f6e71edae12b1b97f4d1f60370fef10105fa2faae0126114a169c64845d6126c98184015280840194909452938c166060840152608083018b905260a083019390935260c08083018a90528151808403909101815260e08301909152805192019190912061190160f01b6101008301526101028201929092526101228101919091526101420160408051601f198184030181528282528051602091820120600080855291840180845281905260ff88169284019290925260608301869052608083018590529092509060019060a0016020604051602081039080840390855afa1580156108ec573d6000803e3d6000fd5b5050604051601f1901519150506001600160a01b038116158015906109225750886001600160a01b0316816001600160a01b0316145b61095f5760405162461bcd60e51b815260206004820152600e60248201526d24a72b20a624a22fa9a4a3a722a960911b6044820152606401610599565b6001600160a01b0390811660009081526005602090815260408083208b8516808552908352928190208a905551898152919350918a16917f8c5be1e5ebec7d5bd14f71427d1e84f3dd0314c0f7b2291e5b200ac8c7c3b925910160405180910390a350505050505050565b60007f8b73c3c69bb8fe3d512ecc4cf759cc79239f7b179b0ffacaa9a75d522b39400f60006040516109fc9190610c13565b6040805191829003822060208301939093528101919091527fc89efdaa54c0f20c7adf612882df0950f5a951637e0307cdcb4c672f298b8bc660608201524660808201523060a082015260c00160405160208183030381529060405280519060200120905090565b8060036000828254610a769190610d01565b90915550506001600160a01b0382166000818152600460209081526040808320805486019055518481527fddf252ad1be2c89b69c2b068fc378daa952ba7f163c4a11628f55a4df523b3ef910160405180910390a35050565b80356001600160a01b0381168114610ae657600080fd5b919050565b600060208284031215610afc578081fd5b610b0582610acf565b9392505050565b60008060408385031215610b1e578081fd5b610b2783610acf565b9150610b3560208401610acf565b90509250929050565b600080600060608486031215610b52578081fd5b610b5b84610acf565b9250610b6960208501610acf565b9150604084013590509250925092565b600080600080600080600060e0888a031215610b93578283fd5b610b9c88610acf565b9650610baa60208901610acf565b95506040880135945060608801359350608088013560ff81168114610bcd578384fd5b9699959850939692959460a0840135945060c09093013592915050565b60008060408385031215610bfc578182fd5b610c0583610acf565b946020939093013593505050565b600080835482600182811c915080831680610c2f57607f831692505b6020808410821415610c4f57634e487b7160e01b87526022600452602487fd5b818015610c635760018114610c7457610ca0565b60ff19861689528489019650610ca0565b60008a815260209020885b86811015610c985781548b820152908501908301610c7f565b505084890196505b509498975050505050505050565b6000602080835283518082850152825b81811015610cda57858101830151858201604001528201610cbe565b81811115610ceb5783604083870101525b50601f01601f1916929092016040019392505050565b60008219821115610d1457610d14610e95565b500190565b600082610d3457634e487b7160e01b81526012600452602481fd5b500490565b600181815b80851115610d74578160001904821115610d5a57610d5a610e95565b80851615610d6757918102915b93841c9390800290610d3e565b509250929050565b6000610b058383600082610d92575060016103b0565b81610d9f575060006103b0565b8160018114610db55760028114610dbf57610ddb565b60019150506103b0565b60ff841115610dd057610dd0610e95565b50506001821b6103b0565b5060208310610133831016604e8410600b8410161715610dfe575081810a6103b0565b610e088383610d39565b8060001904821115610e1c57610e1c610e95565b029392505050565b6000816000190483118215151615610e3e57610e3e610e95565b500290565b600082821015610e5557610e55610e95565b500390565b600181811c90821680610e6e57607f821691505b60208210811415610e8f57634e487b7160e01b600052602260045260246000fd5b50919050565b634e487b7160e01b600052601160045260246000fdfea2646970667358221220519d4ec630f810a090be2a54e5b6f6bca677e32ad82b01656cdec3e82ed133c864736f6c63430008040033",
  "linkReferences": {},
  "deployedLinkReferences": {}
}