{
  "_format": "hh-sol-artifact-1",
  "contractName": "CheddaXP",
  "sourceName": "contracts/chedda/CheddaXP.sol",
  "abi": [
    {
      "anonymous": false,
      "inputs": [
        {
          "indexed": true,
          "internalType": "address",
          "name": "from",
          "type": "address"
        },
        {
          "indexed": false,
          "internalType": "uint256",
          "name": "amount",
          "type": "uint256"
        }
      ],
      "name": "Burned",
      "type": "event"
    },
    {
      "anonymous": false,
      "inputs": [
        {
          "indexed": true,
          "internalType": "address",
          "name": "to",
          "type": "address"
        },
        {
          "indexed": false,
          "internalType": "uint256",
          "name": "amount",
          "type": "uint256"
        }
      ],
      "name": "Minted",
      "type": "event"
    },
    {
      "anonymous": false,
      "inputs": [
        {
          "indexed": true,
          "internalType": "address",
          "name": "previousOwner",
          "type": "address"
        },
        {
          "indexed": true,
          "internalType": "address",
          "name": "newOwner",
          "type": "address"
        }
      ],
      "name": "OwnershipTransferred",
      "type": "event"
    },
    {
      "anonymous": false,
      "inputs": [
        {
          "indexed": true,
          "internalType": "address",
          "name": "owner",
          "type": "address"
        },
        {
          "indexed": false,
          "internalType": "uint256",
          "name": "amount",
          "type": "uint256"
        }
      ],
      "name": "Slashed",
      "type": "event"
    },
    {
      "inputs": [
        {
          "internalType": "address",
          "name": "owner",
          "type": "address"
        }
      ],
      "name": "balanceOf",
      "outputs": [
        {
          "internalType": "uint256",
          "name": "",
          "type": "uint256"
        }
      ],
      "stateMutability": "view",
      "type": "function"
    },
    {
      "inputs": [
        {
          "internalType": "address",
          "name": "",
          "type": "address"
        }
      ],
      "name": "balances",
      "outputs": [
        {
          "internalType": "uint256",
          "name": "",
          "type": "uint256"
        }
      ],
      "stateMutability": "view",
      "type": "function"
    },
    {
      "inputs": [
        {
          "internalType": "uint256",
          "name": "amount",
          "type": "uint256"
        }
      ],
      "name": "burn",
      "outputs": [],
      "stateMutability": "nonpayable",
      "type": "function"
    },
    {
      "inputs": [],
      "name": "decimals",
      "outputs": [
        {
          "internalType": "uint8",
          "name": "",
          "type": "uint8"
        }
      ],
      "stateMutability": "view",
      "type": "function"
    },
    {
      "inputs": [
        {
          "internalType": "uint256",
          "name": "amount",
          "type": "uint256"
        },
        {
          "internalType": "address",
          "name": "owner",
          "type": "address"
        }
      ],
      "name": "mint",
      "outputs": [],
      "stateMutability": "nonpayable",
      "type": "function"
    },
    {
      "inputs": [],
      "name": "name",
      "outputs": [
        {
          "internalType": "string",
          "name": "",
          "type": "string"
        }
      ],
      "stateMutability": "view",
      "type": "function"
    },
    {
      "inputs": [],
      "name": "owner",
      "outputs": [
        {
          "internalType": "address",
          "name": "",
          "type": "address"
        }
      ],
      "stateMutability": "view",
      "type": "function"
    },
    {
      "inputs": [],
      "name": "registry",
      "outputs": [
        {
          "internalType": "contract CheddaAddressRegistry",
          "name": "",
          "type": "address"
        }
      ],
      "stateMutability": "view",
      "type": "function"
    },
    {
      "inputs": [],
      "name": "renounceOwnership",
      "outputs": [],
      "stateMutability": "nonpayable",
      "type": "function"
    },
    {
      "inputs": [
        {
          "internalType": "uint256",
          "name": "amount",
          "type": "uint256"
        },
        {
          "internalType": "address",
          "name": "owner",
          "type": "address"
        }
      ],
      "name": "slash",
      "outputs": [],
      "stateMutability": "nonpayable",
      "type": "function"
    },
    {
      "inputs": [],
      "name": "symbol",
      "outputs": [
        {
          "internalType": "string",
          "name": "",
          "type": "string"
        }
      ],
      "stateMutability": "view",
      "type": "function"
    },
    {
      "inputs": [],
      "name": "totalSupply",
      "outputs": [
        {
          "internalType": "uint256",
          "name": "",
          "type": "uint256"
        }
      ],
      "stateMutability": "view",
      "type": "function"
    },
    {
      "inputs": [
        {
          "internalType": "address",
          "name": "newOwner",
          "type": "address"
        }
      ],
      "name": "transferOwnership",
      "outputs": [],
      "stateMutability": "nonpayable",
      "type": "function"
    },
    {
      "inputs": [
        {
          "internalType": "address",
          "name": "registryAddress",
          "type": "address"
        }
      ],
      "name": "updateRegistry",
      "outputs": [],
      "stateMutability": "nonpayable",
      "type": "function"
    }
  ],
  "bytecode": "0x608060405234801561001057600080fd5b5061001a3361001f565b61006f565b600080546001600160a01b038381166001600160a01b0319831681178455604051919092169283917f8be0079c531659141344cd1fd0a4f28419497f9722a3daafe3b4186f6b6457e09190a35050565b610b498061007e6000396000f3fe608060405234801561001057600080fd5b50600436106100ea5760003560e01c806370a082311161008c5780638da5cb5b116100665780638da5cb5b146101fa57806394bf804d1461020b57806395d89b411461021e578063f2fde38b1461022657600080fd5b806370a082311461019e578063715018a6146101c75780637b103999146101cf57600080fd5b806327e235e3116100c857806327e235e314610139578063313ce567146101595780633d82e3c11461017857806342966c681461018b57600080fd5b806306fdde03146100ef57806318160ddd1461010d5780631a5da6c814610124575b600080fd5b6100f7610239565b60405161010491906109f6565b60405180910390f35b61011660045481565b604051908152602001610104565b610137610132366004610970565b6102c7565b005b610116610147366004610970565b60066020526000908152604090205481565b6003546101669060ff1681565b60405160ff9091168152602001610104565b6101376101863660046109c7565b61031c565b6101376101993660046109af565b610563565b6101166101ac366004610970565b6001600160a01b031660009081526006602052604090205490565b61013761056f565b6005546101e2906001600160a01b031681565b6040516001600160a01b039091168152602001610104565b6000546001600160a01b03166101e2565b6101376102193660046109c7565b6105a5565b6100f7610695565b610137610234366004610970565b6106a2565b6001805461024690610aad565b80601f016020809104026020016040519081016040528092919081815260200182805461027290610aad565b80156102bf5780601f10610294576101008083540402835291602001916102bf565b820191906000526020600020905b8154815290600101906020018083116102a257829003601f168201915b505050505081565b6000546001600160a01b031633146102fa5760405162461bcd60e51b81526004016102f190610a49565b60405180910390fd5b600580546001600160a01b0319166001600160a01b0392909216919091179055565b600560009054906101000a90046001600160a01b03166001600160a01b0316639ec5a8946040518163ffffffff1660e01b815260040160206040518083038186803b15801561036a57600080fd5b505afa15801561037e573d6000803e3d6000fd5b505050506040513d601f19601f820116820180604052508101906103a29190610993565b6001600160a01b0316336001600160a01b0316146103fe5760405162461bcd60e51b81526020600482015260196024820152784e6f7420616c6c6f7765643a204f6e6c79205265776172647360381b60448201526064016102f1565b6001600160a01b03811660009081526006602052604090205482818111156104235750805b600061042f8284610a96565b101561047d5760405162461bcd60e51b815260206004820152601760248201527f42616c616e63653a20496e76616c696420616d6f756e7400000000000000000060448201526064016102f1565b60008160045461048d9190610a96565b10156104db5760405162461bcd60e51b815260206004820152601c60248201527f546f74616c20537570706c793a20496e76616c696420616d6f756e740000000060448201526064016102f1565b80600460008282546104ed9190610a96565b90915550506001600160a01b0383166000908152600660205260408120805483929061051a908490610a96565b90915550506040518181526001600160a01b038416907f4ed05e9673c26d2ed44f7ef6a7f2942df0ee3b5e1e17db4b99f9dcd261a339cd9060200160405180910390a250505050565b61056c8161073a565b50565b6000546001600160a01b031633146105995760405162461bcd60e51b81526004016102f190610a49565b6105a36000610844565b565b600560009054906101000a90046001600160a01b03166001600160a01b0316639ec5a8946040518163ffffffff1660e01b815260040160206040518083038186803b1580156105f357600080fd5b505afa158015610607573d6000803e3d6000fd5b505050506040513d601f19601f8201168201806040525081019061062b9190610993565b6001600160a01b0316336001600160a01b0316146106875760405162461bcd60e51b81526020600482015260196024820152784e6f7420616c6c6f7765643a204f6e6c79205265776172647360381b60448201526064016102f1565b6106918282610894565b5050565b6002805461024690610aad565b6000546001600160a01b031633146106cc5760405162461bcd60e51b81526004016102f190610a49565b6001600160a01b0381166107315760405162461bcd60e51b815260206004820152602660248201527f4f776e61626c653a206e6577206f776e657220697320746865207a65726f206160448201526564647265737360d01b60648201526084016102f1565b61056c81610844565b6000811161077f5760405162461bcd60e51b81526020600482015260126024820152710616d6f756e74206d757374206265203e20360741b60448201526064016102f1565b336000908152600660205260409020548111156107d15760405162461bcd60e51b815260206004820152601060248201526f10985b185b98d9480f08185b5bdd5b9d60821b60448201526064016102f1565b80600460008282546107e39190610a96565b90915550503360009081526006602052604081208054839290610807908490610a96565b909155505060405181815233907f696de425f79f4a40bc6d2122ca50507f0efbeabbff86a84871b7196ab8ea8df79060200160405180910390a250565b600080546001600160a01b038381166001600160a01b0319831681178455604051919092169283917f8be0079c531659141344cd1fd0a4f28419497f9722a3daafe3b4186f6b6457e09190a35050565b816108da5760405162461bcd60e51b81526020600482015260166024820152750616d6f756e742073686f756c64206e6f7420626520360541b60448201526064016102f1565b81600460008282546108ec9190610a7e565b90915550506001600160a01b038116600090815260066020526040902054610915908390610a7e565b6001600160a01b038216600081815260066020526040908190209290925590517f30385c845b448a36257a6a1716e6ad2e1bc2cbe333cde1e69fe849ad6511adfe906109649085815260200190565b60405180910390a25050565b600060208284031215610981578081fd5b813561098c81610afe565b9392505050565b6000602082840312156109a4578081fd5b815161098c81610afe565b6000602082840312156109c0578081fd5b5035919050565b600080604083850312156109d9578081fd5b8235915060208301356109eb81610afe565b809150509250929050565b6000602080835283518082850152825b81811015610a2257858101830151858201604001528201610a06565b81811115610a335783604083870101525b50601f01601f1916929092016040019392505050565b6020808252818101527f4f776e61626c653a2063616c6c6572206973206e6f7420746865206f776e6572604082015260600190565b60008219821115610a9157610a91610ae8565b500190565b600082821015610aa857610aa8610ae8565b500390565b600181811c90821680610ac157607f821691505b60208210811415610ae257634e487b7160e01b600052602260045260246000fd5b50919050565b634e487b7160e01b600052601160045260246000fd5b6001600160a01b038116811461056c57600080fdfea264697066735822122061f747b37c095b2d6e3befab6a52f416a2ef0abd7a00081c8b0c37815c0c373f64736f6c63430008040033",
  "linkReferences": {},
  "deployedLinkReferences": {}
}