{
  "_format": "hh-sol-artifact-1",
  "contractName": "CheddaMarket",
  "sourceName": "contracts/market/CheddaMarket.sol",
  "abi": [
    {
      "anonymous": false,
      "inputs": [
        {
          "indexed": true,
          "internalType": "address",
          "name": "nftContract",
          "type": "address"
        },
        {
          "indexed": true,
          "internalType": "uint256",
          "name": "itemId",
          "type": "uint256"
        },
        {
          "indexed": false,
          "internalType": "uint256",
          "name": "price",
          "type": "uint256"
        }
      ],
      "name": "ItemListed",
      "type": "event"
    },
    {
      "anonymous": false,
      "inputs": [
        {
          "indexed": true,
          "internalType": "address",
          "name": "nftContract",
          "type": "address"
        },
        {
          "indexed": true,
          "internalType": "uint256",
          "name": "itemId",
          "type": "uint256"
        },
        {
          "indexed": false,
          "internalType": "uint256",
          "name": "price",
          "type": "uint256"
        }
      ],
      "name": "ItemSold",
      "type": "event"
    },
    {
      "anonymous": false,
      "inputs": [
        {
          "indexed": true,
          "internalType": "address",
          "name": "nftContract",
          "type": "address"
        },
        {
          "indexed": true,
          "internalType": "uint256",
          "name": "itemId",
          "type": "uint256"
        }
      ],
      "name": "ListingCancelled",
      "type": "event"
    },
    {
      "anonymous": false,
      "inputs": [
        {
          "indexed": false,
          "internalType": "uint256",
          "name": "marketFee",
          "type": "uint256"
        },
        {
          "indexed": true,
          "internalType": "address",
          "name": "updatedBy",
          "type": "address"
        }
      ],
      "name": "MarketFeeUpdated",
      "type": "event"
    },
    {
      "anonymous": false,
      "inputs": [
        {
          "indexed": true,
          "internalType": "address",
          "name": "previousOwner",
          "type": "address"
        },
        {
          "indexed": true,
          "internalType": "address",
          "name": "newOwner",
          "type": "address"
        }
      ],
      "name": "OwnershipTransferred",
      "type": "event"
    },
    {
      "inputs": [
        {
          "internalType": "address",
          "name": "nftContract",
          "type": "address"
        },
        {
          "internalType": "uint256",
          "name": "tokenId",
          "type": "uint256"
        }
      ],
      "name": "addItemToMarket",
      "outputs": [],
      "stateMutability": "nonpayable",
      "type": "function"
    },
    {
      "inputs": [
        {
          "internalType": "uint256",
          "name": "",
          "type": "uint256"
        }
      ],
      "name": "allListings",
      "outputs": [
        {
          "internalType": "address",
          "name": "nftContract",
          "type": "address"
        },
        {
          "internalType": "uint256",
          "name": "tokenId",
          "type": "uint256"
        },
        {
          "internalType": "address payable",
          "name": "seller",
          "type": "address"
        },
        {
          "internalType": "uint256",
          "name": "price",
          "type": "uint256"
        }
      ],
      "stateMutability": "view",
      "type": "function"
    },
    {
      "inputs": [
        {
          "internalType": "address",
          "name": "nftContract",
          "type": "address"
        },
        {
          "internalType": "uint256",
          "name": "tokenId",
          "type": "uint256"
        }
      ],
      "name": "buyItem",
      "outputs": [],
      "stateMutability": "payable",
      "type": "function"
    },
    {
      "inputs": [
        {
          "internalType": "address",
          "name": "nftContract",
          "type": "address"
        },
        {
          "internalType": "uint256",
          "name": "tokenId",
          "type": "uint256"
        }
      ],
      "name": "cancelBid",
      "outputs": [],
      "stateMutability": "nonpayable",
      "type": "function"
    },
    {
      "inputs": [
        {
          "internalType": "address",
          "name": "nftContract",
          "type": "address"
        },
        {
          "internalType": "uint256",
          "name": "tokenId",
          "type": "uint256"
        }
      ],
      "name": "cancelListing",
      "outputs": [],
      "stateMutability": "nonpayable",
      "type": "function"
    },
    {
      "inputs": [],
      "name": "feeRecipient",
      "outputs": [
        {
          "internalType": "address payable",
          "name": "",
          "type": "address"
        }
      ],
      "stateMutability": "view",
      "type": "function"
    },
    {
      "inputs": [],
      "name": "getAllListings",
      "outputs": [
        {
          "components": [
            {
              "internalType": "address",
              "name": "nftContract",
              "type": "address"
            },
            {
              "internalType": "uint256",
              "name": "tokenId",
              "type": "uint256"
            },
            {
              "internalType": "address payable",
              "name": "seller",
              "type": "address"
            },
            {
              "internalType": "uint256",
              "name": "price",
              "type": "uint256"
            }
          ],
          "internalType": "struct Listing[]",
          "name": "",
          "type": "tuple[]"
        }
      ],
      "stateMutability": "view",
      "type": "function"
    },
    {
      "inputs": [
        {
          "internalType": "address",
          "name": "nftContract",
          "type": "address"
        }
      ],
      "name": "itemsForSale",
      "outputs": [
        {
          "components": [
            {
              "internalType": "address",
              "name": "nftContract",
              "type": "address"
            },
            {
              "internalType": "uint256",
              "name": "tokenId",
              "type": "uint256"
            },
            {
              "internalType": "address payable",
              "name": "seller",
              "type": "address"
            },
            {
              "internalType": "uint256",
              "name": "price",
              "type": "uint256"
            }
          ],
          "internalType": "struct Listing[]",
          "name": "",
          "type": "tuple[]"
        }
      ],
      "stateMutability": "view",
      "type": "function"
    },
    {
      "inputs": [
        {
          "internalType": "address",
          "name": "nftContract",
          "type": "address"
        },
        {
          "internalType": "uint256",
          "name": "tokenId",
          "type": "uint256"
        },
        {
          "internalType": "uint256",
          "name": "reserve",
          "type": "uint256"
        },
        {
          "internalType": "uint256",
          "name": "startTime",
          "type": "uint256"
        },
        {
          "internalType": "uint256",
          "name": "endTime",
          "type": "uint256"
        }
      ],
      "name": "listItemForAuction",
      "outputs": [],
      "stateMutability": "nonpayable",
      "type": "function"
    },
    {
      "inputs": [
        {
          "internalType": "address",
          "name": "nftContract",
          "type": "address"
        },
        {
          "internalType": "uint256",
          "name": "tokenId",
          "type": "uint256"
        },
        {
          "internalType": "uint256",
          "name": "price",
          "type": "uint256"
        }
      ],
      "name": "listItemForSale",
      "outputs": [],
      "stateMutability": "nonpayable",
      "type": "function"
    },
    {
      "inputs": [
        {
          "internalType": "address",
          "name": "",
          "type": "address"
        },
        {
          "internalType": "uint256",
          "name": "",
          "type": "uint256"
        }
      ],
      "name": "listings",
      "outputs": [
        {
          "internalType": "address",
          "name": "nftContract",
          "type": "address"
        },
        {
          "internalType": "uint256",
          "name": "tokenId",
          "type": "uint256"
        },
        {
          "internalType": "address payable",
          "name": "seller",
          "type": "address"
        },
        {
          "internalType": "uint256",
          "name": "price",
          "type": "uint256"
        }
      ],
      "stateMutability": "view",
      "type": "function"
    },
    {
      "inputs": [],
      "name": "marketFee",
      "outputs": [
        {
          "internalType": "uint256",
          "name": "",
          "type": "uint256"
        }
      ],
      "stateMutability": "view",
      "type": "function"
    },
    {
      "inputs": [
        {
          "internalType": "address",
          "name": "",
          "type": "address"
        },
        {
          "internalType": "uint256",
          "name": "",
          "type": "uint256"
        }
      ],
      "name": "offers",
      "outputs": [
        {
          "internalType": "uint256",
          "name": "",
          "type": "uint256"
        }
      ],
      "stateMutability": "view",
      "type": "function"
    },
    {
      "inputs": [],
      "name": "owner",
      "outputs": [
        {
          "internalType": "address",
          "name": "",
          "type": "address"
        }
      ],
      "stateMutability": "view",
      "type": "function"
    },
    {
      "inputs": [
        {
          "internalType": "address",
          "name": "nftContract",
          "type": "address"
        },
        {
          "internalType": "uint256",
          "name": "tokenId",
          "type": "uint256"
        }
      ],
      "name": "placeBid",
      "outputs": [],
      "stateMutability": "payable",
      "type": "function"
    },
    {
      "inputs": [
        {
          "internalType": "address",
          "name": "nftContract",
          "type": "address"
        },
        {
          "internalType": "uint256",
          "name": "tokenId",
          "type": "uint256"
        }
      ],
      "name": "previousSales",
      "outputs": [
        {
          "components": [
            {
              "internalType": "address",
              "name": "seller",
              "type": "address"
            },
            {
              "internalType": "address",
              "name": "buyer",
              "type": "address"
            },
            {
              "internalType": "uint256",
              "name": "amountPaid",
              "type": "uint256"
            },
            {
              "internalType": "uint256",
              "name": "timestamp",
              "type": "uint256"
            }
          ],
          "internalType": "struct Sale[]",
          "name": "",
          "type": "tuple[]"
        }
      ],
      "stateMutability": "view",
      "type": "function"
    },
    {
      "inputs": [],
      "name": "registry",
      "outputs": [
        {
          "internalType": "contract ICheddaAddressRegistry",
          "name": "",
          "type": "address"
        }
      ],
      "stateMutability": "view",
      "type": "function"
    },
    {
      "inputs": [],
      "name": "renounceOwnership",
      "outputs": [],
      "stateMutability": "nonpayable",
      "type": "function"
    },
    {
      "inputs": [
        {
          "internalType": "address",
          "name": "",
          "type": "address"
        },
        {
          "internalType": "uint256",
          "name": "",
          "type": "uint256"
        },
        {
          "internalType": "uint256",
          "name": "",
          "type": "uint256"
        }
      ],
      "name": "sales",
      "outputs": [
        {
          "internalType": "address",
          "name": "seller",
          "type": "address"
        },
        {
          "internalType": "address",
          "name": "buyer",
          "type": "address"
        },
        {
          "internalType": "uint256",
          "name": "amountPaid",
          "type": "uint256"
        },
        {
          "internalType": "uint256",
          "name": "timestamp",
          "type": "uint256"
        }
      ],
      "stateMutability": "view",
      "type": "function"
    },
    {
      "inputs": [
        {
          "internalType": "uint256",
          "name": "newFee",
          "type": "uint256"
        }
      ],
      "name": "setMarketFee",
      "outputs": [],
      "stateMutability": "nonpayable",
      "type": "function"
    },
    {
      "inputs": [
        {
          "internalType": "address payable",
          "name": "newAddress",
          "type": "address"
        }
      ],
      "name": "setfeeRecipient",
      "outputs": [],
      "stateMutability": "nonpayable",
      "type": "function"
    },
    {
      "inputs": [
        {
          "internalType": "address",
          "name": "",
          "type": "address"
        },
        {
          "internalType": "uint256",
          "name": "",
          "type": "uint256"
        }
      ],
      "name": "tokenIdsForSale",
      "outputs": [
        {
          "internalType": "uint256",
          "name": "",
          "type": "uint256"
        }
      ],
      "stateMutability": "view",
      "type": "function"
    },
    {
      "inputs": [
        {
          "internalType": "address",
          "name": "newOwner",
          "type": "address"
        }
      ],
      "name": "transferOwnership",
      "outputs": [],
      "stateMutability": "nonpayable",
      "type": "function"
    },
    {
      "inputs": [
        {
          "internalType": "address",
          "name": "registryAddress",
          "type": "address"
        }
      ],
      "name": "updateRegistry",
      "outputs": [],
      "stateMutability": "nonpayable",
      "type": "function"
    }
  ],
  "bytecode": "0x608060405234801561001057600080fd5b5061001a33610023565b60018055610073565b600080546001600160a01b038381166001600160a01b0319831681178455604051919092169283917f8be0079c531659141344cd1fd0a4f28419497f9722a3daafe3b4186f6b6457e09190a35050565b611cb0806100826000396000f3fe60806040526004361061014a5760003560e01c80637b103999116100b6578063aa1a84111161006f578063aa1a84111461044e578063ae73ccec14610486578063b2ddee061461049b578063c33068d8146104bb578063d98b9bb5146104dd578063f2fde38b146104eb57600080fd5b80637b10399914610390578063806d4888146103b057806384213b9e146103dd5780638da5cb5b146103fd5780639f37092a1461041b578063a72bce571461042e57600080fd5b80633fb902ab116101085780633fb902ab1461028b57806346904840146102ab5780634b26a5b7146102e35780636a6f216f14610303578063715018a614610330578063769a8b2e1461034557600080fd5b806207df301461014f5780630ccf2156146101e65780630eeaa2ef1461020a5780631a5da6c81461022a57806326b825d21461024c57806339b6b1e51461026c575b600080fd5b34801561015b57600080fd5b506101a861016a3660046119cc565b6003602081815260009384526040808520909152918352912080546001820154600283015492909301546001600160a01b0391821693929091169084565b6040516101dd94939291906001600160a01b039485168152602081019390935292166040820152606081019190915260800190565b60405180910390f35b3480156101f257600080fd5b506101fc60085481565b6040519081526020016101dd565b34801561021657600080fd5b506101a8610225366004611a8e565b61050b565b34801561023657600080fd5b5061024a61024536600461198d565b610553565b005b34801561025857600080fd5b5061024a610267366004611a8e565b6105a8565b34801561027857600080fd5b5061024a6102873660046119cc565b5050565b34801561029757600080fd5b5061024a6102a63660046119f7565b61060f565b3480156102b757600080fd5b506009546102cb906001600160a01b031681565b6040516001600160a01b0390911681526020016101dd565b3480156102ef57600080fd5b506101fc6102fe3660046119cc565b6109bd565b34801561030f57600080fd5b5061032361031e3660046119cc565b6109ee565b6040516101dd9190611b16565b34801561033c57600080fd5b5061024a610a9a565b34801561035157600080fd5b506103656103603660046119f7565b610ad0565b604080516001600160a01b0395861681529490931660208501529183015260608201526080016101dd565b34801561039c57600080fd5b50600a546102cb906001600160a01b031681565b3480156103bc57600080fd5b506103d06103cb36600461198d565b610b31565b6040516101dd9190611aa6565b3480156103e957600080fd5b5061024a6103f836600461198d565b610ca7565b34801561040957600080fd5b506000546001600160a01b03166102cb565b61024a6104293660046119cc565b610cf3565b34801561043a57600080fd5b5061024a6104493660046119cc565b611133565b34801561045a57600080fd5b506101fc6104693660046119cc565b600660209081526000928352604080842090915290825290205481565b34801561049257600080fd5b506103d06112e8565b3480156104a757600080fd5b5061024a6104b63660046119cc565b611416565b3480156104c757600080fd5b5061024a6104d6366004611a2b565b5050505050565b61024a6102873660046119cc565b3480156104f757600080fd5b5061024a61050636600461198d565b611650565b6007818154811061051b57600080fd5b600091825260209091206004909102018054600182015460028301546003909301546001600160a01b03928316945090929091169084565b6000546001600160a01b031633146105865760405162461bcd60e51b815260040161057d90611b79565b60405180910390fd5b600a80546001600160a01b0319166001600160a01b0392909216919091179055565b6000546001600160a01b031633146105d25760405162461bcd60e51b815260040161057d90611b79565b600881905560405181815233907f35cf66f94c107dfd1826655b0ee6a81d59eea83a634cb73e2de4290e025eab089060200160405180910390a250565b828261061a826116eb565b156106c3576040516331a9108f60e11b815260048101829052829033906001600160a01b03831690636352211e9060240160206040518083038186803b15801561066357600080fd5b505afa158015610677573d6000803e3d6000fd5b505050506040513d601f19601f8201168201806040525081019061069b91906119b0565b6001600160a01b0316146106c15760405162461bcd60e51b815260040161057d90611bae565b505b6106cd8585611772565b156107135760405162461bcd60e51b815260206004820152601660248201527513585c9ad95d0e88105b1c9958591e481b1a5cdd195960521b604482015260640161057d565b60006040518060800160405280876001600160a01b0316815260200186815260200161073c3390565b6001600160a01b03908116825260209182018790528881166000818152600380855260408083208c84528652808320875181549087166001600160a01b03199182161782558888018051600180850191909155848b018051600286018054918c1691861691909117905560608c01805195909701949094556007805480830182559088528b5160049182027fa66cc928b5edb82af9bd49922954155ab7b0942694bea4ce44661d9a8736c68881018054928d169287169290921790915592517fa66cc928b5edb82af9bd49922954155ab7b0942694bea4ce44661d9a8736c68984015593517fa66cc928b5edb82af9bd49922954155ab7b0942694bea4ce44661d9a8736c68a83018054918b16919094161790925593517fa66cc928b5edb82af9bd49922954155ab7b0942694bea4ce44661d9a8736c68b9094019390935593835283865280832080549283018155835291859020018a9055600a54815163276aafbd60e21b8152915195965090921693639daabef49383830193909290829003018186803b1580156108ce57600080fd5b505afa1580156108e2573d6000803e3d6000fd5b505050506040513d601f19601f8201168201806040525081019061090691906119b0565b604051635fca9b9760e11b81526001600160a01b0388811660048301526024820188905260448201879052919091169063bf95372e90606401600060405180830381600087803b15801561095957600080fd5b505af115801561096d573d6000803e3d6000fd5b5050505084866001600160a01b03167f94e7b934c857a9e3202e8ed9c1f3f96e396b7d2b5885930d2001abcb51ff58fa866040516109ad91815260200190565b60405180910390a3505050505050565b600460205281600052604060002081815481106109d957600080fd5b90600052602060002001600091509150505481565b6001600160a01b03821660009081526005602090815260408083208484528252808320805482518185028101850190935280835260609493849084015b82821015610a8d576000848152602090819020604080516080810182526004860290920180546001600160a01b039081168452600180830154909116848601526002820154928401929092526003015460608301529083529092019101610a2b565b5092979650505050505050565b6000546001600160a01b03163314610ac45760405162461bcd60e51b815260040161057d90611b79565b610ace600061179f565b565b60056020528260005260406000206020528160005260406000208181548110610af857600080fd5b600091825260209091206004909102018054600182015460028301546003909301546001600160a01b0392831696509116935090915084565b6001600160a01b0381166000908152600460205260408120546060918167ffffffffffffffff811115610b7457634e487b7160e01b600052604160045260246000fd5b604051908082528060200260200182016040528015610bad57816020015b610b9a611953565b815260200190600190039081610b925790505b50905060005b82811015610c9f576001600160a01b038516600090815260036020908152604080832060049092528220805483919085908110610c0057634e487b7160e01b600052603260045260246000fd5b600091825260208083209091015483528281019390935260409182019020815160808101835281546001600160a01b03908116825260018301549482019490945260028201549093169183019190915260030154606082015283519091508190849084908110610c8057634e487b7160e01b600052603260045260246000fd5b6020026020010181905250508080610c9790611c34565b915050610bb3565b509392505050565b6000546001600160a01b03163314610cd15760405162461bcd60e51b815260040161057d90611b79565b600980546001600160a01b0319166001600160a01b0392909216919091179055565b60026001541415610d465760405162461bcd60e51b815260206004820152601f60248201527f5265656e7472616e637947756172643a207265656e7472616e742063616c6c00604482015260640161057d565b6002600155610d558282611772565b610d985760405162461bcd60e51b81526020600482015260146024820152734d61726b65743a204e6f7420666f722073616c6560601b604482015260640161057d565b6001600160a01b03821660009081526003602081815260408084208585529091529091209081015434811115610e085760405162461bcd60e51b81526020600482015260156024820152744d61726b65743a2056616c7565203c20707269636560581b604482015260640161057d565b6000610e13826117ef565b90508015610e57576009546040516001600160a01b039091169082156108fc029083906000818181858888f19350505050158015610e55573d6000803e3d6000fd5b505b6000610e638234611c1d565b60028501546040519192506001600160a01b03169082156108fc029083906000818181858888f19350505050158015610ea0573d6000803e3d6000fd5b5060028401546001600160a01b03878116916323b872dd9116336040516001600160e01b031960e085901b1681526001600160a01b0392831660048201529116602482015260448101889052606401600060405180830381600087803b158015610f0957600080fd5b505af1158015610f1d573d6000803e3d6000fd5b5050604080516080810190915260028701546001600160a01b0316815260009250905060208101336001600160a01b0390811682526020808301889052426040938401528a82166000908152600582528381208b8252825283812080546001818101835591835291839020865160049093020180549285166001600160a01b03199384161781559286015190830180549190941691161790915590820151600282015560608201516003909101559050610fd7878761180c565b600a60009054906101000a90046001600160a01b03166001600160a01b0316639daabef46040518163ffffffff1660e01b815260040160206040518083038186803b15801561102557600080fd5b505afa158015611039573d6000803e3d6000fd5b505050506040513d601f19601f8201168201806040525081019061105d91906119b0565b6002860154604080516336b4c15760e21b81526001600160a01b038b81166004830152602482018b90526044820187905292831660648201523360848201529051929091169163dad3055c9160a48082019260009290919082900301818387803b1580156110ca57600080fd5b505af11580156110de573d6000803e3d6000fd5b5050505085876001600160a01b03167f67b70c454298612e5de2836a2b7131dcfc7432501c85c6d9cb4771bfd7bfcd2d8660405161111e91815260200190565b60405180910390a35050600180555050505050565b818161113e826116eb565b156111e7576040516331a9108f60e11b815260048101829052829033906001600160a01b03831690636352211e9060240160206040518083038186803b15801561118757600080fd5b505afa15801561119b573d6000803e3d6000fd5b505050506040513d601f19601f820116820180604052508101906111bf91906119b0565b6001600160a01b0316146111e55760405162461bcd60e51b815260040161057d90611bae565b505b600a60009054906101000a90046001600160a01b03166001600160a01b0316639daabef46040518163ffffffff1660e01b815260040160206040518083038186803b15801561123557600080fd5b505afa158015611249573d6000803e3d6000fd5b505050506040513d601f19601f8201168201806040525081019061126d91906119b0565b604080516311d7c47b60e01b81526001600160a01b0387811660048301526024820187905260006044830181905233606484015292519316926311d7c47b9260848084019391929182900301818387803b1580156112ca57600080fd5b505af11580156112de573d6000803e3d6000fd5b5050505050505050565b60075460609060009067ffffffffffffffff81111561131757634e487b7160e01b600052604160045260246000fd5b60405190808252806020026020018201604052801561135057816020015b61133d611953565b8152602001906001900390816113355790505b50905060005b600754811015611410576007818154811061138157634e487b7160e01b600052603260045260246000fd5b600091825260209182902060408051608081018252600490930290910180546001600160a01b039081168452600182015494840194909452600281015490931690820152600390910154606082015282518390839081106113f257634e487b7160e01b600052603260045260246000fd5b6020026020010181905250808061140890611c34565b915050611356565b50919050565b8181611421826116eb565b156114ca576040516331a9108f60e11b815260048101829052829033906001600160a01b03831690636352211e9060240160206040518083038186803b15801561146a57600080fd5b505afa15801561147e573d6000803e3d6000fd5b505050506040513d601f19601f820116820180604052508101906114a291906119b0565b6001600160a01b0316146114c85760405162461bcd60e51b815260040161057d90611bae565b505b6114d48484611772565b6115205760405162461bcd60e51b815260206004820152601760248201527f4d61726b65743a204974656d206e6f74206c6973746564000000000000000000604482015260640161057d565b61152a848461180c565b600a60009054906101000a90046001600160a01b03166001600160a01b0316639daabef46040518163ffffffff1660e01b815260040160206040518083038186803b15801561157857600080fd5b505afa15801561158c573d6000803e3d6000fd5b505050506040513d601f19601f820116820180604052508101906115b091906119b0565b60405163330b02f160e01b81526001600160a01b03868116600483015260248201869052919091169063330b02f190604401600060405180830381600087803b1580156115fc57600080fd5b505af1158015611610573d6000803e3d6000fd5b50506040518592506001600160a01b03871691507f93ec4766fcd2d9dfdceab8f2e13ba0d9d826645cf03167fdb92b3b7359b5248c90600090a350505050565b6000546001600160a01b0316331461167a5760405162461bcd60e51b815260040161057d90611b79565b6001600160a01b0381166116df5760405162461bcd60e51b815260206004820152602660248201527f4f776e61626c653a206e6577206f776e657220697320746865207a65726f206160448201526564647265737360d01b606482015260840161057d565b6116e88161179f565b50565b6040516301ffc9a760e01b81526380ac58cd60e01b60048201526000906001600160a01b038316906301ffc9a79060240160206040518083038186803b15801561173457600080fd5b505afa158015611748573d6000803e3d6000fd5b505050506040513d601f19601f8201168201806040525081019061176c9190611a6e565b92915050565b6001600160a01b039182166000908152600360209081526040808320938352929052206002015416151590565b600080546001600160a01b038381166001600160a01b0319831681178455604051919092169283917f8be0079c531659141344cd1fd0a4f28419497f9722a3daafe3b4186f6b6457e09190a35050565b6000612710600854836118029190611bfe565b61176c9190611bde565b6001600160a01b0382166000908152600360208181526040808420858552909152822080546001600160a01b03199081168255600182018490556002820180549091169055018190558061186084846118b4565b9150915080156118ae576001600160a01b03841660009081526004602052604090208054839081106118a257634e487b7160e01b600052603260045260246000fd5b60009182526020822001555b50505050565b60008060005b6001600160a01b038516600090815260046020526040902054811015611943576001600160a01b038516600090815260046020526040902080548591908390811061191557634e487b7160e01b600052603260045260246000fd5b906000526020600020015414156119315791506001905061194c565b8061193b81611c34565b9150506118ba565b50600080915091505b9250929050565b604051806080016040528060006001600160a01b031681526020016000815260200160006001600160a01b03168152602001600081525090565b60006020828403121561199e578081fd5b81356119a981611c65565b9392505050565b6000602082840312156119c1578081fd5b81516119a981611c65565b600080604083850312156119de578081fd5b82356119e981611c65565b946020939093013593505050565b600080600060608486031215611a0b578081fd5b8335611a1681611c65565b95602085013595506040909401359392505050565b600080600080600060a08688031215611a42578081fd5b8535611a4d81611c65565b97602087013597506040870135966060810135965060800135945092505050565b600060208284031215611a7f578081fd5b815180151581146119a9578182fd5b600060208284031215611a9f578081fd5b5035919050565b602080825282518282018190526000919060409081850190868401855b82811015611b0957815180516001600160a01b03908116865287820151888701528682015116868601526060908101519085015260809093019290850190600101611ac3565b5091979650505050505050565b602080825282518282018190526000919060409081850190868401855b82811015611b0957815180516001600160a01b03908116865287820151168786015285810151868601526060908101519085015260809093019290850190600101611b33565b6020808252818101527f4f776e61626c653a2063616c6c6572206973206e6f7420746865206f776e6572604082015260600190565b60208082526016908201527526b0b935b2ba1d102737ba1034ba32b69037bbb732b960511b604082015260600190565b600082611bf957634e487b7160e01b81526012600452602481fd5b500490565b6000816000190483118215151615611c1857611c18611c4f565b500290565b600082821015611c2f57611c2f611c4f565b500390565b6000600019821415611c4857611c48611c4f565b5060010190565b634e487b7160e01b600052601160045260246000fd5b6001600160a01b03811681146116e857600080fdfea264697066735822122027224d681cd1feb44449aa0a527d0cbde0e3333e361e6ad6a2336a9471bb29dd64736f6c63430008040033",
  "linkReferences": {},
  "deployedLinkReferences": {}
}