{
  "_format": "hh-sol-artifact-1",
  "contractName": "CheddaNFT",
  "sourceName": "contracts/market/CheddaNFT.sol",
  "abi": [
    {
      "inputs": [
        {
          "internalType": "uint256",
          "name": "_mintFee",
          "type": "uint256"
        },
        {
          "internalType": "address payable",
          "name": "_feeReceipient",
          "type": "address"
        },
        {
          "internalType": "string",
          "name": "_name",
          "type": "string"
        },
        {
          "internalType": "string",
          "name": "_symbol",
          "type": "string"
        },
        {
          "internalType": "string",
          "name": "_uri",
          "type": "string"
        }
      ],
      "stateMutability": "nonpayable",
      "type": "constructor"
    },
    {
      "anonymous": false,
      "inputs": [
        {
          "indexed": true,
          "internalType": "address",
          "name": "owner",
          "type": "address"
        },
        {
          "indexed": true,
          "internalType": "address",
          "name": "approved",
          "type": "address"
        },
        {
          "indexed": true,
          "internalType": "uint256",
          "name": "tokenId",
          "type": "uint256"
        }
      ],
      "name": "Approval",
      "type": "event"
    },
    {
      "anonymous": false,
      "inputs": [
        {
          "indexed": true,
          "internalType": "address",
          "name": "owner",
          "type": "address"
        },
        {
          "indexed": true,
          "internalType": "address",
          "name": "operator",
          "type": "address"
        },
        {
          "indexed": false,
          "internalType": "bool",
          "name": "approved",
          "type": "bool"
        }
      ],
      "name": "ApprovalForAll",
      "type": "event"
    },
    {
      "anonymous": false,
      "inputs": [
        {
          "indexed": false,
          "internalType": "uint256",
          "name": "tokenId",
          "type": "uint256"
        },
        {
          "indexed": false,
          "internalType": "address",
          "name": "beneficiary",
          "type": "address"
        },
        {
          "indexed": false,
          "internalType": "string",
          "name": "tokenUri",
          "type": "string"
        },
        {
          "indexed": false,
          "internalType": "address",
          "name": "minter",
          "type": "address"
        }
      ],
      "name": "Minted",
      "type": "event"
    },
    {
      "anonymous": false,
      "inputs": [
        {
          "indexed": true,
          "internalType": "address",
          "name": "previousOwner",
          "type": "address"
        },
        {
          "indexed": true,
          "internalType": "address",
          "name": "newOwner",
          "type": "address"
        }
      ],
      "name": "OwnershipTransferred",
      "type": "event"
    },
    {
      "anonymous": false,
      "inputs": [
        {
          "indexed": true,
          "internalType": "address",
          "name": "from",
          "type": "address"
        },
        {
          "indexed": true,
          "internalType": "address",
          "name": "to",
          "type": "address"
        },
        {
          "indexed": true,
          "internalType": "uint256",
          "name": "tokenId",
          "type": "uint256"
        }
      ],
      "name": "Transfer",
      "type": "event"
    },
    {
      "inputs": [
        {
          "internalType": "address",
          "name": "to",
          "type": "address"
        },
        {
          "internalType": "uint256",
          "name": "tokenId",
          "type": "uint256"
        }
      ],
      "name": "approve",
      "outputs": [],
      "stateMutability": "nonpayable",
      "type": "function"
    },
    {
      "inputs": [
        {
          "internalType": "address",
          "name": "owner",
          "type": "address"
        }
      ],
      "name": "balanceOf",
      "outputs": [
        {
          "internalType": "uint256",
          "name": "",
          "type": "uint256"
        }
      ],
      "stateMutability": "view",
      "type": "function"
    },
    {
      "inputs": [],
      "name": "feeReceipient",
      "outputs": [
        {
          "internalType": "address payable",
          "name": "",
          "type": "address"
        }
      ],
      "stateMutability": "view",
      "type": "function"
    },
    {
      "inputs": [
        {
          "internalType": "uint256",
          "name": "tokenId",
          "type": "uint256"
        }
      ],
      "name": "getApproved",
      "outputs": [
        {
          "internalType": "address",
          "name": "",
          "type": "address"
        }
      ],
      "stateMutability": "view",
      "type": "function"
    },
    {
      "inputs": [
        {
          "internalType": "address",
          "name": "owner",
          "type": "address"
        },
        {
          "internalType": "address",
          "name": "operator",
          "type": "address"
        }
      ],
      "name": "isApprovedForAll",
      "outputs": [
        {
          "internalType": "bool",
          "name": "",
          "type": "bool"
        }
      ],
      "stateMutability": "view",
      "type": "function"
    },
    {
      "inputs": [],
      "name": "metadataURI",
      "outputs": [
        {
          "internalType": "string",
          "name": "",
          "type": "string"
        }
      ],
      "stateMutability": "view",
      "type": "function"
    },
    {
      "inputs": [
        {
          "internalType": "address",
          "name": "mintAddress",
          "type": "address"
        },
        {
          "internalType": "string",
          "name": "tokenUri",
          "type": "string"
        }
      ],
      "name": "mint",
      "outputs": [
        {
          "internalType": "uint256",
          "name": "",
          "type": "uint256"
        }
      ],
      "stateMutability": "payable",
      "type": "function"
    },
    {
      "inputs": [],
      "name": "mintFee",
      "outputs": [
        {
          "internalType": "uint256",
          "name": "",
          "type": "uint256"
        }
      ],
      "stateMutability": "view",
      "type": "function"
    },
    {
      "inputs": [
        {
          "internalType": "uint256",
          "name": "",
          "type": "uint256"
        }
      ],
      "name": "minters",
      "outputs": [
        {
          "internalType": "address",
          "name": "",
          "type": "address"
        }
      ],
      "stateMutability": "view",
      "type": "function"
    },
    {
      "inputs": [],
      "name": "name",
      "outputs": [
        {
          "internalType": "string",
          "name": "",
          "type": "string"
        }
      ],
      "stateMutability": "view",
      "type": "function"
    },
    {
      "inputs": [],
      "name": "owner",
      "outputs": [
        {
          "internalType": "address",
          "name": "",
          "type": "address"
        }
      ],
      "stateMutability": "view",
      "type": "function"
    },
    {
      "inputs": [
        {
          "internalType": "uint256",
          "name": "tokenId",
          "type": "uint256"
        }
      ],
      "name": "ownerOf",
      "outputs": [
        {
          "internalType": "address",
          "name": "",
          "type": "address"
        }
      ],
      "stateMutability": "view",
      "type": "function"
    },
    {
      "inputs": [],
      "name": "renounceOwnership",
      "outputs": [],
      "stateMutability": "nonpayable",
      "type": "function"
    },
    {
      "inputs": [
        {
          "internalType": "address",
          "name": "from",
          "type": "address"
        },
        {
          "internalType": "address",
          "name": "to",
          "type": "address"
        },
        {
          "internalType": "uint256",
          "name": "tokenId",
          "type": "uint256"
        }
      ],
      "name": "safeTransferFrom",
      "outputs": [],
      "stateMutability": "nonpayable",
      "type": "function"
    },
    {
      "inputs": [
        {
          "internalType": "address",
          "name": "from",
          "type": "address"
        },
        {
          "internalType": "address",
          "name": "to",
          "type": "address"
        },
        {
          "internalType": "uint256",
          "name": "tokenId",
          "type": "uint256"
        },
        {
          "internalType": "bytes",
          "name": "_data",
          "type": "bytes"
        }
      ],
      "name": "safeTransferFrom",
      "outputs": [],
      "stateMutability": "nonpayable",
      "type": "function"
    },
    {
      "inputs": [
        {
          "internalType": "address",
          "name": "operator",
          "type": "address"
        },
        {
          "internalType": "bool",
          "name": "approved",
          "type": "bool"
        }
      ],
      "name": "setApprovalForAll",
      "outputs": [],
      "stateMutability": "nonpayable",
      "type": "function"
    },
    {
      "inputs": [
        {
          "internalType": "uint256",
          "name": "newMintFee",
          "type": "uint256"
        }
      ],
      "name": "setMintFee",
      "outputs": [],
      "stateMutability": "nonpayable",
      "type": "function"
    },
    {
      "inputs": [
        {
          "internalType": "bytes4",
          "name": "interfaceId",
          "type": "bytes4"
        }
      ],
      "name": "supportsInterface",
      "outputs": [
        {
          "internalType": "bool",
          "name": "",
          "type": "bool"
        }
      ],
      "stateMutability": "view",
      "type": "function"
    },
    {
      "inputs": [],
      "name": "symbol",
      "outputs": [
        {
          "internalType": "string",
          "name": "",
          "type": "string"
        }
      ],
      "stateMutability": "view",
      "type": "function"
    },
    {
      "inputs": [
        {
          "internalType": "uint256",
          "name": "index",
          "type": "uint256"
        }
      ],
      "name": "tokenByIndex",
      "outputs": [
        {
          "internalType": "uint256",
          "name": "",
          "type": "uint256"
        }
      ],
      "stateMutability": "view",
      "type": "function"
    },
    {
      "inputs": [
        {
          "internalType": "address",
          "name": "owner",
          "type": "address"
        },
        {
          "internalType": "uint256",
          "name": "index",
          "type": "uint256"
        }
      ],
      "name": "tokenOfOwnerByIndex",
      "outputs": [
        {
          "internalType": "uint256",
          "name": "",
          "type": "uint256"
        }
      ],
      "stateMutability": "view",
      "type": "function"
    },
    {
      "inputs": [
        {
          "internalType": "uint256",
          "name": "tokenId",
          "type": "uint256"
        }
      ],
      "name": "tokenURI",
      "outputs": [
        {
          "internalType": "string",
          "name": "",
          "type": "string"
        }
      ],
      "stateMutability": "view",
      "type": "function"
    },
    {
      "inputs": [],
      "name": "totalSupply",
      "outputs": [
        {
          "internalType": "uint256",
          "name": "",
          "type": "uint256"
        }
      ],
      "stateMutability": "view",
      "type": "function"
    },
    {
      "inputs": [
        {
          "internalType": "address",
          "name": "from",
          "type": "address"
        },
        {
          "internalType": "address",
          "name": "to",
          "type": "address"
        },
        {
          "internalType": "uint256",
          "name": "tokenId",
          "type": "uint256"
        }
      ],
      "name": "transferFrom",
      "outputs": [],
      "stateMutability": "nonpayable",
      "type": "function"
    },
    {
      "inputs": [
        {
          "internalType": "address",
          "name": "newOwner",
          "type": "address"
        }
      ],
      "name": "transferOwnership",
      "outputs": [],
      "stateMutability": "nonpayable",
      "type": "function"
    }
  ],
  "bytecode": "0x60806040523480156200001157600080fd5b50604051620024fe380380620024fe833981016040819052620000349162000270565b8251839083906200004d90600090602085019062000117565b5080516200006390600190602084019062000117565b505050620000806200007a620000c160201b60201c565b620000c5565b600d859055600f80546001600160a01b0319166001600160a01b0386161790558051620000b590601090602084019062000117565b5050505050506200037b565b3390565b600a80546001600160a01b038381166001600160a01b0319831681179093556040519116919082907f8be0079c531659141344cd1fd0a4f28419497f9722a3daafe3b4186f6b6457e090600090a35050565b828054620001259062000328565b90600052602060002090601f01602090048101928262000149576000855562000194565b82601f106200016457805160ff191683800117855562000194565b8280016001018555821562000194579182015b828111156200019457825182559160200191906001019062000177565b50620001a2929150620001a6565b5090565b5b80821115620001a25760008155600101620001a7565b600082601f830112620001ce578081fd5b81516001600160401b0380821115620001eb57620001eb62000365565b604051601f8301601f19908116603f0116810190828211818310171562000216576200021662000365565b8160405283815260209250868385880101111562000232578485fd5b8491505b8382101562000255578582018301518183018401529082019062000236565b838211156200026657848385830101525b9695505050505050565b600080600080600060a0868803121562000288578081fd5b855160208701519095506001600160a01b0381168114620002a7578182fd5b60408701519094506001600160401b0380821115620002c4578283fd5b620002d289838a01620001bd565b94506060880151915080821115620002e8578283fd5b620002f689838a01620001bd565b935060808801519150808211156200030c578283fd5b506200031b88828901620001bd565b9150509295509295909350565b600181811c908216806200033d57607f821691505b602082108114156200035f57634e487b7160e01b600052602260045260246000fd5b50919050565b634e487b7160e01b600052604160045260246000fd5b612173806200038b6000396000f3fe6080604052600436106101665760003560e01c80636352211e116100d1578063a22cb4651161008a578063d0def52111610064578063d0def52114610428578063e985e9c51461043b578063eddd0d9c14610484578063f2fde38b146104a457600080fd5b8063a22cb465146103c8578063b88d4fde146103e8578063c87b56dd1461040857600080fd5b80636352211e1461030a57806370a082311461032a578063715018a61461034a5780638623ec7b1461035f5780638da5cb5b1461039557806395d89b41146103b357600080fd5b806318160ddd1161012357806318160ddd1461025557806323b872dd1461026a5780632f745c591461028a5780633740ebb3146102aa57806342842e0e146102ca5780634f6ccce7146102ea57600080fd5b806301ffc9a71461016b57806303ee438c146101a057806306fdde03146101c2578063081812fc146101d7578063095ea7b31461020f57806313966db514610231575b600080fd5b34801561017757600080fd5b5061018b610186366004611deb565b6104c4565b60405190151581526020015b60405180910390f35b3480156101ac57600080fd5b506101b56104ef565b6040516101979190611ed3565b3480156101ce57600080fd5b506101b561057d565b3480156101e357600080fd5b506101f76101f2366004611e23565b61060f565b6040516001600160a01b039091168152602001610197565b34801561021b57600080fd5b5061022f61022a366004611dc2565b61069c565b005b34801561023d57600080fd5b50610247600d5481565b604051908152602001610197565b34801561026157600080fd5b50600854610247565b34801561027657600080fd5b5061022f610285366004611bfa565b6107b2565b34801561029657600080fd5b506102476102a5366004611dc2565b6107e3565b3480156102b657600080fd5b50600f546101f7906001600160a01b031681565b3480156102d657600080fd5b5061022f6102e5366004611bfa565b610879565b3480156102f657600080fd5b50610247610305366004611e23565b610894565b34801561031657600080fd5b506101f7610325366004611e23565b610935565b34801561033657600080fd5b50610247610345366004611bae565b6109ac565b34801561035657600080fd5b5061022f610a33565b34801561036b57600080fd5b506101f761037a366004611e23565b600e602052600090815260409020546001600160a01b031681565b3480156103a157600080fd5b50600a546001600160a01b03166101f7565b3480156103bf57600080fd5b506101b5610a69565b3480156103d457600080fd5b5061022f6103e3366004611d0a565b610a78565b3480156103f457600080fd5b5061022f610403366004611c35565b610b3d565b34801561041457600080fd5b506101b5610423366004611e23565b610b75565b610247610436366004611d44565b610cd7565b34801561044757600080fd5b5061018b610456366004611bc8565b6001600160a01b03918216600090815260056020908152604080832093909416825291909152205460ff1690565b34801561049057600080fd5b5061022f61049f366004611e23565b610ec4565b3480156104b057600080fd5b5061022f6104bf366004611bae565b610ef3565b60006001600160e01b0319821663780e9d6360e01b14806104e957506104e982610f8e565b92915050565b601080546104fc90612081565b80601f016020809104026020016040519081016040528092919081815260200182805461052890612081565b80156105755780601f1061054a57610100808354040283529160200191610575565b820191906000526020600020905b81548152906001019060200180831161055857829003601f168201915b505050505081565b60606000805461058c90612081565b80601f01602080910402602001604051908101604052809291908181526020018280546105b890612081565b80156106055780601f106105da57610100808354040283529160200191610605565b820191906000526020600020905b8154815290600101906020018083116105e857829003601f168201915b5050505050905090565b600061061a82610fde565b6106805760405162461bcd60e51b815260206004820152602c60248201527f4552433732313a20617070726f76656420717565727920666f72206e6f6e657860448201526b34b9ba32b73a103a37b5b2b760a11b60648201526084015b60405180910390fd5b506000908152600460205260409020546001600160a01b031690565b60006106a782610935565b9050806001600160a01b0316836001600160a01b031614156107155760405162461bcd60e51b815260206004820152602160248201527f4552433732313a20617070726f76616c20746f2063757272656e74206f776e656044820152603960f91b6064820152608401610677565b336001600160a01b038216148061073157506107318133610456565b6107a35760405162461bcd60e51b815260206004820152603860248201527f4552433732313a20617070726f76652063616c6c6572206973206e6f74206f7760448201527f6e6572206e6f7220617070726f76656420666f7220616c6c00000000000000006064820152608401610677565b6107ad8383610ffb565b505050565b6107bc3382611069565b6107d85760405162461bcd60e51b815260040161067790611f6d565b6107ad838383611153565b60006107ee836109ac565b82106108505760405162461bcd60e51b815260206004820152602b60248201527f455243373231456e756d657261626c653a206f776e657220696e646578206f7560448201526a74206f6620626f756e647360a81b6064820152608401610677565b506001600160a01b03919091166000908152600660209081526040808320938352929052205490565b6107ad83838360405180602001604052806000815250610b3d565b600061089f60085490565b82106109025760405162461bcd60e51b815260206004820152602c60248201527f455243373231456e756d657261626c653a20676c6f62616c20696e646578206f60448201526b7574206f6620626f756e647360a01b6064820152608401610677565b6008828154811061092357634e487b7160e01b600052603260045260246000fd5b90600052602060002001549050919050565b6000818152600260205260408120546001600160a01b0316806104e95760405162461bcd60e51b815260206004820152602960248201527f4552433732313a206f776e657220717565727920666f72206e6f6e657869737460448201526832b73a103a37b5b2b760b91b6064820152608401610677565b60006001600160a01b038216610a175760405162461bcd60e51b815260206004820152602a60248201527f4552433732313a2062616c616e636520717565727920666f7220746865207a65604482015269726f206164647265737360b01b6064820152608401610677565b506001600160a01b031660009081526003602052604090205490565b600a546001600160a01b03163314610a5d5760405162461bcd60e51b815260040161067790611f38565b610a6760006112fe565b565b60606001805461058c90612081565b6001600160a01b038216331415610ad15760405162461bcd60e51b815260206004820152601960248201527f4552433732313a20617070726f766520746f2063616c6c6572000000000000006044820152606401610677565b3360008181526005602090815260408083206001600160a01b03871680855290835292819020805460ff191686151590811790915590519081529192917f17307eab39ab6107e8899845ad3d59bd9653f200f220920489ca2b5937696c31910160405180910390a35050565b610b473383611069565b610b635760405162461bcd60e51b815260040161067790611f6d565b610b6f84848484611350565b50505050565b606081610b8181610fde565b610bcd5760405162461bcd60e51b815260206004820152601b60248201527f4e46543a20746f6b656e496420646f6573206e6f7420657869737400000000006044820152606401610677565b6000838152600c602052604081208054610be690612081565b80601f0160208091040260200160405190810160405280929190818152602001828054610c1290612081565b8015610c5f5780601f10610c3457610100808354040283529160200191610c5f565b820191906000526020600020905b815481529060010190602001808311610c4257829003601f168201915b505050505090506000610c7d60408051602081019091526000815290565b9050805160001415610c9157509150610cd1565b815115610cc3578082604051602001610cab929190611e67565b60405160208183030381529060405293505050610cd1565b610ccc85611383565b935050505b50919050565b6000600d54341015610d2b5760405162461bcd60e51b815260206004820152601a60248201527f4e46543a20496e73756666696369656e74206d696e74206665650000000000006044820152606401610677565b81610d715760405162461bcd60e51b81526020600482015260166024820152754e46543a20746f6b656e55726920697320656d70747960501b6044820152606401610677565b6001600160a01b038416610db35760405162461bcd60e51b815260206004820152600960248201526827232a1d1020b2323960b91b6044820152606401610677565b610dc1600b80546001019055565b6000610dcc600b5490565b9050610dd8858261145b565b610e188185858080601f01602080910402602001604051908101604052809392919081815260200183838082843760009201919091525061147992505050565b3415610e5957600f546040516001600160a01b03909116903480156108fc02916000818181858888f19350505050158015610e57573d6000803e3d6000fd5b505b6000818152600e6020526040902080546001600160a01b031916331790557f997115af5924f5e38964c6d65c804d4cb85129b65e62eb20a8ca6329dbe57e1881868686610ea33390565b604051610eb4959493929190611fbe565b60405180910390a1949350505050565b600a546001600160a01b03163314610eee5760405162461bcd60e51b815260040161067790611f38565b600d55565b600a546001600160a01b03163314610f1d5760405162461bcd60e51b815260040161067790611f38565b6001600160a01b038116610f825760405162461bcd60e51b815260206004820152602660248201527f4f776e61626c653a206e6577206f776e657220697320746865207a65726f206160448201526564647265737360d01b6064820152608401610677565b610f8b816112fe565b50565b60006001600160e01b031982166380ac58cd60e01b1480610fbf57506001600160e01b03198216635b5e139f60e01b145b806104e957506301ffc9a760e01b6001600160e01b03198316146104e9565b6000908152600260205260409020546001600160a01b0316151590565b600081815260046020526040902080546001600160a01b0319166001600160a01b038416908117909155819061103082610935565b6001600160a01b03167f8c5be1e5ebec7d5bd14f71427d1e84f3dd0314c0f7b2291e5b200ac8c7c3b92560405160405180910390a45050565b600061107482610fde565b6110d55760405162461bcd60e51b815260206004820152602c60248201527f4552433732313a206f70657261746f7220717565727920666f72206e6f6e657860448201526b34b9ba32b73a103a37b5b2b760a11b6064820152608401610677565b60006110e083610935565b9050806001600160a01b0316846001600160a01b0316148061111b5750836001600160a01b03166111108461060f565b6001600160a01b0316145b8061114b57506001600160a01b0380821660009081526005602090815260408083209388168352929052205460ff165b949350505050565b826001600160a01b031661116682610935565b6001600160a01b0316146111ce5760405162461bcd60e51b815260206004820152602960248201527f4552433732313a207472616e73666572206f6620746f6b656e2074686174206960448201526839903737ba1037bbb760b91b6064820152608401610677565b6001600160a01b0382166112305760405162461bcd60e51b8152602060048201526024808201527f4552433732313a207472616e7366657220746f20746865207a65726f206164646044820152637265737360e01b6064820152608401610677565b61123b8383836114ee565b611246600082610ffb565b6001600160a01b038316600090815260036020526040812080546001929061126f90849061203e565b90915550506001600160a01b038216600090815260036020526040812080546001929061129d908490612012565b909155505060008181526002602052604080822080546001600160a01b0319166001600160a01b0386811691821790925591518493918716917fddf252ad1be2c89b69c2b068fc378daa952ba7f163c4a11628f55a4df523b3ef91a4505050565b600a80546001600160a01b038381166001600160a01b0319831681179093556040519116919082907f8be0079c531659141344cd1fd0a4f28419497f9722a3daafe3b4186f6b6457e090600090a35050565b61135b848484611153565b611367848484846115a6565b610b6f5760405162461bcd60e51b815260040161067790611ee6565b606061138e82610fde565b6113f25760405162461bcd60e51b815260206004820152602f60248201527f4552433732314d657461646174613a2055524920717565727920666f72206e6f60448201526e3732bc34b9ba32b73a103a37b5b2b760891b6064820152608401610677565b600061140960408051602081019091526000815290565b905060008151116114295760405180602001604052806000815250611454565b80611433846116b3565b604051602001611444929190611e67565b6040516020818303038152906040525b9392505050565b6114758282604051806020016040528060008152506117cd565b5050565b8161148381610fde565b6114cf5760405162461bcd60e51b815260206004820152601b60248201527f4e46543a20746f6b656e496420646f6573206e6f7420657869737400000000006044820152606401610677565b6000838152600c602090815260409091208351610b6f92850190611af9565b6001600160a01b0383166115495761154481600880546000838152600960205260408120829055600182018355919091527ff3f7a9fe364faab93b216da50a3214154f22a0a2b415b23a84c8169e8b636ee30155565b61156c565b816001600160a01b0316836001600160a01b03161461156c5761156c8382611800565b6001600160a01b038216611583576107ad8161189d565b826001600160a01b0316826001600160a01b0316146107ad576107ad8282611976565b60006001600160a01b0384163b156116a857604051630a85bd0160e11b81526001600160a01b0385169063150b7a02906115ea903390899088908890600401611e96565b602060405180830381600087803b15801561160457600080fd5b505af1925050508015611634575060408051601f3d908101601f1916820190925261163191810190611e07565b60015b61168e573d808015611662576040519150601f19603f3d011682016040523d82523d6000602084013e611667565b606091505b5080516116865760405162461bcd60e51b815260040161067790611ee6565b805181602001fd5b6001600160e01b031916630a85bd0160e11b14905061114b565b506001949350505050565b6060816116d75750506040805180820190915260018152600360fc1b602082015290565b8160005b811561170157806116eb816120b6565b91506116fa9050600a8361202a565b91506116db565b60008167ffffffffffffffff81111561172a57634e487b7160e01b600052604160045260246000fd5b6040519080825280601f01601f191660200182016040528015611754576020820181803683370190505b5090505b841561114b5761176960018361203e565b9150611776600a866120d1565b611781906030612012565b60f81b8183815181106117a457634e487b7160e01b600052603260045260246000fd5b60200101906001600160f81b031916908160001a9053506117c6600a8661202a565b9450611758565b6117d783836119ba565b6117e460008484846115a6565b6107ad5760405162461bcd60e51b815260040161067790611ee6565b6000600161180d846109ac565b611817919061203e565b60008381526007602052604090205490915080821461186a576001600160a01b03841660009081526006602090815260408083208584528252808320548484528184208190558352600790915290208190555b5060009182526007602090815260408084208490556001600160a01b039094168352600681528383209183525290812055565b6008546000906118af9060019061203e565b600083815260096020526040812054600880549394509092849081106118e557634e487b7160e01b600052603260045260246000fd5b90600052602060002001549050806008838154811061191457634e487b7160e01b600052603260045260246000fd5b600091825260208083209091019290925582815260099091526040808220849055858252812055600880548061195a57634e487b7160e01b600052603160045260246000fd5b6001900381819060005260206000200160009055905550505050565b6000611981836109ac565b6001600160a01b039093166000908152600660209081526040808320868452825280832085905593825260079052919091209190915550565b6001600160a01b038216611a105760405162461bcd60e51b815260206004820181905260248201527f4552433732313a206d696e7420746f20746865207a65726f20616464726573736044820152606401610677565b611a1981610fde565b15611a665760405162461bcd60e51b815260206004820152601c60248201527f4552433732313a20746f6b656e20616c7265616479206d696e746564000000006044820152606401610677565b611a72600083836114ee565b6001600160a01b0382166000908152600360205260408120805460019290611a9b908490612012565b909155505060008181526002602052604080822080546001600160a01b0319166001600160a01b03861690811790915590518392907fddf252ad1be2c89b69c2b068fc378daa952ba7f163c4a11628f55a4df523b3ef908290a45050565b828054611b0590612081565b90600052602060002090601f016020900481019282611b275760008555611b6d565b82601f10611b4057805160ff1916838001178555611b6d565b82800160010185558215611b6d579182015b82811115611b6d578251825591602001919060010190611b52565b50611b79929150611b7d565b5090565b5b80821115611b795760008155600101611b7e565b80356001600160a01b0381168114611ba957600080fd5b919050565b600060208284031215611bbf578081fd5b61145482611b92565b60008060408385031215611bda578081fd5b611be383611b92565b9150611bf160208401611b92565b90509250929050565b600080600060608486031215611c0e578081fd5b611c1784611b92565b9250611c2560208501611b92565b9150604084013590509250925092565b60008060008060808587031215611c4a578081fd5b611c5385611b92565b9350611c6160208601611b92565b925060408501359150606085013567ffffffffffffffff80821115611c84578283fd5b818701915087601f830112611c97578283fd5b813581811115611ca957611ca9612111565b604051601f8201601f19908116603f01168101908382118183101715611cd157611cd1612111565b816040528281528a6020848701011115611ce9578586fd5b82602086016020830137918201602001949094529598949750929550505050565b60008060408385031215611d1c578182fd5b611d2583611b92565b915060208301358015158114611d39578182fd5b809150509250929050565b600080600060408486031215611d58578283fd5b611d6184611b92565b9250602084013567ffffffffffffffff80821115611d7d578384fd5b818601915086601f830112611d90578384fd5b813581811115611d9e578485fd5b876020828501011115611daf578485fd5b6020830194508093505050509250925092565b60008060408385031215611dd4578182fd5b611ddd83611b92565b946020939093013593505050565b600060208284031215611dfc578081fd5b813561145481612127565b600060208284031215611e18578081fd5b815161145481612127565b600060208284031215611e34578081fd5b5035919050565b60008151808452611e53816020860160208601612055565b601f01601f19169290920160200192915050565b60008351611e79818460208801612055565b835190830190611e8d818360208801612055565b01949350505050565b6001600160a01b0385811682528416602082015260408101839052608060608201819052600090611ec990830184611e3b565b9695505050505050565b6020815260006114546020830184611e3b565b60208082526032908201527f4552433732313a207472616e7366657220746f206e6f6e20455243373231526560408201527131b2b4bb32b91034b6b83632b6b2b73a32b960711b606082015260800190565b6020808252818101527f4f776e61626c653a2063616c6c6572206973206e6f7420746865206f776e6572604082015260600190565b60208082526031908201527f4552433732313a207472616e736665722063616c6c6572206973206e6f74206f6040820152701ddb995c881b9bdc88185c1c1c9bdd9959607a1b606082015260800190565b8581526001600160a01b0385811660208301526080604083018190528201849052600090848660a085013782850160a090810192909252929092166060820152601f909201601f1916909101019392505050565b60008219821115612025576120256120e5565b500190565b600082612039576120396120fb565b500490565b600082821015612050576120506120e5565b500390565b60005b83811015612070578181015183820152602001612058565b83811115610b6f5750506000910152565b600181811c9082168061209557607f821691505b60208210811415610cd157634e487b7160e01b600052602260045260246000fd5b60006000198214156120ca576120ca6120e5565b5060010190565b6000826120e0576120e06120fb565b500690565b634e487b7160e01b600052601160045260246000fd5b634e487b7160e01b600052601260045260246000fd5b634e487b7160e01b600052604160045260246000fd5b6001600160e01b031981168114610f8b57600080fdfea2646970667358221220d161e089ec3647b2fa94e9fc4b40c804c2c5c0d8cacd65072a87754d7049922d64736f6c63430008040033",
  "linkReferences": {},
  "deployedLinkReferences": {}
}