{
  "_format": "hh-sol-artifact-1",
  "contractName": "Faucet",
  "sourceName": "contracts/common/Faucet.sol",
  "abi": [
    {
      "anonymous": false,
      "inputs": [
        {
          "indexed": true,
          "internalType": "address",
          "name": "token",
          "type": "address"
        },
        {
          "indexed": true,
          "internalType": "address",
          "name": "from",
          "type": "address"
        },
        {
          "indexed": false,
          "internalType": "uint256",
          "name": "amount",
          "type": "uint256"
        }
      ],
      "name": "TokensReceived",
      "type": "event"
    },
    {
      "anonymous": false,
      "inputs": [
        {
          "indexed": true,
          "internalType": "address",
          "name": "token",
          "type": "address"
        },
        {
          "indexed": true,
          "internalType": "address",
          "name": "to",
          "type": "address"
        },
        {
          "indexed": false,
          "internalType": "uint256",
          "name": "amount",
          "type": "uint256"
        }
      ],
      "name": "TokensSent",
      "type": "event"
    },
    {
      "inputs": [],
      "name": "amountToDrip",
      "outputs": [
        {
          "internalType": "uint256",
          "name": "",
          "type": "uint256"
        }
      ],
      "stateMutability": "view",
      "type": "function"
    },
    {
      "inputs": [
        {
          "internalType": "address",
          "name": "token",
          "type": "address"
        }
      ],
      "name": "balanceOf",
      "outputs": [
        {
          "internalType": "uint256",
          "name": "",
          "type": "uint256"
        }
      ],
      "stateMutability": "view",
      "type": "function"
    },
    {
      "inputs": [
        {
          "internalType": "address",
          "name": "token",
          "type": "address"
        }
      ],
      "name": "drip",
      "outputs": [],
      "stateMutability": "nonpayable",
      "type": "function"
    },
    {
      "inputs": [],
      "name": "dripAmount",
      "outputs": [
        {
          "internalType": "uint256",
          "name": "",
          "type": "uint256"
        }
      ],
      "stateMutability": "view",
      "type": "function"
    },
    {
      "inputs": [
        {
          "internalType": "address",
          "name": "token",
          "type": "address"
        },
        {
          "internalType": "uint256",
          "name": "amount",
          "type": "uint256"
        }
      ],
      "name": "fill",
      "outputs": [],
      "stateMutability": "nonpayable",
      "type": "function"
    },
    {
      "inputs": [
        {
          "internalType": "address",
          "name": "",
          "type": "address"
        },
        {
          "internalType": "address",
          "name": "",
          "type": "address"
        }
      ],
      "name": "lastDripped",
      "outputs": [
        {
          "internalType": "uint256",
          "name": "",
          "type": "uint256"
        }
      ],
      "stateMutability": "view",
      "type": "function"
    },
    {
      "inputs": [],
      "name": "minDripTimeout",
      "outputs": [
        {
          "internalType": "uint256",
          "name": "",
          "type": "uint256"
        }
      ],
      "stateMutability": "view",
      "type": "function"
    },
    {
      "inputs": [
        {
          "internalType": "address",
          "name": "token",
          "type": "address"
        }
      ],
      "name": "mint",
      "outputs": [],
      "stateMutability": "nonpayable",
      "type": "function"
    }
  ],
  "bytecode": "0x608060405269021e19e0c9bab24000006000556201518060025534801561002557600080fd5b5061062a806100356000396000f3fe608060405234801561001057600080fd5b50600436106100885760003560e01c806367a5cd061161005b57806367a5cd06146100e05780636a627842146100f557806370a08231146101085780639d200c3f1461011b57600080fd5b80632a8f76031461008d57806335a1529b146100a35780633d155312146100ac5780633f9a47dc146100d7575b600080fd5b6000545b60405190815260200160405180910390f35b61009160005481565b6100916100ba366004610514565b600160209081526000928352604080842090915290825290205481565b61009160025481565b6100f36100ee366004610547565b61012e565b005b6100f3610103366004610547565b6102a1565b610091610116366004610547565b6103b4565b6100f3610129366004610569565b610434565b6002546001600160a01b038216600090815260016020908152604080832033808552925290912054909161016191610593565b42116101aa5760405162461bcd60e51b815260206004820152601360248201527210d211985d58d95d0e88135d5cdd081dd85a5d606a1b60448201526064015b60405180910390fd5b6001600160a01b038281166000818152600160209081526040808320948616808452949091528082204290559054905163a9059cbb60e01b8152600481019390935260248301529063a9059cbb90604401602060405180830381600087803b15801561021557600080fd5b505af1158015610229573d6000803e3d6000fd5b505050506040513d601f19601f8201168201806040525081019061024d91906105b9565b50806001600160a01b0316826001600160a01b03167fe607861baff3d292b19188affe88c1a72bdcb69d3015f18bb2cd0bf5349cc3e160005460405161029591815260200190565b60405180910390a35050565b6002546001600160a01b03821660009081526001602090815260408083203380855292529091205490916102d491610593565b42116103185760405162461bcd60e51b815260206004820152601360248201527210d211985d58d95d0e88135d5cdd081dd85a5d606a1b60448201526064016101a1565b6001600160a01b03828116600081815260016020908152604080832094861680845294909152908190204290555163755edd1760e01b815260048101929092529063755edd1790602401602060405180830381600087803b15801561037c57600080fd5b505af1158015610390573d6000803e3d6000fd5b505050506040513d601f19601f8201168201806040525081019061024d91906105db565b6040516370a0823160e01b81523060048201526000906001600160a01b038316906370a082319060240160206040518083038186803b1580156103f657600080fd5b505afa15801561040a573d6000803e3d6000fd5b505050506040513d601f19601f8201168201806040525081019061042e91906105db565b92915050565b6040516323b872dd60e01b8152336004820152306024820152604481018290526001600160a01b038316906323b872dd90606401602060405180830381600087803b15801561048257600080fd5b505af1158015610496573d6000803e3d6000fd5b505050506040513d601f19601f820116820180604052508101906104ba91906105b9565b5060405181815233906001600160a01b038416907f0af1239547617509a79d1ff0ee4be9ca943bc8410cb0b282dda97d27995a0acd90602001610295565b80356001600160a01b038116811461050f57600080fd5b919050565b6000806040838503121561052757600080fd5b610530836104f8565b915061053e602084016104f8565b90509250929050565b60006020828403121561055957600080fd5b610562826104f8565b9392505050565b6000806040838503121561057c57600080fd5b610585836104f8565b946020939093013593505050565b600082198211156105b457634e487b7160e01b600052601160045260246000fd5b500190565b6000602082840312156105cb57600080fd5b8151801515811461056257600080fd5b6000602082840312156105ed57600080fd5b505191905056fea26469706673582212203e17575efad8803a69f2adc04c29ba497bfae6ba5839621a0a2b22b1c7cdc81c64736f6c63430008090033",
  "linkReferences": {},
  "deployedLinkReferences": {}
}