{
  "_format": "hh-sol-artifact-1",
  "contractName": "GaugeController",
  "sourceName": "contracts/gauges/GaugeController.sol",
  "abi": [
    {
      "anonymous": false,
      "inputs": [
        {
          "indexed": false,
          "internalType": "uint256",
          "name": "start",
          "type": "uint256"
        },
        {
          "indexed": false,
          "internalType": "uint256",
          "name": "end",
          "type": "uint256"
        },
        {
          "indexed": true,
          "internalType": "address",
          "name": "reaper",
          "type": "address"
        }
      ],
      "name": "EpochCreated",
      "type": "event"
    },
    {
      "anonymous": false,
      "inputs": [
        {
          "indexed": true,
          "internalType": "address",
          "name": "by",
          "type": "address"
        },
        {
          "indexed": false,
          "internalType": "uint256",
          "name": "startTime",
          "type": "uint256"
        }
      ],
      "name": "GaugeCreated",
      "type": "event"
    },
    {
      "anonymous": false,
      "inputs": [
        {
          "indexed": true,
          "internalType": "address",
          "name": "by",
          "type": "address"
        },
        {
          "indexed": false,
          "internalType": "uint256",
          "name": "startTime",
          "type": "uint256"
        }
      ],
      "name": "GenesisCreated",
      "type": "event"
    },
    {
      "anonymous": false,
      "inputs": [
        {
          "indexed": true,
          "internalType": "address",
          "name": "previousOwner",
          "type": "address"
        },
        {
          "indexed": true,
          "internalType": "address",
          "name": "newOwner",
          "type": "address"
        }
      ],
      "name": "OwnershipTransferred",
      "type": "event"
    },
    {
      "anonymous": false,
      "inputs": [
        {
          "indexed": true,
          "internalType": "address",
          "name": "reaper",
          "type": "address"
        },
        {
          "indexed": false,
          "internalType": "uint256",
          "name": "totalWeight",
          "type": "uint256"
        }
      ],
      "name": "Rebalance",
      "type": "event"
    },
    {
      "anonymous": false,
      "inputs": [
        {
          "indexed": true,
          "internalType": "address",
          "name": "tokenAddress",
          "type": "address"
        },
        {
          "indexed": true,
          "internalType": "address",
          "name": "by",
          "type": "address"
        }
      ],
      "name": "RewardsTokenSet",
      "type": "event"
    },
    {
      "anonymous": false,
      "inputs": [
        {
          "indexed": true,
          "internalType": "address",
          "name": "tokenAddress",
          "type": "address"
        },
        {
          "indexed": true,
          "internalType": "address",
          "name": "by",
          "type": "address"
        }
      ],
      "name": "VeTokenSet",
      "type": "event"
    },
    {
      "anonymous": false,
      "inputs": [
        {
          "indexed": true,
          "internalType": "address",
          "name": "account",
          "type": "address"
        },
        {
          "indexed": true,
          "internalType": "address",
          "name": "gauge",
          "type": "address"
        },
        {
          "indexed": false,
          "internalType": "uint256",
          "name": "votes",
          "type": "uint256"
        }
      ],
      "name": "Voted",
      "type": "event"
    },
    {
      "inputs": [],
      "name": "EPOCH_LENGTH",
      "outputs": [
        {
          "internalType": "uint256",
          "name": "",
          "type": "uint256"
        }
      ],
      "stateMutability": "view",
      "type": "function"
    },
    {
      "inputs": [],
      "name": "REAPER_FEE",
      "outputs": [
        {
          "internalType": "uint256",
          "name": "",
          "type": "uint256"
        }
      ],
      "stateMutability": "view",
      "type": "function"
    },
    {
      "inputs": [],
      "name": "allGaugeVotes",
      "outputs": [
        {
          "components": [
            {
              "internalType": "address",
              "name": "gauge",
              "type": "address"
            },
            {
              "internalType": "uint256",
              "name": "votes",
              "type": "uint256"
            }
          ],
          "internalType": "struct GaugeController.GaugeVotes[]",
          "name": "",
          "type": "tuple[]"
        }
      ],
      "stateMutability": "view",
      "type": "function"
    },
    {
      "inputs": [],
      "name": "allGauges",
      "outputs": [
        {
          "internalType": "address[]",
          "name": "g",
          "type": "address[]"
        }
      ],
      "stateMutability": "view",
      "type": "function"
    },
    {
      "inputs": [],
      "name": "createGauge",
      "outputs": [],
      "stateMutability": "nonpayable",
      "type": "function"
    },
    {
      "inputs": [
        {
          "internalType": "uint256",
          "name": "startTime",
          "type": "uint256"
        }
      ],
      "name": "createGenesisEpoch",
      "outputs": [],
      "stateMutability": "nonpayable",
      "type": "function"
    },
    {
      "inputs": [],
      "name": "currentEpoch",
      "outputs": [
        {
          "components": [
            {
              "internalType": "uint256",
              "name": "start",
              "type": "uint256"
            },
            {
              "internalType": "uint256",
              "name": "end",
              "type": "uint256"
            },
            {
              "internalType": "uint256",
              "name": "totalVotes",
              "type": "uint256"
            },
            {
              "internalType": "address",
              "name": "reaper",
              "type": "address"
            }
          ],
          "internalType": "struct GaugeController.Epoch",
          "name": "epoch",
          "type": "tuple"
        }
      ],
      "stateMutability": "view",
      "type": "function"
    },
    {
      "inputs": [],
      "name": "currentEpochTotalVotes",
      "outputs": [
        {
          "internalType": "uint256",
          "name": "",
          "type": "uint256"
        }
      ],
      "stateMutability": "view",
      "type": "function"
    },
    {
      "inputs": [],
      "name": "epochNumber",
      "outputs": [
        {
          "internalType": "uint256",
          "name": "number",
          "type": "uint256"
        }
      ],
      "stateMutability": "view",
      "type": "function"
    },
    {
      "inputs": [
        {
          "internalType": "address",
          "name": "",
          "type": "address"
        }
      ],
      "name": "gaugeVotes",
      "outputs": [
        {
          "internalType": "uint256",
          "name": "",
          "type": "uint256"
        }
      ],
      "stateMutability": "view",
      "type": "function"
    },
    {
      "inputs": [
        {
          "internalType": "uint256",
          "name": "",
          "type": "uint256"
        }
      ],
      "name": "gauges",
      "outputs": [
        {
          "internalType": "address",
          "name": "",
          "type": "address"
        }
      ],
      "stateMutability": "view",
      "type": "function"
    },
    {
      "inputs": [
        {
          "internalType": "uint256",
          "name": "",
          "type": "uint256"
        },
        {
          "internalType": "address",
          "name": "",
          "type": "address"
        }
      ],
      "name": "hasVoted",
      "outputs": [
        {
          "internalType": "bool",
          "name": "",
          "type": "bool"
        }
      ],
      "stateMutability": "view",
      "type": "function"
    },
    {
      "inputs": [],
      "name": "numberOfGauges",
      "outputs": [
        {
          "internalType": "uint256",
          "name": "n",
          "type": "uint256"
        }
      ],
      "stateMutability": "view",
      "type": "function"
    },
    {
      "inputs": [],
      "name": "owner",
      "outputs": [
        {
          "internalType": "address",
          "name": "",
          "type": "address"
        }
      ],
      "stateMutability": "view",
      "type": "function"
    },
    {
      "inputs": [
        {
          "internalType": "address",
          "name": "reaper",
          "type": "address"
        }
      ],
      "name": "rebalance",
      "outputs": [],
      "stateMutability": "nonpayable",
      "type": "function"
    },
    {
      "inputs": [],
      "name": "renounceOwnership",
      "outputs": [],
      "stateMutability": "nonpayable",
      "type": "function"
    },
    {
      "inputs": [
        {
          "internalType": "uint256",
          "name": "",
          "type": "uint256"
        },
        {
          "internalType": "address",
          "name": "",
          "type": "address"
        }
      ],
      "name": "rewardsClaimed",
      "outputs": [
        {
          "internalType": "bool",
          "name": "",
          "type": "bool"
        }
      ],
      "stateMutability": "view",
      "type": "function"
    },
    {
      "inputs": [],
      "name": "rewardsToken",
      "outputs": [
        {
          "internalType": "address",
          "name": "",
          "type": "address"
        }
      ],
      "stateMutability": "view",
      "type": "function"
    },
    {
      "inputs": [
        {
          "internalType": "address",
          "name": "_rewards",
          "type": "address"
        }
      ],
      "name": "setRewardsToken",
      "outputs": [],
      "stateMutability": "nonpayable",
      "type": "function"
    },
    {
      "inputs": [
        {
          "internalType": "address",
          "name": "_ve",
          "type": "address"
        }
      ],
      "name": "setVEToken",
      "outputs": [],
      "stateMutability": "nonpayable",
      "type": "function"
    },
    {
      "inputs": [
        {
          "internalType": "address",
          "name": "newOwner",
          "type": "address"
        }
      ],
      "name": "transferOwnership",
      "outputs": [],
      "stateMutability": "nonpayable",
      "type": "function"
    },
    {
      "inputs": [],
      "name": "ts",
      "outputs": [
        {
          "internalType": "uint256",
          "name": "",
          "type": "uint256"
        }
      ],
      "stateMutability": "view",
      "type": "function"
    },
    {
      "inputs": [],
      "name": "veToken",
      "outputs": [
        {
          "internalType": "address",
          "name": "",
          "type": "address"
        }
      ],
      "stateMutability": "view",
      "type": "function"
    },
    {
      "inputs": [
        {
          "internalType": "address",
          "name": "gaugeAddress",
          "type": "address"
        }
      ],
      "name": "vote",
      "outputs": [],
      "stateMutability": "nonpayable",
      "type": "function"
    }
  ],
  "bytecode": "0x608060405234801561001057600080fd5b5061001a3361001f565b61006f565b600080546001600160a01b038381166001600160a01b0319831681178455604051919092169283917f8be0079c531659141344cd1fd0a4f28419497f9722a3daafe3b4186f6b6457e09190a35050565b6127a38061007e6000396000f3fe60806040523480156200001157600080fd5b5060043610620001755760003560e01c806392d1c7fb11620000d3578063dc5a41791162000086578063dc5a41791462000382578063de320cc1146200038c578063e20b2de414620003a3578063e86d60bf14620003bc578063f2fde38b14620003c3578063f4145a8314620003da57600080fd5b806392d1c7fb14620002df5780639a835e9114620002f85780639ef13a411462000329578063ac4746ab146200034c578063b05391871462000357578063d1af0c7d146200036e57600080fd5b806343859632116200012c5780634385963214620002195780636a80e97e146200025b5780636dd7d8ea1462000265578063715018a6146200027c5780637667180814620002865780638da5cb5b14620002cd57600080fd5b8063054d02a3146200017a5780631261c8c014620001935780631e48d33414620001b557806321c2819114620001cc5780633b92eb2314620001e35780634260c3c81462000210575b600080fd5b620001916200018b36600462001725565b620003e4565b005b620001a266354a6ba7a1800081565b6040519081526020015b60405180910390f35b62000191620001c63660046200175c565b620004e5565b62000191620001dd3660046200175c565b6200055d565b600554620001f7906001600160a01b031681565b6040516001600160a01b039091168152602001620001ac565b600154620001a2565b6200024a6200022a3660046200177a565b600860209081526000928352604080842090915290825290205460ff1681565b6040519015158152602001620001ac565b620001a26200083f565b62000191620002763660046200175c565b62000854565b6200019162000bdd565b6200029062000c18565b604051620001ac91908151815260208083015190820152604080830151908201526060918201516001600160a01b03169181019190915260800190565b6000546001600160a01b0316620001f7565b620002e962000c69565b604051620001ac9190620017a9565b6200024a620003093660046200177a565b600760209081526000928352604080842090915290825290205460ff1681565b620001a26200033a3660046200175c565b60026020526000908152604090205481565b620001a26201518081565b620001f76200036836600462001725565b62000ccd565b600654620001f7906001600160a01b031681565b6200019162000cf8565b620001916200039d3660046200175c565b62000e15565b620003ad62000e8d565b604051620001ac9190620017f8565b42620001a2565b62000191620003d43660046200175c565b62000fdd565b620001a26200107f565b6000546001600160a01b031633146200041a5760405162461bcd60e51b8152600401620004119062001852565b60405180910390fd5b60095460ff16156200046f5760405162461bcd60e51b815260206004820152601b60248201527f47433a2047656e6573697320616c726561647920637265617465640000000000604482015260640162000411565b60036200047c82620010a6565b81546001808201845560009384526020938490208351600490930201918255928201518184015560408201516002820155606090910151600390910180546001600160a01b0319166001600160a01b039092169190911790556009805460ff1916909117905550565b6000546001600160a01b03163314620005125760405162461bcd60e51b8152600401620004119062001852565b6001600160a01b0381166200053b5760405162461bcd60e51b8152600401620004119062001887565b600580546001600160a01b0319166001600160a01b0392909216919091179055565b60095460ff16620005a75760405162461bcd60e51b815260206004820152601360248201527211d0ce88139bdd081a5b9a5d1a585b1a5e9959606a1b604482015260640162000411565b6000620005b36200112c565b805490915015801590620005cb575042816001015411155b620006095760405162461bcd60e51b815260206004820152600d60248201526c11d0ce88139bdd08195b991959609a1b604482015260640162000411565b600660009054906101000a90046001600160a01b03166001600160a01b031663af14052c6040518163ffffffff1660e01b8152600401600060405180830381600087803b1580156200065a57600080fd5b505af11580156200066f573d6000803e3d6000fd5b505050506000805b600154811015620006e45760026000600183815481106200069c576200069c620018b1565b60009182526020808320909101546001600160a01b03168352820192909252604001902054620006cd9083620018dd565b915080620006db81620018f8565b91505062000677565b5060005b60015481101562000796576000600182815481106200070b576200070b620018b1565b60009182526020808320909101546001600160a01b031680835260029091526040909120549091508362000758576001600160a01b0382166000908152600460205260408120556200077e565b62000764818562001168565b6001600160a01b0383166000908152600460205260409020555b505080806200078d90620018f8565b915050620006e8565b50620007a28362001186565b6003620007af8462001334565b8154600180820184556000938452602093849020835160049093020191825582840151908201556040808301516002830155606090920151600390910180546001600160a01b0319166001600160a01b039283161790559051838152908516917f4217d9fab39dbadacf1dad6c889aec1caa02e8a6cb59ddd4ce34f3e0ef158b55910160405180910390a2505050565b60006200084b6200112c565b60020154905090565b600354620008955760405162461bcd60e51b815260206004820152600d60248201526c47433a204e6f2065706f63687360981b604482015260640162000411565b42620008a06200112c565b6001015411620008e55760405162461bcd60e51b815260206004820152600f60248201526e11d0ce88115c1bd8da08195b991959608a1b604482015260640162000411565b6005546040516370a0823160e01b81523360048201526000916001600160a01b0316906370a082319060240160206040518083038186803b1580156200092a57600080fd5b505afa1580156200093f573d6000803e3d6000fd5b505050506040513d601f19601f8201168201806040525081019062000965919062001916565b905080620009a75760405162461bcd60e51b815260206004820152600e60248201526d47433a205a65726f20766f74657360901b604482015260640162000411565b620009d5620009b56200107f565b600090815260086020908152604080832033845290915290205460ff1690565b1562000a185760405162461bcd60e51b815260206004820152601160248201527011d0ce88105b1c9958591e481d9bdd1959607a1b604482015260640162000411565b62000a2382620013b1565b62000a675760405162461bcd60e51b815260206004820152601360248201527247433a20496e76616c6964206164647265737360681b604482015260640162000411565b6000811162000aaf5760405162461bcd60e51b815260206004820152601360248201527223a19d102737903b37ba34b733903837bbb2b960691b604482015260640162000411565b6001600160a01b0382166000908152600260205260408120805483929062000ad9908490620018dd565b9091555081905062000aea6200112c565b600201600082825462000afe9190620018dd565b90915550506040516324b07fd160e21b81523360048201526001600160a01b038316906392c1ff4490602401600060405180830381600087803b15801562000b4557600080fd5b505af115801562000b5a573d6000803e3d6000fd5b5050505060016008600062000b6e6200107f565b8152602080820192909252604090810160009081203380835290845290829020805460ff191694151594909417909355518381526001600160a01b03851692917f174ba19ba3c8bb5c679c87e51db79fff7c3f04bb84c1fd55b7dacb470b674aa6910160405180910390a35050565b6000546001600160a01b0316331462000c0a5760405162461bcd60e51b8152600401620004119062001852565b62000c16600062001416565b565b62000c22620016e6565b62000c2c6200112c565b6040805160808101825282548152600183015460208201526002830154918101919091526003909101546001600160a01b03166060820152919050565b6060600180548060200260200160405190810160405280929190818152602001828054801562000cc357602002820191906000526020600020905b81546001600160a01b0316815260019091019060200180831162000ca4575b5050505050905090565b6001818154811062000cde57600080fd5b6000918252602090912001546001600160a01b0316905081565b6000546001600160a01b0316331462000d255760405162461bcd60e51b8152600401620004119062001852565b6005546001600160a01b03161580159062000d4a57506006546001600160a01b031615155b62000d695760405162461bcd60e51b8152600401620004119062001887565b6006546005546040516000926001600160a01b0390811692169062000d8e9062001717565b6001600160a01b03928316815291166020820152604001604051809103906000f08015801562000dc2573d6000803e3d6000fd5b506001805480820182556000919091527fb10e2d527612073b26eecdfd717e6a320cf44b4afac2b0732d9fcbe2b7fa0cf60180546001600160a01b0319166001600160a01b039290921691909117905550565b6000546001600160a01b0316331462000e425760405162461bcd60e51b8152600401620004119062001852565b6001600160a01b03811662000e6b5760405162461bcd60e51b8152600401620004119062001887565b600680546001600160a01b0319166001600160a01b0392909216919091179055565b60015460609060009067ffffffffffffffff81111562000eb15762000eb162001930565b60405190808252806020026020018201604052801562000ef857816020015b604080518082019091526000808252602082015281526020019060019003908162000ed05790505b50905060005b60015481101562000fd757600060405180604001604052806001848154811062000f2c5762000f2c620018b1565b9060005260206000200160009054906101000a90046001600160a01b03166001600160a01b03168152602001600260006001868154811062000f725762000f72620018b1565b60009182526020808320909101546001600160a01b0316835282019290925260400190205490528351909150819084908490811062000fb55762000fb5620018b1565b602002602001018190525050808062000fce90620018f8565b91505062000efe565b50919050565b6000546001600160a01b031633146200100a5760405162461bcd60e51b8152600401620004119062001852565b6001600160a01b038116620010715760405162461bcd60e51b815260206004820152602660248201527f4f776e61626c653a206e6577206f776e657220697320746865207a65726f206160448201526564647265737360d01b606482015260840162000411565b6200107c8162001416565b50565b600354600090620010905750600090565b600354620010a19060019062001946565b905090565b620010b0620016e6565b814210620010f55760405162461bcd60e51b815260206004820152601160248201527011d0ce88125b9d985b1a59081cdd185c9d607a1b604482015260640162000411565b6000620011066201518084620018dd565b604080516080810182529485526020850191909152600090840152505033606082015290565b6003805460009190620011429060019062001946565b81548110620011555762001155620018b1565b9060005260206000209060040201905090565b60006200117f83670de0b6b3a76400008462001466565b9392505050565b60095460ff16620011d05760405162461bcd60e51b815260206004820152601360248201527211d0ce88139bdd081a5b9a5d1a585b1a5e9959606a1b604482015260640162000411565b6006546040516370a0823160e01b81523060048201526000916001600160a01b0316906370a082319060240160206040518083038186803b1580156200121557600080fd5b505afa1580156200122a573d6000803e3d6000fd5b505050506040513d601f19601f8201168201806040525081019062001250919062001916565b90506000620012678266354a6ba7a1800062001486565b9050600062001277828462001946565b905060005b60015481101562001314576000600182815481106200129f576200129f620018b1565b60009182526020808320909101546001600160a01b03168083526004909152604082205490925090620012d3858362001486565b600654909150620012ef906001600160a01b031684836200149d565b620012fb83826200151a565b50505080806200130b90620018f8565b9150506200127c565b506006546200132e906001600160a01b031685846200149d565b50505050565b6200133e620016e6565b426000620151806200134f6200112c565b600101546200135f9190620018dd565b90505b8181101562001382576200137a6201518082620018dd565b905062001362565b6040805160808101825292835260208301919091526000908201526001600160a01b0390921660608301525090565b6000805b60015481101562000fd757826001600160a01b031660018281548110620013e057620013e0620018b1565b6000918252602090912001546001600160a01b031614156200140157600191505b806200140d81620018f8565b915050620013b5565b600080546001600160a01b038381166001600160a01b0319831681178455604051919092169283917f8be0079c531659141344cd1fd0a4f28419497f9722a3daafe3b4186f6b6457e09190a35050565b8282028115158415858304851417166200147f57600080fd5b0492915050565b60006200117f8383670de0b6b3a764000062001466565b600060405163a9059cbb60e01b81526001600160a01b03841660048201528260248201526000806044836000895af1915050620014da816200165b565b6200132e5760405162461bcd60e51b815260206004820152600f60248201526e1514905394d1915497d19052531151608a1b604482015260640162000411565b6006546040516370a0823160e01b81526001600160a01b03848116600483015260009216906370a082319060240160206040518083038186803b1580156200156157600080fd5b505afa15801562001576573d6000803e3d6000fd5b505050506040513d601f19601f820116820180604052508101906200159c919062001916565b6001600160a01b0384166000818152600260205260409020549192509063ae80d9bf908390620015dd6034620015d68862015180620016a7565b9062001168565b6040516001600160e01b031960e086901b168152600481019390935260248301919091526044820152606401600060405180830381600087803b1580156200162457600080fd5b505af115801562001639573d6000803e3d6000fd5b5050506001600160a01b03909316600090815260026020526040812055505050565b60003d826200166e57806000803e806000fd5b8060208114620016895780156200169b5760009250620016a0565b816000803e60005115159250620016a0565b600192505b5050919050565b60006200117f8383670de0b6b3a76400008183028381048314841517600116620016d057600080fd5b6001826001830304018115150290509392505050565b604051806080016040528060008152602001600081526020016000815260200160006001600160a01b031681525090565b610e0d806200196183390190565b6000602082840312156200173857600080fd5b5035919050565b80356001600160a01b03811681146200175757600080fd5b919050565b6000602082840312156200176f57600080fd5b6200117f826200173f565b600080604083850312156200178e57600080fd5b82359150620017a0602084016200173f565b90509250929050565b6020808252825182820181905260009190848201906040850190845b81811015620017ec5783516001600160a01b031683529284019291840191600101620017c5565b50909695505050505050565b602080825282518282018190526000919060409081850190868401855b828110156200184557815180516001600160a01b0316855286015186850152928401929085019060010162001815565b5091979650505050505050565b6020808252818101527f4f776e61626c653a2063616c6c6572206973206e6f7420746865206f776e6572604082015260600190565b60208082526010908201526f47433a205a65726f206164647265737360801b604082015260600190565b634e487b7160e01b600052603260045260246000fd5b634e487b7160e01b600052601160045260246000fd5b60008219821115620018f357620018f3620018c7565b500190565b60006000198214156200190f576200190f620018c7565b5060010190565b6000602082840312156200192957600080fd5b5051919050565b634e487b7160e01b600052604160045260246000fd5b6000828210156200195b576200195b620018c7565b50039056fe608060405234801561001057600080fd5b50604051610e0d380380610e0d83398101604081905261002f916101bc565b60038054336001600160a01b0319918216179091556001805482166001600160a01b038581169190911790915560028054909216908316179055610071610078565b50506101ef565b610080610082565b565b600061008c61014b565b4281526008805460018101825560009190915281517ff3f7a9fe364faab93b216da50a3214154f22a0a2b415b23a84c8169e8b636ee360049092029182015560208201517ff3f7a9fe364faab93b216da50a3214154f22a0a2b415b23a84c8169e8b636ee482015560408201517ff3f7a9fe364faab93b216da50a3214154f22a0a2b415b23a84c8169e8b636ee58201556060909101517ff3f7a9fe364faab93b216da50a3214154f22a0a2b415b23a84c8169e8b636ee69091015550565b6101766040518060800160405280600081526020016000815260200160008152602001600081525090565b60405180608001604052806000815260200160008152602001600081526020016000815250905090565b80516001600160a01b03811681146101b757600080fd5b919050565b600080604083850312156101cf57600080fd5b6101d8836101a0565b91506101e6602084016101a0565b90509250929050565b610c0f806101fe6000396000f3fe608060405234801561001057600080fd5b50600436106101005760003560e01c806392c1ff4411610097578063ae80d9bf11610066578063ae80d9bf14610269578063b69ef8a81461027c578063f77c479114610284578063f7c618c11461029757600080fd5b806392c1ff44146101fd5780639a835e91146102105780639e447fc61461024e578063a991c9b51461026157600080fd5b806368fd25cd116100d357806368fd25cd146101b157806378317be7146101ba5780637b0a47ee146101e25780637defc6b3146101ea57600080fd5b80632c48a80e146101055780633b92eb23146101495780634e71d92d1461016e5780635a3382c914610178575b600080fd5b61010d6102a8565b60405161014091908151815260208083015190820152604080830151908201526060918201519181019190915260800190565b60405180910390f35b6002546001600160a01b03165b6040516001600160a01b039091168152602001610140565b61017661030f565b005b6101a3610186366004610acc565b600a60209081526000928352604080842090915290825290205481565b604051908152602001610140565b6101a360005481565b6101cd6101c8366004610af8565b6104c1565b60408051928352901515602083015201610140565b6000546101a3565b600254610156906001600160a01b031681565b61017661020b366004610af8565b61057e565b61023e61021e366004610acc565b600960209081526000928352604080842090915290825290205460ff1681565b6040519015158152602001610140565b61017661025c366004610b13565b610692565b6101a36106c1565b610176610277366004610b2c565b6106d4565b6101a3610727565b600354610156906001600160a01b031681565b6001546001600160a01b0316610156565b6102d36040518060800160405280600081526020016000815260200160008152602001600081525090565b6102db6107a8565b6040805160808101825282548152600183015460208201526002830154918101919091526003909101546060820152919050565b60006103196107df565b905080604001516000141580156103335750602081015115155b801561033f5750805115155b6103875760405162461bcd60e51b81526020600482015260146024820152731311ce88125b9d985b1a59081cdb985c1cda1bdd60621b60448201526064015b60405180910390fd5b80516000908152600a6020908152604080832033808552925290912054806103e95760405162461bcd60e51b81526020600482015260156024820152741311ce88159bdd19481b9bdd081c9958dbdc991959605a1b604482015260640161037e565b825160009081526009602090815260408083206001600160a01b038616845290915290205460ff16156104545760405162461bcd60e51b81526020600482015260136024820152721311ce88185b1c9958591e4818db185a5b5959606a1b604482015260640161037e565b825160009081526009602090815260408083206001600160a01b03861684528252808320805460ff1916600117905590850151908501516104a1919061049b908590610882565b9061089e565b6001549091506104bb906001600160a01b031684836108b3565b50505050565b60008060006104ce6107df565b80519091506104e35750600093849350915050565b805160009081526009602090815260408083206001600160a01b03881684528252909120549082015160ff9091169250610521576000925050915091565b80516000908152600a602090815260408083206001600160a01b038816845290915290205480156105725761056b826020015161049b84604001518461088290919063ffffffff16565b9350610577565b600093505b5050915091565b6003546001600160a01b031633146105a85760405162461bcd60e51b815260040161037e90610b58565b60006105b26107a8565b6040805160808101825282548082526001840154602083015260028085015483850152600390940154606083015292549151627eeac760e11b81526001600160a01b03868116600483015260248201949094529093506000929091169062fdd58e9060440160206040518083038186803b15801561062f57600080fd5b505afa158015610643573d6000803e3d6000fd5b505050506040513d601f19601f820116820180604052508101906106679190610b85565b91516000908152600a602090815260408083206001600160a01b039096168352949052929092205550565b6003546001600160a01b031633146106bc5760405162461bcd60e51b815260040161037e90610b58565b600055565b60006106cb6107a8565b60010154905090565b6003546001600160a01b031633146106fe5760405162461bcd60e51b815260040161037e90610b58565b60006107086107a8565b60018101859055600281018490556003810183905590506104bb61092c565b6001546040516370a0823160e01b81523060048201526000916001600160a01b0316906370a082319060240160206040518083038186803b15801561076b57600080fd5b505afa15801561077f573d6000803e3d6000fd5b505050506040513d601f19601f820116820180604052508101906107a39190610b85565b905090565b60088054600091906107bc90600190610b9e565b815481106107cc576107cc610bc3565b9060005260206000209060040201905090565b61080a6040518060800160405280600081526020016000815260200160008152602001600081525090565b60085460011061081c576107a36109f5565b6008805461082c90600290610b9e565b8154811061083c5761083c610bc3565b9060005260206000209060040201604051806080016040529081600082015481526020016001820154815260200160028201548152602001600382015481525050905090565b60006108978383670de0b6b3a7640000610a4a565b9392505050565b600061089783670de0b6b3a764000084610a4a565b600060405163a9059cbb60e01b81526001600160a01b03841660048201528260248201526000806044836000895af19150506108ee81610a69565b6104bb5760405162461bcd60e51b815260206004820152600f60248201526e1514905394d1915497d19052531151608a1b604482015260640161037e565b60006109366109f5565b4281526008805460018101825560009190915281517ff3f7a9fe364faab93b216da50a3214154f22a0a2b415b23a84c8169e8b636ee360049092029182015560208201517ff3f7a9fe364faab93b216da50a3214154f22a0a2b415b23a84c8169e8b636ee482015560408201517ff3f7a9fe364faab93b216da50a3214154f22a0a2b415b23a84c8169e8b636ee58201556060909101517ff3f7a9fe364faab93b216da50a3214154f22a0a2b415b23a84c8169e8b636ee69091015550565b610a206040518060800160405280600081526020016000815260200160008152602001600081525090565b60405180608001604052806000815260200160008152602001600081526020016000815250905090565b828202811515841585830485141716610a6257600080fd5b0492915050565b60003d82610a7b57806000803e806000fd5b8060208114610a93578015610aa45760009250610aa9565b816000803e60005115159250610aa9565b600192505b5050919050565b80356001600160a01b0381168114610ac757600080fd5b919050565b60008060408385031215610adf57600080fd5b82359150610aef60208401610ab0565b90509250929050565b600060208284031215610b0a57600080fd5b61089782610ab0565b600060208284031215610b2557600080fd5b5035919050565b600080600060608486031215610b4157600080fd5b505081359360208301359350604090920135919050565b60208082526013908201527226239d1027b7363c9021b7b73a3937b63632b960691b604082015260600190565b600060208284031215610b9757600080fd5b5051919050565b600082821015610bbe57634e487b7160e01b600052601160045260246000fd5b500390565b634e487b7160e01b600052603260045260246000fdfea2646970667358221220950a0c57e6221c58df84597eecfeaf0519dbf2b67d3a95fa5c6086b19ba1ad3164736f6c63430008090033a264697066735822122040b46f7d0ee5afc3a89013c2597994fd52369339e72a5cc41609c3aa08c29b9764736f6c63430008090033",
  "linkReferences": {},
  "deployedLinkReferences": {}
}