{
  "_format": "hh-sol-artifact-1",
  "contractName": "LiquidityGauge",
  "sourceName": "contracts/gauges/LiquidityGauge.sol",
  "abi": [
    {
      "inputs": [
        {
          "internalType": "contract ERC20",
          "name": "rewards",
          "type": "address"
        },
        {
          "internalType": "contract IveToken",
          "name": "ve",
          "type": "address"
        }
      ],
      "stateMutability": "nonpayable",
      "type": "constructor"
    },
    {
      "inputs": [],
      "name": "_rewardRate",
      "outputs": [
        {
          "internalType": "uint256",
          "name": "",
          "type": "uint256"
        }
      ],
      "stateMutability": "view",
      "type": "function"
    },
    {
      "inputs": [],
      "name": "_veToken",
      "outputs": [
        {
          "internalType": "contract IveToken",
          "name": "",
          "type": "address"
        }
      ],
      "stateMutability": "view",
      "type": "function"
    },
    {
      "inputs": [
        {
          "internalType": "uint256",
          "name": "",
          "type": "uint256"
        },
        {
          "internalType": "address",
          "name": "",
          "type": "address"
        }
      ],
      "name": "accountVoted",
      "outputs": [
        {
          "internalType": "uint256",
          "name": "",
          "type": "uint256"
        }
      ],
      "stateMutability": "view",
      "type": "function"
    },
    {
      "inputs": [],
      "name": "balance",
      "outputs": [
        {
          "internalType": "uint256",
          "name": "blnc",
          "type": "uint256"
        }
      ],
      "stateMutability": "view",
      "type": "function"
    },
    {
      "inputs": [],
      "name": "claim",
      "outputs": [],
      "stateMutability": "nonpayable",
      "type": "function"
    },
    {
      "inputs": [
        {
          "internalType": "address",
          "name": "account",
          "type": "address"
        }
      ],
      "name": "claimAmount",
      "outputs": [
        {
          "internalType": "uint256",
          "name": "amount",
          "type": "uint256"
        },
        {
          "internalType": "bool",
          "name": "claimed",
          "type": "bool"
        }
      ],
      "stateMutability": "view",
      "type": "function"
    },
    {
      "inputs": [],
      "name": "controller",
      "outputs": [
        {
          "internalType": "address",
          "name": "",
          "type": "address"
        }
      ],
      "stateMutability": "view",
      "type": "function"
    },
    {
      "inputs": [],
      "name": "currentSnapshot",
      "outputs": [
        {
          "components": [
            {
              "internalType": "uint256",
              "name": "timestamp",
              "type": "uint256"
            },
            {
              "internalType": "uint256",
              "name": "balance",
              "type": "uint256"
            },
            {
              "internalType": "uint256",
              "name": "weight",
              "type": "uint256"
            },
            {
              "internalType": "uint256",
              "name": "rate",
              "type": "uint256"
            }
          ],
          "internalType": "struct LiquidityGauge.GaugeSnapshot",
          "name": "",
          "type": "tuple"
        }
      ],
      "stateMutability": "view",
      "type": "function"
    },
    {
      "inputs": [
        {
          "internalType": "address",
          "name": "account",
          "type": "address"
        }
      ],
      "name": "recordVote",
      "outputs": [],
      "stateMutability": "nonpayable",
      "type": "function"
    },
    {
      "inputs": [],
      "name": "rewardRate",
      "outputs": [
        {
          "internalType": "uint256",
          "name": "",
          "type": "uint256"
        }
      ],
      "stateMutability": "view",
      "type": "function"
    },
    {
      "inputs": [],
      "name": "rewardToken",
      "outputs": [
        {
          "internalType": "address",
          "name": "",
          "type": "address"
        }
      ],
      "stateMutability": "view",
      "type": "function"
    },
    {
      "inputs": [
        {
          "internalType": "uint256",
          "name": "",
          "type": "uint256"
        },
        {
          "internalType": "address",
          "name": "",
          "type": "address"
        }
      ],
      "name": "rewardsClaimed",
      "outputs": [
        {
          "internalType": "bool",
          "name": "",
          "type": "bool"
        }
      ],
      "stateMutability": "view",
      "type": "function"
    },
    {
      "inputs": [
        {
          "internalType": "uint256",
          "name": "_balance",
          "type": "uint256"
        },
        {
          "internalType": "uint256",
          "name": "_weight",
          "type": "uint256"
        },
        {
          "internalType": "uint256",
          "name": "_rate",
          "type": "uint256"
        }
      ],
      "name": "rollover",
      "outputs": [],
      "stateMutability": "nonpayable",
      "type": "function"
    },
    {
      "inputs": [
        {
          "internalType": "uint256",
          "name": "rate",
          "type": "uint256"
        }
      ],
      "name": "setRewardRate",
      "outputs": [],
      "stateMutability": "nonpayable",
      "type": "function"
    },
    {
      "inputs": [],
      "name": "snapshotBalance",
      "outputs": [
        {
          "internalType": "uint256",
          "name": "",
          "type": "uint256"
        }
      ],
      "stateMutability": "view",
      "type": "function"
    },
    {
      "inputs": [],
      "name": "veToken",
      "outputs": [
        {
          "internalType": "address",
          "name": "",
          "type": "address"
        }
      ],
      "stateMutability": "view",
      "type": "function"
    }
  ],
  "bytecode": "0x608060405234801561001057600080fd5b50604051610e10380380610e1083398101604081905261002f916101b8565b60038054336001600160a01b0319918216179091556000805482166001600160a01b038581169190911790915560028054909216908316179055610071610078565b50506101f2565b610080610082565b565b600061008c61014b565b4281526008805460018101825560009190915281517ff3f7a9fe364faab93b216da50a3214154f22a0a2b415b23a84c8169e8b636ee360049092029182015560208201517ff3f7a9fe364faab93b216da50a3214154f22a0a2b415b23a84c8169e8b636ee482015560408201517ff3f7a9fe364faab93b216da50a3214154f22a0a2b415b23a84c8169e8b636ee58201556060909101517ff3f7a9fe364faab93b216da50a3214154f22a0a2b415b23a84c8169e8b636ee69091015550565b6101766040518060800160405280600081526020016000815260200160008152602001600081525090565b60405180608001604052806000815260200160008152602001600081526020016000815250905090565b6001600160a01b03811681146101b557600080fd5b50565b600080604083850312156101cb57600080fd5b82516101d6816101a0565b60208401519092506101e7816101a0565b809150509250929050565b610c0f806102016000396000f3fe608060405234801561001057600080fd5b50600436106101005760003560e01c806392c1ff4411610097578063ae80d9bf11610066578063ae80d9bf14610269578063b69ef8a81461027c578063f77c479114610284578063f7c618c11461029757600080fd5b806392c1ff44146101fd5780639a835e91146102105780639e447fc61461024e578063a991c9b51461026157600080fd5b806368fd25cd116100d357806368fd25cd146101b157806378317be7146101ba5780637b0a47ee146101e25780637defc6b3146101ea57600080fd5b80632c48a80e146101055780633b92eb23146101495780634e71d92d1461016e5780635a3382c914610178575b600080fd5b61010d6102a8565b60405161014091908151815260208083015190820152604080830151908201526060918201519181019190915260800190565b60405180910390f35b6002546001600160a01b03165b6040516001600160a01b039091168152602001610140565b61017661030f565b005b6101a3610186366004610acc565b600a60209081526000928352604080842090915290825290205481565b604051908152602001610140565b6101a360015481565b6101cd6101c8366004610af8565b6104c1565b60408051928352901515602083015201610140565b6001546101a3565b600254610156906001600160a01b031681565b61017661020b366004610af8565b61057e565b61023e61021e366004610acc565b600960209081526000928352604080842090915290825290205460ff1681565b6040519015158152602001610140565b61017661025c366004610b13565b610692565b6101a36106c1565b610176610277366004610b2c565b6106d4565b6101a3610727565b600354610156906001600160a01b031681565b6000546001600160a01b0316610156565b6102d36040518060800160405280600081526020016000815260200160008152602001600081525090565b6102db6107a8565b6040805160808101825282548152600183015460208201526002830154918101919091526003909101546060820152919050565b60006103196107df565b905080604001516000141580156103335750602081015115155b801561033f5750805115155b6103875760405162461bcd60e51b81526020600482015260146024820152731311ce88125b9d985b1a59081cdb985c1cda1bdd60621b60448201526064015b60405180910390fd5b80516000908152600a6020908152604080832033808552925290912054806103e95760405162461bcd60e51b81526020600482015260156024820152741311ce88159bdd19481b9bdd081c9958dbdc991959605a1b604482015260640161037e565b825160009081526009602090815260408083206001600160a01b038616845290915290205460ff16156104545760405162461bcd60e51b81526020600482015260136024820152721311ce88185b1c9958591e4818db185a5b5959606a1b604482015260640161037e565b825160009081526009602090815260408083206001600160a01b03861684528252808320805460ff1916600117905590850151908501516104a1919061049b908590610882565b9061089e565b6000549091506104bb906001600160a01b031684836108b3565b50505050565b60008060006104ce6107df565b80519091506104e35750600093849350915050565b805160009081526009602090815260408083206001600160a01b03881684528252909120549082015160ff9091169250610521576000925050915091565b80516000908152600a602090815260408083206001600160a01b038816845290915290205480156105725761056b826020015161049b84604001518461088290919063ffffffff16565b9350610577565b600093505b5050915091565b6003546001600160a01b031633146105a85760405162461bcd60e51b815260040161037e90610b58565b60006105b26107a8565b6040805160808101825282548082526001840154602083015260028085015483850152600390940154606083015292549151627eeac760e11b81526001600160a01b03868116600483015260248201949094529093506000929091169062fdd58e9060440160206040518083038186803b15801561062f57600080fd5b505afa158015610643573d6000803e3d6000fd5b505050506040513d601f19601f820116820180604052508101906106679190610b85565b91516000908152600a602090815260408083206001600160a01b039096168352949052929092205550565b6003546001600160a01b031633146106bc5760405162461bcd60e51b815260040161037e90610b58565b600155565b60006106cb6107a8565b60010154905090565b6003546001600160a01b031633146106fe5760405162461bcd60e51b815260040161037e90610b58565b60006107086107a8565b60018101859055600281018490556003810183905590506104bb61092c565b600080546040516370a0823160e01b81523060048201526001600160a01b03909116906370a082319060240160206040518083038186803b15801561076b57600080fd5b505afa15801561077f573d6000803e3d6000fd5b505050506040513d601f19601f820116820180604052508101906107a39190610b85565b905090565b60088054600091906107bc90600190610b9e565b815481106107cc576107cc610bc3565b9060005260206000209060040201905090565b61080a6040518060800160405280600081526020016000815260200160008152602001600081525090565b60085460011061081c576107a36109f5565b6008805461082c90600290610b9e565b8154811061083c5761083c610bc3565b9060005260206000209060040201604051806080016040529081600082015481526020016001820154815260200160028201548152602001600382015481525050905090565b60006108978383670de0b6b3a7640000610a4a565b9392505050565b600061089783670de0b6b3a764000084610a4a565b600060405163a9059cbb60e01b81526001600160a01b03841660048201528260248201526000806044836000895af19150506108ee81610a69565b6104bb5760405162461bcd60e51b815260206004820152600f60248201526e1514905394d1915497d19052531151608a1b604482015260640161037e565b60006109366109f5565b4281526008805460018101825560009190915281517ff3f7a9fe364faab93b216da50a3214154f22a0a2b415b23a84c8169e8b636ee360049092029182015560208201517ff3f7a9fe364faab93b216da50a3214154f22a0a2b415b23a84c8169e8b636ee482015560408201517ff3f7a9fe364faab93b216da50a3214154f22a0a2b415b23a84c8169e8b636ee58201556060909101517ff3f7a9fe364faab93b216da50a3214154f22a0a2b415b23a84c8169e8b636ee69091015550565b610a206040518060800160405280600081526020016000815260200160008152602001600081525090565b60405180608001604052806000815260200160008152602001600081526020016000815250905090565b828202811515841585830485141716610a6257600080fd5b0492915050565b60003d82610a7b57806000803e806000fd5b8060208114610a93578015610aa45760009250610aa9565b816000803e60005115159250610aa9565b600192505b5050919050565b80356001600160a01b0381168114610ac757600080fd5b919050565b60008060408385031215610adf57600080fd5b82359150610aef60208401610ab0565b90509250929050565b600060208284031215610b0a57600080fd5b61089782610ab0565b600060208284031215610b2557600080fd5b5035919050565b600080600060608486031215610b4157600080fd5b505081359360208301359350604090920135919050565b60208082526013908201527226239d1027b7363c9021b7b73a3937b63632b960691b604082015260600190565b600060208284031215610b9757600080fd5b5051919050565b600082821015610bbe57634e487b7160e01b600052601160045260246000fd5b500390565b634e487b7160e01b600052603260045260246000fdfea26469706673582212207a67a5fbe520194dd392ae9b144bad4b924d890413cc021b111632d1107cdf6e64736f6c63430008090033",
  "linkReferences": {},
  "deployedLinkReferences": {}
}