{
  "_format": "hh-sol-artifact-1",
  "contractName": "MarketNFT",
  "sourceName": "contracts/nft/MarketNFT.sol",
  "abi": [
    {
      "inputs": [
        {
          "internalType": "uint256",
          "name": "_maxCollectionSize",
          "type": "uint256"
        },
        {
          "internalType": "uint256",
          "name": "_mintFee",
          "type": "uint256"
        },
        {
          "internalType": "uint256",
          "name": "_maxMintPerAddress",
          "type": "uint256"
        },
        {
          "internalType": "address payable",
          "name": "_feeReceipient",
          "type": "address"
        },
        {
          "internalType": "string",
          "name": "_name",
          "type": "string"
        },
        {
          "internalType": "string",
          "name": "_symbol",
          "type": "string"
        },
        {
          "internalType": "string",
          "name": "_uri",
          "type": "string"
        }
      ],
      "stateMutability": "nonpayable",
      "type": "constructor"
    },
    {
      "anonymous": false,
      "inputs": [
        {
          "indexed": true,
          "internalType": "address",
          "name": "owner",
          "type": "address"
        },
        {
          "indexed": true,
          "internalType": "address",
          "name": "approved",
          "type": "address"
        },
        {
          "indexed": true,
          "internalType": "uint256",
          "name": "tokenId",
          "type": "uint256"
        }
      ],
      "name": "Approval",
      "type": "event"
    },
    {
      "anonymous": false,
      "inputs": [
        {
          "indexed": true,
          "internalType": "address",
          "name": "owner",
          "type": "address"
        },
        {
          "indexed": true,
          "internalType": "address",
          "name": "operator",
          "type": "address"
        },
        {
          "indexed": false,
          "internalType": "bool",
          "name": "approved",
          "type": "bool"
        }
      ],
      "name": "ApprovalForAll",
      "type": "event"
    },
    {
      "anonymous": false,
      "inputs": [
        {
          "indexed": false,
          "internalType": "uint256",
          "name": "tokenId",
          "type": "uint256"
        },
        {
          "indexed": false,
          "internalType": "address",
          "name": "recipient",
          "type": "address"
        },
        {
          "indexed": false,
          "internalType": "address",
          "name": "minter",
          "type": "address"
        }
      ],
      "name": "Minted",
      "type": "event"
    },
    {
      "anonymous": false,
      "inputs": [
        {
          "indexed": true,
          "internalType": "address",
          "name": "previousOwner",
          "type": "address"
        },
        {
          "indexed": true,
          "internalType": "address",
          "name": "newOwner",
          "type": "address"
        }
      ],
      "name": "OwnershipTransferred",
      "type": "event"
    },
    {
      "anonymous": false,
      "inputs": [
        {
          "indexed": true,
          "internalType": "address",
          "name": "from",
          "type": "address"
        },
        {
          "indexed": true,
          "internalType": "address",
          "name": "to",
          "type": "address"
        },
        {
          "indexed": true,
          "internalType": "uint256",
          "name": "tokenId",
          "type": "uint256"
        }
      ],
      "name": "Transfer",
      "type": "event"
    },
    {
      "inputs": [],
      "name": "_baseTokenURI",
      "outputs": [
        {
          "internalType": "string",
          "name": "",
          "type": "string"
        }
      ],
      "stateMutability": "view",
      "type": "function"
    },
    {
      "inputs": [
        {
          "internalType": "address",
          "name": "to",
          "type": "address"
        },
        {
          "internalType": "uint256",
          "name": "tokenId",
          "type": "uint256"
        }
      ],
      "name": "approve",
      "outputs": [],
      "stateMutability": "nonpayable",
      "type": "function"
    },
    {
      "inputs": [
        {
          "internalType": "address",
          "name": "owner",
          "type": "address"
        }
      ],
      "name": "balanceOf",
      "outputs": [
        {
          "internalType": "uint256",
          "name": "",
          "type": "uint256"
        }
      ],
      "stateMutability": "view",
      "type": "function"
    },
    {
      "inputs": [],
      "name": "feeReceipient",
      "outputs": [
        {
          "internalType": "address payable",
          "name": "",
          "type": "address"
        }
      ],
      "stateMutability": "view",
      "type": "function"
    },
    {
      "inputs": [
        {
          "internalType": "uint256",
          "name": "tokenId",
          "type": "uint256"
        }
      ],
      "name": "getApproved",
      "outputs": [
        {
          "internalType": "address",
          "name": "",
          "type": "address"
        }
      ],
      "stateMutability": "view",
      "type": "function"
    },
    {
      "inputs": [
        {
          "internalType": "address",
          "name": "owner",
          "type": "address"
        },
        {
          "internalType": "address",
          "name": "operator",
          "type": "address"
        }
      ],
      "name": "isApprovedForAll",
      "outputs": [
        {
          "internalType": "bool",
          "name": "",
          "type": "bool"
        }
      ],
      "stateMutability": "view",
      "type": "function"
    },
    {
      "inputs": [],
      "name": "maxCollectionSize",
      "outputs": [
        {
          "internalType": "uint256",
          "name": "",
          "type": "uint256"
        }
      ],
      "stateMutability": "view",
      "type": "function"
    },
    {
      "inputs": [],
      "name": "maxMintPerAddress",
      "outputs": [
        {
          "internalType": "uint256",
          "name": "",
          "type": "uint256"
        }
      ],
      "stateMutability": "view",
      "type": "function"
    },
    {
      "inputs": [],
      "name": "mintFee",
      "outputs": [
        {
          "internalType": "uint256",
          "name": "",
          "type": "uint256"
        }
      ],
      "stateMutability": "view",
      "type": "function"
    },
    {
      "inputs": [
        {
          "internalType": "address",
          "name": "mintAddress",
          "type": "address"
        }
      ],
      "name": "mintTo",
      "outputs": [
        {
          "internalType": "uint256",
          "name": "",
          "type": "uint256"
        }
      ],
      "stateMutability": "payable",
      "type": "function"
    },
    {
      "inputs": [
        {
          "internalType": "uint256",
          "name": "",
          "type": "uint256"
        }
      ],
      "name": "minters",
      "outputs": [
        {
          "internalType": "address",
          "name": "",
          "type": "address"
        }
      ],
      "stateMutability": "view",
      "type": "function"
    },
    {
      "inputs": [],
      "name": "name",
      "outputs": [
        {
          "internalType": "string",
          "name": "",
          "type": "string"
        }
      ],
      "stateMutability": "view",
      "type": "function"
    },
    {
      "inputs": [],
      "name": "numberOfItems",
      "outputs": [
        {
          "internalType": "uint256",
          "name": "",
          "type": "uint256"
        }
      ],
      "stateMutability": "view",
      "type": "function"
    },
    {
      "inputs": [
        {
          "internalType": "address",
          "name": "owner",
          "type": "address"
        }
      ],
      "name": "ownedTokens",
      "outputs": [
        {
          "internalType": "uint256[]",
          "name": "",
          "type": "uint256[]"
        }
      ],
      "stateMutability": "view",
      "type": "function"
    },
    {
      "inputs": [],
      "name": "owner",
      "outputs": [
        {
          "internalType": "address",
          "name": "",
          "type": "address"
        }
      ],
      "stateMutability": "view",
      "type": "function"
    },
    {
      "inputs": [
        {
          "internalType": "uint256",
          "name": "tokenId",
          "type": "uint256"
        }
      ],
      "name": "ownerOf",
      "outputs": [
        {
          "internalType": "address",
          "name": "",
          "type": "address"
        }
      ],
      "stateMutability": "view",
      "type": "function"
    },
    {
      "inputs": [],
      "name": "renounceOwnership",
      "outputs": [],
      "stateMutability": "nonpayable",
      "type": "function"
    },
    {
      "inputs": [
        {
          "internalType": "address",
          "name": "from",
          "type": "address"
        },
        {
          "internalType": "address",
          "name": "to",
          "type": "address"
        },
        {
          "internalType": "uint256",
          "name": "tokenId",
          "type": "uint256"
        }
      ],
      "name": "safeTransferFrom",
      "outputs": [],
      "stateMutability": "nonpayable",
      "type": "function"
    },
    {
      "inputs": [
        {
          "internalType": "address",
          "name": "from",
          "type": "address"
        },
        {
          "internalType": "address",
          "name": "to",
          "type": "address"
        },
        {
          "internalType": "uint256",
          "name": "tokenId",
          "type": "uint256"
        },
        {
          "internalType": "bytes",
          "name": "_data",
          "type": "bytes"
        }
      ],
      "name": "safeTransferFrom",
      "outputs": [],
      "stateMutability": "nonpayable",
      "type": "function"
    },
    {
      "inputs": [
        {
          "internalType": "address",
          "name": "operator",
          "type": "address"
        },
        {
          "internalType": "bool",
          "name": "approved",
          "type": "bool"
        }
      ],
      "name": "setApprovalForAll",
      "outputs": [],
      "stateMutability": "nonpayable",
      "type": "function"
    },
    {
      "inputs": [
        {
          "internalType": "string",
          "name": "_uri",
          "type": "string"
        }
      ],
      "name": "setBaseTokenURI",
      "outputs": [],
      "stateMutability": "nonpayable",
      "type": "function"
    },
    {
      "inputs": [
        {
          "internalType": "uint256",
          "name": "newMintFee",
          "type": "uint256"
        }
      ],
      "name": "setMintFee",
      "outputs": [],
      "stateMutability": "nonpayable",
      "type": "function"
    },
    {
      "inputs": [
        {
          "internalType": "bytes4",
          "name": "interfaceId",
          "type": "bytes4"
        }
      ],
      "name": "supportsInterface",
      "outputs": [
        {
          "internalType": "bool",
          "name": "",
          "type": "bool"
        }
      ],
      "stateMutability": "view",
      "type": "function"
    },
    {
      "inputs": [],
      "name": "symbol",
      "outputs": [
        {
          "internalType": "string",
          "name": "",
          "type": "string"
        }
      ],
      "stateMutability": "view",
      "type": "function"
    },
    {
      "inputs": [
        {
          "internalType": "uint256",
          "name": "index",
          "type": "uint256"
        }
      ],
      "name": "tokenByIndex",
      "outputs": [
        {
          "internalType": "uint256",
          "name": "",
          "type": "uint256"
        }
      ],
      "stateMutability": "view",
      "type": "function"
    },
    {
      "inputs": [
        {
          "internalType": "address",
          "name": "owner",
          "type": "address"
        },
        {
          "internalType": "uint256",
          "name": "index",
          "type": "uint256"
        }
      ],
      "name": "tokenOfOwnerByIndex",
      "outputs": [
        {
          "internalType": "uint256",
          "name": "",
          "type": "uint256"
        }
      ],
      "stateMutability": "view",
      "type": "function"
    },
    {
      "inputs": [
        {
          "internalType": "uint256",
          "name": "tokenId",
          "type": "uint256"
        }
      ],
      "name": "tokenURI",
      "outputs": [
        {
          "internalType": "string",
          "name": "",
          "type": "string"
        }
      ],
      "stateMutability": "view",
      "type": "function"
    },
    {
      "inputs": [],
      "name": "totalSupply",
      "outputs": [
        {
          "internalType": "uint256",
          "name": "",
          "type": "uint256"
        }
      ],
      "stateMutability": "view",
      "type": "function"
    },
    {
      "inputs": [
        {
          "internalType": "address",
          "name": "from",
          "type": "address"
        },
        {
          "internalType": "address",
          "name": "to",
          "type": "address"
        },
        {
          "internalType": "uint256",
          "name": "tokenId",
          "type": "uint256"
        }
      ],
      "name": "transferFrom",
      "outputs": [],
      "stateMutability": "nonpayable",
      "type": "function"
    },
    {
      "inputs": [
        {
          "internalType": "address",
          "name": "newOwner",
          "type": "address"
        }
      ],
      "name": "transferOwnership",
      "outputs": [],
      "stateMutability": "nonpayable",
      "type": "function"
    }
  ],
  "bytecode": "0x60c06040523480156200001157600080fd5b506040516200261638038062002616833981016040819052620000349162000296565b8251839083906200004d90600090602085019062000123565b5080516200006390600190602084019062000123565b505050620000806200007a620000cd60201b60201c565b620000d1565b600c869055608087905260a0859052600d80546001600160a01b0319166001600160a01b0386161790558051620000bf90600e90602084019062000123565b5050505050505050620003a4565b3390565b600a80546001600160a01b038381166001600160a01b0319831681179093556040519116919082907f8be0079c531659141344cd1fd0a4f28419497f9722a3daafe3b4186f6b6457e090600090a35050565b828054620001319062000367565b90600052602060002090601f016020900481019282620001555760008555620001a0565b82601f106200017057805160ff1916838001178555620001a0565b82800160010185558215620001a0579182015b82811115620001a057825182559160200191906001019062000183565b50620001ae929150620001b2565b5090565b5b80821115620001ae5760008155600101620001b3565b634e487b7160e01b600052604160045260246000fd5b600082601f830112620001f157600080fd5b81516001600160401b03808211156200020e576200020e620001c9565b604051601f8301601f19908116603f01168101908282118183101715620002395762000239620001c9565b816040528381526020925086838588010111156200025657600080fd5b600091505b838210156200027a57858201830151818301840152908201906200025b565b838211156200028c5760008385830101525b9695505050505050565b600080600080600080600060e0888a031215620002b257600080fd5b8751602089015160408a015160608b015192995090975095506001600160a01b0381168114620002e157600080fd5b60808901519094506001600160401b0380821115620002ff57600080fd5b6200030d8b838c01620001df565b945060a08a01519150808211156200032457600080fd5b620003328b838c01620001df565b935060c08a01519150808211156200034957600080fd5b50620003588a828b01620001df565b91505092959891949750929550565b600181811c908216806200037c57607f821691505b602082108114156200039e57634e487b7160e01b600052602260045260246000fd5b50919050565b60805160a05161223e620003d8600039600081816103c20152610c000152600081816102ce0152610cb2015261223e6000f3fe6080604052600436106101cd5760003560e01c806370a08231116100f7578063a22cb46511610095578063cfc86f7b11610064578063cfc86f7b14610557578063e985e9c51461056c578063eddd0d9c146105b5578063f2fde38b146105d557600080fd5b8063a22cb465146104ca578063b12ab40f146104ea578063b88d4fde14610517578063c87b56dd1461053757600080fd5b8063842296d4116100d1578063842296d41461044c5780638623ec7b146104615780638da5cb5b1461049757806395d89b41146104b557600080fd5b806370a0823114610404578063715018a614610424578063755edd171461043957600080fd5b806323b872dd1161016f57806342842e0e1161013e57806342842e0e146103705780634f6ccce714610390578063572849c4146103b05780636352211e146103e457600080fd5b806323b872dd146102f05780632f745c591461031057806330176e13146103305780633740ebb31461035057600080fd5b8063095ea7b3116101ab578063095ea7b31461026157806313966db51461028357806318160ddd146102a7578063201eb13f146102bc57600080fd5b806301ffc9a7146101d257806306fdde0314610207578063081812fc14610229575b600080fd5b3480156101de57600080fd5b506101f26101ed366004611caa565b6105f5565b60405190151581526020015b60405180910390f35b34801561021357600080fd5b5061021c610620565b6040516101fe9190611d26565b34801561023557600080fd5b50610249610244366004611d39565b6106b2565b6040516001600160a01b0390911681526020016101fe565b34801561026d57600080fd5b5061028161027c366004611d6e565b61074c565b005b34801561028f57600080fd5b50610299600c5481565b6040519081526020016101fe565b3480156102b357600080fd5b50600854610299565b3480156102c857600080fd5b506102997f000000000000000000000000000000000000000000000000000000000000000081565b3480156102fc57600080fd5b5061028161030b366004611d98565b610862565b34801561031c57600080fd5b5061029961032b366004611d6e565b610893565b34801561033c57600080fd5b5061028161034b366004611e60565b610929565b34801561035c57600080fd5b50600d54610249906001600160a01b031681565b34801561037c57600080fd5b5061028161038b366004611d98565b61096a565b34801561039c57600080fd5b506102996103ab366004611d39565b610985565b3480156103bc57600080fd5b506102997f000000000000000000000000000000000000000000000000000000000000000081565b3480156103f057600080fd5b506102496103ff366004611d39565b610a18565b34801561041057600080fd5b5061029961041f366004611ea9565b610a8f565b34801561043057600080fd5b50610281610b16565b610299610447366004611ea9565b610b4c565b34801561045857600080fd5b50610299610dd0565b34801561046d57600080fd5b5061024961047c366004611d39565b6011602052600090815260409020546001600160a01b031681565b3480156104a357600080fd5b50600a546001600160a01b0316610249565b3480156104c157600080fd5b5061021c610de0565b3480156104d657600080fd5b506102816104e5366004611ec4565b610def565b3480156104f657600080fd5b5061050a610505366004611ea9565b610dfa565b6040516101fe9190611f00565b34801561052357600080fd5b50610281610532366004611f44565b610e66565b34801561054357600080fd5b5061021c610552366004611d39565b610e9e565b34801561056357600080fd5b5061021c610f40565b34801561057857600080fd5b506101f2610587366004611fc0565b6001600160a01b03918216600090815260056020908152604080832093909416825291909152205460ff1690565b3480156105c157600080fd5b506102816105d0366004611d39565b610fce565b3480156105e157600080fd5b506102816105f0366004611ea9565b610ffd565b60006001600160e01b0319821663780e9d6360e01b148061061a575061061a82611098565b92915050565b60606000805461062f90611ff3565b80601f016020809104026020016040519081016040528092919081815260200182805461065b90611ff3565b80156106a85780601f1061067d576101008083540402835291602001916106a8565b820191906000526020600020905b81548152906001019060200180831161068b57829003601f168201915b5050505050905090565b6000818152600260205260408120546001600160a01b03166107305760405162461bcd60e51b815260206004820152602c60248201527f4552433732313a20617070726f76656420717565727920666f72206e6f6e657860448201526b34b9ba32b73a103a37b5b2b760a11b60648201526084015b60405180910390fd5b506000908152600460205260409020546001600160a01b031690565b600061075782610a18565b9050806001600160a01b0316836001600160a01b031614156107c55760405162461bcd60e51b815260206004820152602160248201527f4552433732313a20617070726f76616c20746f2063757272656e74206f776e656044820152603960f91b6064820152608401610727565b336001600160a01b03821614806107e157506107e18133610587565b6108535760405162461bcd60e51b815260206004820152603860248201527f4552433732313a20617070726f76652063616c6c6572206973206e6f74206f7760448201527f6e6572206e6f7220617070726f76656420666f7220616c6c00000000000000006064820152608401610727565b61085d83836110e8565b505050565b61086c3382611156565b6108885760405162461bcd60e51b815260040161072790612028565b61085d83838361124d565b600061089e83610a8f565b82106109005760405162461bcd60e51b815260206004820152602b60248201527f455243373231456e756d657261626c653a206f776e657220696e646578206f7560448201526a74206f6620626f756e647360a81b6064820152608401610727565b506001600160a01b03919091166000908152600660209081526040808320938352929052205490565b600a546001600160a01b031633146109535760405162461bcd60e51b815260040161072790612079565b805161096690600e906020840190611bfb565b5050565b61085d83838360405180602001604052806000815250610e66565b600061099060085490565b82106109f35760405162461bcd60e51b815260206004820152602c60248201527f455243373231456e756d657261626c653a20676c6f62616c20696e646578206f60448201526b7574206f6620626f756e647360a01b6064820152608401610727565b60088281548110610a0657610a066120ae565b90600052602060002001549050919050565b6000818152600260205260408120546001600160a01b03168061061a5760405162461bcd60e51b815260206004820152602960248201527f4552433732313a206f776e657220717565727920666f72206e6f6e657869737460448201526832b73a103a37b5b2b760b91b6064820152608401610727565b60006001600160a01b038216610afa5760405162461bcd60e51b815260206004820152602a60248201527f4552433732313a2062616c616e636520717565727920666f7220746865207a65604482015269726f206164647265737360b01b6064820152608401610727565b506001600160a01b031660009081526003602052604090205490565b600a546001600160a01b03163314610b405760405162461bcd60e51b815260040161072790612079565b610b4a60006113f4565b565b600c546000903390341015610ba35760405162461bcd60e51b815260206004820152601a60248201527f4e46543a20496e73756666696369656e74206d696e74206665650000000000006044820152606401610727565b6001600160a01b038316610be55760405162461bcd60e51b815260206004820152600960248201526827232a1d1020b2323960b91b6044820152606401610727565b6001600160a01b0381166000908152601060205260409020547f000000000000000000000000000000000000000000000000000000000000000011610c6c5760405162461bcd60e51b815260206004820152601c60248201527f4d6178206d696e742070657220616464726573732072656163686564000000006044820152606401610727565b6001600160a01b0381166000908152601060205260408120805460019290610c959084906120da565b9091555050600b805460010190556000610cae600b5490565b90507f0000000000000000000000000000000000000000000000000000000000000000811115610d195760405162461bcd60e51b81526020600482015260166024820152751391950e8813585e081d1bdad95b9cc81b5a5b9d195960521b6044820152606401610727565b600081815260116020526040902080546001600160a01b03191633179055610d418482611446565b3415610d8257600d546040516001600160a01b03909116903480156108fc02916000818181858888f19350505050158015610d80573d6000803e3d6000fd5b505b604080518281526001600160a01b0386166020820152338183015290517f5758c4c0a4d007ca9768a0a574eedc39af88c4423f4ad0f8895b1b8fd1e761339181900360600190a19392505050565b6000610ddb600b5490565b905090565b60606001805461062f90611ff3565b610966338383611460565b6001600160a01b0381166000908152600f6020908152604091829020805483518184028101840190945280845260609392830182828015610e5a57602002820191906000526020600020905b815481526020019060010190808311610e46575b50505050509050919050565b610e703383611156565b610e8c5760405162461bcd60e51b815260040161072790612028565b610e988484848461152f565b50505050565b606081610ec2816000908152600260205260409020546001600160a01b0316151590565b610f0e5760405162461bcd60e51b815260206004820152601b60248201527f4e46543a20746f6b656e496420646f6573206e6f7420657869737400000000006044820152606401610727565b610f16611562565b83604051602001610f289291906120f2565b60405160208183030381529060405291505b50919050565b600e8054610f4d90611ff3565b80601f0160208091040260200160405190810160405280929190818152602001828054610f7990611ff3565b8015610fc65780601f10610f9b57610100808354040283529160200191610fc6565b820191906000526020600020905b815481529060010190602001808311610fa957829003601f168201915b505050505081565b600a546001600160a01b03163314610ff85760405162461bcd60e51b815260040161072790612079565b600c55565b600a546001600160a01b031633146110275760405162461bcd60e51b815260040161072790612079565b6001600160a01b03811661108c5760405162461bcd60e51b815260206004820152602660248201527f4f776e61626c653a206e6577206f776e657220697320746865207a65726f206160448201526564647265737360d01b6064820152608401610727565b611095816113f4565b50565b60006001600160e01b031982166380ac58cd60e01b14806110c957506001600160e01b03198216635b5e139f60e01b145b8061061a57506301ffc9a760e01b6001600160e01b031983161461061a565b600081815260046020526040902080546001600160a01b0319166001600160a01b038416908117909155819061111d82610a18565b6001600160a01b03167f8c5be1e5ebec7d5bd14f71427d1e84f3dd0314c0f7b2291e5b200ac8c7c3b92560405160405180910390a45050565b6000818152600260205260408120546001600160a01b03166111cf5760405162461bcd60e51b815260206004820152602c60248201527f4552433732313a206f70657261746f7220717565727920666f72206e6f6e657860448201526b34b9ba32b73a103a37b5b2b760a11b6064820152608401610727565b60006111da83610a18565b9050806001600160a01b0316846001600160a01b0316148061122157506001600160a01b0380821660009081526005602090815260408083209388168352929052205460ff165b806112455750836001600160a01b031661123a846106b2565b6001600160a01b0316145b949350505050565b826001600160a01b031661126082610a18565b6001600160a01b0316146112c45760405162461bcd60e51b815260206004820152602560248201527f4552433732313a207472616e736665722066726f6d20696e636f72726563742060448201526437bbb732b960d91b6064820152608401610727565b6001600160a01b0382166113265760405162461bcd60e51b8152602060048201526024808201527f4552433732313a207472616e7366657220746f20746865207a65726f206164646044820152637265737360e01b6064820152608401610727565b611331838383611571565b61133c6000826110e8565b6001600160a01b0383166000908152600360205260408120805460019290611365908490612114565b90915550506001600160a01b03821660009081526003602052604081208054600192906113939084906120da565b909155505060008181526002602052604080822080546001600160a01b0319166001600160a01b0386811691821790925591518493918716917fddf252ad1be2c89b69c2b068fc378daa952ba7f163c4a11628f55a4df523b3ef91a4505050565b600a80546001600160a01b038381166001600160a01b0319831681179093556040519116919082907f8be0079c531659141344cd1fd0a4f28419497f9722a3daafe3b4186f6b6457e090600090a35050565b6109668282604051806020016040528060008152506115c7565b816001600160a01b0316836001600160a01b031614156114c25760405162461bcd60e51b815260206004820152601960248201527f4552433732313a20617070726f766520746f2063616c6c6572000000000000006044820152606401610727565b6001600160a01b03838116600081815260056020908152604080832094871680845294825291829020805460ff191686151590811790915591519182527f17307eab39ab6107e8899845ad3d59bd9653f200f220920489ca2b5937696c31910160405180910390a3505050565b61153a84848461124d565b611546848484846115fa565b610e985760405162461bcd60e51b81526004016107279061212b565b6060600e805461062f90611ff3565b61157c838383611707565b816001600160a01b0316836001600160a01b03161461085d576001600160a01b038316156115ae576115ae83826117bf565b6001600160a01b0382161561085d5761085d82826118a6565b6115d1838361191d565b6115de60008484846115fa565b61085d5760405162461bcd60e51b81526004016107279061212b565b60006001600160a01b0384163b156116fc57604051630a85bd0160e11b81526001600160a01b0385169063150b7a029061163e90339089908890889060040161217d565b602060405180830381600087803b15801561165857600080fd5b505af1925050508015611688575060408051601f3d908101601f19168201909252611685918101906121ba565b60015b6116e2573d8080156116b6576040519150601f19603f3d011682016040523d82523d6000602084013e6116bb565b606091505b5080516116da5760405162461bcd60e51b81526004016107279061212b565b805181602001fd5b6001600160e01b031916630a85bd0160e11b149050611245565b506001949350505050565b6001600160a01b0383166117625761175d81600880546000838152600960205260408120829055600182018355919091527ff3f7a9fe364faab93b216da50a3214154f22a0a2b415b23a84c8169e8b636ee30155565b611785565b816001600160a01b0316836001600160a01b031614611785576117858382611a6b565b6001600160a01b03821661179c5761085d81611b08565b826001600160a01b0316826001600160a01b03161461085d5761085d8282611bb7565b6001600160a01b0382166000908152600f602052604081209080805b835481101561182657848482815481106117f7576117f76120ae565b906000526020600020015414156118145780915060019250611826565b8061181e816121d7565b9150506117db565b50811561189f578254839061183d90600190612114565b8154811061184d5761184d6120ae565b906000526020600020015483828154811061186a5761186a6120ae565b906000526020600020018190555082805480611888576118886121f2565b600190038181906000526020600020016000905590555b5050505050565b6001600160a01b0382166000908152600f60205260408120905b815481101561190557828282815481106118dc576118dc6120ae565b906000526020600020015414156118f35750505050565b806118fd816121d7565b9150506118c0565b50805460018101825560009182526020909120015550565b6001600160a01b0382166119735760405162461bcd60e51b815260206004820181905260248201527f4552433732313a206d696e7420746f20746865207a65726f20616464726573736044820152606401610727565b6000818152600260205260409020546001600160a01b0316156119d85760405162461bcd60e51b815260206004820152601c60248201527f4552433732313a20746f6b656e20616c7265616479206d696e746564000000006044820152606401610727565b6119e460008383611571565b6001600160a01b0382166000908152600360205260408120805460019290611a0d9084906120da565b909155505060008181526002602052604080822080546001600160a01b0319166001600160a01b03861690811790915590518392907fddf252ad1be2c89b69c2b068fc378daa952ba7f163c4a11628f55a4df523b3ef908290a45050565b60006001611a7884610a8f565b611a829190612114565b600083815260076020526040902054909150808214611ad5576001600160a01b03841660009081526006602090815260408083208584528252808320548484528184208190558352600790915290208190555b5060009182526007602090815260408084208490556001600160a01b039094168352600681528383209183525290812055565b600854600090611b1a90600190612114565b60008381526009602052604081205460088054939450909284908110611b4257611b426120ae565b906000526020600020015490508060088381548110611b6357611b636120ae565b6000918252602080832090910192909255828152600990915260408082208490558582528120556008805480611b9b57611b9b6121f2565b6001900381819060005260206000200160009055905550505050565b6000611bc283610a8f565b6001600160a01b039093166000908152600660209081526040808320868452825280832085905593825260079052919091209190915550565b828054611c0790611ff3565b90600052602060002090601f016020900481019282611c295760008555611c6f565b82601f10611c4257805160ff1916838001178555611c6f565b82800160010185558215611c6f579182015b82811115611c6f578251825591602001919060010190611c54565b50611c7b929150611c7f565b5090565b5b80821115611c7b5760008155600101611c80565b6001600160e01b03198116811461109557600080fd5b600060208284031215611cbc57600080fd5b8135611cc781611c94565b9392505050565b60005b83811015611ce9578181015183820152602001611cd1565b83811115610e985750506000910152565b60008151808452611d12816020860160208601611cce565b601f01601f19169290920160200192915050565b602081526000611cc76020830184611cfa565b600060208284031215611d4b57600080fd5b5035919050565b80356001600160a01b0381168114611d6957600080fd5b919050565b60008060408385031215611d8157600080fd5b611d8a83611d52565b946020939093013593505050565b600080600060608486031215611dad57600080fd5b611db684611d52565b9250611dc460208501611d52565b9150604084013590509250925092565b634e487b7160e01b600052604160045260246000fd5b600067ffffffffffffffff80841115611e0557611e05611dd4565b604051601f8501601f19908116603f01168101908282118183101715611e2d57611e2d611dd4565b81604052809350858152868686011115611e4657600080fd5b858560208301376000602087830101525050509392505050565b600060208284031215611e7257600080fd5b813567ffffffffffffffff811115611e8957600080fd5b8201601f81018413611e9a57600080fd5b61124584823560208401611dea565b600060208284031215611ebb57600080fd5b611cc782611d52565b60008060408385031215611ed757600080fd5b611ee083611d52565b915060208301358015158114611ef557600080fd5b809150509250929050565b6020808252825182820181905260009190848201906040850190845b81811015611f3857835183529284019291840191600101611f1c565b50909695505050505050565b60008060008060808587031215611f5a57600080fd5b611f6385611d52565b9350611f7160208601611d52565b925060408501359150606085013567ffffffffffffffff811115611f9457600080fd5b8501601f81018713611fa557600080fd5b611fb487823560208401611dea565b91505092959194509250565b60008060408385031215611fd357600080fd5b611fdc83611d52565b9150611fea60208401611d52565b90509250929050565b600181811c9082168061200757607f821691505b60208210811415610f3a57634e487b7160e01b600052602260045260246000fd5b60208082526031908201527f4552433732313a207472616e736665722063616c6c6572206973206e6f74206f6040820152701ddb995c881b9bdc88185c1c1c9bdd9959607a1b606082015260800190565b6020808252818101527f4f776e61626c653a2063616c6c6572206973206e6f7420746865206f776e6572604082015260600190565b634e487b7160e01b600052603260045260246000fd5b634e487b7160e01b600052601160045260246000fd5b600082198211156120ed576120ed6120c4565b500190565b60008351612104818460208801611cce565b9190910191825250602001919050565b600082821015612126576121266120c4565b500390565b60208082526032908201527f4552433732313a207472616e7366657220746f206e6f6e20455243373231526560408201527131b2b4bb32b91034b6b83632b6b2b73a32b960711b606082015260800190565b6001600160a01b03858116825284166020820152604081018390526080606082018190526000906121b090830184611cfa565b9695505050505050565b6000602082840312156121cc57600080fd5b8151611cc781611c94565b60006000198214156121eb576121eb6120c4565b5060010190565b634e487b7160e01b600052603160045260246000fdfea2646970667358221220d6fddc604e9b3a18b5b40d408c2de5180c34a15b3bf9f917ec3fc8fb33430d3964736f6c63430008090033",
  "linkReferences": {},
  "deployedLinkReferences": {}
}