{
    "_format": "hh-sol-artifact-1",
    "contractName": "MultiAssetPriceOracle",
    "sourceName": "contracts/oracle/MultiAssetPriceOracle.sol",
    "abi": [
        {
            "anonymous": false,
            "inputs": [
                {
                    "indexed": true,
                    "internalType": "address",
                    "name": "previousOwner",
                    "type": "address"
                },
                {
                    "indexed": true,
                    "internalType": "address",
                    "name": "newOwner",
                    "type": "address"
                }
            ],
            "name": "OwnershipTransferred",
            "type": "event"
        },
        {
            "inputs": [],
            "name": "owner",
            "outputs": [
                {
                    "internalType": "address",
                    "name": "",
                    "type": "address"
                }
            ],
            "stateMutability": "view",
            "type": "function"
        },
        {
            "inputs": [
                {
                    "internalType": "address",
                    "name": "",
                    "type": "address"
                }
            ],
            "name": "priceFeed",
            "outputs": [
                {
                    "internalType": "contract IPriceFeed",
                    "name": "",
                    "type": "address"
                }
            ],
            "stateMutability": "view",
            "type": "function"
        },
        {
            "inputs": [
                {
                    "internalType": "address",
                    "name": "_token",
                    "type": "address"
                },
                {
                    "internalType": "uint256",
                    "name": "tokenID",
                    "type": "uint256"
                }
            ],
            "name": "readPrice",
            "outputs": [
                {
                    "internalType": "int256",
                    "name": "price",
                    "type": "int256"
                }
            ],
            "stateMutability": "view",
            "type": "function"
        },
        {
            "inputs": [],
            "name": "renounceOwnership",
            "outputs": [],
            "stateMutability": "nonpayable",
            "type": "function"
        },
        {
            "inputs": [
                {
                    "internalType": "address",
                    "name": "feed",
                    "type": "address"
                },
                {
                    "internalType": "address",
                    "name": "_token",
                    "type": "address"
                }
            ],
            "name": "setPriceFeed",
            "outputs": [],
            "stateMutability": "nonpayable",
            "type": "function"
        },
        {
            "inputs": [],
            "name": "token",
            "outputs": [
                {
                    "internalType": "address",
                    "name": "",
                    "type": "address"
                }
            ],
            "stateMutability": "view",
            "type": "function"
        },
        {
            "inputs": [
                {
                    "internalType": "address",
                    "name": "newOwner",
                    "type": "address"
                }
            ],
            "name": "transferOwnership",
            "outputs": [],
            "stateMutability": "nonpayable",
            "type": "function"
        }
    ],
    "bytecode": "0x608060405234801561001057600080fd5b5061001a3361001f565b61006f565b600080546001600160a01b038381166001600160a01b0319831681178455604051919092169283917f8be0079c531659141344cd1fd0a4f28419497f9722a3daafe3b4186f6b6457e09190a35050565b6105228061007e6000396000f3fe608060405234801561001057600080fd5b506004361061007d5760003560e01c806378334aee1161005b57806378334aee146100e55780638da5cb5b14610106578063f2fde38b14610117578063fc0c546a1461012a57600080fd5b80631fd48b9a14610082578063715018a6146100c857806376e11286146100d2575b600080fd5b6100ab61009036600461041f565b6001602052600090815260409020546001600160a01b031681565b6040516001600160a01b0390911681526020015b60405180910390f35b6100d061013d565b005b6100d06100e0366004610441565b61017c565b6100f86100f3366004610474565b610236565b6040519081526020016100bf565b6000546001600160a01b03166100ab565b6100d061012536600461041f565b610318565b6002546100ab906001600160a01b031681565b6000546001600160a01b031633146101705760405162461bcd60e51b81526004016101679061049e565b60405180910390fd5b61017a60006103b3565b565b6000546001600160a01b031633146101a65760405162461bcd60e51b81526004016101679061049e565b6001600160a01b038116158015906101c657506001600160a01b03821615155b6102065760405162461bcd60e51b81526020600482015260116024820152704552523a205a65726f206164647265737360781b6044820152606401610167565b6001600160a01b0390811660009081526001602052604090208054919092166001600160a01b0319909116179055565b6001600160a01b03808316600090815260016020526040812054909116806102905760405162461bcd60e51b815260206004820152600d60248201526c139bc81c1c9a58d94819995959609a1b6044820152606401610167565b604051633c19a57760e11b81526001600160a01b038581166004830152602482018590528216906378334aee9060440160206040518083038186803b1580156102d857600080fd5b505afa1580156102ec573d6000803e3d6000fd5b505050506040513d601f19601f8201168201806040525081019061031091906104d3565b949350505050565b6000546001600160a01b031633146103425760405162461bcd60e51b81526004016101679061049e565b6001600160a01b0381166103a75760405162461bcd60e51b815260206004820152602660248201527f4f776e61626c653a206e6577206f776e657220697320746865207a65726f206160448201526564647265737360d01b6064820152608401610167565b6103b0816103b3565b50565b600080546001600160a01b038381166001600160a01b0319831681178455604051919092169283917f8be0079c531659141344cd1fd0a4f28419497f9722a3daafe3b4186f6b6457e09190a35050565b80356001600160a01b038116811461041a57600080fd5b919050565b60006020828403121561043157600080fd5b61043a82610403565b9392505050565b6000806040838503121561045457600080fd5b61045d83610403565b915061046b60208401610403565b90509250929050565b6000806040838503121561048757600080fd5b61049083610403565b946020939093013593505050565b6020808252818101527f4f776e61626c653a2063616c6c6572206973206e6f7420746865206f776e6572604082015260600190565b6000602082840312156104e557600080fd5b505191905056fea264697066735822122094877094a882425e11651eaff01d7004080c0117e2ab6a287681c650473ff9b264736f6c63430008090033",
    "linkReferences": {},
    "deployedLinkReferences": {}
}