{
  "_format": "hh-sol-artifact-1",
  "contractName": "NFTWhitelistDrop",
  "sourceName": "contracts/market/NFTWhitelistDrop.sol",
  "abi": [
    {
      "inputs": [
        {
          "internalType": "uint256",
          "name": "_start",
          "type": "uint256"
        },
        {
          "internalType": "uint256",
          "name": "_end",
          "type": "uint256"
        },
        {
          "internalType": "address",
          "name": "_nft",
          "type": "address"
        },
        {
          "internalType": "string",
          "name": "_uri",
          "type": "string"
        }
      ],
      "stateMutability": "nonpayable",
      "type": "constructor"
    },
    {
      "anonymous": false,
      "inputs": [
        {
          "indexed": true,
          "internalType": "address",
          "name": "previousOwner",
          "type": "address"
        },
        {
          "indexed": true,
          "internalType": "address",
          "name": "newOwner",
          "type": "address"
        }
      ],
      "name": "OwnershipTransferred",
      "type": "event"
    },
    {
      "inputs": [],
      "name": "currentSlot",
      "outputs": [
        {
          "internalType": "uint256",
          "name": "",
          "type": "uint256"
        }
      ],
      "stateMutability": "view",
      "type": "function"
    },
    {
      "inputs": [],
      "name": "end",
      "outputs": [
        {
          "internalType": "uint256",
          "name": "",
          "type": "uint256"
        }
      ],
      "stateMutability": "view",
      "type": "function"
    },
    {
      "inputs": [],
      "name": "enter",
      "outputs": [],
      "stateMutability": "nonpayable",
      "type": "function"
    },
    {
      "inputs": [
        {
          "internalType": "uint256",
          "name": "",
          "type": "uint256"
        }
      ],
      "name": "entries",
      "outputs": [
        {
          "internalType": "address",
          "name": "user",
          "type": "address"
        },
        {
          "internalType": "uint256",
          "name": "slot",
          "type": "uint256"
        },
        {
          "internalType": "uint256",
          "name": "tickets",
          "type": "uint256"
        }
      ],
      "stateMutability": "view",
      "type": "function"
    },
    {
      "inputs": [],
      "name": "getEntries",
      "outputs": [
        {
          "components": [
            {
              "internalType": "address",
              "name": "user",
              "type": "address"
            },
            {
              "internalType": "uint256",
              "name": "slot",
              "type": "uint256"
            },
            {
              "internalType": "uint256",
              "name": "tickets",
              "type": "uint256"
            }
          ],
          "internalType": "struct DropEntry[]",
          "name": "",
          "type": "tuple[]"
        }
      ],
      "stateMutability": "view",
      "type": "function"
    },
    {
      "inputs": [
        {
          "internalType": "address",
          "name": "",
          "type": "address"
        }
      ],
      "name": "hasEntered",
      "outputs": [
        {
          "internalType": "bool",
          "name": "",
          "type": "bool"
        }
      ],
      "stateMutability": "view",
      "type": "function"
    },
    {
      "inputs": [],
      "name": "metadataURI",
      "outputs": [
        {
          "internalType": "string",
          "name": "",
          "type": "string"
        }
      ],
      "stateMutability": "view",
      "type": "function"
    },
    {
      "inputs": [],
      "name": "myTickets",
      "outputs": [
        {
          "internalType": "uint256",
          "name": "",
          "type": "uint256"
        }
      ],
      "stateMutability": "view",
      "type": "function"
    },
    {
      "inputs": [],
      "name": "nftContract",
      "outputs": [
        {
          "internalType": "address",
          "name": "",
          "type": "address"
        }
      ],
      "stateMutability": "view",
      "type": "function"
    },
    {
      "inputs": [],
      "name": "numberOfWinners",
      "outputs": [
        {
          "internalType": "uint256",
          "name": "",
          "type": "uint256"
        }
      ],
      "stateMutability": "view",
      "type": "function"
    },
    {
      "inputs": [],
      "name": "owner",
      "outputs": [
        {
          "internalType": "address",
          "name": "",
          "type": "address"
        }
      ],
      "stateMutability": "view",
      "type": "function"
    },
    {
      "inputs": [],
      "name": "pickWinners",
      "outputs": [],
      "stateMutability": "nonpayable",
      "type": "function"
    },
    {
      "inputs": [],
      "name": "registry",
      "outputs": [
        {
          "internalType": "contract ICheddaAddressRegistry",
          "name": "",
          "type": "address"
        }
      ],
      "stateMutability": "view",
      "type": "function"
    },
    {
      "inputs": [],
      "name": "renounceOwnership",
      "outputs": [],
      "stateMutability": "nonpayable",
      "type": "function"
    },
    {
      "inputs": [],
      "name": "start",
      "outputs": [
        {
          "internalType": "uint256",
          "name": "",
          "type": "uint256"
        }
      ],
      "stateMutability": "view",
      "type": "function"
    },
    {
      "inputs": [
        {
          "internalType": "address",
          "name": "newOwner",
          "type": "address"
        }
      ],
      "name": "transferOwnership",
      "outputs": [],
      "stateMutability": "nonpayable",
      "type": "function"
    },
    {
      "inputs": [
        {
          "internalType": "address",
          "name": "registryAddress",
          "type": "address"
        }
      ],
      "name": "updateRegistry",
      "outputs": [],
      "stateMutability": "nonpayable",
      "type": "function"
    }
  ],
  "bytecode": "0x60806040523480156200001157600080fd5b50604051620011a3380380620011a383398101604081905262000034916200017a565b6200003f3362000084565b60018490556002839055600780546001600160a01b0319166001600160a01b038416179055805162000079906005906020840190620000d4565b5050505050620002d8565b600080546001600160a01b038381166001600160a01b0319831681178455604051919092169283917f8be0079c531659141344cd1fd0a4f28419497f9722a3daafe3b4186f6b6457e09190a35050565b828054620000e29062000285565b90600052602060002090601f01602090048101928262000106576000855562000151565b82601f106200012157805160ff191683800117855562000151565b8280016001018555821562000151579182015b828111156200015157825182559160200191906001019062000134565b506200015f92915062000163565b5090565b5b808211156200015f576000815560010162000164565b6000806000806080858703121562000190578384fd5b845160208087015160408801519296509450906001600160a01b0381168114620001b8578384fd5b60608701519093506001600160401b0380821115620001d5578384fd5b818801915088601f830112620001e9578384fd5b815181811115620001fe57620001fe620002c2565b604051601f8201601f19908116603f01168101908382118183101715620002295762000229620002c2565b816040528281528b8684870101111562000241578687fd5b8693505b8284101562000264578484018601518185018701529285019262000245565b828411156200027557868684830101525b989b979a50959850505050505050565b600181811c908216806200029a57607f821691505b60208210811415620002bc57634e487b7160e01b600052602260045260246000fd5b50919050565b634e487b7160e01b600052604160045260246000fd5b610ebb80620002e86000396000f3fe608060405234801561001057600080fd5b506004361061010a5760003560e01c80638acfaca9116100a2578063d56d229d11610071578063d56d229d14610233578063dc07820f14610246578063e97dcb621461024e578063efbe1c1c14610256578063f2fde38b1461025f57600080fd5b80638acfaca9146101d85780638da5cb5b146101e1578063b30906d4146101f2578063be9a65551461022a57600080fd5b806324d70dea116100de57806324d70dea146101695780633359632e1461019c578063715018a6146101a55780637b103999146101ad57600080fd5b8062ea87371461010f57806303ee438c1461012a57806317be85c31461013f5780631a5da6c814610154575b600080fd5b610117610272565b6040519081526020015b60405180910390f35b61013261031e565b6040516101219190610d64565b6101476103ac565b6040516101219190610d02565b610167610162366004610c93565b61042e565b005b61018c610177366004610c93565b60066020526000908152604090205460ff1681565b6040519015158152602001610121565b61011760035481565b610167610483565b6008546101c0906001600160a01b031681565b6040516001600160a01b039091168152602001610121565b61011760045481565b6000546001600160a01b03166101c0565b610205610200366004610cd2565b6104b9565b604080516001600160a01b039094168452602084019290925290820152606001610121565b61011760015481565b6007546101c0906001600160a01b031681565b6101676104f6565b6101676105f9565b61011760025481565b61016761026d366004610c93565b6109df565b6000805b60095481101561031657336001600160a01b0316600982815481106102ab57634e487b7160e01b600052603260045260246000fd5b60009182526020909120600390910201546001600160a01b0316141561030457600981815481106102ec57634e487b7160e01b600052603260045260246000fd5b90600052602060002090600302016002015491505090565b8061030e81610e3f565b915050610276565b506000905090565b6005805461032b90610e04565b80601f016020809104026020016040519081016040528092919081815260200182805461035790610e04565b80156103a45780601f10610379576101008083540402835291602001916103a4565b820191906000526020600020905b81548152906001019060200180831161038757829003601f168201915b505050505081565b60606009805480602002602001604051908101604052809291908181526020016000905b82821015610425576000848152602090819020604080516060810182526003860290920180546001600160a01b03168352600180820154848601526002909101549183019190915290835290920191016103d0565b50505050905090565b6000546001600160a01b031633146104615760405162461bcd60e51b815260040161045890610db7565b60405180910390fd5b600880546001600160a01b0319166001600160a01b0392909216919091179055565b6000546001600160a01b031633146104ad5760405162461bcd60e51b815260040161045890610db7565b6104b76000610a73565b565b600981815481106104c957600080fd5b60009182526020909120600390910201805460018201546002909201546001600160a01b03909116925083565b60025442116105395760405162461bcd60e51b815260206004820152600f60248201526e111c9bdc0e88139bdd08195b991959608a1b6044820152606401610458565b6000546001600160a01b031633146105635760405162461bcd60e51b815260040161045890610db7565b60005b6004548110156105f657600061057a610ac3565b6007546040516313ba432560e31b81526001600160a01b03808416600483015260016024830152929350911690639dd2192890604401600060405180830381600087803b1580156105ca57600080fd5b505af11580156105de573d6000803e3d6000fd5b505050505080806105ee90610e3f565b915050610566565b50565b600154421015801561060c575060025442105b6106495760405162461bcd60e51b815260206004820152600e60248201526d223937b81d102737ba1037b832b760911b6044820152606401610458565b3360009081526006602052604090205460ff16156106a15760405162461bcd60e51b8152602060048201526015602482015274111c9bdc0e88185b1c9958591e48195b9d195c9959605a1b6044820152606401610458565b6008546040805163927befe760e01b815290516000926001600160a01b03169163927befe7916004808301926020929190829003018186803b1580156106e657600080fd5b505afa1580156106fa573d6000803e3d6000fd5b505050506040513d601f19601f8201168201806040525081019061071e9190610cb6565b6001600160a01b03166370a08231336040516001600160e01b031960e084901b1681526001600160a01b03909116600482015260240160206040518083038186803b15801561076c57600080fd5b505afa158015610780573d6000803e3d6000fd5b505050506040513d601f19601f820116820180604052508101906107a49190610cea565b116107f15760405162461bcd60e51b815260206004820152601760248201527f44726f703a2043686564646158502072657175697265640000000000000000006044820152606401610458565b600860009054906101000a90046001600160a01b03166001600160a01b03166347ce07cc6040518163ffffffff1660e01b815260040160206040518083038186803b15801561083f57600080fd5b505afa158015610853573d6000803e3d6000fd5b505050506040513d601f19601f820116820180604052508101906108779190610cb6565b6001600160a01b0316634b0bbf846040518163ffffffff1660e01b8152600401600060405180830381600087803b1580156108b157600080fd5b505af11580156108c5573d6000803e3d6000fd5b505050506001600660006108d63390565b6001600160a01b0316815260208101919091526040016000908120805460ff19169215159290921790915560038054600192839291610916908490610dec565b90915550506040805160608101825233815260038054602083019081529282019384526009805460018101825560009190915291517f6e1540171b6c0c960b71a7020d9f60077f6af931a8bbf590da0223dacf75c7af9290910291820180546001600160a01b0319166001600160a01b0390921691909117905590517f6e1540171b6c0c960b71a7020d9f60077f6af931a8bbf590da0223dacf75c7b082015590517f6e1540171b6c0c960b71a7020d9f60077f6af931a8bbf590da0223dacf75c7b190910155565b6000546001600160a01b03163314610a095760405162461bcd60e51b815260040161045890610db7565b6001600160a01b038116610a6e5760405162461bcd60e51b815260206004820152602660248201527f4f776e61626c653a206e6577206f776e657220697320746865207a65726f206160448201526564647265737360d01b6064820152608401610458565b6105f6815b600080546001600160a01b038381166001600160a01b0319831681178455604051919092169283917f8be0079c531659141344cd1fd0a4f28419497f9722a3daafe3b4186f6b6457e09190a35050565b60006002544211610b085760405162461bcd60e51b815260206004820152600f60248201526e111c9bdc0e88139bdd08195b991959608a1b6044820152606401610458565b6000610b15600354610b93565b905060005b600954811015610b8957600060098281548110610b4757634e487b7160e01b600052603260045260246000fd5b9060005260206000209060030201905082816001015410610b7657546001600160a01b03169250610b90915050565b5080610b8181610e3f565b915050610b1a565b5060009150505b90565b600854604080516311f381f360e21b815290516000926001600160a01b0316916347ce07cc916004808301926020929190829003018186803b158015610bd857600080fd5b505afa158015610bec573d6000803e3d6000fd5b505050506040513d601f19601f82011682018060405250810190610c109190610cb6565b6001600160a01b031663f970dd02836040518263ffffffff1660e01b8152600401610c3d91815260200190565b60206040518083038186803b158015610c5557600080fd5b505afa158015610c69573d6000803e3d6000fd5b505050506040513d601f19601f82011682018060405250810190610c8d9190610cea565b92915050565b600060208284031215610ca4578081fd5b8135610caf81610e70565b9392505050565b600060208284031215610cc7578081fd5b8151610caf81610e70565b600060208284031215610ce3578081fd5b5035919050565b600060208284031215610cfb578081fd5b5051919050565b602080825282518282018190526000919060409081850190868401855b82811015610d5757815180516001600160a01b0316855286810151878601528501518585015260609093019290850190600101610d1f565b5091979650505050505050565b6000602080835283518082850152825b81811015610d9057858101830151858201604001528201610d74565b81811115610da15783604083870101525b50601f01601f1916929092016040019392505050565b6020808252818101527f4f776e61626c653a2063616c6c6572206973206e6f7420746865206f776e6572604082015260600190565b60008219821115610dff57610dff610e5a565b500190565b600181811c90821680610e1857607f821691505b60208210811415610e3957634e487b7160e01b600052602260045260246000fd5b50919050565b6000600019821415610e5357610e53610e5a565b5060010190565b634e487b7160e01b600052601160045260246000fd5b6001600160a01b03811681146105f657600080fdfea26469706673582212202df394b5cb7e9401f723db17c204e5323f4091abfc7ae1e8b403d6250c1f417e64736f6c63430008040033",
  "linkReferences": {},
  "deployedLinkReferences": {}
}