{
    "_format": "hh-sol-artifact-1",
    "contractName": "sChedda",
    "sourceName": "contracts/tokens/sChedda.sol",
    "abi": [
        {
            "inputs": [
                {
                    "internalType": "address",
                    "name": "_chedda",
                    "type": "address"
                }
            ],
            "stateMutability": "nonpayable",
            "type": "constructor"
        },
        {
            "anonymous": false,
            "inputs": [
                {
                    "indexed": true,
                    "internalType": "address",
                    "name": "owner",
                    "type": "address"
                },
                {
                    "indexed": true,
                    "internalType": "address",
                    "name": "spender",
                    "type": "address"
                },
                {
                    "indexed": false,
                    "internalType": "uint256",
                    "name": "amount",
                    "type": "uint256"
                }
            ],
            "name": "Approval",
            "type": "event"
        },
        {
            "anonymous": false,
            "inputs": [
                {
                    "indexed": true,
                    "internalType": "address",
                    "name": "from",
                    "type": "address"
                },
                {
                    "indexed": true,
                    "internalType": "address",
                    "name": "to",
                    "type": "address"
                },
                {
                    "indexed": false,
                    "internalType": "uint256",
                    "name": "amount",
                    "type": "uint256"
                },
                {
                    "indexed": false,
                    "internalType": "uint256",
                    "name": "shares",
                    "type": "uint256"
                }
            ],
            "name": "Deposit",
            "type": "event"
        },
        {
            "anonymous": false,
            "inputs": [
                {
                    "indexed": true,
                    "internalType": "address",
                    "name": "from",
                    "type": "address"
                },
                {
                    "indexed": true,
                    "internalType": "address",
                    "name": "to",
                    "type": "address"
                },
                {
                    "indexed": false,
                    "internalType": "uint256",
                    "name": "amount",
                    "type": "uint256"
                }
            ],
            "name": "Transfer",
            "type": "event"
        },
        {
            "anonymous": false,
            "inputs": [
                {
                    "indexed": true,
                    "internalType": "address",
                    "name": "from",
                    "type": "address"
                },
                {
                    "indexed": true,
                    "internalType": "address",
                    "name": "to",
                    "type": "address"
                },
                {
                    "indexed": false,
                    "internalType": "uint256",
                    "name": "amount",
                    "type": "uint256"
                },
                {
                    "indexed": false,
                    "internalType": "uint256",
                    "name": "shares",
                    "type": "uint256"
                }
            ],
            "name": "Withdraw",
            "type": "event"
        },
        {
            "inputs": [],
            "name": "DOMAIN_SEPARATOR",
            "outputs": [
                {
                    "internalType": "bytes32",
                    "name": "",
                    "type": "bytes32"
                }
            ],
            "stateMutability": "view",
            "type": "function"
        },
        {
            "inputs": [
                {
                    "internalType": "address",
                    "name": "",
                    "type": "address"
                },
                {
                    "internalType": "address",
                    "name": "",
                    "type": "address"
                }
            ],
            "name": "allowance",
            "outputs": [
                {
                    "internalType": "uint256",
                    "name": "",
                    "type": "uint256"
                }
            ],
            "stateMutability": "view",
            "type": "function"
        },
        {
            "inputs": [
                {
                    "internalType": "address",
                    "name": "spender",
                    "type": "address"
                },
                {
                    "internalType": "uint256",
                    "name": "amount",
                    "type": "uint256"
                }
            ],
            "name": "approve",
            "outputs": [
                {
                    "internalType": "bool",
                    "name": "",
                    "type": "bool"
                }
            ],
            "stateMutability": "nonpayable",
            "type": "function"
        },
        {
            "inputs": [],
            "name": "asset",
            "outputs": [
                {
                    "internalType": "contract ERC20",
                    "name": "",
                    "type": "address"
                }
            ],
            "stateMutability": "view",
            "type": "function"
        },
        {
            "inputs": [
                {
                    "internalType": "address",
                    "name": "user",
                    "type": "address"
                }
            ],
            "name": "assetsOf",
            "outputs": [
                {
                    "internalType": "uint256",
                    "name": "",
                    "type": "uint256"
                }
            ],
            "stateMutability": "view",
            "type": "function"
        },
        {
            "inputs": [],
            "name": "assetsPerShare",
            "outputs": [
                {
                    "internalType": "uint256",
                    "name": "",
                    "type": "uint256"
                }
            ],
            "stateMutability": "view",
            "type": "function"
        },
        {
            "inputs": [
                {
                    "internalType": "address",
                    "name": "",
                    "type": "address"
                }
            ],
            "name": "balanceOf",
            "outputs": [
                {
                    "internalType": "uint256",
                    "name": "",
                    "type": "uint256"
                }
            ],
            "stateMutability": "view",
            "type": "function"
        },
        {
            "inputs": [],
            "name": "chedda",
            "outputs": [
                {
                    "internalType": "contract Chedda",
                    "name": "",
                    "type": "address"
                }
            ],
            "stateMutability": "view",
            "type": "function"
        },
        {
            "inputs": [],
            "name": "decimals",
            "outputs": [
                {
                    "internalType": "uint8",
                    "name": "",
                    "type": "uint8"
                }
            ],
            "stateMutability": "view",
            "type": "function"
        },
        {
            "inputs": [
                {
                    "internalType": "uint256",
                    "name": "amount",
                    "type": "uint256"
                },
                {
                    "internalType": "address",
                    "name": "to",
                    "type": "address"
                }
            ],
            "name": "deposit",
            "outputs": [
                {
                    "internalType": "uint256",
                    "name": "shares",
                    "type": "uint256"
                }
            ],
            "stateMutability": "nonpayable",
            "type": "function"
        },
        {
            "inputs": [
                {
                    "internalType": "address",
                    "name": "",
                    "type": "address"
                }
            ],
            "name": "maxDeposit",
            "outputs": [
                {
                    "internalType": "uint256",
                    "name": "",
                    "type": "uint256"
                }
            ],
            "stateMutability": "nonpayable",
            "type": "function"
        },
        {
            "inputs": [
                {
                    "internalType": "address",
                    "name": "",
                    "type": "address"
                }
            ],
            "name": "maxMint",
            "outputs": [
                {
                    "internalType": "uint256",
                    "name": "",
                    "type": "uint256"
                }
            ],
            "stateMutability": "nonpayable",
            "type": "function"
        },
        {
            "inputs": [
                {
                    "internalType": "address",
                    "name": "user",
                    "type": "address"
                }
            ],
            "name": "maxRedeem",
            "outputs": [
                {
                    "internalType": "uint256",
                    "name": "",
                    "type": "uint256"
                }
            ],
            "stateMutability": "nonpayable",
            "type": "function"
        },
        {
            "inputs": [
                {
                    "internalType": "address",
                    "name": "user",
                    "type": "address"
                }
            ],
            "name": "maxWithdraw",
            "outputs": [
                {
                    "internalType": "uint256",
                    "name": "",
                    "type": "uint256"
                }
            ],
            "stateMutability": "nonpayable",
            "type": "function"
        },
        {
            "inputs": [
                {
                    "internalType": "uint256",
                    "name": "shares",
                    "type": "uint256"
                },
                {
                    "internalType": "address",
                    "name": "to",
                    "type": "address"
                }
            ],
            "name": "mint",
            "outputs": [
                {
                    "internalType": "uint256",
                    "name": "amount",
                    "type": "uint256"
                }
            ],
            "stateMutability": "nonpayable",
            "type": "function"
        },
        {
            "inputs": [],
            "name": "name",
            "outputs": [
                {
                    "internalType": "string",
                    "name": "",
                    "type": "string"
                }
            ],
            "stateMutability": "view",
            "type": "function"
        },
        {
            "inputs": [
                {
                    "internalType": "address",
                    "name": "",
                    "type": "address"
                }
            ],
            "name": "nonces",
            "outputs": [
                {
                    "internalType": "uint256",
                    "name": "",
                    "type": "uint256"
                }
            ],
            "stateMutability": "view",
            "type": "function"
        },
        {
            "inputs": [
                {
                    "internalType": "address",
                    "name": "owner",
                    "type": "address"
                },
                {
                    "internalType": "address",
                    "name": "spender",
                    "type": "address"
                },
                {
                    "internalType": "uint256",
                    "name": "value",
                    "type": "uint256"
                },
                {
                    "internalType": "uint256",
                    "name": "deadline",
                    "type": "uint256"
                },
                {
                    "internalType": "uint8",
                    "name": "v",
                    "type": "uint8"
                },
                {
                    "internalType": "bytes32",
                    "name": "r",
                    "type": "bytes32"
                },
                {
                    "internalType": "bytes32",
                    "name": "s",
                    "type": "bytes32"
                }
            ],
            "name": "permit",
            "outputs": [],
            "stateMutability": "nonpayable",
            "type": "function"
        },
        {
            "inputs": [
                {
                    "internalType": "uint256",
                    "name": "amount",
                    "type": "uint256"
                }
            ],
            "name": "previewDeposit",
            "outputs": [
                {
                    "internalType": "uint256",
                    "name": "",
                    "type": "uint256"
                }
            ],
            "stateMutability": "view",
            "type": "function"
        },
        {
            "inputs": [
                {
                    "internalType": "uint256",
                    "name": "shares",
                    "type": "uint256"
                }
            ],
            "name": "previewMint",
            "outputs": [
                {
                    "internalType": "uint256",
                    "name": "",
                    "type": "uint256"
                }
            ],
            "stateMutability": "view",
            "type": "function"
        },
        {
            "inputs": [
                {
                    "internalType": "uint256",
                    "name": "shares",
                    "type": "uint256"
                }
            ],
            "name": "previewRedeem",
            "outputs": [
                {
                    "internalType": "uint256",
                    "name": "",
                    "type": "uint256"
                }
            ],
            "stateMutability": "view",
            "type": "function"
        },
        {
            "inputs": [
                {
                    "internalType": "uint256",
                    "name": "amount",
                    "type": "uint256"
                }
            ],
            "name": "previewWithdraw",
            "outputs": [
                {
                    "internalType": "uint256",
                    "name": "",
                    "type": "uint256"
                }
            ],
            "stateMutability": "view",
            "type": "function"
        },
        {
            "inputs": [
                {
                    "internalType": "uint256",
                    "name": "shares",
                    "type": "uint256"
                },
                {
                    "internalType": "address",
                    "name": "to",
                    "type": "address"
                },
                {
                    "internalType": "address",
                    "name": "from",
                    "type": "address"
                }
            ],
            "name": "redeem",
            "outputs": [
                {
                    "internalType": "uint256",
                    "name": "amount",
                    "type": "uint256"
                }
            ],
            "stateMutability": "nonpayable",
            "type": "function"
        },
        {
            "inputs": [
                {
                    "internalType": "uint256",
                    "name": "amount",
                    "type": "uint256"
                }
            ],
            "name": "stake",
            "outputs": [
                {
                    "internalType": "uint256",
                    "name": "shares",
                    "type": "uint256"
                }
            ],
            "stateMutability": "nonpayable",
            "type": "function"
        },
        {
            "inputs": [],
            "name": "symbol",
            "outputs": [
                {
                    "internalType": "string",
                    "name": "",
                    "type": "string"
                }
            ],
            "stateMutability": "view",
            "type": "function"
        },
        {
            "inputs": [],
            "name": "totalAssets",
            "outputs": [
                {
                    "internalType": "uint256",
                    "name": "",
                    "type": "uint256"
                }
            ],
            "stateMutability": "view",
            "type": "function"
        },
        {
            "inputs": [],
            "name": "totalSupply",
            "outputs": [
                {
                    "internalType": "uint256",
                    "name": "",
                    "type": "uint256"
                }
            ],
            "stateMutability": "view",
            "type": "function"
        },
        {
            "inputs": [
                {
                    "internalType": "address",
                    "name": "to",
                    "type": "address"
                },
                {
                    "internalType": "uint256",
                    "name": "amount",
                    "type": "uint256"
                }
            ],
            "name": "transfer",
            "outputs": [
                {
                    "internalType": "bool",
                    "name": "",
                    "type": "bool"
                }
            ],
            "stateMutability": "nonpayable",
            "type": "function"
        },
        {
            "inputs": [
                {
                    "internalType": "address",
                    "name": "from",
                    "type": "address"
                },
                {
                    "internalType": "address",
                    "name": "to",
                    "type": "address"
                },
                {
                    "internalType": "uint256",
                    "name": "amount",
                    "type": "uint256"
                }
            ],
            "name": "transferFrom",
            "outputs": [
                {
                    "internalType": "bool",
                    "name": "",
                    "type": "bool"
                }
            ],
            "stateMutability": "nonpayable",
            "type": "function"
        },
        {
            "inputs": [
                {
                    "internalType": "uint256",
                    "name": "amount",
                    "type": "uint256"
                }
            ],
            "name": "unstake",
            "outputs": [
                {
                    "internalType": "uint256",
                    "name": "shares",
                    "type": "uint256"
                }
            ],
            "stateMutability": "nonpayable",
            "type": "function"
        },
        {
            "inputs": [
                {
                    "internalType": "uint256",
                    "name": "amount",
                    "type": "uint256"
                },
                {
                    "internalType": "address",
                    "name": "to",
                    "type": "address"
                },
                {
                    "internalType": "address",
                    "name": "from",
                    "type": "address"
                }
            ],
            "name": "withdraw",
            "outputs": [
                {
                    "internalType": "uint256",
                    "name": "shares",
                    "type": "uint256"
                }
            ],
            "stateMutability": "nonpayable",
            "type": "function"
        }
    ],
    "bytecode": "0x6101006040523480156200001257600080fd5b5060405162001bc838038062001bc88339810160408190526200003591620002d6565b806040518060400160405280600d81526020016c5374616b65642043686564646160981b815250604051806040016040528060078152602001667343686564646160c81b8152508181846001600160a01b031663313ce5676040518163ffffffff1660e01b815260040160206040518083038186803b158015620000b857600080fd5b505afa158015620000cd573d6000803e3d6000fd5b505050506040513d601f19601f82011682018060405250810190620000f3919062000306565b82516200010890600090602086019062000230565b5081516200011e90600190602085019062000230565b506002805460ff191660ff8316179055466080526200013c62000194565b60a0525050506001600160601b0319606084901b1660c052600254620001679060ff16600a62000415565b60e0525050600780546001600160a01b0319166001600160a01b0393909316929092179091555062000529565b60007f8b73c3c69bb8fe3d512ecc4cf759cc79239f7b179b0ffacaa9a75d522b39400f6000604051620001c8919062000329565b6040805191829003822060208301939093528101919091527fc89efdaa54c0f20c7adf612882df0950f5a951637e0307cdcb4c672f298b8bc660608201524660808201523060a082015260c00160405160208183030381529060405280519060200120905090565b8280546200023e90620004d6565b90600052602060002090601f016020900481019282620002625760008555620002ad565b82601f106200027d57805160ff1916838001178555620002ad565b82800160010185558215620002ad579182015b82811115620002ad57825182559160200191906001019062000290565b50620002bb929150620002bf565b5090565b5b80821115620002bb5760008155600101620002c0565b600060208284031215620002e8578081fd5b81516001600160a01b0381168114620002ff578182fd5b9392505050565b60006020828403121562000318578081fd5b815160ff81168114620002ff578182fd5b600080835482600182811c9150808316806200034657607f831692505b60208084108214156200036757634e487b7160e01b87526022600452602487fd5b8180156200037e57600181146200039057620003be565b60ff19861689528489019650620003be565b60008a815260209020885b86811015620003b65781548b8201529085019083016200039b565b505084890196505b509498975050505050505050565b600181815b808511156200040d578160001904821115620003f157620003f162000513565b80851615620003ff57918102915b93841c9390800290620003d1565b509250929050565b6000620002ff60ff8416836000826200043157506001620004d0565b816200044057506000620004d0565b8160018114620004595760028114620004645762000484565b6001915050620004d0565b60ff84111562000478576200047862000513565b50506001821b620004d0565b5060208310610133831016604e8410600b8410161715620004a9575081810a620004d0565b620004b58383620003cc565b8060001904821115620004cc57620004cc62000513565b0290505b92915050565b600181811c90821680620004eb57607f821691505b602082108114156200050d57634e487b7160e01b600052602260045260246000fd5b50919050565b634e487b7160e01b600052601160045260246000fd5b60805160a05160c05160601c60e05161163f6200058960003960006107d00152600081816102f1015281816104af015281816108c30152818161095b01528181610bc50152610d0901526000610828015260006107f8015261163f6000f3fe608060405234801561001057600080fd5b50600436106101e55760003560e01c80636e553f651161010f578063b460af94116100a2578063d505accf11610071578063d505accf1461041b578063d905777e14610430578063dd62ed3e14610459578063ef8b30f71461048457600080fd5b8063b460af94146103e2578063ba087652146103f5578063c63d75b614610313578063ce96cb771461040857600080fd5b806395d89b41116100de57806395d89b41146103a1578063a694fc3a146103a9578063a9059cbb146103bc578063b3d7f6b9146103cf57600080fd5b80636e553f651461033b57806370a082311461034e5780637ecebe001461036e57806394bf804d1461038e57600080fd5b80632c62fa10116101875780633644e515116101565780633644e515146102e457806338d52e0f146102ec578063402d267d146103135780634cdad5061461032857600080fd5b80632c62fa10146102975780632e17de78146102aa578063313ce567146102bd57806335d16e17146102dc57600080fd5b80630a28a477116101c35780630a28a4771461023d57806314e5fd061461025057806318160ddd1461027b57806323b872dd1461028457600080fd5b806301e1d114146101ea57806306fdde0314610205578063095ea7b31461021a575b600080fd5b6101f2610497565b6040519081526020015b60405180910390f35b61020d610536565b6040516101fc9190611516565b61022d6102283660046113c5565b6105c4565b60405190151581526020016101fc565b6101f261024b3660046113ee565b610631565b600754610263906001600160a01b031681565b6040516001600160a01b0390911681526020016101fc565b6101f260035481565b61022d610292366004611319565b61065f565b6101f26102a53660046112cd565b61073f565b6101f26102b83660046113ee565b610761565b6002546102ca9060ff1681565b60405160ff90911681526020016101fc565b6101f26107c9565b6101f26107f4565b6102637f000000000000000000000000000000000000000000000000000000000000000081565b6101f26103213660046112cd565b5060001990565b6101f26103363660046113ee565b61084a565b6101f261034936600461141e565b610869565b6101f261035c3660046112cd565b60046020526000908152604090205481565b6101f261037c3660046112cd565b60066020526000908152604090205481565b6101f261039c36600461141e565b610941565b61020d6109d0565b6101f26103b73660046113ee565b6109dd565b61022d6103ca3660046113c5565b610a58565b6101f26103dd3660046113ee565b610abe565b6101f26103f0366004611440565b610add565b6101f2610403366004611440565b610bec565b6101f26104163660046112cd565b610d38565b61042e610429366004611354565b610d43565b005b6101f261043e3660046112cd565b6001600160a01b031660009081526004602052604090205490565b6101f26104673660046112e7565b600560209081526000928352604080842090915290825290205481565b6101f26104923660046113ee565b610f94565b6040516370a0823160e01b81523060048201526000907f00000000000000000000000000000000000000000000000000000000000000006001600160a01b0316906370a082319060240160206040518083038186803b1580156104f957600080fd5b505afa15801561050d573d6000803e3d6000fd5b505050506040513d601f19601f820116820180604052508101906105319190611406565b905090565b6000805461054390611598565b80601f016020809104026020016040519081016040528092919081815260200182805461056f90611598565b80156105bc5780601f10610591576101008083540402835291602001916105bc565b820191906000526020600020905b81548152906001019060200180831161059f57829003601f168201915b505050505081565b3360008181526005602090815260408083206001600160a01b038716808552925280832085905551919290917f8c5be1e5ebec7d5bd14f71427d1e84f3dd0314c0f7b2291e5b200ac8c7c3b9259061061f9086815260200190565b60405180910390a35060015b92915050565b60035460009080156106565761065181610649610497565b859190610fb4565b610658565b825b9392505050565b6001600160a01b038316600090815260056020908152604080832033845290915281205460001981146106bb576106968382611581565b6001600160a01b03861660009081526005602090815260408083203384529091529020555b6001600160a01b038516600090815260046020526040812080548592906106e3908490611581565b90915550506001600160a01b03808516600081815260046020526040908190208054870190555190918716906000805160206115ea8339815191529061072c9087815260200190565b60405180910390a3506001949350505050565b6001600160a01b03811660009081526004602052604081205461062b9061084a565b60075460408051632bc5014b60e21b815290516000926001600160a01b03169163af14052c916004808301928692919082900301818387803b1580156107a657600080fd5b505af11580156107ba573d6000803e3d6000fd5b5050505061062b823333610add565b60006105317f000000000000000000000000000000000000000000000000000000000000000061084a565b60007f0000000000000000000000000000000000000000000000000000000000000000461461082557610531610fe2565b507f000000000000000000000000000000000000000000000000000000000000000090565b600354600090801561065657610651610861610497565b84908361107c565b600061087483610f94565b9050806108b65760405162461bcd60e51b815260206004820152600b60248201526a5a45524f5f53484152455360a81b60448201526064015b60405180910390fd5b6108eb6001600160a01b037f00000000000000000000000000000000000000000000000000000000000000001633308661109b565b6108f5828261112f565b60408051848152602081018390526001600160a01b0384169133917fdcbc1c05240f31ff3ad067ef1ee35ce4997762752e3a095284754544f4c709d791015b60405180910390a361062b565b600061094c83610abe565b90506109836001600160a01b037f00000000000000000000000000000000000000000000000000000000000000001633308461109b565b61098d828461112f565b60408051828152602081018590526001600160a01b0384169133917fdcbc1c05240f31ff3ad067ef1ee35ce4997762752e3a095284754544f4c709d79101610934565b6001805461054390611598565b60006109e98233610869565b9050600760009054906101000a90046001600160a01b03166001600160a01b031663af14052c6040518163ffffffff1660e01b8152600401600060405180830381600087803b158015610a3b57600080fd5b505af1158015610a4f573d6000803e3d6000fd5b50505050919050565b33600090815260046020526040812080548391908390610a79908490611581565b90915550506001600160a01b038316600081815260046020526040908190208054850190555133906000805160206115ea8339815191529061061f9086815260200190565b600354600090801561065657610651610ad5610497565b849083610fb4565b6000610ae884610631565b9050336001600160a01b03831614610b58576001600160a01b03821660009081526005602090815260408083203384529091529020546000198114610b5657610b318282611581565b6001600160a01b03841660009081526005602090815260408083203384529091529020555b505b610b628282611189565b826001600160a01b0316826001600160a01b03167ff341246adaac6f497bc2a656f546ab9e182111d630394f0c57c710a59a2cb5678684604051610bb0929190918252602082015260400190565b60405180910390a36106586001600160a01b037f00000000000000000000000000000000000000000000000000000000000000001684866111eb565b6001600160a01b0381166000818152600560209081526040808320338085529252822054919214801590610c2257506000198114155b15610c5657610c318582611581565b6001600160a01b03841660009081526005602090815260408083203384529091529020555b610c5f8561084a565b915081610c9c5760405162461bcd60e51b815260206004820152600b60248201526a5a45524f5f41535345545360a81b60448201526064016108ad565b610ca68386611189565b836001600160a01b0316836001600160a01b03167ff341246adaac6f497bc2a656f546ab9e182111d630394f0c57c710a59a2cb5678488604051610cf4929190918252602082015260400190565b60405180910390a3610d306001600160a01b037f00000000000000000000000000000000000000000000000000000000000000001685846111eb565b509392505050565b600061062b8261073f565b42841015610d935760405162461bcd60e51b815260206004820152601760248201527f5045524d49545f444541444c494e455f4558504952454400000000000000000060448201526064016108ad565b6000610d9d6107f4565b6001600160a01b0389811660008181526006602090815260409182902080546001810190915582517f6e71edae12b1b97f4d1f60370fef10105fa2faae0126114a169c64845d6126c98184015280840194909452938c166060840152608083018b905260a083019390935260c08083018a90528151808403909101815260e08301909152805192019190912061190160f01b6101008301526101028201929092526101228101919091526101420160408051601f198184030181528282528051602091820120600080855291840180845281905260ff88169284019290925260608301869052608083018590529092509060019060a0016020604051602081039080840390855afa158015610eb6573d6000803e3d6000fd5b5050604051601f1901519150506001600160a01b03811615801590610eec5750886001600160a01b0316816001600160a01b0316145b610f295760405162461bcd60e51b815260206004820152600e60248201526d24a72b20a624a22fa9a4a3a722a960911b60448201526064016108ad565b6001600160a01b0390811660009081526005602090815260408083208b8516808552908352928190208a905551898152919350918a16917f8c5be1e5ebec7d5bd14f71427d1e84f3dd0314c0f7b2291e5b200ac8c7c3b925910160405180910390a350505050505050565b60035460009080156106565761065181610fac610497565b85919061107c565b828202811515841585830485141716610fcc57600080fd5b6001826001830304018115150290509392505050565b60007f8b73c3c69bb8fe3d512ecc4cf759cc79239f7b179b0ffacaa9a75d522b39400f6000604051611014919061147b565b6040805191829003822060208301939093528101919091527fc89efdaa54c0f20c7adf612882df0950f5a951637e0307cdcb4c672f298b8bc660608201524660808201523060a082015260c00160405160208183030381529060405280519060200120905090565b82820281151584158583048514171661109457600080fd5b0492915050565b60006040516323b872dd60e01b81526001600160a01b03851660048201526001600160a01b038416602482015282604482015260008060648360008a5af19150506110e58161126a565b6111285760405162461bcd60e51b81526020600482015260146024820152731514905394d1915497d19493d357d1905253115160621b60448201526064016108ad565b5050505050565b80600360008282546111419190611569565b90915550506001600160a01b0382166000818152600460209081526040808320805486019055518481526000805160206115ea83398151915291015b60405180910390a35050565b6001600160a01b038216600090815260046020526040812080548392906111b1908490611581565b90915550506003805482900390556040518181526000906001600160a01b038416906000805160206115ea8339815191529060200161117d565b600060405163a9059cbb60e01b81526001600160a01b03841660048201528260248201526000806044836000895af19150506112268161126a565b6112645760405162461bcd60e51b815260206004820152600f60248201526e1514905394d1915497d19052531151608a1b60448201526064016108ad565b50505050565b60003d8261127c57806000803e806000fd5b80602081146112945780156112a557600092506112aa565b816000803e600051151592506112aa565b600192505b5050919050565b80356001600160a01b03811681146112c857600080fd5b919050565b6000602082840312156112de578081fd5b610658826112b1565b600080604083850312156112f9578081fd5b611302836112b1565b9150611310602084016112b1565b90509250929050565b60008060006060848603121561132d578081fd5b611336846112b1565b9250611344602085016112b1565b9150604084013590509250925092565b600080600080600080600060e0888a03121561136e578283fd5b611377886112b1565b9650611385602089016112b1565b95506040880135945060608801359350608088013560ff811681146113a8578384fd5b9699959850939692959460a0840135945060c09093013592915050565b600080604083850312156113d7578182fd5b6113e0836112b1565b946020939093013593505050565b6000602082840312156113ff578081fd5b5035919050565b600060208284031215611417578081fd5b5051919050565b60008060408385031215611430578182fd5b82359150611310602084016112b1565b600080600060608486031215611454578283fd5b83359250611464602085016112b1565b9150611472604085016112b1565b90509250925092565b600080835482600182811c91508083168061149757607f831692505b60208084108214156114b757634e487b7160e01b87526022600452602487fd5b8180156114cb57600181146114dc57611508565b60ff19861689528489019650611508565b60008a815260209020885b868110156115005781548b8201529085019083016114e7565b505084890196505b509498975050505050505050565b6000602080835283518082850152825b8181101561154257858101830151858201604001528201611526565b818111156115535783604083870101525b50601f01601f1916929092016040019392505050565b6000821982111561157c5761157c6115d3565b500190565b600082821015611593576115936115d3565b500390565b600181811c908216806115ac57607f821691505b602082108114156115cd57634e487b7160e01b600052602260045260246000fd5b50919050565b634e487b7160e01b600052601160045260246000fdfeddf252ad1be2c89b69c2b068fc378daa952ba7f163c4a11628f55a4df523b3efa26469706673582212207e9e7fcb8d957cc2583c32d4cc26501cf1af83a46615f8e3d21fb421c4b090ef64736f6c63430008040033",
    "linkReferences": {},
    "deployedLinkReferences": {}
}