{
    "_format": "hh-sol-artifact-1",
    "contractName": "VEToken",
    "sourceName": "contracts/tokens/veChedda.sol",
    "abi": [
        {
            "inputs": [
                {
                    "internalType": "address",
                    "name": "tokenAddr",
                    "type": "address"
                },
                {
                    "internalType": "string",
                    "name": "_name",
                    "type": "string"
                },
                {
                    "internalType": "string",
                    "name": "_symbol",
                    "type": "string"
                },
                {
                    "internalType": "string",
                    "name": "_version",
                    "type": "string"
                }
            ],
            "stateMutability": "nonpayable",
            "type": "constructor"
        },
        {
            "anonymous": false,
            "inputs": [
                {
                    "indexed": false,
                    "internalType": "address",
                    "name": "admin",
                    "type": "address"
                }
            ],
            "name": "ApplyOwnership",
            "type": "event"
        },
        {
            "anonymous": false,
            "inputs": [
                {
                    "indexed": false,
                    "internalType": "address",
                    "name": "admin",
                    "type": "address"
                }
            ],
            "name": "CommitOwnership",
            "type": "event"
        },
        {
            "anonymous": false,
            "inputs": [
                {
                    "indexed": true,
                    "internalType": "address",
                    "name": "provider",
                    "type": "address"
                },
                {
                    "indexed": false,
                    "internalType": "uint256",
                    "name": "value",
                    "type": "uint256"
                },
                {
                    "indexed": true,
                    "internalType": "uint256",
                    "name": "locktime",
                    "type": "uint256"
                },
                {
                    "indexed": false,
                    "internalType": "int128",
                    "name": "_type",
                    "type": "int128"
                },
                {
                    "indexed": false,
                    "internalType": "uint256",
                    "name": "ts",
                    "type": "uint256"
                }
            ],
            "name": "Deposit",
            "type": "event"
        },
        {
            "anonymous": false,
            "inputs": [
                {
                    "indexed": true,
                    "internalType": "address",
                    "name": "previousOwner",
                    "type": "address"
                },
                {
                    "indexed": true,
                    "internalType": "address",
                    "name": "newOwner",
                    "type": "address"
                }
            ],
            "name": "OwnershipTransferred",
            "type": "event"
        },
        {
            "anonymous": false,
            "inputs": [
                {
                    "indexed": false,
                    "internalType": "address",
                    "name": "account",
                    "type": "address"
                }
            ],
            "name": "Paused",
            "type": "event"
        },
        {
            "anonymous": false,
            "inputs": [
                {
                    "indexed": false,
                    "internalType": "address",
                    "name": "token",
                    "type": "address"
                },
                {
                    "indexed": false,
                    "internalType": "uint256",
                    "name": "amount",
                    "type": "uint256"
                }
            ],
            "name": "Recovered",
            "type": "event"
        },
        {
            "anonymous": false,
            "inputs": [
                {
                    "indexed": false,
                    "internalType": "uint256",
                    "name": "prevSupply",
                    "type": "uint256"
                },
                {
                    "indexed": false,
                    "internalType": "uint256",
                    "name": "supply",
                    "type": "uint256"
                }
            ],
            "name": "Supply",
            "type": "event"
        },
        {
            "anonymous": false,
            "inputs": [
                {
                    "indexed": false,
                    "internalType": "address",
                    "name": "account",
                    "type": "address"
                }
            ],
            "name": "Unpaused",
            "type": "event"
        },
        {
            "anonymous": false,
            "inputs": [
                {
                    "indexed": true,
                    "internalType": "address",
                    "name": "provider",
                    "type": "address"
                },
                {
                    "indexed": false,
                    "internalType": "uint256",
                    "name": "value",
                    "type": "uint256"
                },
                {
                    "indexed": false,
                    "internalType": "uint256",
                    "name": "ts",
                    "type": "uint256"
                }
            ],
            "name": "Withdraw",
            "type": "event"
        },
        {
            "inputs": [],
            "name": "CREATE_LOCK_TYPE",
            "outputs": [
                {
                    "internalType": "int128",
                    "name": "",
                    "type": "int128"
                }
            ],
            "stateMutability": "view",
            "type": "function"
        },
        {
            "inputs": [],
            "name": "DEPOSIT_FOR_TYPE",
            "outputs": [
                {
                    "internalType": "int128",
                    "name": "",
                    "type": "int128"
                }
            ],
            "stateMutability": "view",
            "type": "function"
        },
        {
            "inputs": [],
            "name": "INCREASE_LOCK_AMOUNT",
            "outputs": [
                {
                    "internalType": "int128",
                    "name": "",
                    "type": "int128"
                }
            ],
            "stateMutability": "view",
            "type": "function"
        },
        {
            "inputs": [],
            "name": "INCREASE_UNLOCK_TIME",
            "outputs": [
                {
                    "internalType": "int128",
                    "name": "",
                    "type": "int128"
                }
            ],
            "stateMutability": "view",
            "type": "function"
        },
        {
            "inputs": [],
            "name": "MAXTIME",
            "outputs": [
                {
                    "internalType": "uint256",
                    "name": "",
                    "type": "uint256"
                }
            ],
            "stateMutability": "view",
            "type": "function"
        },
        {
            "inputs": [],
            "name": "MULTIPLIER",
            "outputs": [
                {
                    "internalType": "uint256",
                    "name": "",
                    "type": "uint256"
                }
            ],
            "stateMutability": "view",
            "type": "function"
        },
        {
            "inputs": [],
            "name": "WEEK",
            "outputs": [
                {
                    "internalType": "uint256",
                    "name": "",
                    "type": "uint256"
                }
            ],
            "stateMutability": "view",
            "type": "function"
        },
        {
            "inputs": [],
            "name": "ZERO_ADDRESS",
            "outputs": [
                {
                    "internalType": "address",
                    "name": "",
                    "type": "address"
                }
            ],
            "stateMutability": "view",
            "type": "function"
        },
        {
            "inputs": [],
            "name": "admin",
            "outputs": [
                {
                    "internalType": "address",
                    "name": "",
                    "type": "address"
                }
            ],
            "stateMutability": "view",
            "type": "function"
        },
        {
            "inputs": [],
            "name": "applySmartWalletChecker",
            "outputs": [],
            "stateMutability": "nonpayable",
            "type": "function"
        },
        {
            "inputs": [],
            "name": "applyTransferOwnership",
            "outputs": [],
            "stateMutability": "nonpayable",
            "type": "function"
        },
        {
            "inputs": [
                {
                    "internalType": "address",
                    "name": "addr",
                    "type": "address"
                },
                {
                    "internalType": "uint256",
                    "name": "_t",
                    "type": "uint256"
                }
            ],
            "name": "balanceOf",
            "outputs": [
                {
                    "internalType": "uint256",
                    "name": "",
                    "type": "uint256"
                }
            ],
            "stateMutability": "view",
            "type": "function"
        },
        {
            "inputs": [
                {
                    "internalType": "address",
                    "name": "addr",
                    "type": "address"
                }
            ],
            "name": "balanceOf",
            "outputs": [
                {
                    "internalType": "uint256",
                    "name": "",
                    "type": "uint256"
                }
            ],
            "stateMutability": "view",
            "type": "function"
        },
        {
            "inputs": [
                {
                    "internalType": "address",
                    "name": "addr",
                    "type": "address"
                },
                {
                    "internalType": "uint256",
                    "name": "_block",
                    "type": "uint256"
                }
            ],
            "name": "balanceOfAt",
            "outputs": [
                {
                    "internalType": "uint256",
                    "name": "",
                    "type": "uint256"
                }
            ],
            "stateMutability": "view",
            "type": "function"
        },
        {
            "inputs": [
                {
                    "internalType": "address",
                    "name": "_newController",
                    "type": "address"
                }
            ],
            "name": "changeController",
            "outputs": [],
            "stateMutability": "nonpayable",
            "type": "function"
        },
        {
            "inputs": [
                {
                    "internalType": "address",
                    "name": "",
                    "type": "address"
                }
            ],
            "name": "checkpoint",
            "outputs": [],
            "stateMutability": "nonpayable",
            "type": "function"
        },
        {
            "inputs": [
                {
                    "internalType": "address",
                    "name": "addr",
                    "type": "address"
                }
            ],
            "name": "commitSmartWalletChecker",
            "outputs": [],
            "stateMutability": "nonpayable",
            "type": "function"
        },
        {
            "inputs": [
                {
                    "internalType": "address",
                    "name": "addr",
                    "type": "address"
                }
            ],
            "name": "commitTransferOwnership",
            "outputs": [],
            "stateMutability": "nonpayable",
            "type": "function"
        },
        {
            "inputs": [],
            "name": "controller",
            "outputs": [
                {
                    "internalType": "address",
                    "name": "",
                    "type": "address"
                }
            ],
            "stateMutability": "view",
            "type": "function"
        },
        {
            "inputs": [
                {
                    "internalType": "uint256",
                    "name": "_value",
                    "type": "uint256"
                },
                {
                    "internalType": "uint256",
                    "name": "_unlockTime",
                    "type": "uint256"
                }
            ],
            "name": "createLock",
            "outputs": [],
            "stateMutability": "nonpayable",
            "type": "function"
        },
        {
            "inputs": [],
            "name": "decimals",
            "outputs": [
                {
                    "internalType": "uint256",
                    "name": "",
                    "type": "uint256"
                }
            ],
            "stateMutability": "view",
            "type": "function"
        },
        {
            "inputs": [
                {
                    "internalType": "address",
                    "name": "_addr",
                    "type": "address"
                },
                {
                    "internalType": "uint256",
                    "name": "_value",
                    "type": "uint256"
                }
            ],
            "name": "depositFor",
            "outputs": [],
            "stateMutability": "nonpayable",
            "type": "function"
        },
        {
            "inputs": [],
            "name": "epoch",
            "outputs": [
                {
                    "internalType": "uint256",
                    "name": "",
                    "type": "uint256"
                }
            ],
            "stateMutability": "view",
            "type": "function"
        },
        {
            "inputs": [],
            "name": "futureAdmin",
            "outputs": [
                {
                    "internalType": "address",
                    "name": "",
                    "type": "address"
                }
            ],
            "stateMutability": "view",
            "type": "function"
        },
        {
            "inputs": [],
            "name": "futureSmartWalletChecker",
            "outputs": [
                {
                    "internalType": "address",
                    "name": "",
                    "type": "address"
                }
            ],
            "stateMutability": "view",
            "type": "function"
        },
        {
            "inputs": [
                {
                    "internalType": "address",
                    "name": "addr",
                    "type": "address"
                }
            ],
            "name": "getLastUserSlope",
            "outputs": [
                {
                    "internalType": "uint256",
                    "name": "",
                    "type": "uint256"
                }
            ],
            "stateMutability": "view",
            "type": "function"
        },
        {
            "inputs": [
                {
                    "internalType": "uint256",
                    "name": "_value",
                    "type": "uint256"
                }
            ],
            "name": "increaseAmount",
            "outputs": [],
            "stateMutability": "nonpayable",
            "type": "function"
        },
        {
            "inputs": [
                {
                    "internalType": "uint256",
                    "name": "_unlockTime",
                    "type": "uint256"
                }
            ],
            "name": "increaseUnlockTime",
            "outputs": [],
            "stateMutability": "nonpayable",
            "type": "function"
        },
        {
            "inputs": [
                {
                    "internalType": "address",
                    "name": "",
                    "type": "address"
                }
            ],
            "name": "locked",
            "outputs": [
                {
                    "internalType": "uint256",
                    "name": "amount",
                    "type": "uint256"
                },
                {
                    "internalType": "uint256",
                    "name": "end",
                    "type": "uint256"
                }
            ],
            "stateMutability": "view",
            "type": "function"
        },
        {
            "inputs": [
                {
                    "internalType": "address",
                    "name": "_addr",
                    "type": "address"
                }
            ],
            "name": "lockedAmount",
            "outputs": [
                {
                    "internalType": "uint256",
                    "name": "",
                    "type": "uint256"
                }
            ],
            "stateMutability": "view",
            "type": "function"
        },
        {
            "inputs": [
                {
                    "internalType": "address",
                    "name": "_addr",
                    "type": "address"
                }
            ],
            "name": "lockedEnd",
            "outputs": [
                {
                    "internalType": "uint256",
                    "name": "",
                    "type": "uint256"
                }
            ],
            "stateMutability": "view",
            "type": "function"
        },
        {
            "inputs": [],
            "name": "name",
            "outputs": [
                {
                    "internalType": "string",
                    "name": "",
                    "type": "string"
                }
            ],
            "stateMutability": "view",
            "type": "function"
        },
        {
            "inputs": [],
            "name": "owner",
            "outputs": [
                {
                    "internalType": "address",
                    "name": "",
                    "type": "address"
                }
            ],
            "stateMutability": "view",
            "type": "function"
        },
        {
            "inputs": [],
            "name": "pause",
            "outputs": [],
            "stateMutability": "nonpayable",
            "type": "function"
        },
        {
            "inputs": [],
            "name": "paused",
            "outputs": [
                {
                    "internalType": "bool",
                    "name": "",
                    "type": "bool"
                }
            ],
            "stateMutability": "view",
            "type": "function"
        },
        {
            "inputs": [
                {
                    "internalType": "uint256",
                    "name": "",
                    "type": "uint256"
                }
            ],
            "name": "pointHistory",
            "outputs": [
                {
                    "internalType": "uint256",
                    "name": "bias",
                    "type": "uint256"
                },
                {
                    "internalType": "uint256",
                    "name": "slope",
                    "type": "uint256"
                },
                {
                    "internalType": "uint256",
                    "name": "ts",
                    "type": "uint256"
                },
                {
                    "internalType": "uint256",
                    "name": "blk",
                    "type": "uint256"
                }
            ],
            "stateMutability": "view",
            "type": "function"
        },
        {
            "inputs": [
                {
                    "internalType": "address",
                    "name": "tokenAddress",
                    "type": "address"
                },
                {
                    "internalType": "uint256",
                    "name": "tokenAmount",
                    "type": "uint256"
                }
            ],
            "name": "recoverERC20",
            "outputs": [],
            "stateMutability": "nonpayable",
            "type": "function"
        },
        {
            "inputs": [],
            "name": "renounceOwnership",
            "outputs": [],
            "stateMutability": "nonpayable",
            "type": "function"
        },
        {
            "inputs": [
                {
                    "internalType": "uint256",
                    "name": "",
                    "type": "uint256"
                }
            ],
            "name": "slopeChanges",
            "outputs": [
                {
                    "internalType": "uint256",
                    "name": "",
                    "type": "uint256"
                }
            ],
            "stateMutability": "view",
            "type": "function"
        },
        {
            "inputs": [],
            "name": "smartWalletChecker",
            "outputs": [
                {
                    "internalType": "address",
                    "name": "",
                    "type": "address"
                }
            ],
            "stateMutability": "view",
            "type": "function"
        },
        {
            "inputs": [],
            "name": "supply",
            "outputs": [
                {
                    "internalType": "uint256",
                    "name": "",
                    "type": "uint256"
                }
            ],
            "stateMutability": "view",
            "type": "function"
        },
        {
            "inputs": [],
            "name": "symbol",
            "outputs": [
                {
                    "internalType": "string",
                    "name": "",
                    "type": "string"
                }
            ],
            "stateMutability": "view",
            "type": "function"
        },
        {
            "inputs": [],
            "name": "token",
            "outputs": [
                {
                    "internalType": "address",
                    "name": "",
                    "type": "address"
                }
            ],
            "stateMutability": "view",
            "type": "function"
        },
        {
            "inputs": [],
            "name": "totalSupply",
            "outputs": [
                {
                    "internalType": "uint256",
                    "name": "",
                    "type": "uint256"
                }
            ],
            "stateMutability": "view",
            "type": "function"
        },
        {
            "inputs": [
                {
                    "internalType": "uint256",
                    "name": "t",
                    "type": "uint256"
                }
            ],
            "name": "totalSupply",
            "outputs": [
                {
                    "internalType": "uint256",
                    "name": "",
                    "type": "uint256"
                }
            ],
            "stateMutability": "view",
            "type": "function"
        },
        {
            "inputs": [
                {
                    "internalType": "uint256",
                    "name": "_block",
                    "type": "uint256"
                }
            ],
            "name": "totalSupplyAt",
            "outputs": [
                {
                    "internalType": "uint256",
                    "name": "",
                    "type": "uint256"
                }
            ],
            "stateMutability": "view",
            "type": "function"
        },
        {
            "inputs": [
                {
                    "internalType": "address",
                    "name": "newOwner",
                    "type": "address"
                }
            ],
            "name": "transferOwnership",
            "outputs": [],
            "stateMutability": "nonpayable",
            "type": "function"
        },
        {
            "inputs": [],
            "name": "transfersEnabled",
            "outputs": [
                {
                    "internalType": "bool",
                    "name": "",
                    "type": "bool"
                }
            ],
            "stateMutability": "view",
            "type": "function"
        },
        {
            "inputs": [],
            "name": "unpause",
            "outputs": [],
            "stateMutability": "nonpayable",
            "type": "function"
        },
        {
            "inputs": [
                {
                    "internalType": "address",
                    "name": "",
                    "type": "address"
                }
            ],
            "name": "userPointEpoch",
            "outputs": [
                {
                    "internalType": "uint256",
                    "name": "",
                    "type": "uint256"
                }
            ],
            "stateMutability": "view",
            "type": "function"
        },
        {
            "inputs": [
                {
                    "internalType": "address",
                    "name": "",
                    "type": "address"
                },
                {
                    "internalType": "uint256",
                    "name": "",
                    "type": "uint256"
                }
            ],
            "name": "userPointHistory",
            "outputs": [
                {
                    "internalType": "uint256",
                    "name": "bias",
                    "type": "uint256"
                },
                {
                    "internalType": "uint256",
                    "name": "slope",
                    "type": "uint256"
                },
                {
                    "internalType": "uint256",
                    "name": "ts",
                    "type": "uint256"
                },
                {
                    "internalType": "uint256",
                    "name": "blk",
                    "type": "uint256"
                }
            ],
            "stateMutability": "view",
            "type": "function"
        },
        {
            "inputs": [
                {
                    "internalType": "address",
                    "name": "_addr",
                    "type": "address"
                },
                {
                    "internalType": "uint256",
                    "name": "_idx",
                    "type": "uint256"
                }
            ],
            "name": "userPointHistoryTS",
            "outputs": [
                {
                    "internalType": "uint256",
                    "name": "",
                    "type": "uint256"
                }
            ],
            "stateMutability": "view",
            "type": "function"
        },
        {
            "inputs": [],
            "name": "version",
            "outputs": [
                {
                    "internalType": "string",
                    "name": "",
                    "type": "string"
                }
            ],
            "stateMutability": "view",
            "type": "function"
        },
        {
            "inputs": [],
            "name": "withdraw",
            "outputs": [],
            "stateMutability": "nonpayable",
            "type": "function"
        }
    ],
    "bytecode": "0x60806040523480156200001157600080fd5b5060405162003260380380620032608339810160408190526200003491620003a7565b60016000819055805460ff191690556200004e33620001da565b6c050c783eb9b5c85f2a800000108054336001600160a01b031991821617909155600280549091166001600160a01b0386161790556200008b4390565b600955426008556c050c783eb9b5c85f2a80000009805460ff60a01b1933166001600160a81b031990911617600160a01b1790556040805163313ce56760e01b815290516000916001600160a01b0387169163313ce56791600481810192602092909190829003018186803b1580156200010457600080fd5b505afa15801562000119573d6000803e3d6000fd5b505050506040513d601f19601f820116820180604052508101906200013f919062000459565b60ff16905060ff81111562000158576200015862000485565b6c050c783eb9b5c85f2a8000000d81905583516200018a906c050c783eb9b5c85f2a8000000a90602087019062000234565b508251620001ac906c050c783eb9b5c85f2a8000000b90602086019062000234565b508151620001ce906c050c783eb9b5c85f2a8000000c90602085019062000234565b505050505050620004d8565b600180546001600160a01b03838116610100818102610100600160a81b031985161790945560405193909204169182907f8be0079c531659141344cd1fd0a4f28419497f9722a3daafe3b4186f6b6457e090600090a35050565b82805462000242906200049b565b90600052602060002090601f016020900481019282620002665760008555620002b1565b82601f106200028157805160ff1916838001178555620002b1565b82800160010185558215620002b1579182015b82811115620002b157825182559160200191906001019062000294565b50620002bf929150620002c3565b5090565b5b80821115620002bf5760008155600101620002c4565b634e487b7160e01b600052604160045260246000fd5b600082601f8301126200030257600080fd5b81516001600160401b03808211156200031f576200031f620002da565b604051601f8301601f19908116603f011681019082821181831017156200034a576200034a620002da565b816040528381526020925086838588010111156200036757600080fd5b600091505b838210156200038b57858201830151818301840152908201906200036c565b838211156200039d5760008385830101525b9695505050505050565b60008060008060808587031215620003be57600080fd5b84516001600160a01b0381168114620003d657600080fd5b60208601519094506001600160401b0380821115620003f457600080fd5b6200040288838901620002f0565b945060408701519150808211156200041957600080fd5b6200042788838901620002f0565b935060608701519150808211156200043e57600080fd5b506200044d87828801620002f0565b91505092959194509250565b6000602082840312156200046c57600080fd5b815160ff811681146200047e57600080fd5b9392505050565b634e487b7160e01b600052600160045260246000fd5b600181811c90821680620004b057607f821691505b60208210811415620004d257634e487b7160e01b600052602260045260246000fd5b50919050565b612d7880620004e86000396000f3fe608060405234801561001057600080fd5b50600436106103415760003560e01c806381fc83bb116101b8578063cbf9fe5f11610104578063f2fde38b116100a2578063f52a36f71161007c578063f52a36f714610746578063f77c479114610772578063f851a44014610791578063fc0c546a146107b057600080fd5b8063f2fde38b14610716578063f3a6d60814610729578063f4359ce51461073c57600080fd5b8063df0ab9d3116100de578063df0ab9d3146106dd578063e1cebf0b146106e5578063ee00ef3a146106f8578063f08185831461070357600080fd5b8063cbf9fe5f14610691578063d28d5944146106cd578063d4cfd627146106d557600080fd5b806395d89b4111610171578063a972985e1161014b578063a972985e14610638578063b52c05fe1461064b578063bd85b0391461065e578063bef97c871461067157600080fd5b806395d89b41146105f4578063981b24d0146105fc578063a153e7081461060f57600080fd5b806381fc83bb1461057b5780638456cb59146105a75780638980f11f146105af5780638ad4c447146105c25780638da5cb5b146105d5578063900cf0cf146105eb57600080fd5b80633f4ba83a1161029257806355ee2d9411610230578063715018a61161020a578063715018a6146105395780637b39ecd5146105415780637c616fe6146105495780637df148541461055c57600080fd5b806355ee2d94146104fc5780635c975abb1461050f57806370a082311461052657600080fd5b80634deafcae1161026c5780634deafcae146104ad5780634ee2cd7e146104d9578063538ba4f9146104ec57806354fd4d50146104f457600080fd5b80633f4ba83a1461047e5780634cb654af146104865780634d144a01146104a557600080fd5b806318160ddd116102ff57806334d901a4116102d957806334d901a4146104155780633a0af6bf146104485780633ccfd60b146104635780633cebb8231461046b57600080fd5b806318160ddd146103e55780632f4f21e2146103ed578063313ce5671461040057600080fd5b8062fdd58e14610346578063047fc9aa1461036c578063059f8b161461037557806306fdde031461038457806315456eba14610399578063155bcbbd146103ae575b600080fd5b610359610354366004612a74565b6107c3565b6040519081526020015b60405180910390f35b61035960035481565b610359670de0b6b3a764000081565b61038c6108be565b6040516103639190612a9e565b6103ac6103a7366004612af3565b610958565b005b6c050c783eb9b5c85f2a8000000e546103cd906001600160a01b031681565b6040516001600160a01b039091168152602001610363565b610359610a88565b6103ac6103fb366004612a74565b610a98565b6103596c050c783eb9b5c85f2a8000000d5481565b610428610423366004612a74565b610bf1565b604080519485526020850193909352918301526060820152608001610363565b610450600281565b604051600f9190910b8152602001610363565b6103ac610c3a565b6103ac610479366004612b0c565b610e74565b6103ac610f08565b6c050c783eb9b5c85f2a80000011546103cd906001600160a01b031681565b610450600081565b6103596104bb366004612b0c565b6001600160a01b031660009081526005602052604090206001015490565b6103596104e7366004612a74565b610f8b565b6103cd600081565b61038c6112c6565b61035961050a366004612a74565b6112df565b60015460ff165b6040519015158152602001610363565b610359610534366004612b0c565b611327565b6103ac611333565b610450600381565b6103ac610557366004612af3565b61136d565b6c050c783eb9b5c85f2a8000000f546103cd906001600160a01b031681565b610359610589366004612b0c565b6c050c783eb9b5c85f2a800000076020526000908152604090205481565b6103ac611525565b6103ac6105bd366004612a74565b6115a3565b6104286105d0366004612af3565b6116b2565b60015461010090046001600160a01b03166103cd565b61035960045481565b61038c6116eb565b61035961060a366004612af3565b611704565b61035961061d366004612b0c565b6001600160a01b031660009081526005602052604090205490565b6103ac610646366004612b0c565b6118f6565b6103ac610659366004612b2e565b611953565b61035961066c366004612af3565b611afb565b6c050c783eb9b5c85f2a800000095461051690600160a01b900460ff1681565b6106b861069f366004612b0c565b6005602052600090815260409020805460019091015482565b60408051928352602083019190915201610363565b610450600181565b6103ac611b6b565b6103ac611bdd565b6103ac6106f3366004612b0c565b611c99565b6103596305a39a8081565b6103ac610711366004612b0c565b611d29565b6103ac610724366004612b0c565b611d8d565b610359610737366004612b0c565b611e2b565b61035962093a8081565b610359610754366004612af3565b6c050c783eb9b5c85f2a800000086020526000908152604090205481565b6c050c783eb9b5c85f2a80000009546103cd906001600160a01b031681565b6c050c783eb9b5c85f2a80000010546103cd906001600160a01b031681565b6002546103cd906001600160a01b031681565b6001600160a01b03821660009081526c050c783eb9b5c85f2a800000076020526040812054806107f75760009150506108b8565b6001600160a01b03841660009081526c050c783eb9b5c85f2a800000066020526040812082633b9aca00811061082f5761082f612b50565b60408051608081018252600492909202929092018054825260018101546020830152600281015492820183905260030154606082015291506000906108749086612b7c565b82602001516108839190612b93565b825190915081116108a85780826000018181516108a09190612b7c565b9052506108ad565b600082525b505191506108b89050565b92915050565b6c050c783eb9b5c85f2a8000000a80546108d790612bb2565b80601f016020809104026020016040519081016040528092919081815260200182805461090390612bb2565b80156109505780601f1061092557610100808354040283529160200191610950565b820191906000526020600020905b81548152906001019060200180831161093357829003601f168201915b505050505081565b600260005414156109845760405162461bcd60e51b815260040161097b90612bed565b60405180910390fd5b600260005561099233611e8a565b336000908152600560209081526040918290208251808401909352805483526001015490820152816109d65760405162461bcd60e51b815260040161097b90612c24565b8051610a1d5760405162461bcd60e51b8152602060048201526016602482015275139bc8195e1a5cdd1a5b99c81b1bd8dac8199bdd5b9960521b604482015260640161097b565b42816020015111610a705760405162461bcd60e51b815260206004820152601b60248201527f43616e6e6f742061646420746f2065787069726564206c6f636b2e0000000000604482015260640161097b565b610a7f33836000846002611f7c565b50506001600055565b6000610a9342611afb565b905090565b60026000541415610abb5760405162461bcd60e51b815260040161097b90612bed565b600260009081556001600160a01b038316815260056020908152604091829020825180840190935280548352600101549082015281610b0c5760405162461bcd60e51b815260040161097b90612c24565b8051610b535760405162461bcd60e51b8152602060048201526016602482015275139bc8195e1a5cdd1a5b99c81b1bd8dac8199bdd5b9960521b604482015260640161097b565b42816020015111610ba65760405162461bcd60e51b815260206004820152601a60248201527f43616e6e6f742061646420746f2065787069726564206c6f636b000000000000604482015260640161097b565b6001600160a01b03831660009081526005602090815260408083208151808301909252805482526001015491810191909152610be791859185919081611f7c565b5050600160005550565b6c050c783eb9b5c85f2a8000000660205281600052604060002081633b9aca008110610c1c57600080fd5b60040201805460018201546002830154600390930154919450925084565b60026000541415610c5d5760405162461bcd60e51b815260040161097b90612bed565b6002600090815533815260056020908152604091829020825180840190935280548352600101549082018190524290811015610cd45760405162461bcd60e51b8152602060048201526016602482015275546865206c6f636b206469646e27742065787069726560501b604482015260640161097b565b815160006020808501828152828652338352600590915260409091208451815590516001909101556003548390610d0b8382612b7c565b600355610d19338387612126565b60025460405163a9059cbb60e01b8152336004820152602481018590526001600160a01b039091169063a9059cbb90604401602060405180830381600087803b158015610d6557600080fd5b505af1158015610d79573d6000803e3d6000fd5b505050506040513d601f19601f82011682018060405250810190610d9d9190612c51565b610de95760405162461bcd60e51b815260206004820152601860248201527f5645546f6b656e3a205472616e73666572206661696c65640000000000000000604482015260640161097b565b604080518481526020810186905233917ff279e6a1f5e320cca91135676d9cb6e44ca8a08c0b88342bcdb1144f6511b568910160405180910390a27f5e2aa66efd74cce82b21852e317e5490d9ecc9e6bb953ae24d90851258cc2f5c81610e508582612b7c565b6040805192835260208301919091520160405180910390a150506001600055505050565b6c050c783eb9b5c85f2a80000009546001600160a01b03163314610eda5760405162461bcd60e51b815260206004820152601760248201527f5645546f6b656e3a206e6f7420636f6e74726f6c6c6572000000000000000000604482015260640161097b565b6c050c783eb9b5c85f2a8000000980546001600160a01b0319166001600160a01b0392909216919091179055565b6001546001600160a01b03610100909104163314610f385760405162461bcd60e51b815260040161097b90612c73565b60015460ff16610f815760405162461bcd60e51b815260206004820152601460248201527314185d5cd8589b194e881b9bdd081c185d5cd95960621b604482015260640161097b565b610f8961263c565b565b600043821115610fd15760405162461bcd60e51b815260206004820152601160248201527056453a20496e76616c696420626c6f636b60781b604482015260640161097b565b6001600160a01b03831660009081526c050c783eb9b5c85f2a800000076020526040812054815b60808110156110a35781831061100d576110a3565b6000600261101b8486612ca8565b611026906001612ca8565b6110309190612cc0565b6001600160a01b03881660009081526c050c783eb9b5c85f2a8000000660205260409020909150869082633b9aca00811061106d5761106d612b50565b60040201600301541161108257809350611090565b61108d600182612b7c565b92505b508061109b81612ce2565b915050610ff8565b506001600160a01b03851660009081526c050c783eb9b5c85f2a800000066020526040812083633b9aca0081106110dc576110dc612b50565b60408051608081018252600492830293909301805484526001810154602085015260028101549184019190915260030154606083015254909150600061112287836126cf565b90506000600682680a18f07d736b90be55601d1b811061114457611144612b50565b6004020160405180608001604052908160008201548152602001600182015481526020016002820154815260200160038201548152505090506000808484101561121d5760006006611197866001612ca8565b680a18f07d736b90be55601d1b81106111b2576111b2612b50565b600402016040518060800160405290816000820154815260200160018201548152602001600282015481526020016003820154815250509050836060015181606001516111ff9190612b7c565b9250836040015181604001516112159190612b7c565b915050611247565b606083015161122c9043612b7c565b9150826040015161123a4290565b6112449190612b7c565b90505b60408301518215611284578284606001518c6112639190612b7c565b61126d9084612b93565b6112779190612cc0565b6112819082612ca8565b90505b60408701516112939082612b7c565b87602001516112a29190612b93565b875188906112b1908390612b7c565b9052505050935196506108b895505050505050565b6c050c783eb9b5c85f2a8000000c80546108d790612bb2565b6001600160a01b03821660009081526c050c783eb9b5c85f2a800000066020526040812082633b9aca00811061131757611317612b50565b6004020160020154905092915050565b60006108b882426107c3565b6001546001600160a01b036101009091041633146113635760405162461bcd60e51b815260040161097b90612c73565b610f89600061276e565b600260005414156113905760405162461bcd60e51b815260040161097b90612bed565b600260005561139e33611e8a565b33600090815260056020908152604080832081518083019092528054825260010154918101919091529062093a806113d68185612cc0565b6113e09190612b93565b9050428260200151116114245760405162461bcd60e51b815260206004820152600c60248201526b131bd8dac8195e1c1a5c995960a21b604482015260640161097b565b81516114665760405162461bcd60e51b8152602060048201526011602482015270139bdd1a1a5b99c81a5cc81b1bd8dad959607a1b604482015260640161097b565b816020015181116114b95760405162461bcd60e51b815260206004820152601f60248201527f43616e206f6e6c7920696e637265617365206c6f636b206475726174696f6e00604482015260640161097b565b6114c76305a39a8042612ca8565b8111156115165760405162461bcd60e51b815260206004820152601e60248201527f566f74696e67206c6f636b2063616e2062652033207965617273206d61780000604482015260640161097b565b610be733600083856003611f7c565b6001546001600160a01b036101009091041633146115555760405162461bcd60e51b815260040161097b90612c73565b60015460ff161561159b5760405162461bcd60e51b815260206004820152601060248201526f14185d5cd8589b194e881c185d5cd95960821b604482015260640161097b565b610f896127c8565b6c050c783eb9b5c85f2a80000010546001600160a01b031633146115d95760405162461bcd60e51b815260040161097b90612cfd565b6c050c783eb9b5c85f2a800000105460405163a9059cbb60e01b81526001600160a01b039182166004820152602481018390529083169063a9059cbb90604401602060405180830381600087803b15801561163357600080fd5b505af1158015611647573d6000803e3d6000fd5b505050506040513d601f19601f8201168201806040525081019061166b9190612c51565b50604080516001600160a01b0384168152602081018390527f8c1256b8896378cd5044f80c202f9772b9d77dc85c8a6eb51967210b09bfaa28910160405180910390a15050565b600681680a18f07d736b90be55601d1b81106116cd57600080fd5b60040201805460018201546002830154600390930154919350919084565b6c050c783eb9b5c85f2a8000000b80546108d790612bb2565b60004382111561174a5760405162461bcd60e51b815260206004820152601160248201527056453a20496e76616c696420626c6f636b60781b604482015260640161097b565b600454600061175984836126cf565b90506000600682680a18f07d736b90be55601d1b811061177b5761177b612b50565b60040201604051806080016040529081600082015481526020016001820154815260200160028201548152602001600382015481525050905060008383101561188457600060066117cd856001612ca8565b680a18f07d736b90be55601d1b81106117e8576117e8612b50565b600402016040518060800160405290816000820154815260200160018201548152602001600282015481526020016003820154815250509050806060015183606001511461187e57826060015181606001516118449190612b7c565b836040015182604001516118589190612b7c565b6060850151611867908a612b7c565b6118719190612b93565b61187b9190612cc0565b91505b506118d3565b438260600151146118d357606082015161189e9043612b7c565b60408301516118ad9042612b7c565b60608401516118bc9089612b7c565b6118c69190612b93565b6118d09190612cc0565b90505b6118ec828284604001516118e79190612ca8565b612841565b9695505050505050565b61195060006119266040805180820182526000808252602091820181905282518084019093528083529082015290565b60408051808201825260008082526020918201819052825180840190935280835290820152612126565b50565b600260005414156119765760405162461bcd60e51b815260040161097b90612bed565b600260005561198433611e8a565b42600062093a806119958185612cc0565b61199f9190612b93565b336000908152600560209081526040918290208251808401909352805483526001015490820152909150846119e65760405162461bcd60e51b815260040161097b90612c24565b805115611a355760405162461bcd60e51b815260206004820152601960248201527f5769746864726177206f6c6420746f6b656e7320666972737400000000000000604482015260640161097b565b828211611a845760405162461bcd60e51b815260206004820152601a60248201527f556e6c6f636b2074696d65206d75737420626520667574757265000000000000604482015260640161097b565b611a926305a39a8084612ca8565b821115611ae15760405162461bcd60e51b815260206004820152601e60248201527f566f74696e67206c6f636b2063616e2062652033207965617273206d61780000604482015260640161097b565b611aef338684846001611f7c565b50506001600055505050565b60045460009081600682680a18f07d736b90be55601d1b8110611b2057611b20612b50565b600402016040518060800160405290816000820154815260200160018201548152602001600282015481526020016003820154815250509050611b638185612841565b949350505050565b6c050c783eb9b5c85f2a80000010546001600160a01b03163314611ba15760405162461bcd60e51b815260040161097b90612cfd565b6c050c783eb9b5c85f2a8000000e546c050c783eb9b5c85f2a8000000f80546001600160a01b0319166001600160a01b03909216919091179055565b6c050c783eb9b5c85f2a80000010546001600160a01b03163314611c135760405162461bcd60e51b815260040161097b90612cfd565b6c050c783eb9b5c85f2a80000011546001600160a01b031680611c3857611c38612d2c565b6c050c783eb9b5c85f2a8000001080546001600160a01b0319166001600160a01b0383169081179091556040519081527febee2d5739011062cb4f14113f3b36bf0ffe3da5c0568f64189d1012a1189105906020015b60405180910390a150565b6c050c783eb9b5c85f2a80000010546001600160a01b03163314611ccf5760405162461bcd60e51b815260040161097b90612cfd565b6c050c783eb9b5c85f2a8000001180546001600160a01b0319166001600160a01b0383169081179091556040519081527f2f56810a6bf40af059b96d3aea4db54081f378029a518390491093a7b67032e990602001611c8e565b6c050c783eb9b5c85f2a80000010546001600160a01b03163314611d5f5760405162461bcd60e51b815260040161097b90612cfd565b6c050c783eb9b5c85f2a8000000e80546001600160a01b0319166001600160a01b0392909216919091179055565b6001546001600160a01b03610100909104163314611dbd5760405162461bcd60e51b815260040161097b90612c73565b6001600160a01b038116611e225760405162461bcd60e51b815260206004820152602660248201527f4f776e61626c653a206e6577206f776e657220697320746865207a65726f206160448201526564647265737360d01b606482015260840161097b565b6119508161276e565b6001600160a01b03811660009081526c050c783eb9b5c85f2a8000000760209081526040808320546c050c783eb9b5c85f2a80000006909252822081633b9aca008110611e7a57611e7a612b50565b6004020160010154915050919050565b6001600160a01b0381163214611950576c050c783eb9b5c85f2a8000000f546001600160a01b03168015611f3c57604051631846d2f560e31b81526001600160a01b03838116600483015282169063c23697a890602401602060405180830381600087803b158015611efb57600080fd5b505af1158015611f0f573d6000803e3d6000fd5b505050506040513d601f19601f82011682018060405250810190611f339190612c51565b15611f3c575050565b60405162461bcd60e51b815260206004820152601560248201527411195c1bdcda5d1bdc881b9bdd08185b1b1bddd959605a1b604482015260640161097b565b6003548290611f8b8682612ca8565b6003558151829087908290611fa1908390612ca8565b9052508515611fb257602083018690525b6001600160a01b03881660009081526005602090815260409091208451815590840151600190910155611fe6888285612126565b8615612084576002546040516323b872dd60e01b81526001600160a01b038a81166004830152306024830152604482018a9052909116906323b872dd90606401602060405180830381600087803b15801561204057600080fd5b505af1158015612054573d6000803e3d6000fd5b505050506040513d601f19601f820116820180604052508101906120789190612c51565b61208457612084612d2c565b60208301516001600160a01b0389167f4566dfc29f6f11d13a418c26a02bef7c28bae749d4de47e4e6a7cddea6730d5989874260408051938452600f9290920b60208401529082015260600160405180910390a37f5e2aa66efd74cce82b21852e317e5490d9ecc9e6bb953ae24d90851258cc2f5c826121048982612ca8565b6040805192835260208301919091520160405180910390a15050505050505050565b600061213061292a565b9050600061213c61292a565b60045490915060009081906001600160a01b0388161561225e574287602001511180156121695750865115155b156121a657865161217f906305a39a8090612cc0565b60208601524287602001516121949190612b7c565b85602001516121a39190612b93565b85525b4286602001511180156121b95750855115155b156121f65785516121cf906305a39a8090612cc0565b60208501524286602001516121e49190612b7c565b84602001516121f39190612b93565b84525b60208088015160009081526c050c783eb9b5c85f2a8000000882526040902054908701519093501561225e5786602001518660200151141561223a5782915061225e565b60208087015160009081526c050c783eb9b5c85f2a80000008909152604090205491505b6000604051806080016040528060008152602001600081526020016122804290565b8152602001439052905081156122e857600682680a18f07d736b90be55601d1b81106122ae576122ae612b50565b6004020160405180608001604052908160008201548152602001600182015481526020016002820154815260200160038201548152505090505b6040810151816000824211156123355760408401516123079042612b7c565b60608501516123169043612b7c565b61232890670de0b6b3a7640000612b93565b6123329190612cc0565b90505b600062093a806123458186612cc0565b61234f9190612b93565b905060005b60ff8110156124ab5761236a62093a8083612ca8565b915060004283111561237e5742925061239b565b5060008281526c050c783eb9b5c85f2a8000000860205260409020545b6123a58684612b7c565b87602001516123b49190612b93565b875188906123c3908390612b7c565b9052506020870180518291906123da908390612ca8565b90525060408088018490528501519295508592670de0b6b3a7640000906124019085612b7c565b61240b9086612b93565b6124159190612cc0565b85606001516124249190612ca8565b6060880152612434600189612ca8565b97504283141561244a57436060880152506124ab565b86600689680a18f07d736b90be55601d1b811061246957612469612b50565b600402016000820151816000015560208201518160010155604082015181600201556060820151816003015590505050806124a381612ce2565b915050612354565b5060048690556001600160a01b038d161561250957896020015189602001516124d49190612b7c565b856020018181516124e59190612ca8565b905250895189516124f69190612b7c565b85518690612505908390612ca8565b9052505b84600687680a18f07d736b90be55601d1b811061252857612528612b50565b82516004919091029190910190815560208201516001820155604082015160028201556060909101516003909101556001600160a01b038d161561262d57428c6020015111156125c95760208a01516125819089612ca8565b97508b602001518b6020015114156125a55760208901516125a29089612b7c565b97505b6020808d015160009081526c050c783eb9b5c85f2a80000008909152604090208890555b428b60200151111561261a578b602001518b60200151111561261a5760208901516125f49088612b7c565b6020808d015160009081526c050c783eb9b5c85f2a800000089091526040902081905596505b61262d8d8a600001518b6020015161297f565b50505050505050505050505050565b60015460ff166126855760405162461bcd60e51b815260206004820152601460248201527314185d5cd8589b194e881b9bdd081c185d5cd95960621b604482015260640161097b565b6001805460ff191690557f5db9ee0a495bf2e6ff9c91a7834c1ba4fdd244a5e8aa4e537bd38aeae4b073aa335b6040516001600160a01b03909116815260200160405180910390a1565b60008082815b6080811015612764578183106126ea57612764565b600060026126f88486612ca8565b612703906001612ca8565b61270d9190612cc0565b905086600682680a18f07d736b90be55601d1b811061272e5761272e612b50565b60040201600301541161274357809350612751565b61274e600182612b7c565b92505b508061275c81612ce2565b9150506126d5565b5090949350505050565b600180546001600160a01b03838116610100818102610100600160a81b031985161790945560405193909204169182907f8be0079c531659141344cd1fd0a4f28419497f9722a3daafe3b4186f6b6457e090600090a35050565b60015460ff161561280e5760405162461bcd60e51b815260206004820152601060248201526f14185d5cd8589b194e881c185d5cd95960821b604482015260640161097b565b6001805460ff1916811790557f62e78cea01bee320cd4e420270b5ea74000d11b0c9f74754ebdbfc544b05a258336126b2565b600080839050600062093a8080836040015161285d9190612cc0565b6128679190612b93565b905060005b60ff8110156129205761288262093a8083612ca8565b9150600085831115612896578592506128b3565b5060008281526c050c783eb9b5c85f2a8000000860205260409020545b60408401516128c29084612b7c565b84602001516128d19190612b93565b845185906128e0908390612b7c565b905250828614156128f15750612920565b80846020018181516129039190612ca8565b90525050604083018290528061291881612ce2565b91505061286c565b5050519392505050565b6129556040518060800160405280600081526020016000815260200160008152602001600081525090565b60405180608001604052806000815260200160008152602001600081526020016000815250905090565b6001600160a01b03831660009081526c050c783eb9b5c85f2a8000000760205260408120546129af906001612ca8565b6001600160a01b03851660008181526c050c783eb9b5c85f2a8000000760209081526040808320859055805160808101825288815280830188905242818301524360608201529383526c050c783eb9b5c85f2a8000000690915290209192509082633b9aca008110612a2357612a23612b50565b600402016000820151816000015560208201518160010155604082015181600201556060820151816003015590505050505050565b80356001600160a01b0381168114612a6f57600080fd5b919050565b60008060408385031215612a8757600080fd5b612a9083612a58565b946020939093013593505050565b600060208083528351808285015260005b81811015612acb57858101830151858201604001528201612aaf565b81811115612add576000604083870101525b50601f01601f1916929092016040019392505050565b600060208284031215612b0557600080fd5b5035919050565b600060208284031215612b1e57600080fd5b612b2782612a58565b9392505050565b60008060408385031215612b4157600080fd5b50508035926020909101359150565b634e487b7160e01b600052603260045260246000fd5b634e487b7160e01b600052601160045260246000fd5b600082821015612b8e57612b8e612b66565b500390565b6000816000190483118215151615612bad57612bad612b66565b500290565b600181811c90821680612bc657607f821691505b60208210811415612be757634e487b7160e01b600052602260045260246000fd5b50919050565b6020808252601f908201527f5265656e7472616e637947756172643a207265656e7472616e742063616c6c00604082015260600190565b6020808252601390820152726e656564206e6f6e2d7a65726f2076616c756560681b604082015260600190565b600060208284031215612c6357600080fd5b81518015158114612b2757600080fd5b6020808252818101527f4f776e61626c653a2063616c6c6572206973206e6f7420746865206f776e6572604082015260600190565b60008219821115612cbb57612cbb612b66565b500190565b600082612cdd57634e487b7160e01b600052601260045260246000fd5b500490565b6000600019821415612cf657612cf6612b66565b5060010190565b6020808252601590820152742cb7ba9030b932903737ba103a34329030b236b4b760591b604082015260600190565b634e487b7160e01b600052600160045260246000fdfea26469706673582212209df7300d05f02d381bc674a64c6b5c678b8e3da58b0b518d977e6fd954fe4aac64736f6c63430008090033",
    "linkReferences": {},
    "deployedLinkReferences": {}
}